:10000000010000000D900D90F4BD00000100000003
:100010000010200056DC648D00000000000000008D
:1000200000000000000000000000000000000000D0
:100030000000000000000000000000000D900D9086
:10004000A55A0000002020080000008000000000E9
:1000500000000000000000000000000000000000A0
:100060000000000000000000000000000000000090
:100070000000000000000000000000000000000080
:100080000000000000000000000000000000000070
:10100000F04A000015282008C9272008C927200811
:10101000C9272008C9272008C92720080000000088
:10102000000000000000000000000000C9272008A8
:10103000C927200800000000C9272008C927200868
:10104000C9272008C9272008C9272008C927200840
:10105000C9272008C9272008C9272008C927200830
:10106000C9272008C9272008790500007D4E2008DF
:10107000B9302008C9272008C9272008C927200817
:10108000C9272008C9272008C9272008C927200800
:10109000C9272008C9272008C9272008C9272008F0
:1010A000C9272008C9272008C9272008C9272008E0
:1010B000C9272008C9272008F04A0000C9272008AE
:1010C00015282008D1040000C9272008C9272008B6
:1010D000C9272008C9272008A1302008AD302008E2
:1010E00045272008C9272008C92720081D59B769A6
:1010F000C9272008C9272008C9272008C927200890
:10110000A57A2008C9272008C9272008C927200850
:10111000C9272008C9272008C9272008C92720086F
:10112000C9272008C9272008C9272008C92720085F
:10113000C9272008C9272008C9272008C92720084F
:10114000C9272008C9272008C9272008C92720083F
:10115000C9272008C9272008C9272008C92720082F
:10116000C9272008C9272008C92720080000000037
:10117000000000000000000000000000000000006F
:101180000348044B834202D0034B03B11847704716
:10119000D40B0000D40B0000000000000548064BF3
:1011A0001B1AD90F01EBA301491002D0034B03B165
:1011B00018477047D40B0000D40B0000000000005B
:1011C00010B5064C237843B9FFF7DAFF044B13B18F
:1011D0000448AFF300800123237010BDD40B00003E
:1011E00000000000D0BA200808B5054B1BB1054926
:1011F0000548AFF30080BDE80840FFF7CFBF00BF50
:1012000000000000D80B0000D0BA200800F056B84B
:1012100000F0DCB808B500F032F9FFF7F7FF00F096
:101220004AF9FFF7F5FFFAE7092841D8DFE800F0AF
:10123000050B11171D23292F353B1E4A012313705F
:101240001D4A137070471B4A012313701A4A5370CA
:101250007047184A01231370174A93707047154A54
:1012600001231370144AD3707047124A012313707C
:10127000114A137170470F4A012313700E4A5371BC
:1012800070470C4A012313700B4A93717047094A47
:1012900001231370084AD3717047064A0123137063
:1012A000054A13727047034A01231370024A5372AE
:1012B000704700BF0C000000F00B000073B505F094
:1012C0009DFAC0F307238DF80000C0F307408DF8A6
:1012D0000200304E30488DF80130304D06F058FF96
:1012E0009DF802309DF801209DF800102C4806F072
:1012F000E7FE304605F04AFB284605F047FB04466A
:1013000030B10146274802B0BDE8704006F0D8BEB3
:10131000254806F03DFF32782146204605F09EFA2A
:1013200021462A78204605F099FA014608B11F485F
:10133000E9E71F4806F02CFF01213278084605F046
:10134000E3FA012104462A78084605F0DDFA14B1D3
:1013500018482146D7E7184806F01AFF174B0193A3
:10136000012101A805F0B4FA014620B1144806F0A5
:10137000A7FE02B070BD307805F082FB287805F03A
:101380007FFB014608B10F48F1E70F4806F000FF68
:10139000EFE700BF2800000050B320083C00000029
:1013A00075B320088EB32008BEB32008E3B320082D
:1013B00010B4200840B4200871B420082922200865
:1013C000A6B42008D5B42008F9B42008F8B50B4D10
:1013D0002B7893B10A480B4E0B4F06F0D9FE002430
:1013E00016F8013B012B03D12146384606F068FE72
:1013F00001340A2CF4D100232B70F8BD0C0000003E
:1014000018B52008F00B000041B520087047704760
:101410007047704708B504F03BF800F057F8BDE896
:10142000084000F03BBB704700F008B870477047B9
:1014300070477047704770477047000008B505480F
:1014400005F088F9044805F085F9BDE8084003482F
:1014500005F080B91D000000150000000D0000001F
:101460007047704708B5FFF7D5FFFFF7DDFFFFF7BF
:10147000DDFFFFF7DCFFBDE80840FFF7D9BF08B587
:10148000FFF7EEFF00F0D2F9FFF7EBFF00F007F8EF
:10149000FFF7C9FFBDE80840FFF7E4BF704708B594
:1014A000FFF7B4FFFFF7B3FFFFF7B2FFFFF7B1FF9E
:1014B000FFF7F4FF08BD08B5FFF7BBFFFFF7BAFF62
:1014C000FFF7B9FFBDE80840FFF7B6BF70B5134C92
:1014D000134D23685E6C0023194628460222B0474C
:1014E00023681E680023194602222846B047236855
:1014F0000C4DD3F8C0300520984723685E6C00235C
:10150000194628460A22B04723681C68002328464B
:10151000A4460A22BDE87040194660470001300029
:1015200000C004240000134630B5114B93F8583026
:10153000013BDBB2FD2B8FB018D80E4D0FCD6C46A2
:101540000FC40FCD0FC40FCD0FC495E8030084E87E
:101550000300094C6846D4F8443709F0B9FA04F09E
:101560001BF8D4F8443700200FB030BD0120FBE752
:1015700000021F0858021F0800800524134B016851
:10158000D3F84437F0B50127013900D2F0BDD0F8C7
:1015900008C04668CCF38455C5EBDC623468013280
:1015A0000023013A0CD203FA05F203EA0C03C3F359
:1015B000150324EA0202AB40134333600830E3E72B
:1015C00007FA02FE43EA0E03EBE700BF00800524A2
:1015D00008B51848FFF7D2FF1748FFF7CFFF04F010
:1015E00053FA04F065FA04F06FFA04F081FA04F09B
:1015F0008BFA1248FFF7C2FF1148FFF7BFFF1148EF
:10160000FFF7BCFF1048FFF7B9FF1048FFF7B6FF20
:101610000F48FFF7B3FF0F48FFF7B0FF0E48FFF783
:10162000ADFF0E48FFF7AAFFBDE808400C48FFF7E2
:10163000A5BF00BF800B0000E40A000020070000E7
:10164000EC070000E007000000080000C0060000F2
:10165000B4060000A8060000FC06000044070000D5
:101660003807000010B5254CFFF7B2FF94F80406C8
:1016700000F00100FFF758FF4FF4C023C4F86C34AA
:10168000D4F840311E4843F40023C4F84031D4F864
:10169000403143F00103C4F84031D4F8403143F005
:1016A0000203C4F84031FFF769FF16491648D1F824
:1016B000103543F00203C1F81035636923F4003399
:1016C0006361636943F480336361D0F84027D0F8E5
:1016D0007837C2F34342023A23F4F07343EA4213E9
:1016E000C0F87837D1F8943443F40023C1F8943427
:1016F000236943F46013236110BD00BF00800424FC
:101700000C09000000A005240080052408B550B194
:101710000748FFF733FF0748FFF730FF0648BDE8EB
:101720000840FFF72BBF0548FFF728FF0448F6E7FE
:1017300054090000FC090000F0090000C80900007D
:10174000740900000B48D0F800D05DF804EB5DF898
:1017500004CB5DF804BB5DF804AB5DF8049B5DF859
:10176000048B80BC40BC20BC10BC08BC04BC02BCC8
:1017700001BC7047080C0000114AD2F8103623F45F
:101780008073C2F810360F4B596B41F00101596359
:10179000596B41F0020159630423C2F8383482B016
:1017A00000238DF807309DF80730092B01D902B0CE
:1017B000704700BF9DF807300133DBB2F1E700BF8F
:1017C0000080042400840424FEE7FEE7054B064A5B
:1017D00006498B4200D3704752F8040B43F8040BC0
:1017E000F7E700BF0C000000ECBC2008D40B0000A1
:1017F000064B0748DA1C121AC11E22F00302994256
:1018000088BF0022002106F0A3BD00BFF01A00002F
:10181000D40B000008B5FFF7D9FFFFF7E9FF00F090
:10182000B9F8BDE80840FFF7F5BC000038B562B66E
:10183000394B3A4A1A603A4B3A4A93F806363A4CD0
:101840003A4D03F00F030F2B15BF394B4FF00063D8
:10185000D3F89312D3F837140CBF11601160354AD6
:101860000CBFD3F83634D3F89232136004F014F876
:101870002A4BE363032004F0C1FA04F00FF82E4B67
:10188000DB694FF08061D3F880304FF08C4098478F
:10189000EB69022060F30E33EB61284BDA696FF3DA
:1018A0000202DA6104F074F81D4B1A6A042161F334
:1018B00002021A621A6A1207FCD5AB69022262F3AD
:1018C0008403AB61AB691B04FCD51D4B1D4D5A6EE7
:1018D0006FF341025A665A6E6FF300025A66FFF7C1
:1018E0004BFF19490D4B21614FF4FA40E161174953
:1018F0006062002220624FF40040C4E90033C4E972
:101900000B15C4E90F33A2606261E360A0626363F8
:101910006164A26138BD00BF5C0C0000005A620225
:1019200000800424040C00000C0C0000008104243E
:1019300000001F08000C0000000130000086042495
:1019400000840424002D310100B4C4040048E801DF
:101950004FF0E02384B0D3F8402F0192D3F8442F06
:1019600002920199094A91420DD10299084A914285
:1019700009D1D3F8882D0392039A42F4700203929E
:10198000039AC3F8882D04B0704700BF21001110DE
:101990001100001113B50023009301932F4BD3F8CE
:1019A00010250092009A00922D4A116821F00F0133
:1019B000116011681160D3F89C1421F46071C3F8B0
:1019C0009C14D3F8041701910199C3F80415D3F8B6
:1019D000001701910199C3F80015D3F8101541F0D3
:1019E0001C01C3F81015D2F8024014F48074FAD127
:1019F0001C48436943F480334361436964F35143B2
:101A00004361FFF7A5FF184B4FF080725A60174BE8
:101A1000C0F84031164B5A6864F3C3025A60036A37
:101A20000E4A43F480330362036A43F400330362D3
:101A3000D2F8943443F40023C2F89434036943F495
:101A4000601303610B4B1A6842F400221A601A6893
:101A500042F480221A6002B010BD00BF00A005242D
:101A60000000052400800424000030410300080029
:101A7000008104240084042420F04040012802D086
:101A8000022805D07047034A13680133136070477A
:101A9000014AF9E7640C0000600C000010B50F4C1F
:101AA000E3689847A3680E4898472369022098473F
:101AB000A46A01211520A04701211620A0474FF458
:101AC000E1310120A047074B4FF48052C3F880203A
:101AD000BFF34F8FBFF36F8F10BD00BF54B5200809
:101AE000792A200800E100E013B5094C00238DF8A5
:101AF00004302360074B01219B6901A898472368A4
:101B00001BB19DF8040002B010BD00F0DBFAF6E74F
:101B1000600C000054B5200813B5094C8DF807007F
:101B200000232360074B01215B690DF107009847F3
:101B300023680BB102B010BD00F0C4FAF8E700BF93
:101B4000640C000054B5200803681B780022202B89
:101B500004D0093B042B01D9D0B270470368591C4B
:101B600001605B780132F2E70120704708B506F0AA
:101B700041FC162303604FF0FF3008BD08B506F0A6
:101B800039FC16230360FEE770B50D4614460E4679
:101B9000731B9C4201DC204670BD16F8010BFFF759
:101BA000BBFFF5E74FF0FF3070474FF400534B6039
:101BB0000020704701207047002070470FB42DE9C6
:101BC000F0438BB012AB002453F8046B019304ADC7
:101BD0008DF81040A846FFF787FF0D2805F8010B88
:101BE00004D00A2802D00134142CF4D19E4B019F5A
:101BF000E34004F1280213F001030DEB02041ABFC5
:101C0000002304F8183C04F8173C9DF81030CDE987
:101C10000268002B00F04E810025029B1B78002BF0
:101C20004DD0DDF80C9099F80060002E47D002A846
:101C3000FFF78AFF044618B103A8FFF785FFECE71A
:101C4000029A1346517813F8010B0293252801D10B
:101C5000252907D18E4232D109F1010302320393C3
:101C60000292DAE726462046A0461A7806F07C0162
:101C7000002A7CD100B1029309B3002C08BF632471
:101C8000082900F08780202900F0AA80042916D1B5
:101C900057F8042B4946144400200E780B460131B6
:101CA000002E6AD100286FD1B7E7692A50D01ED81C
:101CB000632A52D011D8392A07D82F2A34D8E8B24B
:101CC0000BB0BDE8F04304B07047582AF7D146F096
:101CD000200601334FF0100832E0642AEFD146F4B9
:101CE000005646F0200601334FF00A0828E06F3A0C
:101CF000D1B20929E3D8092AE1D801A151F822F08B
:101D0000452D2008BF2C2008BF2C2008BF2C200800
:101D1000692D2008BF2C2008E32C2008BF2C2008A8
:101D2000BF2C2008CF2C2008002CC8D10A211A78FB
:101D3000303A01FB042413F8012F303A092AF6D96E
:101D4000012092E746F0200601334FF00808F7E73C
:101D500046F0200601338846F2E7012C46F00406DF
:101D600038BF01240133EBE746F00806FAE7002903
:101D70009BD0002881D002937FE702F8016BA2423A
:101D80004FF0010089D10B46994503933FF445AFCD
:101D9000013542E703A8FFF7D7FE039E57F8043B3F
:101DA000314603EB040C00200C4611F8012B12B94C
:101DB00060B103940AE00D2A0FD8082AF8D803F876
:101DC000012B63454FF00100EED10391039A964237
:101DD0003FF423AF00221A70DAE7202AEFD1E7E7B9
:101DE00003A8FFF7B1FE039BB8F1000F10D0B8F1C4
:101DF000100F17D11A78302A14D15A7802F0DF0266
:101E0000582A0FD102330393023C4FF0100809E027
:101E10001A78302A16D15A7802F0DF02582AF1D007
:101E20004FF00808039B1A782B2A0ED02D2A0FD1C9
:101E300001330393013C4FF0FF31039A0020144417
:101E4000844616E04FF00A08ECE701330393013CA7
:101E50000121F2E7A9F14103052B02D920B3039236
:101E600022E0A9F1370317E0010010000CFB083C49
:101E7000012092F800909646B9F1000FEED0A242F0
:101E8000ECD0A9F13003DBB2092B06D9A9F161032B
:101E9000052BDFD8A9F15703DBB2984502F1010207
:101EA000E4D808B1CDF80CE057F8043B0CFB01F185
:101EB00019606DE74FF0FF3501E700BF064B18686A
:101EC000002382B262F30F03000C60F31F4382B061
:101ED000184602B0704700BFC8B52008014B18680B
:101EE000704700BF68000000014803F085B900BFDB
:101EF00068000000014903F03FB900BF680000001E
:101F0000014803F017B900BF6800000037B5044668
:101F10000B200D4600F0EAF9064B1B680193064BB7
:101F200000930246054B2946204602F0C5FE03B049
:101F300030BD00BF501000005000000068000000DD
:101F4000014802F0B5BE00BF68000000014802F081
:101F5000ACBE00BF680000007FB5104BD3E903544E
:101F6000B2F5806F2E883ABF02F1FF33C3F3090345
:101F700040F2FF3363F30D162E80258863F30D15B1
:101F8000074B25801B680293064B0193064B009379
:101F9000024B02F051FE04B070BD00BF68000000AB
:101FA00050100000680C0000500000000D4B1A6932
:101FB000B1F5806F13B538BF01F1FF33148834BF1A
:101FC000C3F3090340F2FF3363F30D14064B14808F
:101FD0001B680193054B0093024A054B02F08EFDEE
:101FE00002B010BD6800000050100000680C000036
:101FF000500000000D4BDA68B1F5806F13B538BFA3
:1020000001F1FF33148834BFC3F3090340F2FF33F7
:1020100063F30D14064B14801B680193054B00936A
:10202000024A054B02F0BCFC02B010BD6800000083
:1020300050100000680C000050000000024B034AE2
:102040001B68034902F004BC50100000500000005F
:1020500068000000034B044904484FF400129A64DE
:1020600002F0A6BB008404245000000068000000B9
:1020700007B5064B0193064B0093064A064B0749EA
:1020800002F006FB03B05DF804FB00BFD80F0000B0
:102090005010000050000000001C062468000000E2
:1020A000014802F0CDB900BFF0000000014802F085
:1020B000C7B900BFAC000000014802F0C1B900BFC1
:1020C00068000000FFF7F8BF354BDFED366AD3F844
:1020D000102242F04002C3F8102207EE900AD3F813
:1020E0001022F4EEE67A42F01002F1EE10FA07EE5A
:1020F000101A82B0C3F8102206DCF0EE086AB4EEC3
:10210000E67AF1EE10FA08D5D3F8102242F0200258
:10211000C3F81022002002B070479FED237AF4EE3E
:10212000C77AF1EE10FA10D5D3F810226FF303023C
:10213000C3F81022D3F810226FF38612C3F81022CE
:10214000D3F810226FF30412E2E777EEC77ADFEDDF
:10215000176A134A87EEA67AF7EE007A77EE277AA7
:10216000FCEEE77ACDED017A9DF80430F6EE007AC8
:1021700077EE277A07EE103AB8EE477AB4EEE77AB0
:10218000F1EE10FAC2BFFCEEE77ACDED017A9DF8D0
:102190000430D2F8101263F30301C2F81012B9E749
:1021A0000038042433333340CDCCCC3F0AD7A33D91
:1021B0000A4B9A6C013A052A0ED8DFE802F00305B3
:1021C0000705090B586C7047D86A7047D86B704781
:1021D000186B7047586B7047002070470C0C00005C
:1021E00006281DD8DFE800F0040A0D1013161900A8
:1021F0000C4B586809B1B0FBF1F07047094B186AF5
:10220000F8E7084B586AF5E7064B986AF2E7054B82
:10221000D86AEFE7034B186BECE7024BD868E9E7A5
:102220000020E7E70C0C000010B5032814D8DFE805
:1022300000F0020A0D100F48C06A7AB1A3B981B14B
:10224000B0FBF1F00DE00B48C069F6E709484069C2
:10225000F3E708488068F0E70020EEE723B909B902
:10226000400810BD4900EBE7CB07FAD50229F8D9A1
:10227000E6E700BF0C0C0000F8B50C461546042834
:1022800028D8DFE800F003211B1E2400FFF790FF91
:1022900015B394B104F0ACFE064620460F4604F098
:1022A000A7FE104B002204F067FD02460B463046A5
:1022B000394605F041F805F0AFF9F8BD0A4BD86989
:1022C000E6E7094B5869E3E7074B9868E0E7064BF8
:1022D000D868DDE70020DBE7002CEED0B0FBF4F09F
:1022E000EBE700BF0000E03F0C0C000010B50E282B
:1022F00000F28F81DFE810F00F001E002D00530068
:10230000720084009600B300CA00DD00E7000901F6
:102310003201600182014FF08C43BDE81040D86962
:10232000D969DA69C1F3C301C2F3407200F0070052
:10233000FFF7A2BF4FF08C43BDE81040D869D969C0
:10234000DA69C1F38321C2F38072C0F3C210FFF7D0
:1023500093BF4FF08C4293699469C3F3C233C4F3C3
:10236000C324052B19D8DFE803F003090C0F12155D
:10237000FFF71EFF0CB1B0FBF4F010BD8C4B98685A
:10238000F8E78B4B1869F5E7894B5869F2E7884BFA
:10239000D869EFE7864BD868ECE70020EAE74FF012
:1023A0008C42936A946AC3F34243C4F30554032BEB
:1023B00012D8DFE803F002080B0EFFF7F9FE002C3D
:1023C000DBD06400D7E77A4B5869F8E7784B986818
:1023D000F5E7774BD868F2E70020F0E74FF08C4341
:1023E000BDE81040986999699A69DB69C2F3402297
:1023F000C3F30073C1F3C50100F00700FFF714BF7A
:102400004FF08C43BDE81040D86F99699A69DB6939
:10241000C2F34022C3F30073C1F3C501C0F34220ED
:10242000FFF702BF4FF08C439B69C3F30263042B99
:1024300000F2EF80DFE803F003060A0D10005C4BAA
:10244000D8689AE7BDE81040FFF7B2BE584B9868CD
:1024500093E7574BD86990E7554B58698DE74FF094
:102460008C4291699369926911F4802F5049C2F3AB
:10247000C0520CBF48698868C3F3C3431AB1002B2C
:102480003FF47BAF12E083B9400876E74FF08C430E
:102490009A6A9B6A12F4806F454A0CBF9069D068B3
:1024A000C3F3C523002B3FF468AF5B00B0FBF3F030
:1024B00063E7404B98699969BDE81040C1F3464114
:1024C000000FFFF78DBE3B4BDA69DB69C2F34302B5
:1024D000C3F34713052A16D8DFE802F00306090CF8
:1024E0000F12334A5068DDE7314A106ADAE7304AA2
:1024F000506AD7E72E4A906AD4E72D4AD06AD1E7CE
:102500002B4A106BCEE70020CCE72A4B1A6A1B6AD5
:10251000C2F34302C3F34213072A1DD8DFE802F0D7
:1025200004070A0D10131619214A5068A7E7204A1C
:10253000106AA4E71E4A506AA1E71D4A906A9EE706
:102540001B4AD06A9BE71A4A106B98E7184AD06872
:1025500095E7174A506B92E7002090E7154B1B6BED
:10256000C3F34303062B54D801A252F823F000BF53
:102570008D35200893352008993520089F3520088F
:10258000A5352008AB3520083F342008084B586893
:10259000F3E6074B186AF0E6054B586AEDE6044B84
:1025A000986AEAE6024BD86AE7E6014B186BE4E664
:1025B0000C0C000000140424174B5B6BC3F34303A3
:1025C000082B26D801A252F823F000BF8D35200831
:1025D00093352008993520089F352008A535200817
:1025E000AB3520083F342008F1352008F7352008A6
:1025F0000A4B586BC1E6094B9869BEE6064BD86A90
:10260000D96ABDE81040C1F34711C0F34300FFF79A
:10261000E7BD0020B1E600BF001404240C0C00004C
:10262000024B1B68D3F8BC30184700BF00013000D4
:10263000024B1B68D3F8CC30184700BF00013000B4
:10264000024B1B68D3F8EC30184700BF0001300084
:10265000024B01219B69C0B2184700BF0411000062
:10266000FFF7F6BF1346054A126810B4546C0A46C9
:10267000A44600215DF8044B604700BF0001300014
:1026800010B54FF4006003F043F9094C094B4FF0CB
:1026900000725A6422782AB9074B08481B6A012144
:1026A0009B6A9847237843F00103237010BD00BF55
:1026B0005414000000840424000130000014042499
:1026C00082B0ADF804000A4B4FF400621A609DF826
:1026D0000420084B2AB9D3F8082242F40062C3F858
:1026E00008225A68002042F001025A6002B0704786
:1026F00000E100E0003804242DE9F04F224B23488C
:1027000093F81CE0224B1A7800231C4602F59875BA
:10271000D9B28E450CD8DFF880800023A8F5107957
:1027200002F5907CDAB2964509D80020BDE8F08F1A
:1027300030F815108C4238BF0C460133E8E743B936
:1027400029F81C300133EDE7B5F820B0594489B2BF
:102750000AE000271FFA83FABEB2B442F2D900227F
:102760000C4D104635F8021F8C4203D9B142EBD113
:10277000013080B2013292B25245F3D301370028C2
:10278000EAD128F81360DDE70411000024110000ED
:10279000001100006213000064130000012800D142
:1027A0007047C30701D44008F8E70020704703468C
:1027B0000120834208DC00EBD072A3EB6203B3EB91
:1027C000A00FB8BF400870474000F2E784B02DE981
:1027D000F7430AAC84E80F000023ADF806309DF8FB
:1027E000BC514D4B9DF8BD8159885A68B2FBF1F23E
:1027F00015B9B8F1010F2DD14849012508880B887A
:10280000474C80B29BB20AAE03F5987306EB80008A
:102810004069B2FBF0F224F813200B889BB203F559
:10282000987334F81330012B06D80B889BB203F54C
:102830009873022224F813203A4E0DF1380900272C
:10284000F7EE006AFBB2984507D803B0BDE8F04345
:1028500004B070470DF10601D0E73FB1D9E900326D
:10286000B3FBF2F2338813FB02F37380B8F1010F6C
:1028700008D072881046FFF791FF18B91046FFF78D
:1028800096FF70808DB10B880AAA9BB202EB4303BE
:10289000B3F8F430012B08D10B889BB203F5987381
:1028A00034F81320920824F81320DFED1F7A002358
:1028B000B8B29842ADF8063009D2F4EEE67AF1EEFD
:1028C00010FA26DC0137023609F10409BAE70A8852
:1028D00092B202F59872013334F8122007EE102AF2
:1028E000B8EE477A9BB286EE876A77EE867AE0E7A3
:1028F0000A8892B202F59872013334F812C04FEA96
:102900004C0C24F812C09BB28342ADF80630EFD9CC
:10291000D8E70023F8E700BF041100000011000011
:1029200024110000821300000000000007EE100ACE
:10293000DFED087A084837EE277AF7EE006AC6EE30
:10294000877AFCEEE77A17EE903A834228BF034677
:102950001846704795BFD633404B4C0084B0F0B555
:1029600006AC84E80E00DFED957A002123AC0DF172
:102970006B050A460B46CEB2B04200F2B080002B87
:1029800000F0A480B0EE007AF4EEC77AF1EE10FA0F
:10299000B0EE047A05DBF4EEC77AF1EE10FA00F13E
:1029A000DD80F4EEC77AF1EE10FAB0EE087A05DBBE
:1029B000F4EEC77AF1EE10FA00F1D680F4EEC77AA1
:1029C000F1EE10FAB1EE007A05DBF4EEC77AF1EE23
:1029D00010FA00F1CC80F4EEC77AF1EE10FAB1EE05
:1029E000047A05DBF4EEC77AF1EE10FA00F1C2804A
:1029F000F4EEC77AF1EE10FA07DBB1EE087AF4EEE6
:102A0000C77AF1EE10FA00F1B880B1EE0C7AF4EE6C
:102A1000C77AF1EE10FAB2EE007A05DBF4EEC77A6F
:102A2000F1EE10FA00F1AC80F4EEC77AF1EE10FA94
:102A3000B2EE027A05DBF4EEC77AF1EE10FA00F19D
:102A4000A280F4EEC77AF1EE10FA07DBB2EE047A58
:102A5000F4EEC77AF1EE10FA00F19880B2EE087A3F
:102A6000F4EEC77AF1EE10FA06DBB2EE0C7AF4EE71
:102A7000C77AF1EE10FA61D4B3EE017AF4EEC77AB8
:102A8000F1EE10FA06DBB3EE027AF4EEC77AF1EE5D
:102A900010FA60D4B3EE097AF4EEC77AF1EE10FAC8
:102AA00006DBB3EE0A7AF4EEC77AF1EE10FA70D9CB
:102AB000B3EE0B7AF4EEC77AF1EE10FA06DB9FED77
:102AC000407AF4EEC77AF1EE10FA74D9DFED3D7A70
:102AD0009FED3D7A002A18BFF0EE477A65E015F8C1
:102AE000016FA6F1140CBCF1020F2F7C0FD894EDEE
:102AF000007AF4EEC77AF1EE10FA03D50133DBB2B7
:102B0000F0EE477A0D2F16D00131043433E7A7F1E8
:102B10000A0CBCF1020F0CD894ED007AB4EEE77AFF
:102B2000F1EE10FA03DD0133DBB2F0EE477A182E36
:102B3000E9E7182EE6D10132D2B2E5E7DFED237ADC
:102B40009AB39FED217AF4EEC77AF1EE10FA23D50D
:102B5000F0EE477A29E0DFED1E7AF1E7DFED1D7A2E
:102B6000D2B1DFED197A20E0DFED1B7AF8E7DFED77
:102B70001B7AF5E7DFED1A7AF2E7DFED1A7AEFE775
:102B8000DFED197AECE7DFED197AE9E7DFED187A86
:102B9000E6E7DFED187A42B19FED0A7AF4EE477A64
:102BA000F1EE10FA48BFF0EE477ABDE8F04017EEBC
:102BB000900A04B07047DFED107AECE700000000E7
:102BC00000004C4295BFD6338BE16A36EFE60836FB
:102BD0009F9D42362E5A823301A90C3437F859345E
:102BE0002439EC3434580F35AD186335883E8A35B6
:102BF000ACC5A735B1B49D36F2DD1C3770B50D46B6
:102C000016460446D0B9FFF71BFDAA480722214605
:102C1000FFF728FD002D40F0AA81012E00F09F81D2
:102C20000B2C1DD00C2C40F0F5800520FFF708FD83
:102C3000A04807220521FFF715FD98E0012818D1CB
:102C40000220FFF7FDFC9B4807220221FFF70AFD47
:102C5000002D76D1012E00F082810B2C40F0DA801D
:102C60000320FFF7EDFC072203219248FFF7FAFC4F
:102C700096E002280ED10420FFF7E2FC072204218F
:102C80008C48FFF7EFFC002D00F06681012D40F02D
:102C9000778155E1032805D10620FFF7D1FC0722F3
:102CA0000621EDE7042805D10820FFF7C9FC07221B
:102CB0000821E5E7052805D10A20FFF7C1FC072216
:102CC0000A21DDE706280CD17B4B20225A6019200F
:102CD000FFF7AEFC1920FFF7A3FC78480E2219215C
:102CE000B4E707281ED1744B20225A601B20FFF73F
:102CF0009FFC1B20FFF794FC0E221B216F48FFF75F
:102D0000B1FC002D00F02881012D40F0D980012E6A
:102D100000F019810C2C21D10520FFF791FC07222E
:102D20000521A2E7082840F0FD80634B20225A606D
:102D30001D20FFF77DFC1D20FFF772FC0E221D21D8
:102D4000DCE70B2C1ED0012D40F01A81012E00F083
:102D5000FA800C2CE0D00D2C00F0C1800E2C50D04D
:102D60000F2C6FD0102C75D12EE0022D40D0032DEA
:102D700052D1012E59D00E2C70D00F2C62D0102CB5
:102D800030D121E00320FFF75BFC4A4807220321F2
:102D9000FFF768FC022D2BD0032D03D1012E44D068
:102DA000002070BD042D00F0A480052DDAD1012E85
:102DB00040F0A3800720FFF743FC07223D4811465F
:102DC000FFF750FC102C5ED13B4B20225A601A209A
:102DD000FFF72EFC1A20FFF723FC38480E221A2199
:102DE000FFF740FC112C50D0072D5CD1012E88E05C
:102DF000012ED5D169E0012E67D00D2C0FD00E2CFD
:102E0000BBD10920FFF71CFC2A4807220921FFF744
:102E100029FCCAE70D2C62D00E2C68D1F1E70B20FB
:102E2000FFF70EFC07220B211FE70B20FFF708FC22
:102E3000204807220B21FFF715FC8FE70E2CE0D06E
:102E40000F2CB2D10720FFF7FBFB072219481146D0
:102E5000FFF708FC062DC5D1012E4FE00920FFF732
:102E6000EFFB0722092100E70920FFF7E9FB1148E2
:102E700007220921FFF7F6FB7FE70720FFF7E0FBBA
:102E800007221146F1E6112C0DD10B4B20225A607E
:102E90001C20FFF7CDFB1C20FFF7C2FB07480E22CA
:102EA0001C21FFF7DFFB122C2FD0082D7FF478AF09
:102EB000012E28E000C00424000030410000134629
:102EC000022D7FF454AF012E99D10520FFF7B8FBF6
:102ED0002E4807220521FFF7C5FB0D2CAED10B2094
:102EE000FFF7AEFB294807220B21FFF7BBFB042DA0
:102EF000A6D1012EB8D00F2CBFD0102C3FF464AF58
:102F0000112CC2D0122C7FF44BAF214B20225A60DF
:102F10001E20FFF78DFB1E20FFF782FB1D480E22AF
:102F20001E21A3E60A287FF475AE0120FFF788FB77
:102F3000164807220121FFF795FB012D7FF415AFFD
:102F4000012E7FF42DAF0320FFF77AFB0F480722F5
:102F50000321FFF787FB65E6012E7FF421AF0120F7
:102F6000FFF76EFB094807220121FFF77BFB0B2CC3
:102F70003FF408AF012D3FF4E9AE0C2C3FF455AE01
:102F8000022D3FF438AF0D2CA9D0F0E600C0042488
:102F9000000030410000134682B02DE9F0410F29B6
:102FA00006AC84E80C005FD8BDF82040BDF8225084
:102FB00044EA0503B3F5806F56D22E4B079E9DF869
:102FC00024809DF825E043F8212001F1100701F14C
:102FD000400C43F8276001F15007B24223F81C402F
:102FE00023F8175042D0B8F1000F17D001F1300884
:102FF00002EB4402C0F8D42143F8282044EAC1225D
:1030000042F40048C0F8D881D0F8D881C0F8D8215F
:10301000D0F8D82143F82C8043F82720BEF1000FC8
:103020001DD001F1600204EB4504344443F8224012
:10303000CA0202F580622A43C0F8D44142F4004437
:10304000C0F8D84101F17004D0F8D85143F82450A9
:103050008031C0F8D821D0F8D82143F821200020B1
:10306000BDE8F04102B070470120F9E742F20210DA
:10307000F6E700BF241100000F2910B528D892B13F
:10308000144A01F1300452F82440C0F8D44101F14F
:10309000400452F82440C0F8D84101F1500452F8DD
:1030A0002420C0F8D8218BB10A4B01F1600253F8FB
:1030B0002220C0F8D42101F17002803153F822207F
:1030C00053F82130C0F8D821C0F8D831002010BD05
:1030D0000120FCE72411000010B5274B27485A684F
:1030E0005A6842F001025A60D3F8082242F4806222
:1030F000C3F8082203F5B4331A68026852BBD3F848
:10310000402442F46752C3F840241D4AD2F80230EA
:10311000DC05FBD41B4BD3F80427D107FBD5D3F830
:103120000427D207FBD4D3F84824174C174B216847
:103130001A60930803F4F8530B43910001F07C01EB
:1031400012020B4302F47832134343F081032360ED
:10315000012303600C4B1A680A4BC3F84424084A45
:10316000D2F8023013F48073FAD1034A516863F342
:103170000001516010BD00BF00380424F4100000AD
:103180000000052400A00524FC100000F810000039
:1031900084B070B52DED028B82B008AC84E80F00CE
:1031A000444C6E9AA2610D9A43499DF8B531BDF821
:1031B00014012377013A8A4278D20DA90122934261
:1031C00009D8012B6FD19DF8B43173B101280FD903
:1031D00042F2061060E00E4651F8045F3668B542D0
:1031E00064D8002D62D00132E9E7B0F5806FEFD2EC
:1031F000FFF746FA314B32485A689FED328A6FF337
:103200008A225A60DA686FF31842DA60DA680421B9
:1032100061F30902DA605A682B4942F480625A600D
:10322000FEF752FF294B5B686360FFF755FF02F022
:1032300089FC208102F07AFC208202F089FCC0F334
:103240000D0307EE103AB8EEC77A830BC7EE086A93
:1032500007EE903AF8EEE77A77EEA67AC4ED037AB5
:1032600002F06AFCC0F30D0307EE103AB8EEC77A1D
:10327000830BC7EE086A01A807EE903AF8EEE77AEA
:10328000002377EEA67A0193C4ED057A03F04AF99C
:10329000003818BF0120404202B0BDEC028BBDE8EF
:1032A000704004B07047013B0F2B90E742F20410CE
:1032B000F2E700BF04110000A02526000038042416
:1032C0003333334000007A44CDCC4C400C0C00002A
:1032D00084B010B52DED028B82B006AC84E80F00EF
:1032E0009DF818300F2B7FD84249434C0B706C99D6
:1032F000A16106A901EB8301404849699DF8AD2110
:1033000022770139814271D2012A6AD106AA02EBE1
:1033100043039DF8AC21B3F8F43022B1012B05D959
:1033200042F2061056E0B3F5806FF9D2FFF7A8F924
:10333000334B34485A689FED348A6FF38A225A60BF
:10334000DA686FF31842DA60DA68042161F309027F
:10335000DA605A682D4942F480625A60FEF7B4FE82
:10336000FFF7BAFE2A4B5B68636002F0EBFB20813B
:1033700002F0DCFB208202F0EBFBC0F30D0307EE52
:10338000103AB8EEC77A830BC7EE086A07EE903A98
:10339000F8EEE77A77EEA67AC4ED037A02F0CCFB7A
:1033A000C0F30D0307EE103AB8EEC77A830BC7EEF1
:1033B000086A01A807EE903AF8EEE77A002377EE64
:1033C000A67A0193C4ED057A03F0ACF8003818BF73
:1033D0000120404202B0BDEC028BBDE8104004B0B9
:1033E0007047013A0F2A9AE70120F3E742F20410EE
:1033F000F0E700BF0011000004110000A025260026
:10340000003804243333334000007A44CDCC4C40A0
:103410000C0C00000F29024610B54FF001000CD82B
:10342000D2F8CC4100FA01F32343D2F8CC119BB27D
:1034300063F30F01C2F8CC11002010BD0F29024622
:1034400010B54FF001000DD8D2F8CC4100FA01F3CD
:1034500043EA1443D2F8CC119BB263F31F41C2F884
:10346000CC11002010BD30B50F299DF80C402CD890
:103470001F2A2AD80F2B28D8012C26D845686D067C
:103480000FD5090134B14518AC6B44EA835343F0BE
:103490008063AB6301448B6B43EA42438B63002040
:1034A00030BD5CB1D0F8081241F40071C0F80812C8
:1034B000D0F8081263F34811C0F80812D0F80832A7
:1034C00062F30403C0F80832E9E70120E8E70000EE
:1034D00029B9D0F8083261F3CB23C0F80832064B83
:1034E0005B68DB0741BF43686FF300034360002064
:1034F00058BF4FF0FF30704700380424C1B2024873
:1035000082B002B0FFF7E4BF003804240F2915D8B9
:103510000D4B5A68520603D4D3F8DC31002B0FDA76
:10352000D0F8DC2101238B401343D0F8DC219BB27F
:1035300063F30F02C0F8DC210020704701207047C0
:103540004FF40450704700BF00380424B1F5007FE9
:1035500014D2B2F5806F11D243686FF38A234360AF
:10356000C36861F31843C360C36862F30903C360AF
:10357000436843F480634360002070470120704734
:103580000F2925D8012A05D1436A6FF3D753436227
:1035900000207047022A0BD1436A6FF30003436295
:1035A000436A6FF304134362436A6FF3C303EEE7A6
:1035B000084BD3F8DC31002BEADA436A0122C3F36B
:1035C000CF138A4023EA0201436A61F3D613DEE790
:1035D00001207047003804240F2903464FF00100F2
:1035E00014D81A6A00FA01F189B2186AC2F30F22DC
:1035F0000A4362F3172018621A6AC2F30F2222EA02
:103600000102196A62F31721196200207047000055
:1036100010B510B1012804D010BDBDE81040FFF76F
:103620002FB84FF4006002F08DF90A4A13786FF357
:1036300000031370DBB2002BEED1074B07484FF0AD
:1036400000729A64064B1B6ABDE81040DB6B0221D6
:10365000184700BF541400000084042400140424FC
:103660000001300013B50D4BADF804004FF40062BB
:10367000C3F88020BFF34F8FBFF36F8F0322012168
:10368000002003F023F8044628B90120FFF7C0FF0B
:10369000204602B010BD4FF0FF30FAE700E100E035
:1036A0004368064A61F349234360D2F8403443EA51
:1036B0004143C2F840340020704700BF00A00524F9
:1036C00084B02DE9F04F2DED028BF1B07CAC84E895
:1036D0000F009DF8853365934FF4C47201237FA9D1
:1036E00068466993DDF804829DF8845304F0E0FE97
:1036F00094E80E006598B74CFFF730F908EE100A11
:10370000FFF714F9D4F804A007EE900A07EE10AA08
:10371000F8EE677AF8EE476AB7EE007AC7EE268AC7
:10372000C7EE276AC6EEA87A17EE900A03F082FC6D
:1037300006F03AFD03F070FFC8EE287A86B217EE65
:10374000900A03F077FC06F02FFD03F065FF87B2C7
:10375000BE4204BF0136B6B2002D5ED1BDF884333F
:1037600027804FF4C27280A9684666809A4CADF8F3
:10377000843104F09DFE7CAB0FCBFFF727F8FEF7FA
:10378000BBFF324639462046FFF7E0FE01212046C6
:10379000FFF786FF6368914EDFF8389243F00063CD
:1037A0006360636843F040036360636865F34103EB
:1037B00063603323C4F8E431636843F00403636057
:1037C000D4F8DC3143F00043C4F8DC310DF2E223DD
:1037D000669306F18103A8AF06F13E0B67930DF5E2
:1037E000F878659AEBB29A4200F289807C4B6A9332
:1037F00000227C4B6B9369A9104602F0CBFE10B1FE
:10380000452840F0E38069996AAA002002F030FF61
:10381000003818BF0120404265E0304603F0F8FB55
:10382000BAFBF8FA80465046894603F0E1FB0246AF
:103830000B464046494603F0C7FE00285AD1278070
:103840006680324639466448FFF780FE01216248AF
:10385000FFF726FF604B5A6842F000625A605A68D0
:103860006FF386125A606A1E012A5A684FF00001EF
:1038700094BF42F0020265F341025A60C3F8E411BA
:103880005A6842F004025A60D3F8DC2161F3DF7217
:10389000C3F8DC219DF8F1219DF844029DF85412F3
:1038A0005AB1D3F8086262F34926C3F80862D3F824
:1038B000086261F34816C3F80862474ED6F808322A
:1038C00060F30403C6F80832FFF798F92A4600218E
:1038D0003046FFF755FE62886368B3FBF2F3424A55
:1038E0000020C2F8803271B0BDEC028BBDE8F04F11
:1038F00004B070471FFA8AF227806280A2E798F826
:1039000054A098F86430649318F8013F63930093CF
:1039100052462946649B2046FFF7A5FD36F8021F54
:10392000328C012A08D0AB0003F1105303F5872332
:10393000A3F83811C3F8782129462046FFF7E6FDA1
:10394000DDE963215046FFF759F929462046FFF784
:1039500075FD7B6E6C93D7F8A4306D93669B33F83E
:1039600002AF669340F20113ADF8BC31ADF8B8A1D7
:10397000ADF8BAA170AB13E90300DDE96C238DE863
:10398000030029462046FFF707FB29462046FFF79C
:1039900041FD002229462046FFF7F2FDB9F802203A
:1039A000D9F80430B3FBF2F3328CB3FBF2F34BF8EB
:1039B000043F57F8043FA6F8D0A0CBF85030679BDF
:1039C000639A03F8012F013567930AE74FF0FF3040
:1039D00089E700BF041100000038042462130000CE
:1039E00051362008613620082411000084B02DE9EA
:1039F000F04F2DED028BEDB078AC84E80F009DF810
:103A0000E0819DF874739DF875930120B8F10F0F54
:103A1000659000F20581DFF85CA3D14E8AF8008042
:103A20004FF4C4727BA9684604F042FD94E80E008E
:103A30004846FEF793FF08EE100AFEF777FF74681A
:103A400007EE900A07EE104AF8EE677AF8EE476A3A
:103A5000B7EE007AC7EE268AC7EE276AC6EEA87AC6
:103A600017EE900A03F0E6FA06F09EFB03F0D4FD91
:103A7000C8EE287A85B217EE900A03F0DBFA06F05A
:103A800093FB03F0C9FD1FFA80FB5D4504BF0135C0
:103A9000ADB2002F51D1BDF87433B24C75804FF4E4
:103AA000C2727CA96846A6F800B0ADF8843104F073
:103AB000FFFC78AB0FCBFEF789FEFEF71DFE2A4612
:103AC00059462046FFF742FD01212046FFF7E8FD59
:103AD0006368A54D43F000636360636843F040038F
:103AE0006360636867F3410363603323C4F8E431C0
:103AF000636843F004036360D4F8DC3143F00043AF
:103B0000C4F8DC31FBB2994500F29680974B66937E
:103B10000022974B679365A9104602F03BFD10B158
:103B2000452840F01A81659966AA002002F0A0FDA0
:103B3000003818BF0120404272E078AB03EB8808E0
:103B40002846D8F81430B4FBF3F403F061FA804649
:103B50002046894603F04CFA02460B464046494649
:103B600003F032FD002862D1A6F800B075802A4625
:103B700059467C48FFF7EAFC01217A48FFF790FD9F
:103B8000784B5A6842F000625A605A686FF38612A6
:103B90005A607A1E012A5A684FF0000194BF42F021
:103BA000020267F341025A60C3F8E4115A6842F016
:103BB00004025A60D3F8DC2161F3DF72C3F8DC2120
:103BC0009AF8002002F5F0726A4492F8540092F8D4
:103BD000641052785AB1D3F8084262F34924C3F80A
:103BE0000842D3F8084261F34814C3F808425D4D17
:103BF000D5F8083260F30403C5F80832FEF7FEFF7B
:103C00009AF800403A4621462846FFF7B9FCA0340E
:103C100072887368B3FBF2F3534A42F824300020F1
:103C20006DB0BDEC028BBDE8F04F04B07047A2B29E
:103C3000A6F800B072809BE79AF80010639101F536
:103C4000F0736B44204693F8642093F8548093F803
:103C500001B062921346CDF800B04246FFF703FC74
:103C6000639901F5907335F8130001F5987335F8F1
:103C70001320012A08D08B0003F1105303F587238A
:103C8000A3F83801C3F878212046FFF73FFC5A46D5
:103C900062994046FEF7B2FF9AF8008020464146FE
:103CA000FFF7CCFB78AB03EB88030137D3F8143173
:103CB000689378AB03EB8803D3F85431699378ABFE
:103CC00003EB4803B3F8F430ADF8A831ADF8AA31EE
:103CD00040F20113ADF8AC316CAB13E90300DDE940
:103CE00068238DE8030041462046FFF755F99AF80E
:103CF000008020464146FFF78DFB414600222046CA
:103D0000FFF73EFC08F1A00271887368B3FBF1F382
:103D100008F5987135F81110B3FBF1F345F822302E
:103D200078AA02EB480208F5C473B2F8F42025F82B
:103D3000132078AA02EB880208F1B403D2F8B42069
:103D400045F8232008F5F07205EB08030DEB020897
:103D500098F8012083F8C022D4E64FF0FF305FE7E7
:103D600004110000003804242411000051362008FA
:103D70006136200800110000D0F8E03143F0010363
:103D8000C0F8E031002070472DE9F341374B9A6AC3
:103D90000192019A16020DD5426A1502C2F3C05073
:103DA00008D45A6A42F400025A62314B9B690421DA
:103DB000984718E0019BDC0709D52C4A136A43F0A9
:103DC000010313622A4B05219B690020F0E7019C47
:103DD00014F080740BD02548012100F095F8254B94
:103DE00002201B689847002002B0BDE8F0811F4BFD
:103DF0005A68500603D4D3F8DC21002A25DA1E4D78
:103E00001A4FDFF86C80019BE21DD340D90716D50D
:103E100021463846FFF7E0FB2B78E6B2B3FA83F28F
:103E2000520931463846FFF727F9D8F818300021F3
:103E3000304698472B78B3FA83F35B092B70013433
:103E4000102C05F10105DED1CDE75A689207CAD4DE
:103E5000D3F8DC11C90FC6D15A6842F004025A6087
:103E60000198034BC0B29B69A2E700BF003804244D
:103E70000411000058140000E41000000148FFF78E
:103E800083BF00BF00380424030548BF20F400604E
:103E9000174B58BF40F40060D1B11A8A93ED057AF0
:103EA000821A07EE902AF8EEE77A67EE877AFDEE3F
:103EB000E77A17EE903A18B2B0F5805F11DA002871
:103EC00012DDB0F5006F10DBA0F5006000B27047A6
:103ED0001A8993ED037A821A07EE902AF8EEE77AB0
:103EE000E3E740F6FF70EFE7002000F50060EDE744
:103EF00004110000406921B11146C0F30B00FFF727
:103F0000C3BFC0F30B007047436A01291DBF43F0D4
:103F100002034362436A43F0807318BF43F0040313
:103F20004362002070472DE9F04F92F806C092F8E6
:103F300002A05378D5781679577992F807E092F86D
:103F4000088092F8099092F80AB0D47A127802B3F5
:103F50005B0643EA4B7343EA8A5343EA495343EA15
:103F6000085343EA4E4343EA0C4343EA473309010B
:103F7000026843EAC62301F1105143EA852301F5A3
:103F8000872142F0004243EA44230260CB63BDE84C
:103F9000F08F02686CF3C712026002686AF34F3256
:103FA0000260026863F313420260036865F3410331
:103FB0000360036866F383030360036867F3061313
:103FC000036003686EF30A230360036868F3CB237E
:103FD0000360036869F30C33036003686BF31453E5
:103FE0000360036864F300030360D0E703291ED86D
:103FF000DFE801F002080F16436B43F0020343634E
:1040000000207047D0F80C3143F00203C0F80C31A7
:10401000F6E7D0F8243143F00203C0F82431EFE78B
:10402000D0F83C3143F00203C0F83C31E8E740F2FD
:104030000170704710B5032934D8DFE801F0020C95
:104040001926C16A63F30F01C162836A62F30F0329
:104050008362002010BDD0F8041163F30F01C0F893
:104060000411D0F8003162F30F03C0F80031F0E71B
:10407000D0F81C1163F30F01C0F81C11D0F81831EF
:1040800062F30F03C0F81831E3E7D0F8341163F39B
:104090000F01C0F83411D0F8303162F30F03C0F8CB
:1040A0003031D6E740F20170D4E710B5032B36D893
:1040B000DFE803F0020C1926036B61F30B230363A3
:1040C000036B62F306130363002010BDD0F80831C0
:1040D00061F30B23C0F80831D0F8083162F30613FE
:1040E000C0F80831F0E7D0F8203161F30B23C0F8B5
:1040F0002031D0F8203162F30613C0F82031E3E715
:10410000D0F8383101F0070161F30B23C0F83831E2
:10411000D0F8383162F30613C0F83831D4E740F2F2
:104120000170D2E7032A1ED8DFE802F002080F165A
:10413000036B61F30203036300207047D0F808317A
:1041400061F30203C0F80831F6E7D0F8203161F3DB
:104150000203C0F82031EFE7D0F8383161F30203F1
:10416000C0F83831E8E740F201707047032A16D8EA
:10417000DFE802F0020C0F124FF4805311B1C0F8C7
:10418000E03001E0C0F8E430002070474FF4005305
:10419000F4E74FF48043F1E74FF40043EEE740F2D9
:1041A00001707047082331B1C0F8E03004232AB110
:1041B000C0F8E0307047C0F8E430F7E7C0F8E4300A
:1041C00070470B6870B5066804460D46002B48D052
:1041D000F20703D50122C26000209847B30704D537
:1041E0000223E36001202B689847700704D504235D
:1041F000E36002202B689847310704D50823E36069
:1042000003202B689847F20604D51023E3600420AE
:104210002B689847B30604D52023E36005202B685C
:104220009847700604D54023E36006202B68984722
:10423000310604D58023E36007202B689847F205F8
:1042400005D54FF48073E36008202B689847B305C9
:1042500007D54FF40073E36009202B68BDE8704078
:10426000184770BD10B4034C2468646CA4465DF814
:10427000044B604700013000024B1B680121D3F85A
:10428000F030184700013000034B1B680A469B6C56
:1042900001460248184700BF000130000014042402
:1042A000014BDB685B691847000130008A1E70B55E
:1042B00043680D46052A04D8DFE802F01B1D4C4E6A
:1042C00050528469B3F1884F5CD163783F2B19D980
:1042D000554B60781B684038D3F8E830C0B2984737
:1042E00062785248403A0623D2B20021FFF7BAFF63
:1042F00008E0C469E6E7B3F1884F046A32D1607818
:104300003F283AD8E07820B1474B1B68D3F8C0303B
:1043100098476078A0F11903052B04D8424B1B681D
:10432000D3F8B8309847032D06D13F4B60781B680F
:104330000121D3F8D43098473B4B60781B68D3F801
:10434000C8309847A378627821783948BDE8704032
:10435000FFF788BF446AB5E7846AB3E7C46AB1E788
:10436000046BAFE7334A9342C9D0334A93420DD12D
:1043700060783F28C6D9032DAAD14038C0B2FFF7D4
:104380007BFFA5E72B4A9342EFD19EE72B4A93424E
:1043900048D1002C46D062783F2A14D9032D03D18E
:1043A000403AD0B2FFF768FF1F4B60781B68403877
:1043B000D3F8E830C0B298476278A37821781B48D8
:1043C000403AD2B2C2E71A4821780923FFF74AFFE0
:1043D000E07820B1144B1B68D3F8C0309847032D08
:1043E00002D16078FFF748FF0F4B60781B68D3F865
:1043F000C830984721780D4862780023FFF732FFD4
:104400006078A178A0F12E03032B02D82638C0B221
:1044100002E00F2804D10720BDE87040FFF734BF49
:104420000638F4E770BD00BF0001300000C004246E
:104430000000134600010044000002450018042457
:10444000F0B5436885B00024B3F1884F0194054668
:10445000029403940BD0774A934208D0764A934251
:1044600000F0D180754C181B4442444164009A68A6
:104470000192019A02F00602062A4FEA84742CD1B6
:104480005B690293029B990710D56A6913686BB147
:1044900001215171202098476B6993F82820032A45
:1044A00004D193F826300BB144F01004029B5A0754
:1044B00007D56A69136823B1012111724FF40070A6
:1044C0009847029B1B0740F1A0806A69136823B1DB
:1044D0000121D1714FF480709847019B9E071DD533
:1044E0006B691E6910201A6A6968964209D09F6933
:1044F0000138BF5C0F6002F101021A62F3D19642EB
:104500000CD14A6822F002024A60002283F8262079
:104510001B681BB144F0010420469847019B5807D3
:1045200038D56B691A68002A34D06A685169C9079E
:1045300025D511685A69DB69D1546B69DA69D96884
:1045400001328A42DA611AD169684A6822F00102AE
:104550004A6093F82820023A0021012A197164D890
:1045600093F8272083F82710022A5ED0032A59D017
:10457000012A01D144F001041B68204698476B6969
:104580001A683AB1D969DB68994203D044F0400413
:1045900020469047019B1A074AD16B689B69039399
:1045A0006B78DB0608D5039BDF0705D56B6944F400
:1045B00080641B68204698476B785E0608D5039B8D
:1045C000980705D56B6944F400641B68204698473A
:1045D000AB78D90708D5039B5A0705D56B6944F416
:1045E00000541B682046984795F90130002B1FDACC
:1045F000039B1B071CD56B691B6844F4805005B0F6
:10460000BDE8F0401847012431E7029BDF067FF543
:1046100064AF6A691368002B3FF45FAF01219171A9
:10462000802059E744F00404A6E744F00204A3E71D
:1046300005B0F0BD0001004400000245001804244C
:1046400030B504460AB3B0F5E10F1ED85368802593
:10465000DD608900B1FBF0F1D3F8C0006FF3050015
:10466000C3F8C000002018605860D860DD60C1F356
:1046700087151D60C1F3873501F03F015D60C3F808
:10468000C010D8605369DC6230BD40F20160FBE7C6
:104690002DE9F7434E69DDF8289096F8295015F07A
:1046A00001050C46174698466ED1C6E900053572DD
:1046B00086F8265086F824504B68B3F1884F02D014
:1046C000354A934212D1354B10229A60344BA26B7B
:1046D000DB69019294F834200092D3F8A45094F846
:1046E0003C20002301214FF08C40A84762682D4BED
:1046F0009A4215D103F15F4303F5213310229A60EA
:10470000274BA26BDB69019294F834200092D3F816
:10471000A45094F83C20012319464FF08C40A84740
:104720006268214B9A4210D103F5D8434FF400122E
:104730005A641B4B228F1B6A0092DD6994F83C205F
:1047400094F8353019480121A847E3680BB923696B
:10475000B3B16568B5F1884F08D00F4B9D4205D0C5
:10476000104B9D4202D0104B9D4211D10C4BDB6887
:104770004A461D680B9B41463846A847C9F80000C9
:104780006369012283F82920002003B0BDE8F0838B
:104790004FF0FF30F9E700BF00010044008404241B
:1047A0000001300000000245001804240014042415
:1047B00038B54368B3F1884F04460D4602D01F4A0E
:1047C000934207D11E4BDB690021D3F8E8304FF04C
:1047D0008C40984762681B4B9A4207D1184BDB69A3
:1047E0000121D3F8E8304FF08C4098476268164BAF
:1047F0009A4205D1124B15481B6A0821DB6B98477A
:10480000E3680BB923698BB16368B3F1884F08D0B3
:104810000A4A934205D00B4A934202D00A4A934275
:1048200009D1074BDB6828465B689847636900201D
:1048300083F8290038BD4FF0FF30FBE7000100444A
:104840000001300000000245001804240014042474
:1048500070B50C4615461E4620B1022872D06FF086
:10486000030070BD91F9080000280CDB430947499B
:1048700000F01F0020330122824041F82320BFF3C3
:104880004F8FBFF36F8FE06862696368B0B192F8D1
:1048900026209AB1B3F1884F0BD03D4A934208D0FD
:1048A0003C4A934205D03C4A934202D04FF0FF303D
:1048B000D7E7007932462946FFF7F2FCD4E9040233
:1048C000636890B1127982B1B3F1884F08D0304A51
:1048D000934205D02F4A934202D02F4A9342E5D10A
:1048E000007932462946FFF7DBFC63682B4AB3F1B7
:1048F000884F05D026498B4202D026498B421DD1D4
:104900001023D36094F90830002B09DB5A090121E8
:1049100003F01F03994002F160031C4A42F8231080
:10492000636900225A601A7283F8262093F82920BE
:1049300022F0020283F82920002092E74FF40013AE
:104940009364DFE74A6992F82930D907AED513F0AE
:104950000203F1D161684B605360137282F8263014
:104960004FF44073138594F90830002BE4DB03F017
:104970001F015B099B0003F1604303F561430122C2
:104980008A40C3F880211A60D6E700BF00E100E04A
:10499000000100440000024500180424008404249F
:1049A0002DE9F04F8FB00DF11C0A06460D469046DA
:1049B00000211C225046DDF864901F4603F0C8FC1D
:1049C000002E00F08D80002D00F08A80D8F8142091
:1049D00092F82930580704D44FF0FF300FB0BDE8EB
:1049E000F08F92F82630002B7DD1012482F82640EA
:1049F000D8F80CE013629661D8F804301561BEF166
:104A0000000F59D0B3F1884F099450D0374A9342E0
:104A10004DD0374A93424CD0364A9342DCD122469D
:104A20000324CDE90C4201210B91DEF80000DEF8F1
:104A300008C007919EF80410BEF800E0CEF3091EEE
:104A40006EF30D1000F0070BBBF1020F01BFBA6847
:104A500094686BF302049460274C0EF101029542B6
:104A6000E26838BF05F1FF3ED2F808B0189ACDF8D9
:104A7000149038BFCEF3090E6EF30D10CDE903C2CA
:104A8000CDE9010A009532463846D8470130A3D017
:104A9000D8F80C00E3680079DB6839464A46984745
:104AA000E36849461B6938469847002096E7192273
:104AB000B7E71B220224B4E7596989060ED45A6865
:104AC00042F002025A60F0E74C1C1462715C1960FB
:104AD0000138F4D0116AA942F6D1F0E71020F9E7C5
:104AE0006FF004007AE76FF0010077E700010044FF
:104AF0000000024500180424000130002DE9F04FA9
:104B00008FB0984607AB81460F46184616460021DF
:104B10001C22DDF864A003F01BFC0346B9F1000F72
:104B20007BD0002F79D0726992F82910490704D4FC
:104B30004FF0FF300FB0BDE8F08F117901296FD031
:104B400000250124546015723069D760C2F81490B2
:104B5000D561726800285BD0B2F1884FCDE9085466
:104B600051D031498A424ED030498A424DD03049E5
:104B70008A42DDD10324B0F800B0D0F800C0D0F8EC
:104B800008E0CBF3091BCDE90C456BF30D1C0121AB
:104B90000B9107910CF007050021022D0A91017974
:104BA00001BFD8F80800846865F302048460214CD2
:104BB0000BF101008742E06838BF07F1FF3B8568D1
:104BC0001898CDF814A038BFCBF3090B6BF30D1C6C
:104BD000CDE903E0CDE901C300974B464046A84725
:104BE0000130A5D03069E3680079DB685246414660
:104BF000984796F8403023B9E36851461B69404610
:104C00009847002096E71825B5E71A250224B2E751
:104C1000536843F001035360F3E76FF0040089E742
:104C20006FF0010086E700BF00010044000002456C
:104C300000180424000130002DE9F3470746DDE9A0
:104C40000AA8DDF83090084616461D461FB311B37A
:104C50000AB35B6993F82920520723D595F84040A1
:104C6000F4B12A7812F0060F1CD0032283F8272013
:104C70003146CDE9008953462A46FFF73FFF60B928
:104C800053462A4631463846CDE90A8902B0BDE886
:104C9000F047FFF785BE6FF0040002B0BDE8F08773
:104CA0002046FAE74FF0FF30F7E74369186A70478C
:104CB0004369D869704700002DE9F0471C465B69DD
:104CC000924693F8292080469007DDE908678946D7
:104CD00040F120825FFA88F5A5F11501052900F25F
:104CE000D680DFE801F0031929426C94B9F1000F76
:104CF0000DD002212046FFF7D9FA626992F82930D7
:104D000043F0080382F829300020BDE8F08722F044
:104D1000080283F82920F7E7B9F1000F09D0032131
:104D20002046FFF7C3FA626992F8293043F0100376
:104D3000E8E722F01002ECE7B9F1000F0DD093F88C
:104D40002620002A40F0E9816168CA6842F04002EA
:104D5000CA60012283F82620D6E76168CA6822F07B
:104D60004002CA6083F82690CEE76068426822F06D
:104D700002024260D4E90352E2B9B5B10D22826069
:104D800093F826309BB1B0F1884F08D08E4B9842F3
:104D900005D08E4B984202D08D4B984207D128798E
:104DA0003A463146FFF77CFA01E0052383606369E8
:104DB0000022CFE70D228260002DE1D1F7E7606885
:104DC0002569426822F0010242604DB9E3682BB9BF
:104DD00003238360636900221A7195E70B23F8E7C8
:104DE0000B2282601B79002BF4D0B0F1884F08D0E1
:104DF000754B984205D0754B984202D0744B98423F
:104E0000E8D128793A463146FFF74AFAE2E7626884
:104E1000E068516821F00301516098B193F82630A1
:104E200083B1B2F1884F08D0674B9A4205D0674BE7
:104E30009A4202D0664B9A4204D100793A463146F2
:104E4000FFF72EFAD4E90402636840B9E368E3B9D6
:104E5000072362689360636900221A717AE7127906
:104E60009AB1B3F1884F08D0574A934205D0574AB8
:104E7000934202D0564A934207D100793A463146CE
:104E8000FFF70EFA2369002BE0D00F23E1E76A1E3B
:104E9000132A00F24581DFE812F0390014004700C0
:104EA0005E006F008A004301430143014301430157
:104EB00043014301430143018F0017008A00920020
:104EC0008A0094F8403013B96FF006001DE762685D
:104ED0003D4B9A42F8D12378990717D501212046F6
:104EE000FFF7E4F963689A6D42F001029A659A6DE2
:104EF00042F002029A6594F841109A6D41B342F073
:104F000010029A659A6D42F020029A6508F4E066F4
:104F1000B6F5A06F72D05DD8002E72D0B6F5807F46
:104F200071D06FF00800F0E66268274B9A42CBD14F
:104F300023785A07C8D501212046FFF7B7F96368DF
:104F40009A6D42F001029A659A6D6FF34102D1E7C2
:104F500061F30412D5E721780B07D7D563681A6C83
:104F600042F001021A641A6C8F074CBF6FF34102C2
:104F700042F002021A64C9E76368B3F1884F02D0B5
:104F8000114A9342A0D12378DE069DD50621204602
:104F9000FFF78CF920460721FFF788F92378D80618
:104FA00092D56268136943F040031361AEE7257838
:104FB00015F02005AAD087E783F82490A4E6257889
:104FC00015F04005F6E700BF00010044000002456F
:104FD00000180424B6F5C06F17D0B6F5E06FA0D165
:104FE0000026022708F44053B3F5805F10D0B3F5D4
:104FF000005F1BD073B16FF0090086E60026002722
:10500000F0E70327EEE70926F9E700260127E9E79D
:1050100047F0180708F44043B3F5804F09D0B3F5C3
:10502000004F06D03BB16FF00A006EE647F008076C
:10503000F0E747F0040708F44033B3F5003F2FD002
:1050400007D8002B3BD0B3F5803F19D06FF00B0091
:105050005BE6B3F5403FF9D1637803F01803182BF2
:1050600007D104212046FFF721F905212046FFF74B
:105070001DF9238803F4C073B3F5C07F0BD0E5E7B7
:105080006378190703D505212046FFF70FF994F936
:105090000030002BDADA6268136943F022030DE076
:1050A0006378DA0603D504212046FFF7FFF863781A
:1050B000DB07CBD56268136943F020031361AB1E95
:1050C000012B05D818F4802F2DD118F4002F2DD1E5
:1050D000D4F80480D8F8103023F01003C8F810304A
:1050E000224651464846FFF7ABFA6369012183F82F
:1050F0002850C8F80810C8F80C70C8F8CC60D8F868
:10510000AC2061F3C402C8F8AC2093F8292042F027
:105110000402FEE54FF0FF30F7E56FF00100F4E523
:105120006FF00300F1E56FF00C00EEE56FF00D009D
:10513000EBE500BF42694368107A5969137981F041
:1051400080015B00C1F3C01103F002030B435179EE
:10515000C90001F008010B439179090101F0100128
:105160000B43D179490101F0200180010B4300F08C
:1051700040001843704700004B6993F829305B07E3
:1051800032D54B68002B32D0032830D8DFE800F04E
:10519000020B121F4A78120729D51A6922F002025F
:1051A0001A61002070474A78100720D51A6942F02A
:1051B0000202F5E7B3F1884F02D00E4A934216D1AE
:1051C0004A78910613D51A6922F00102E8E7B3F193
:1051D000884F02D0074A934209D14A78920606D5F1
:1051E0001A6942F00102DBE74FF0FF3070476FF0C1
:1051F0000300704700010044024630B553680020A8
:105200001BB3516991F8291049071ED55578996942
:105210009278EB064CBFC1F30013034615F040042F
:1052200018BFC1F3401412F0010218BFC1F380127D
:105230002D060FD5C1F3C01143EA440343EA8103AD
:1052400043EAC20363F3070030BD02460146044649
:105250000346F1E70021EFE741F20273984221D0C3
:1052600011DC41F2045398421CD005DCF8B101284E
:105270000CBF21200120704741F2017398420CBFFE
:1052800011200120704742F2041398420CD042F2E0
:10529000061398420AD042F2031398420CBF212011
:1052A0000120704721207047282070472B2070472D
:1052B000014BDB695B6E184700013000014BDB6975
:1052C0009B6B184700013000014BDB695B6A184794
:1052D00000013000404B994270B50C46154679D814
:1052E0003E4B99420AD93E4B4FF400125A623D4B55
:1052F00010229A615A6C42F010025A6401283FD081
:10530000022855D048BB384EF3690121A422084633
:10531000D3F8EC309847354B9C60FFF7D5FF344B02
:105320009D42344B02BF5A6822F440425A604FF407
:105330005942A3F86020F3692A469B6821464FF042
:105340008C40984750B92C4B9C420BD82B4B4FF4B8
:105350000032DA664FF48022DA660020BDE8704041
:10536000FFF77ABF264B9C42F7D9244BDA6E9203A3
:10537000F3D44FF480229A664FF400329A66ECE739
:105380001A4B5C61FFF794FF1A4B4FF45942A3F894
:10539000A020154BDB692A469B6D21464FF08C40BF
:1053A00098470028DAD1592CD0D95A2CDDD1D4E72E
:1053B0000E4B9C61FFF782FF0E4B4FF45942A3F84E
:1053C000E020094BDB692A46DB6B21464FF08C401D
:1053D0009847C3E7212070BD0095BA0AFF0D270743
:1053E0000000282000800046000130000C0C000066
:1053F000005A6202008018467F4A5D05008404243A
:10540000BF8C6C051E4B994270B505460E460DD8F3
:105410001C4A536A23F4001353621B4B9A6922F00F
:1054200010029A615A6C22F010025A64002211464E
:105430004FF08C4000F09CFB0446FFF70DFF024646
:10544000D8B9D5B1042D13D1104A31460120FFF748
:1054500041FF04B22046FFF7FFFE024668B9294625
:105460004FF08C4000F084FBBDE87040FFF7F4BEC5
:10547000022DEFD1054A3146E9E7104670BD00BF65
:10548000FF0D27070000282000800046005A620216
:1054900008B503214FF08C4000F04AFC032000F0D7
:1054A000ADFCBDE8084002490220FFF7ABBF00BFDA
:1054B0000095BA0A044B4FF48072DA63034B4FF441
:1054C00000629A60704700BF008104240000081247
:1054D00008B5284B4FF400621A60274AD2F88C377F
:1054E00043F4004343F08003C2F88C37D2F88C3782
:1054F0005B06FBD5D2F88C27204BDFED216A9FEDB0
:10550000216A214902F03F021A601A68262A84BFE4
:1055100026221A601D4A9268EAB11D48C2F315029C
:105520000260D3ED007A90ED007AF8EE677AB8EE7B
:10553000477A77EEA67A37EE267A67EE867AC7EE56
:10554000876AC1ED006AFFF7B5FF0A4B4FF40062AE
:105550005A60086808BDD3ED007AF8EE677A77EEF6
:10556000A67ADFED0C6A67EE867A87EEA67A81ED81
:10557000007AE8E70000081200A005246414000087
:1055800089410B42333353405C1400002007000074
:1055900060140000C4A08342F0B5A24CA24BA268E4
:1055A0000578A24E02EA0301027802F001020A43E2
:1055B0009F49A2608A6802EA0304427802F001026D
:1055C000920042EA951222438A600A69457802EA0B
:1055D00003040278C2F344022243964C0A61A26893
:1055E00002EA0301827802F00302520142EAD50284
:1055F0000A439149A2608A6884781A4042EA940278
:105600008E4C8A60A268C1781A4001F01F011143D4
:10561000A160B268047902EA030504F03F04C2788D
:10562000640044EAD214C2F3411242EA84022A43DB
:10563000B260834E4579B26802EA0304027905F04C
:105640007F05920942EA850222437E4DB260AA6834
:1056500002EA0304C27902F00F0222437A4CAA60E4
:10566000A268C579067A1A4042EA1512774DA260FF
:10567000AA6802EA0304427C02F07F022243AA6085
:10568000734DAA6802EA0304027A02F07F02224301
:10569000AA60704DAA6802EA0304427A02F01F026F
:1056A000520042EAD61222436B4EAA60B268857A53
:1056B00002EA0304C27A520042EAD512057B05F0E1
:1056C000010542EA45222243644DB260AA68467A47
:1056D00002EA0304827A02F07F02D20042EA561202
:1056E0002243AA605E4D5F4EAA6802EA0304B0F846
:1056F0000D202243AA60B268457D02EA0304027DC0
:1057000005F00F0542EA05222243574DB260AA6810
:10571000564E02EA0304427DC2F302122243AA60FB
:10572000B268C57D477902EA0304827D05F00F0562
:1057300042EA05222243B2604D4EC57DB26802EABC
:105740000304027E120142EA1512457E05F00F05A0
:1057500042EA05322243474DB260AA68467E02EA19
:105760000304827E120142EA16122243AA60424DCD
:10577000AA6802EA0304B0F81B202243AA603F4D46
:10578000AA6802EA03048279560802F00102520074
:1057900042EAD71242EA86022243847CAA60457C10
:1057A00090F8246004F00F02520052EAD512344DF2
:1057B0001EBFA96819401143A960324D1A4AAB684F
:1057C00003EA0201437F03F00F030B43AB602E4D4E
:1057D000AB6803EA0201837FC3F383030B43AB602F
:1057E0002A4DAB6803EA020190F8253003F0070365
:1057F0005B0043EAD6130B43AB60254DAB6803EA6D
:105800000201C37C03F003035B0043EAD4130B43A0
:105810002049AB608B681A40837CC3F302131343A7
:105820008B60F0BD000800000000C0FF880700008A
:10583000EC070000D4070000BC070000B007000020
:105840006C0700004407000038070000C80700008C
:105850002C070000200700001407000018080000B3
:10586000FC0600000807000078060000F0060000B3
:10587000E4060000D8060000CC0600005007000037
:10588000A4070000C0060000B4060000A80600003F
:10589000900600009C060000FBF7E4BEF0B5194D31
:1058A000194C2B88E5B004F11001002600274FF4B5
:1058B000C2726846ADF88431CDE9626702F0F8FD46
:1058C00094E80F0000F0BCFC62A800F059FD2B78B2
:1058D000687843EA002000F003FEDDE962453246C5
:1058E0003B462046294601F08DFE48B1074B002279
:1058F0002046294601F072FE10B10020FBF706FF9A
:1059000065B0F0BDEC0200005801000000004E4000
:1059100010B50A4A0A4BD2F80815D3F80240E4053C
:10592000FBD440EA5110C2F80805D3F80220D20592
:10593000FBD4024BD3F8083510BD00BF00A00524EE
:105940000000052410F4405F0F4B0BD0D3F8042562
:1059500022F48012C3F80425D3F8042522F400129F
:10596000C3F80425D3F80825084BD3F80210C9055D
:10597000FBD4C04300EA5210034AC2F80805D3F82A
:105980000220D205FBD4704700A0052400000524A6
:105990000D4A0E49D2F81035013823F0030310B533
:1059A000C0B2C2F81035D1F80230DC05FBD4D2F811
:1059B0001045012383402343C2F81035D1F802304B
:1059C000DB05FBD410BD00BF00A0052400000524AA
:1059D0002DE9F04F88B305687DB3002100F1040C78
:1059E00001275CF83160013150F83130C3F3845441
:1059F000C4EBD3620132162A1FD84FF00009D6F843
:105A00000080A646CA46224407FA0EFB0EF1010E9C
:105A100028EA0B08724507FA09FB4AEA0B0A09F162
:105A20000109F1D803EA0A03A34043EA0803A942A3
:105A30003360D6D10020BDE8F08F0120FBE7F0B540
:105A400000B30768F7B100254FF0010C013550F89D
:105A50003530C3F38454C4EBD3620132162A11D813
:105A600000210E4622440CFA01FE013146EA0E06E0
:105A700004EB010E7245F6D8BD42E7D103EA0600F9
:105A8000A040F0BD0120FCE7064B074A996C07488F
:105A9000DA620229D96C08BF1A60022908BF5A606D
:105AA000FFF796BF0C0C00000048E801D407000087
:105AB000024B034A03485A63FFF78ABF0C0C0000ED
:105AC0000048E801BC070000064B074A996C0748EC
:105AD0001A630529D96C08BF1A60052908BF5A60E6
:105AE000FFF776BF0C0C0000002D31012C070000E1
:105AF000034B04484FF4FA421A62FFF769BF00BF34
:105B00000C0C0000B0070000034B04484FF4FA42AD
:105B10005A62FFF75DBF00BF0C0C00005007000089
:105B20000148FFF78CBF00BF080700000148FFF7DE
:105B300086BF00BFF00600000148FFF780BF00BF2E
:105B4000E40600000148FFF77ABF00BFD806000056
:105B50000148FFF774BF00BFCC0600000148FFF703
:105B60006EBF00BFFC06000001B10847704700008F
:105B700010B5002852D03E2A50D82B4BDB689C072A
:105B800048BF5208052949D8DFE801F003481B2621
:105B9000313C836A6FF303038362244B1B682449FF
:105BA0000B60846DE405FCD5846A62F30914846299
:105BB00012B1B3FBF2F30B601C4B0A68DA600020F1
:105BC00010BD836D9B062BD5836A022161F303030D
:105BD0008362164B9B68E2E7836D5C0620D5836A7F
:105BE000032161F303038362104B1B69D7E7836DC5
:105BF000190715D5836A042161F3030383620B4BF4
:105C00005B69CCE70B4B5B6A5B0709D5836A0521AF
:105C100061F303038362054B9B6BC0E70120CFE771
:105C200041F20170CCE700BF008604240C0C000098
:105C30005C0C00000014042407B50B46114606282E
:105C40001ED8DFE800F00421333B47586400364A91
:105C5000106A40025EBF106A40F48000106213B9FF
:105C60000A20FFF781FF314BD3F81C2122F080126C
:105C7000C3F81C21D3F81C2142F00122C3F81C21D7
:105C8000002003B05DF804FB274A106A800207D4A5
:105C9000106A40F480101062106A40F40010106224
:105CA000002BEDD10A20FFF75FFFE9E71E4A106ADB
:105CB000C002F5D4106A40F48010F0E71A4A106A66
:105CC00000035EBF106A40F400201062002BD7D1A1
:105CD0000220E8E7144B1A6A5203D1D41A6A42F43C
:105CE00080221A624FF4FA700191FFF73DFF01998B
:105CF00040F2DC50D7E70C4A106A80035EBF106A9E
:105D000040F400301062002BBAD1FA20CBE7064AEB
:105D1000106AC0035EBF106A40F480301062002B2E
:105D2000AED19620BFE700BF008104240080042488
:105D300010B50446002858D00139052955D8DFE8A8
:105D400001F003131D273445294BD969012262F361
:105D50000201D961274B9A645B6C264A1360A36DDC
:105D6000002BFCDA002010BD214BD969022262F31E
:105D70000201D9611F4B9A64DB6AEEE71C4BD969BB
:105D8000032262F30201D9611A4B9A64DB6BE4E7E8
:105D9000194B40229A83164BD969042262F30201FF
:105DA000D961144B9A641B6CD7E7114B1A6AD20263
:105DB0005EBF1A6A42F480121A62D969052262F340
:105DC0000201D9610B4B9A641B6BC6E701210022CB
:105DD0000846FFF731FF064BD969062262F302013C
:105DE000D961044B9A645B6BB7E70120BBE700BF46
:105DF000008104240C0C000000801341013808B518
:105E0000052850D8DFE800F003101A243140274B52
:105E1000D969012262F31241D961254BDA645B6CC6
:105E2000234A0020536008BD204BD969022262F347
:105E30001241D9611E4BDA64DB6AF1E71B4BD96969
:105E4000032262F31241D961194BDA64DB6BE7E795
:105E5000184B40229A83154BD969042262F31241F0
:105E6000D961134BDA641B6CDAE7002201210220AE
:105E7000FFF7E2FE0D4BD969052262F31241D961A9
:105E80000B4BDA641B6BCBE7012100220846FFF7BE
:105E9000D3FE064BD969062262F31241D961044B45
:105EA000DA645B6BBCE70120BDE700BF008104241E
:105EB0000C0C00000080134141F20273984221D083
:105EC00011DC41F2045398421CD005DCF8B10128E2
:105ED0000CBF21200120704741F2017398420CBF92
:105EE00011200120704742F2041398420CD042F274
:105EF000061398420AD042F2031398420CBF2120A5
:105F00000120704721207047282070472B207047C0
:105F10000378012B06D84378013B0F2B94BF002058
:105F20002120704721207047002370B5194600F1E9
:105F3000F2041A4634F8026FDDB2013336B1013291
:105F4000D2B2012A01D99A420BD12946102BF1D1A4
:105F50001A4B1B78934204D1012A04D10378994249
:105F600002D0232017E00023C2185278012A22D839
:105F700000EB83004369D3B1114A934219D8D0F89A
:105F80001431104A934207D9D0F854010E4B98426D
:105F90008CBF2120002070BDB3F53D3F0BD8D0F859
:105FA0005431B3F53E3F34BF00202120F3E72D20CC
:105FB000F1E72820EFE72120EDE700BF681400009B
:105FC000A0252600FFFF0524001B062411B104298B
:105FD00000D07047014B1B68184700BF6C140000CD
:105FE00084B010B52DED028BE6B06AAC84E80F00EA
:105FF000CFA89DEDD08AFFF78BFF00285CD13B4BEB
:106000009DF83D431C706AA8FFF78EFF002853D10E
:10601000012C08BF9DF8A8019DF83C236AAB03EB57
:106020004000012AB0F8F43003D1012B4BD02B20D3
:1060300042E0013B9BB240F2FE318B42F7D8002A8E
:1060400041D1012C3FD92A4B62934FF4C272BDF863
:106050003C33ADF884316EA9684602F029FA6AAB88
:106060000FCBFDF795F8FFF727FF28BB00236593BB
:10607000FFF72EFA65909DED657ADFED1E7AB4EE9E
:10608000E77AF1EE10FA02D51B48FFF7A1FCDFED2D
:106090001B7A6599B4EEE78AF1EE10FA24D4DFEDAD
:1060A000187AB4EEE78AF1EE10FA1DDC18EE100A49
:1060B000FCF70AF8FFF700FF66B0BDEC028BBDE805
:1060C000104004B070470A4B62936EA9BDF83C3390
:1060D000ADF884314FF4C272684602F0E9F96AAB58
:1060E0000FCBFDF7F5F8BEE72120E5E768140000C7
:1060F000CD6F20089A991940600900006666E63F56
:106100006666664084B000B5E3B00DF5C87C8CE8E7
:106110000F00C9A8FFF7FCFED0B964A8FFF704FF81
:10612000B0B99DF82423BDF82433B2B99DF82523D6
:10613000012A12D94FF4C27268A96846ADF88431B9
:1061400002F0B6F964AB0FCBFDF7BAFAFFF7B4FE75
:1061500063B05DF804EB04B0704768A94FF4C272F5
:106160006846ADF8843102F0A3F964AB0FCBFDF7BC
:106170003DFCEBE7034620B1044A106818B91360F0
:106180007047222070470420704700BF6C14000045
:1061900008B50348FDF7F0FDBDE80840FFF78CBEE9
:1061A0000038042407B5ADF8040001A8FFF7B0FEDD
:1061B00020B90198FCF784FAFFF77EFE03B05DF882
:1061C00004FB07B5ADF8040001A8FFF7A1FE20B954
:1061D0000198FDF793F9FFF76FFE03B05DF804FB3C
:1061E00007B5ADF8040001A8FFF792FE20B90198A9
:1061F000FDF738FAFFF760FE024B00221A6003B089
:106200005DF804FB6C140000042902BF014B01225D
:106210001A70704778140000437853B94269074BED
:106220009A4208D8B0F8F430012B14BF2B2000207C
:106230007047212070472820704700BFA025260006
:1062400084B000B5E5B00DF5CC7C8CE80F009DF86E
:106250002C33012B34D19DF82D33013B0F2B2FD83C
:106260006046FFF7D9FF30BB164B62934FF4C27202
:10627000BDF82C33ADF884316AA9684602F018F9EC
:1062800066AB0FCBFFF7ACFEA8B9BDF82C33ADF869
:1062900084314FF4C2726AA9684602F009F966AB0C
:1062A0000FCBFFF72FFF30B90748FFF763FF10B997
:1062B000CB98FFF777FF65B05DF804EB04B070474B
:1062C0002120F8E73D0A27400972200884B000B574
:1062D000E3B00DF5C87C8CE80F0014238DF8E43191
:1062E0006046104B8193FFF797FFA8B901460E4A0D
:1062F0000E48FDF718FE0E4B4FF4C2721B88ADF826
:10630000843168A9684602F0D3F864AB0FCBFFF77D
:10631000F9FE003818BF012063B05DF804EB04B04B
:10632000704700BF00004C4234010000143A0424BE
:10633000EC02000084B000B5E3B00DF5C87C8CE839
:106340000F006046FFF768FF98B9FFF721FF80B99B
:1063500017238DF8E431094B4FF4C2721B88ADF856
:10636000843168A9684602F0A3F864AB0FCBFFF74D
:10637000C9FE63B05DF804EB04B07047EC020000A6
:106380002DE9F0432DED028B0646E3B0002800F026
:1063900092804A4D4FF4C27205F11001684602F036
:1063A00087F895E80F00FFF791FF2F460446002875
:1063B00073D1434B1A7862B118706A784148012151
:1063C000FDF798FD07EE900A3F4BF8EEE77AC3ED34
:1063D000007A3E494FF4C272684602F069F897E8C5
:1063E0000F00FFF7A7FF0446002856D1DFF8D4902E
:1063F000374F4FF00A086A7800214846FDF77AFDCA
:1064000007EE900A08F1FF38F8EEE77A18F0FF0877
:10641000C7ED007AEFD1020545D520F400631B04D7
:106420001B0C07EE903AF8EEE77AC7ED007AFFF71B
:1064300089FB08EE100AFFF773FB08EE900AFFF7DE
:106440008DFB214B97ED007AD3ED007ADFED216AC9
:10645000B8EE488AC0F5707037EE487A77EEC87AA1
:106460000130C7EE275A07EE900AF8EEE77AF8EE09
:10647000688A87EEA67A88EEA66AF0EE477A45EE3D
:10648000867ADFED156A9FED157A17EEA67A17EE7C
:10649000100A00F0CFFDC6E90001204663B0BDEC54
:1064A000028BBDE8F08340F400631BB207EE903A24
:1064B000F8EE677AB9E72224EFE700BF5801000041
:1064C00078140000003804247014000068010000F3
:1064D0007414000000007A4400009B43008088434D
:1064E00007B5ADF80400C0B2012816D19DF80530FB
:1064F000013B0F2B11D80A4B5B68DB0705D40198D1
:1065000003B05DF804EBFFF76BBE0198FFF759FE8F
:106510000028F4D003B05DF804FB2120FAE700BFA7
:1065200000380424F8B50468012C054622D8124E20
:1065300056F8242042B1536810498B4204D01049C8
:106540008B4201D01120F8BD0E4B0F49DB680F487C
:106550001F680F4B51F8241053F8243050F82400D2
:10656000B8472B6846F8240056F82330002BE9D0B2
:106570000020E8E72120E6E78C1900000000034432
:106580000080072400013000F0020000F802000043
:1065900000030000F0B529B1012803D80B6818B931
:1065A000202B0CD921202AE00C2BFBD8012AF9D86A
:1065B0002C4C6468002C51D073BB0C2707E0012AD7
:1065C000F0D8284C2468002C48D02BBB202701256C
:1065D000254C264BAC46A8B926792EB90D60C4E9E6
:1065E0000200226084F804C00E6836BBBD4205F18B
:1065F000010604F1180403F1180301D14620F0BD8F
:106600003546E8E71E79002EEED10D60C3E902663B
:106610001A6083F804C0E7E7013B182578B9124CEB
:106620006B43E6183679DEB9E2500B68013B05FB97
:106630000343C3E9020001221A710020DFE70B487F
:106640006B43C41824795CB9C2500B68013B05FB4D
:1066500003030122C3E902441A71EEE71120CEE7D9
:106660004520CCE78C1900009C1500007C1400002C
:10667000012810B503D811B118B9202909D9212052
:1066800016E00C29FBD8C2B10D4B5B688BB9112009
:106690000EE092B10A4B1B68002BF8D01068094B32
:1066A0000139182404FB013398605268DA60002035
:1066B00010BD1068044B0139F3E72220F8E700BF52
:1066C0008C1900009C1500007C140000012830B5D6
:1066D00036D8002934D0E8B9202931D8531E022BEE
:1066E0002ED8194B53F8203063B302F00203D207BF
:1066F00021D54C1E182578B9144A05FB0422906058
:1067000033B1124B0139182202FB01310023CB6057
:10671000002030BD0C29E0E70D4A05FB04220020D3
:106720009060002BF4D00A4B1822013902FB013390
:106730000022DA60ECE7002BEAD00028E1D0F2E793
:106740002120E6E71120E4E78C1900009C150000E9
:106750007C14000010B5044600284AD040783F2839
:1067600041D94038C0B200F0EDFA617840390123D8
:106770000622C9B2042000F04FFA6078A0F1180395
:10678000072B88BFA07900F095F9207822796178ED
:10679000012300F041FAE0783F2827D94038C0B201
:1067A00000F0D0FAE178403901230622C9B2042072
:1067B00000F032FA6378183B072B94BFE078E07959
:1067C00000F078F96279E178A078012300F024FAEA
:1067D000094BDB690122D3F8E4300A214FF08C40E9
:1067E0009847002010BD00F097FAC6E700F094FA31
:1067F000E0E72220F6E700BF0001300000206FF341
:10680000070002236FF30F2082B063F3174002B03A
:106810007047000008B540EA0103012B0A4605D87D
:1068200001460348FDF7BEFC002008BD2120FCE71F
:1068300000000747032808B50CD841EA0203B3F566
:10684000803F07D293B28AB201460348FDF7F2FBBC
:10685000002008BD2120FCE700000747032A08B5F7
:1068600013460CD80F280AD8062908D80A4601462C
:106870000448FDF71AFC003818BF012008BD21208C
:10688000FCE700BF00000747032908B50A4609D8FE
:10689000052807D801460448FDF744FC003818BF16
:1068A000012008BD2120FCE700000747032908B5A7
:1068B0000A4609D8012807D801460448FDF756FCC6
:1068C000003818BF012008BD2120FCE70000074761
:1068D00070B50D46014678B1084B00241C60084A8B
:1068E0004FF480305060074E0A681A603046FDF75A
:1068F00068FC7560204670BD2220FCE79C190000F2
:1069000000E100E000000747032A08D8012806D864
:10691000044B02D11965002070475965FBE721201F
:10692000704700BF0000074703290DD8B0F5803F2E
:106930000AD2064B163180B253F8212060F30F02C1
:1069400043F82120002070472120704700000747AE
:10695000A9B1032815D802280B4B0AD003280BD065
:10696000012814BF9B6AD3F800319BB20B80002032
:106970007047D3F81831F8E7D3F83031F5E7222023
:1069800070472120704700BF0000074770B5244BB7
:1069900045681E680378032B044601D9212070BD89
:1069A000837A012BFAD8007A0128F7D8617A012975
:1069B000F4D8FFF72FFF0028F1D1B6FBF5F1E2681C
:1069C0002078FFF737FF0028E9D12178A07AFFF778
:1069D0006DFF0028E3D1257812492846FFF7B8FF5C
:1069E0000028DCD10888237C58436423B0FBF3F0F3
:1069F0000D4B29461860FFF797FF0028CFD1607C28
:106A00002946FFF741FF0028C9D1A17C0129C5D83B
:106A1000064BD3F8482161F30002C3F84821BEE7D2
:106A20005C0C000098190000941900000000074752
:106A3000032821D80228114B10D0032815D0012893
:106A400015BF5A6BD3F80C216FF300026FF30002ED
