:10000000010000000D900D9040FE00000100000076
:10001000001020003560073A0000000000000000DA
:1000200000000000000000000000000000000000D0
:100030000000000000000000000000000D900D9086
:10004000A55A0000002020080000008000000000E9
:1000500000000000000000000000000000000000A0
:100060000000000000000000000000000000000090
:100070000000000000000000000000000000000080
:100080000000000000000000000000000000000070
:10100000205E0000A54020085940200859402008D3
:10101000594020085940200859402008000000008D
:1010200000000000000000000000000059402008FF
:10103000594020080000000059402008594020086D
:10104000594020085940200859402008594020089C
:10105000594020085940200859402008594020088C
:1010600059402008594020082D07000055692008E4
:10107000654B200859402008594020085940200855
:10108000594020085940200805AA2008A9AA20088C
:10109000594020089DA92008C190200859402008E7
:1010A000594020085940200859402008594020083C
:1010B0005940200859402008205E0000594020086F
:1010C000A540200885060000594020085940200806
:1010D00059402008594020084D4B2008594B200802
:1010E000D53F20085940200859402008F1CCB0696C
:1010F0005940200859402008B94820085940200884
:1011000059402008594020086DA9200885A92008C9
:10111000ADA82008C5A82008DDA82008F5A820084B
:101120000DA9200825A920083DA9200855A92008B7
:1011300059402008594020085940200859402008AB
:10114000594020085940200859402008594020089B
:10115000594020085940200859402008594020088B
:10116000594020085940200859402008000000003C
:10117000000000000000000000000000000000006F
:101180000348044B834202D0034B03B11847704716
:10119000880D0000880D0000000000000548064B87
:1011A0001B1AD90F01EBA301491002D0034B03B165
:1011B00018477047880D0000880D000000000000EF
:1011C00010B5064C237843B9FFF7DAFF044B13B18F
:1011D0000448AFF300800123237010BD880D000088
:1011E0000000000060F9200808B5054B1BB1054957
:1011F0000548AFF30080BDE80840FFF7CFBF00BF50
:10120000000000008C0D000060F9200873B5044652
:10121000002101F07FF862881E251F231E3ACDE9C8
:10122000005312B22B460021204601F03BFA62889F
:101230004FF478431E3ACDE9005329462B4612B2AB
:10124000204601F02FFA62884FF4FC631E3ACDE984
:10125000005312B22B463C21204601F023FA62884B
:1012600040F2FF731E3ACDE9005312B22B465A21C9
:10127000204601F017FA62884FF61F031E3ACDE9A7
:10128000005312B22B467821204601F00BFA6288F7
:101290004FF6E0731E3ACDE9005312B22B46962169
:1012A000204601F0FFF962884FF6FF761E3ACDE93D
:1012B00000562B4612B2B421204601F0F3F91B4B25
:1012C0001B88019300220A2300931146204601F057
:1012D000E9F922881649253A052312B2204601F081
:1012E00005FC21880196192528390095282300221C
:1012F00009B2204601F0A3F922880E494D3A052390
:1013000012B2204601F0F2FB21885039CDE9005697
:101310002823002209B2204601F091F9002120463D
:1013200002B0BDE8704000F0DDBF00BF0C0000005F
:1013300030EC200834EC2008B0F902301E3B934218
:101340002DE9F34104460D465DDCEF295BDC484E98
:101350003788FFB9018801974FF0190850392823C1
:101360003A4609B2CDF8008001F09CF92288414943
:101370004D3A052312B2204601F0B8FB21884FF602
:10138000FF735039CDE900833A46282309B220463D
:1013900001F055F91D2D0DD81F233380338801939B
:1013A00000220A2300931146204601F07BF902B087
:1013B000BDE8F081A5F11E031D2B02D84FF4784340
:1013C000EBE7A5F13C031D2B02D84FF4FC63E4E7E7
:1013D000A5F15A031D2B02D840F2FF73DDE7A5F1FA
:1013E00078031D2B02D84FF61F03D6E7A5F196030D
:1013F0001D2B02D84FF6E073CFE7B43D1D2DCDD89D
:101400004FF6FF73C9E7B4F90010A1F12803AB420E
:1014100007DC182A21DC204602B0BDE8F041FFF7C6
:10142000F5BE5039A94218DC182A16DC19234FF4EE
:101430007842CDE9003209B228230022204601F08B
:1014400031F922880B494D3A052312B2204601F0AA
:101450004DFB074B00221A80A9E7054B1B88009320
:1014600012B2022329B2204601F0C0F89FE700BF64
:101470000C00000034EC200808B500F095F800F0EE
:101480001BF800F0AFF800F04BF8FAE77047704730
:101490007047704708B506F031FD01F05FFCBDE80C
:1014A000084001F043BF704770477047704770476E
:1014B000704770477047704738B5134801F052FBCA
:1014C00008B100BEFDE711480AF0D6FA104800F056
:1014D00080FC054608B100BEFDE70E4C0E480AF040
:1014E000CBFA204600F0D6FE0C480AF0C5FA40F2CE
:1014F0000223A3814FF6FF736360E5732046BDE8C6
:101500003840FFF783BE00BF80EC200838EC20088D
:10151000B00D0000C00D000055EC20086DEC200857
:1015200010B50B4C0B48214600F0EAFC94ED027A12
:10153000DFED097AB4EEE77AF1EE10FA06D5D4E9D8
:1015400000120648BDE81040FFF7F6BE10BD00BF10
:10155000A40D0000B00D00000000FA43C00D000013
:10156000FEE7EFF3108072B6704710B962B6BFF3B2
:101570006F8F7047EFF311800C2383F3118870474E
:1015800080F31188BFF36F8F70477047704708B5BD
:10159000FFF780FFFFF788FFFFF787FFFFF786FF62
:1015A000BDE80840FFF783BF08B5FFF7EEFF01F085
:1015B00085FD00F0F3F8FFF7E9FF00F007F8FFF70B
:1015C00072FFBDE80840FFF7E2BF704708B5FFF7BC
:1015D0005DFFFFF75CFFFFF75BFFFFF75AFFFFF7C9
:1015E000F4FF08BD08B5FFF763FFFFF762FFFFF7E1
:1015F00061FFBDE80840FFF75EBF00230B70704736
:1016000030B50E4C416123688BB9206083600DE0DA
:10161000891A9A6841611D466AB113465A698A421D
:10162000F6D935B1A860521A83605A6130BD0025E1
:10163000F4E72060F7E798608260F7E7E80D0000C4
:1016400038B506F0CBFC094C094B1A682368002515
:10165000C31A2AB123B15169994203D3C91A5161FE
:10166000206038BD55615B1A9268F2E7E40D000016
:10167000E80D000038B5154D2B682BB35B69A3B19D
:10168000134A146802201C4406F0B2FC204606F0FF
:10169000B9FC10492A6800230B7022B1D08880075A
:1016A0000AD501230B70002038BD022006F0A0FCF3
:1016B000022006F0FBFCECE79268002AF3D05069A8
:1016C0000344012BEAD9EEE72220EDE7E80D000004
:1016D000E40D0000E00D000070B516469DF81420E2
:1016E0000271049A0260C0E903360022BDF8183086
:1016F000826004460D46C380EEB906F06FFC2844B4
:10170000A0619DB12E46FFF72CFF0546FFF798FF1D
:1017100031462046FFF774FF104B1B68A34201D1EE
:10172000FFF7A8FF2846FFF720FF02E0E3686561A6
:101730007BB9002070BD06F051FC3044A061002D43
:10174000E0D1E3686561002BDDD021682046984731
:10175000D9E7216820469847EBE700BFE80D000075
:101760000D490B6898B100229BB1834203D1836875
:1017700022B90B6003E01A469B68F5E79360836823
:101780001BB15A6941690A445A61002070472220FE
:1017900070470220704700BFE80D000070B5154E7D
:1017A000FFF7E8FE34780546FCB9134B1C60134B79
:1017B0001C60134B1C6006F0CFFB012006F018FCE8
:1017C00006F09CFC0F4B0246186020B92846FFF734
:1017D000D7FE232070BD23460B4840F2E73109F0C5
:1017E00037FA0A4B1860012333702846FFF7C8FE0A
:1017F0000020EFE7E10D0000E80D0000E40D00001F
:10180000F00D0000EC0D000018FCFFFFDC0D0000E7
:1018100038B50C460546A8B1A1B100230B70FFF7FF
:10182000A9FE094B1B68012133B9FFF7A9FE00206F
:1018300038BD9D4204D121702278002AF9D0F4E706
:101840009B68F1E72220F3E7E80D0000F0B587B0D0
:101850001F4600230D4616468DF817300446A8B1E2
:10186000C3610DF11701FFF7D3FF9DF817207AB977
:10187000BDF8343002939DF830302946CDE900732D
:1018800020463346FFF728FF07B0F0BD2220FBE7D4
:101890000320F9E738B5074B1D680446002140F2E4
:1018A000E7304FF47A720023E5FB040109F0D0F928
:1018B00038BD00BFEC0D000000B58DB001238DF8E0
:1018C0000F30FFF7E7FF0023CDE900330146074A59
:1018D0000DF10F0304A8FFF7B9FF18B99DF80F30F9
:1018E000002BFBD10DB05DF804FB00BFFB252008E9
:1018F000C2072DE9F843044607D54B4A1368013364
:101900001360FFF79DFEFFF7B5FEA30740F18A8045
:10191000FFF730FE0546FFF793FE4FF00008434FF8
:1019200046463C680CB16369A3B1414B0022012ECD
:101930001A7003D118F0020F18BF1E70FFF79AFE3D
:10194000222802D1022006F09BFB2846BDE8F8437E
:10195000FFF716BE23465A693AB91A79217991429E
:1019600088BF1C469B68002BF5D12846FFF708FE70
:101970002569DDB106F032FBA269A0EB02084FEA4F
:10198000E873A84573F1000311DB23691344A361D5
:10199000E36813B1216820469847B4F80680FFF742
:1019A000E9FD01360546FFF74BFEBAE7A846FFF70B
:1019B000E1FD81462046FFF7D3FE4846FFF7E0FDF4
:1019C0002369002BE4D0B5EB08054FEAE87363EB1D
:1019D0004303012D73F1000304DA164840F2476116
:1019E000FFF7BEFDA38B33B1E28B13449BB2B3F57B
:1019F0007A7F0FD2E383FFF7BDFD2946804620465C
:101A0000FFF7FEFDA36922691344A3614046FFF777
:101A1000B7FDBDE7A3F57A73E383A369013B013DFD
:101A2000A361E8E7BDE8F883F00D0000E80D0000D1
:101A3000D80D0000B4EC20080F2070470F2070472D
:101A4000034B1A681AB100211A68196010477047D1
:101A5000F80D00000378052B17D840781BB93928FA
:101A600015D908F03FB85A1E012A05D9032B08D012
:101A7000042B08D0062800E0102834BF00202120C5
:101A800070470A28F9E70C28F7E721207047184625
:101A90007047000038B50446FFF7DCFF80BB2578AF
:101AA0006478052D0AD920484FF4CE7108F0FAF970
:101AB0001D484FF4D27108F0F5F92EE0032D0ED930
:101AC000042D28D10B2C04D9174840F2A11108F09D
:101AD000E9F9240104F1105404F598240EE085B9C5
:101AE0004B2C04D910484FF4CF7108F0DBF904EB0C
:101AF0000514240104F18C4404F598140023636058
:101B000038BD012D01D13B2CEBE7022D01D12B2C4F
:101B1000E7E71B2CE5E7052CCAD8044BA4001A59AB
:101B20006FF345121A51EBE71DED20081C860424C3
:101B300043689B68B3F5002F07B505D10389ADF85D
:101B4000043001A8FFF7A6FF03B05DF804FB000016
:101B500038B50446FFF77EFF80BB25786478052DF5
:101B60000AD920484FF49B7108F09CF91D484FF4A6
:101B70009F7108F097F92EE0032D0ED9042D28D17E
:101B80000B2C04D9174840F23B1108F08BF92401C3
:101B900004F1105404F598240EE085B94B2C04D9B7
:101BA00010484FF49C7108F07DF904EB05142401F2
:101BB00004F18C4404F598140123636038BD012DB1
:101BC00001D13B2CEBE7022D01D12B2CE7E71B2C9D
:101BD000E5E7052CCAD8044BA4001A5942F02002AC
:101BE0001A51EBE71DED20081C860424F7B5134EAF
:101BF00004460D461746306808F0FAF8C207FAD4D2
:101C00006068FFF795FF294630683A4608F0B8F853
:101C10000546306808F0ECF8C307FAD463685A68E0
:101C20009268B2F5002F05D11B89ADF8043001A8E8
:101C3000FFF78EFF284603B0F0BD00BFF40D000093
:101C40002DE9F3414368089F5B89ADF804300446F1
:101C500001A80D461646FFF77BFFA7B1D6F8008016
:101C60000D4E306808F0C4F8C307FAD40B4B606817
:101C70001F60FFF75DFF30684246294602B0BDE8AD
:101C8000F04108F07DB832682946204602B0BDE830
:101C9000F041FFF7ABBF00BFF40D0000F80D0000EE
:101CA0007FB51D4643688DF807105B89ADF80C3091
:101CB000044603A81646FFF7EDFE01220DF10701C9
:101CC0002046FFF793FF60B95DB1636803A85B89A5
:101CD000ADF80C30FFF73CFF2A4631462046FFF7AF
:101CE00085FF04B070BD0000F0B50B688DB00546EF
:101CF0000C4606AE03F1180718685968324603C24D
:101D00000833BB421646F7D1636802AE03F11007F1
:101D100018685968324603C20833BB421646F7D1E9
:101D20001C4E0020314607F0BFFF034678BB012060
:101D300001F0BCFD306802A907F0DAFF034630BBB2
:101D40001549306808F038F8034600BB07F085FDF8
:101D50000346E0B962689268B2F5002F09D1228982
:101D6000ADF804208DF80600019807F0FFFE034649
:101D700068B96389ADF8043000238DF80630019806
:101D800007F0F4FE034610B9044AC5E900241846DA
:101D90000DB0F0BDF40D0000412A2008D4ED20085C
:101DA00070B50146012251F8045F13460C4654F801
:101DB000046CB54205DA013B13F0FF0344F80469F3
:101DC000F5D101321BB2D2B2062A40F82350EAD133
:101DD00070BD00F02FBA2DE9F041436804460021A0
:101DE00086B008469B6898476368012108469B684F
:101DF0009847636802205B689847636803205B68C4
:101E00009847636802201B68984763680320DB6873
:101E100098476D462F460026A84663681B69984779
:101E20000136062E47F8040BF7D163685B699847C3
:101E30002846FFF7B5FF039BB3F5805F03DB28203F
:101E400006B0BDE8F081C3F58053238163680021AB
:101E50009B6802209847636801219B68032098478C
:101E6000636800205B689847636801205B68984757
:101E7000636802201B68984763680020DB68984706
:101E8000002663681B6998470136062E45F8040B47
:101E9000F7D163685B6998474046FFF781FF039B72
:101EA000B3F5805FCBDAC3F58053638163680021AB
:101EB0009B6801209847636801219B68022098472E
:101EC000636800205B689847636803205B689847F5
:101ED00063680020DB68984763681B6998476368FC
:101EE000A0815B69984763680320DB689847636853
:101EF0001B6998476368E0815B69984700209FE70A
:101F0000F8B504460D46FFF766FF00284BD121685F
:101F100026890A7D6389002A46D11A463346B1F8DC
:101F20000AE00F68B1F80EC09E453ABFA3EB0E035E
:101F30009BB200237B438F89944538BFA2EB0C02F0
:101F4000A7EB0E07B3FBF7F32B604B6834BF92B2DD
:101F5000002253430A8AA2EB0C02B3FBF2F36B603C
:101F6000E38906EE903AA38907EE103AF8EE666A26
:101F7000B8EEC77A0B89C6EE877AB7EE007A77EEAD
:101F8000C77A07EE106AB8EEC77A27EE277A07EE0F
:101F9000903AF8EEE77A67EE877A9FED047A67EE7B
:101FA000877AC5ED027AF8BD3246B8E7000080397D
:101FB00011B1042900D07047014B01221A707047FB
:101FC000FC0D00002E2358430023984200D1704797
:101FD00000BF0133F9E70000034B1A78587842EA52
:101FE000002006F086BF00BFE4ED20080378052B33
:101FF00017D840781BB9392815D907F073BD5A1E78
:10200000012A05D9032B08D0042B08D0062800E0AC
:10201000102834BF0020212070470A28F9E70C2837
:10202000F7E72120704718467047000010B5144BA1
:10203000E6B01A78002AFCD000221A700DF5CB7396
:10204000104C6293104B04F110011B88ADF88431E1
:102050004FF4C272684609F09BFE94E80F0006F048
:10206000BFFEBDF896311A0546BF23F400639BB24C
:1020700043F4006300280CBF1846002066B010BD72
:10208000FC0D000010000000E4ED200830B5184CF5
:102090002378E218E3B082F8540004F110014FF401
:1020A000C2726846619309F073FE94E80F0006F06F
:1020B000E3FED0B90F4D4FF4C2722B88ADF88431D6
:1020C00004F11001684609F063FE94E80F0006F081
:1020D00041FE50B92B786A7843EA022363F30F007C
:1020E00063B0BDE8304006F0F5BE63B030BD00BF60
:1020F00010000000E4ED200808B520B90420FFF727
:10210000C5FF002008BD032801D10A20F7E72120E0
:10211000F8E7000073B50D461C46C1B2EBB28DF86E
:1021200004108DF805308DF80620064601988DF8CC
:1021300000108DF8013007F019FDB0B9684614B3EE
:10214000FFF754FF88B9042E4FEA05140FD036B1BB
:102150001B2D04D91D484FF49C7107F0A3FE04F118
:102160008C4303F5981301225A6002B070BD0B2D09
:1021700004D9164840F23B1107F094FE04F11053C5
:1021800003F59823EFE7FFF731FF0028EDD1042E88
:102190004FEA05140DD036B11B2D04D90B484FF46E
:1021A000CF7107F07FFE04F18C4303F598130022F2
:1021B000DAE70B2D04D9054840F2A11107F072FEB1
:1021C00004F1105303F59823F1E700BF1DED20083B
:1021D000032816D8DFE800F002070D1100230122C2
:1021E0000821042003E0002301220A211846FFF7FA
:1021F00091BF002301223621F8E701220023114676
:10220000EFE770470B46032812D8DFE800F002061C
:102210000B0E00220821042002E000220A211046B1
:10222000FFF778BF00223621F9E700220121F2E70B
:102230007047000010B5104B4360E4B00F4B0360D3
:102240000F4B104C6293104B4FF4C2721B88ADF8C9
:10225000843104F11001684609F09AFD94E80F00FA
:1022600006F0E6FC28B9094806F0ACFD08B9084BB1
:102270001870002064B010BDE8ED200800EE2008C2
:102280003333534010000000E4ED2008B12F200844
:10229000FC0D000038B50446F0B1104D00F040FDD3
:1022A0002B6873B12B681A885B88638000204FF01D
:1022B000FF33C4E901300A4B60612280E36020747F
:1022C00038BD00F03FFD436828601B689847002830
:1022D000E8D04FF40070F3E71020F1E7000E0000A3
:1022E0000101000188B101F003038373084B1A68F0
:1022F000B2F90030B2F90220C9075EBF1946134691
:102300000A4602804380002070471020704700BFBB
:10231000000E0000094A126808B50346084642B19B
:1023200053B15368DB689847003818BF0120C001DB
:1023300008BD4FF40070FBE71020F9E7000E000025
:1023400038B50546084611461A461C4B1C686CB346
:102350007DB350EA01032ED4B5F9003083422ADD63
:10236000B5F902308B4226DDAB7B022B10D0032B5C
:1023700017D0012B04D12388013B5B1A014618B208
:1023800063685B689847003818BF0120C00138BDFA
:102390002588013D2D1A28B26588013D6D1A29B2A4
:1023A000EEE76588013D2D1A0846F8E74FF4007006
:1023B000EDE71020EBE70420E9E700BF000E000086
:1023C0002DE9F04F1546314A85B01268BDF83CB092
:1023D0001F468046BDF938300C46002A51D00028EF
:1023E00052D0A3EB0509A7EB010AB9F1000FB8BF62
:1023F000C9F10009BAF1000FB8BFCAF1000AD1450E
:1024000004DD3A462C461F460D461346BC4205DD08
:102410002A461D46134622463C4617463E1BB2B28C
:1024200001925A1B82EAE271A1EBE271C6F3C0325B
:1024300002FA86F69D42B4BF01234FF0FF330291AA
:1024400076100393BC4203DD002005B0BDE8F08F99
:10245000D1455B46C7BF224629462A46214640460B
:10246000FFF76EFF029BF61AB3B236B2002E05DA02
:10247000039A1544019A13442DB21EB2013424B2BA
:10248000E0E74FF40070E0E71020DEE7000E000008
:102490002DE9F04F8BB01C46BDF858300593A3B220
:1024A000C3F10105C3EBC3335B001BB207934E4B73
:1024B0001B6880468A469DF85000BDF954102DB225
:1024C000002B00F08B80B8F1000F00F08A808BB2F7
:1024D000069393B213FA81F10393049300F001037E
:1024E000089300F002031FFA81FB00270993A7421B
:1024F00003DB00200BB0BDE8F08F002D5DDB079BF8
:1025000002331AB2661E15FA83F336B207921DB271
:1025100001371FFA87F905EB49053FB20135BE4285
:102520002DB22CDB089B9BB1039A05980190B1B2A8
:10253000521A0698490011FA82F1014409EB0A0384
:1025400009B21BB2009112B219464046FFF738FF9C
:10255000099BA3B1039A05980190B1B2521A06984B
:10256000490011FA82F10144AAEB090909B20FFAF4
:1025700089F3009112B219464046FFF721FFA642A7
:1025800012D0089B6BB1059A01920AEB04030FFA73
:102590008BF21BB200921946BDF910204046FFF79E
:1025A0000FFF099B5BB93446049B013B9BB204932C
:1025B0000BF101031FFA83FB99E72646A8E7059A6A
:1025C0000192AAEB04030FFA8BF21BB20092194698
:1025D000BDF910204046FFF7F3FEE4E74FF400702A
:1025E00088E7102086E700BF000E00002DE9F043C9
:1025F00085B09A429CB21546CCBF2C1B6400BDF836
:102600003080CBBF24B224B222460022CDE900485C
:102610001E460B4607468946FFF7D2FE03230022DB
:10262000CDE900320446CDF8088033462A464946B3
:102630003846FFF72DFF204305B0BDE8F0832DE9B4
:10264000F3475D1EBDF82C900D442DB2CDE9002955
:102650002B46174680468A46FFF7B2FEBDF9284052
:10266000013C3C4424B22B4622465146CDE9004968
:1026700006464046FFF7A4FE53463A465146CDE98A
:10268000004906434046FFF79BFECDE9004906435B
:102690002B463A4629464046FFF792FE304302B0A9
:1026A000BDE8F0872DE9F74FBDF93050BDF834A0F3
:1026B000013D154481460E46934698460C46002738
:1026C0002DB206EB08039C4203DB384603B0BDE89D
:1026D000F08F23462146CDE9005A5A464846FFF777
:1026E0006FFE0134074324B2EBE700002DE9F04F01
:1026F00095B007460392BDF878200592BDF87C207E
:102700000492A34A9DF8806012689DF88450884620
:10271000002A00F05281002800F05281416900290E
:1027200040F0BE801188884580F24C815288039920
:10273000914280F24781062212FB0682002A4FF066
:1027400008047CDD14FB0512002A78DDAF2B88BF5E
:1027500001334FF0050288BFDBB20A928D4ABDF803
:102760000CB003EB83034FF00009D3184C460E93D3
:102770000E9B13F8093007931FFA89F308931FFA89
:1027800088F3069309FB06F313FA88F31BB2099347
:1027900008230B9333B20C932BB24FF0000A0D9326
:1027A000079BDA074FD5012E1FFA8AF20DD1012DB2
:1027B0000BD1089B06995918059B5A4412B209B2CD
:1027C0003846FFF7BDFD04430CE0059B019315FB64
:1027D00002F20D9B00935A440C9B099912B23846A1
:1027E000FFF760FF079B5B0807930B9B013B0AF118
:1027F000010A13F0FF034FFA8AFA0B93D0D10A9B18
:10280000013B09F1010913F0FF034FFA89F90A931B
:10281000AED1DDE90423934211D0012E31D1012D37
:102820002FD1069B0192039A0533073212B21BB2D5
:1028300000921946039A3846FFF7C2FD044320462A
:1028400015B0BDE8F08FDDE904239342CAD0012E14
:102850001FFA8AF207D1012D05D1089B06995A4427
:102860005918049BAAE7049B019315FB02F20D9BE8
:1028700000935A440C9B099912B23846FFF712FF95
:10288000A1E70699039A06EB86031944ED00049B21
:1028900001930095334609B23846FFF703FFCDE7B1
:1028A0000A89486809680D919B1ADBB200EBC302E4
:1028B00030F83330069393780993D3780E9392F9D6
:1028C000053092F906200A9246EA0502012A86BFDF
:1028D0000A9A089300224FF0000994BFCDE907221D
:1028E000079213FA88F31FFA88F2CB46CA464C4681
:1028F000129213930E9B9A45A1D2BDF80C300B9304
:10290000079B039A534413FB05F313FA82F332B285
:102910001BB210922AB20C934FF000084B46119252
:102920002AE05A1CD2B25B070F9207D1069B069988
:102930000D9A01339BB212F801B006931BF0800F81
:1029400011D0012E28D1012D26D1DDE90A239A18B4
:10295000139B524408EB030112B2059B09B238469F
:10296000FFF7EEFC04434FEA4B0B08F101080F9B05
:102970005FFA8BFB5FFA88F8099A9045D1D39144AE
:102980000AF1010A5FFA89F95FFA8AFAB2E700BF31
:10299000000E000018EE2008089B0C9A03EB0801BB
:1029A000129B01FB0631049B0193119B009309B21A
:1029B000109B3846FFF776FED4E74FF400743EE7ED
:1029C00010243CE708243AE7F0B5474A126885B07E
:1029D00004460B46002A00F08180002800F0818028
:1029E0004269002A34D10A2908D143890281427BF5
:1029F00003EBC2036381012005B0F0BD0D29FAD0BD
:102A0000E17B007B657B71B1B4F90860062111FBA5
:102A10000061B4F90060B142C1BFB4F90A1022816B
:102A200001EBC5026281CDE90205E2880192A2882C
:102A30000092B4F90A20B4F908102046FFF756FEB8
:102A4000237B228903EB430302EB43032381D3E778
:102A50000A2907D100230381417B127B438901FBB3
:102A60000233C7E70D29C6D0117A8B42C3D3907ABF
:102A70009842C0D35568591A05EBC105A97859B3D6
:102A8000E87818B3E07B267B677B90B195F9050069
:102A90000844B4F9081006FB0011B4F900008142A3
:102AA00007DD00202081B4F90A10127B02FB071217
:102AB0006281CDE90267E2880192A2880092B4F9AE
:102AC0000A20B4F908102046FFF710FE2979227B6E
:102AD000238901FB0233B9E70846F7E74FF400709A
:102AE0008AE7102088E700BF000E000038B50546D1
:102AF0000B48006870B185B12A816B814C1E14F8B7
:102B0000011F09B9084604E02846FFF75DFF0028C9
:102B1000F5D038BD4FF40070FBE71020F9E700BF97
:102B2000000E000030B4054604481346026854689D
:102B30000A46A446294630BC604700BF040E000088
:102B400030B50546064887B003680391002200921D
:102B50009C6803AA04232946A04707B030BD00BFE4
:102B6000040E000038B501461248FFF7BDF8962064
:102B7000FEF7A2FE104B187800B938BD9C1C5B789C
:102B8000FF2803F07F055BB211D0002B08DA00228A
:102B90001146FFF7C7FF05EB8500FEF78DFE04E049
:102BA00021462A46FFF7BEFF2C442346E3E7002BCD
:102BB000FBDAF0E7040E000018F320082DE9F341DA
:102BC000DFF898801C46B8F80030551E0544834253
:102BD00007460E46ADB203D11C4B1B88AB4210D04A
:102BE0007BBA0422ADF804300DEB02016BBA2A2047
:102BF000ADF80630FFF796FF28BB144BA8F800701D
:102C00001D80134D2B88013C3444B342A4B203D140
:102C1000104B1B88A3420FD073BA0422ADF80430C6
:102C20000DEB020163BA2B20ADF80630FFF77AFFF7
:102C300048B9084B2E801C80074803685C68002355
:102C40001A462C21A04702B0BDE8F081A80100007F
:102C5000A6010000A4010000040E0000AA0100006B
:102C600030B580B2B0F5A07F87B0144618D289B2D3
:102C7000B1F5F07F14D201231A46FFF79FFF68B920
:102C800064BAADF80840074C022303932368009010
:102C90009D6803AA042302A92046A84707B030BDB7
:102CA0002120FBE7040E0000002170B54FF4F07303
:102CB00004464FF4A0720846FFF780FF64BA0C4E3A
:102CC000A4B200250A4A00230133B3F5006F22F8AD
:102CD000024BF9D14FF480513046FFF731FF20B954
:102CE00005F50065B5F5163FECD1002070BD00BFBD
:102CF000100E0000002070470F2070470F20704713
:102D00000F2070470F2070470F2070470F2070472B
:102D10000F2070470F2070470F2070470F2070471B
:102D2000044B054A1A60054A5A60054B01221A7085
:102D300000207047141E00004001E00180F32008CD
:102D4000101E0000034B04481B78002B08BF002016
:102D5000704700BF101E0000141E000070B5134C19
:102D6000134D23685E6C0023194628460222B047A3
:102D700023681E680023194602222846B0472368AC
:102D80000C4DD3F8C0300520984723685E6C0023B3
:102D9000194628460A22B04723681C6800232846A3
:102DA000A4460A22BDE87040194660470001300081
:102DB00000C004240000134630B5114B93F858307E
:102DC000013BDBB2FD2B8FB018D80E4D0FCD6C46FA
:102DD0000FC40FCD0FC40FCD0FC495E8030084E8D6
:102DE0000300094C6846D4F844370BF0B9FD05F0F0
:102DF000FBF9D4F8443700200FB030BD0120FBE7C9
:102E000000021F0858021F0800800524134B0168A8
:102E1000D3F84437F0B50127013900D2F0BDD0F81E
:102E200008C04668CCF38455C5EBDC6234680132D7
:102E30000023013A0CD203FA05F203EA0C03C3F3B0
:102E4000150324EA0202AB40134333600830E3E782
:102E500007FA02FE43EA0E03EBE700BF00800524F9
:102E600008B51848FFF7D2FF1748FFF7CFFF05F066
:102E700033FC05F045FC05F04FFC05F061FC05F066
:102E80006BFC1248FFF7C2FF1148FFF7BFFF114864
:102E9000FFF7BCFF1048FFF7B9FF1048FFF7B6FF78
:102EA0000F48FFF7B3FF0F48FFF7B0FF0E48FFF7DB
:102EB000ADFF0E48FFF7AAFFBDE808400C48FFF73A
:102EC000A5BF00BF340D0000980C0000D40800001E
:102ED000A009000094090000B40900007408000073
:102EE000680800005C080000B0080000F808000056
:102EF000EC08000010B5254CFFF7B2FF94F804066B
:102F000000F00100FFF758FF4FF4C023C4F86C3401
:102F1000D4F840311E4843F40023C4F84031D4F8BB
:102F2000403143F00103C4F84031D4F8403143F05C
:102F30000203C4F84031FFF769FF16491648D1F87B
:102F4000103543F00203C1F81035636923F40033F0
:102F50006361636943F480336361D0F84027D0F83C
:102F60007837C2F34342023A23F4F07343EA421340
:102F7000C0F87837D1F8943443F40023C1F894347E
:102F8000236943F46013236110BD00BF0080042453
:102F9000C00A000000A005240080052408B550B137
:102FA0000748FFF733FF0748FFF730FF0648BDE843
:102FB0000840FFF72BBF0548FFF728FF0448F6E756
:102FC000080B0000B00B0000A40B00007C0B0000FD
:102FD000280B00000B48D0F800D05DF804EB5DF83A
:102FE00004CB5DF804BB5DF804AB5DF8049B5DF8B1
:102FF000048B80BC40BC20BC10BC08BC04BC02BC20
:1030000001BC7047281E0000114AD2F8103623F484
:103010008073C2F810360F4B596B41F001015963B0
:10302000596B41F0020159630423C2F8383482B06D
:1030300000238DF807309DF80730092B01D902B025
:10304000704700BF9DF807300133DBB2F1E700BFE6
:103050000080042400840424FEE7FEE7054B064AB2
:1030600006498B4200D3704752F8040B43F8040B17
:10307000F7E700BF0C00000084FB2008880D00006B
:10308000064B0748DA1C121AC11E22F003029942AD
:1030900088BF0022002108F0CFBD00BF202E000015
:1030A000880D000008B5FFF7D9FFFFF7E9FF00F032
:1030B000B9F8BDE80840FEF7DFB9000038B562B6E0
:1030C000394B3A4A1A603A4B3A4A93F806363A4C28
:1030D0003A4D03F00F030F2B15BF394B4FF0006330
:1030E000D3F89312D3F837140CBF11601160354A2E
:1030F0000CBFD3F83634D3F89232136005F0F4F9EC
:103100002A4BE363032005F0A1FC05F0EFF92E4BF9
:10311000DB694FF08061D3F880304FF08C409847E6
:10312000EB69022060F30E33EB61284BDA696FF331
:103130000202DA6105F054FA1D4B1A6A042161F3A8
:1031400002021A621A6A1207FCD5AB69022262F304
:103150008403AB61AB691B04FCD51D4B1D4D5A6E3E
:103160006FF341025A665A6E6FF300025A66FFF718
:103170004BFF19490D4B21614FF4FA40E1611749AA
:103180006062002220624FF40040C4E90033C4E9C9
:103190000B15C4E90F33A2606261E360A062636350
:1031A0006164A26138BD00BF7C1E0000005A62024B
:1031B00000800424241E00002C1E00000081042432
:1031C00000001F08201E00000001300000860424BB
:1031D00000840424002D310100B4C4040048E80137
:1031E0004FF0E02384B0D3F8402F0192D3F8442F5E
:1031F00002920199094A91420DD10299084A9142DD
:1032000009D1D3F8882D0392039A42F470020392F5
:10321000039AC3F8882D04B0704700BF2100111035
:103220001100001113B50023009301932F4BD3F825
:1032300010250092009A00922D4A116821F00F018A
:10324000116011681160D3F89C1421F46071C3F807
:103250009C14D3F8041701910199C3F80415D3F80D
:10326000001701910199C3F80015D3F8101541F02A
:103270001C01C3F81015D2F8024014F48074FAD17E
:103280001C48436943F480334361436964F3514309
:103290004361FFF7A5FF184B4FF080725A60174B40
:1032A000C0F84031164B5A6864F3C3025A60036A8F
:1032B0000E4A43F480330362036A43F4003303622B
:1032C000D2F8943443F40023C2F89434036943F4ED
:1032D000601303610B4B1A6842F400221A601A68EB
:1032E00042F480221A6002B010BD00BF00A0052485
:1032F0000000052400800424000030410300080081
:10330000008104240084042420F04040012802D0DD
:10331000022805D07047034A1368013313607047D1
:10332000014AF9E7841E0000801E000010B50F4C12
:10333000E3689847A3680E48984723690220984796
:10334000A46A01211520A04701211620A0474FF4AF
:10335000E1310120A047074B4FF48052C3F8802091
:10336000BFF34F8FBFF36F8F10BD00BF34F4200841
:103370000943200800E100E013B5094C00238DF853
:1033800004302360074B01219B6901A898472368FB
:103390001BB19DF8040002B010BD00F0E9FBF6E798
:1033A000801E000034F4200813B5094C8DF8070086
:1033B00000232360074B01215B690DF1070098474B
:1033C00023680BB102B010BD00F0D2FBF8E700BFDC
:1033D000841E000034F4200803681B780022202B90
:1033E00004D0093B042B01D9D0B270470368591CA3
:1033F00001605B780132F2E70120704708B508F000
:103400006DFC162303604FF0FF3008BD08B508F0CF
:1034100065FC16230360FEE770B50D4614460E46A4
:10342000731B9C4201DC204670BD16F8010BFFF7B0
:10343000BBFFF5E74FF0FF3070474FF400534B6090
:103440000020704701207047002070470FB42DE91D
:10345000F0438BB012AB002453F8046B019304AD1E
:103460008DF81040A846FFF787FF0D2805F8010BDF
:1034700004D00A2802D00134142CF4D19E4B019FB1
:10348000E34004F1280213F001030DEB02041ABF1C
:10349000002304F8183C04F8173C9DF81030CDE9DF
:1034A0000268002B00F04E810025029B1B78002B48
:1034B0004DD0DDF80C9099F80060002E47D002A89E
:1034C000FFF78AFF044618B103A8FFF785FFECE772
:1034D000029A1346517813F8010B0293252801D163
:1034E000252907D18E4232D109F10103023203931B
:1034F0000292DAE726462046A0461A7806F07C01BA
:10350000002A7CD100B1029309B3002C08BF6324C8
:10351000082900F08780202900F0AA80042916D10C
:1035200057F8042B4946144400200E780B4601310D
:10353000002E6AD100286FD1B7E7692A50D01ED873
:10354000632A52D011D8392A07D82F2A34D8E8B2A2
:103550000BB0BDE8F04304B07047582AF7D146F0ED
:10356000200601334FF0100832E0642AEFD146F410
:10357000005646F0200601334FF00A0828E06F3A63
:10358000D1B20929E3D8092AE1D801A151F822F0E2
:10359000D54520084F4520084F4520084F452008B5
:1035A000F94520084F452008734520084F4520085D
:1035B0004F4520085F452008002CC8D10A211A7801
:1035C000303A01FB042413F8012F303A092AF6D9C6
:1035D000012092E746F0200601334FF00808F7E794
:1035E00046F0200601338846F2E7012C46F0040637
:1035F00038BF01240133EBE746F00806FAE700295B
:103600009BD0002881D002937FE702F8016BA24291
:103610004FF0010089D10B46994503933FF445AF24
:10362000013542E703A8FFF7D7FE039E57F8043B96
:10363000314603EB040C00200C4611F8012B12B9A3
:1036400060B103940AE00D2A0FD8082AF8D803F8CD
:10365000012B63454FF00100EED10391039A96428E
:103660003FF423AF00221A70DAE7202AEFD1E7E710
:1036700003A8FFF7B1FE039BB8F1000F10D0B8F11B
:10368000100F17D11A78302A14D15A7802F0DF02BD
:10369000582A0FD102330393023C4FF0100809E07F
:1036A0001A78302A16D15A7802F0DF02582AF1D05F
:1036B0004FF00808039B1A782B2A0ED02D2A0FD121
:1036C00001330393013C4FF0FF31039A002014446F
:1036D000844616E04FF00A08ECE701330393013CFF
:1036E0000121F2E7A9F14103052B02D920B303928E
:1036F00022E0A9F1370317E0010010000CFB083CA1
:10370000012092F800909646B9F1000FEED0A24247
:10371000ECD0A9F13003DBB2092B06D9A9F1610382
:10372000052BDFD8A9F15703DBB2984502F101025E
:10373000E4D808B1CDF80CE057F8043B0CFB01F1DC
:1037400019606DE74FF0FF3501E700BF064B1868C1
:10375000002382B262F30F03000C60F31F4382B0B8
:10376000184602B0704700BF30F4200809207047A7
:10377000014AC9B203F053B8E4F32008014AC9B2C0
:1037800003F068B8E4F32008014803F011B900BF62
:10379000E4F3200837B5044606200D4600F0FCFA95
:1037A000E2B2132A0346084A02D11178A52908D0AB
:1037B000127800922946054A204602F0EBFB03B03E
:1037C00030BD6FF00600FAE7AC010000E4F320081A
:1037D000014803F01BB800BFE4F320081FB5064BF7
:1037E0001B680293054B0193054B0093054B02F0B8
:1037F000FDFE05B05DF804FB14230000A01F0000CF
:1038000008020000E4F3200807B5064B064A1B68CF
:103810000193064B0093064B02F0EAFD03B05DF8FE
:1038200004FB00BF14230000E4F32008A01F0000E5
:103830000802000007B5064B064A1B680193064BB9
:103840000093064B02F020FD03B05DF804FB00BFBF
:1038500014230000E4F32008A01F00000802000069
:10386000014902F07DBA00BFE4F320080149024893
:1038700002F04EBA08020000E4F3200807B5064B38
:103880000193064B0093064A064B074902F0F6F8EF
:1038900003B05DF804FB00BF982200001423000071
:1038A0000802000000FC0200E4F32008014B18703D
:1038B000704700BFAC010000014802F0E1BF00BF4B
:1038C000E4F320080F4BDA79920714D51B79ABB9D2
:1038D0000D4B5A6948B142F010025A615A6939B128
:1038E00042F001025A610020704760F30412F4E7CD
:1038F00061F30002F6E74FF0FF3070476FF0010010
:10390000704700BFA41E000000000345024BD87999
:1039100000F00100704700BFA41E00000B28014604
:1039200003D1054A012002F07ABF0A2803D1024AD6
:10393000012002F08FBF7047E4F320080B280146F6
:1039400003D1054A022002F06ABF0A2803D1024AC5
:10395000022002F07FBF7047E4F32008014802F024
:1039600065BA00BFE4F32008064B1868002382B252
:1039700062F30F03000C60F31F4382B0184602B0DD
:10398000704700BFA8F42008014B1868704700BFBB
:1039900014020000014804F065B900BF14020000E1
:1039A000014904F01FB900BF14020000014804F0EF
:1039B000F7B800BF1402000037B504460B200D46CF
:1039C00000F0EAF9064B1B680193064B0093024690
:1039D000054B2946204603F0A5FE03B030BD00BFCD
:1039E00010230000FC01000014020000014803F055
:1039F00095BE00BF14020000014803F08CBE00BF5A
:103A0000140200007FB5104BD3E90354B2F5806F68
:103A10002E883ABF02F1FF33C3F3090340F2FF33AC
:103A200063F30D162E80258863F30D15074B258053
:103A30001B680293064B0193064B0093024B03F065
:103A400031FE04B070BD00BF14020000102300005E
:103A5000B01E0000FC0100000D4B1A69B1F5806F2B
:103A600013B538BF01F1FF33148834BFC3F3090322
:103A700040F2FF3363F30D14064B14801B6801936F
:103A8000054B0093024A054B03F06EFD02B010BDDA
:103A90001402000010230000B01E0000FC01000012
:103AA0000D4BDA68B1F5806F13B538BF01F1FF3304
:103AB000148834BFC3F3090340F2FF3363F30D14DA
:103AC000064B14801B680193054B0093024A054B7B
:103AD00003F09CFC02B010BD140200001023000093
:103AE000B01E0000FC010000024B034A1B680349A2
:103AF00003F0E4BB10230000FC01000014020000EE
:103B0000034B044904484FF400129A6403F086BB47
:103B100000840424FC0100001402000007B5064BD9
:103B20000193064B0093064A064B074903F0E6FA59
:103B300003B05DF804FB00BF20220000102300004A
:103B4000FC010000001C062414020000014803F0E0
:103B5000ADB900BF9C020000014803F0A7B900BF47
:103B600058020000014803F0A1B900BF1402000090
:103B7000FFF7F8BF354BDFED366AD3F8102242F07D
:103B80004002C3F8102207EE900AD3F81022F4EE98
:103B9000E67A42F01002F1EE10FA07EE101A82B047
:103BA000C3F8102206DCF0EE086AB4EEE67AF1EE15
:103BB00010FA08D5D3F8102242F02002C3F81022E0
:103BC000002002B070479FED237AF4EEC77AF1EE41
:103BD00010FA10D5D3F810226FF30302C3F81022A5
:103BE000D3F810226FF38612C3F81022D3F81022F4
:103BF0006FF30412E2E777EEC77ADFED176A134A34
:103C000087EEA67AF7EE007A77EE277AFCEEE77A6F
:103C1000CDED017A9DF80430F6EE007A77EE277A42
:103C200007EE103AB8EE477AB4EEE77AF1EE10FA02
:103C3000C2BFFCEEE77ACDED017A9DF80430D2F8F0
:103C4000101263F30301C2F81012B9E7003804241C
:103C500033333340CDCCCC3F0AD7A33D0A4B9A6CCB
:103C6000013A052A0ED8DFE802F003050705090B23
:103C7000586C7047D86A7047D86B7047186B70479C
:103C8000586B7047002070472C1E000006281DD876
:103C9000DFE800F0040A0D10131619000C4B5868E9
:103CA00009B1B0FBF1F07047094B186AF8E7084B0F
:103CB000586AF5E7064B986AF2E7054BD86AEFE7D2
:103CC000034B186BECE7024BD868E9E70020E7E705
:103CD0002C1E000010B5032814D8DFE800F0020AFB
:103CE0000D100F48C06A7AB1A3B981B1B0FBF1F0F1
:103CF0000DE00B48C069F6E709484069F3E708485A
:103D00008068F0E70020EEE723B909B9400810BD4C
:103D10004900EBE7CB07FAD50229F8D9E6E700BF5F
:103D20002C1E0000F8B50C461546042828D8DFE8FC
:103D300000F003211B1E2400FFF790FF15B394B180
:103D400006F052FC064620460F4606F04DFC104B8E
:103D5000002206F00DFB02460B463046394606F0BF
:103D6000E7FD06F055FFF8BD0A4BD869E6E7094BB9
:103D70005869E3E7074B9868E0E7064BD868DDE74A
:103D80000020DBE7002CEED0B0FBF4F0EBE700BF47
:103D90000000E03F2C1E000010B50E2800F28F81BD
:103DA000DFE810F00F001E002D00530072008400A9
:103DB0009600B300CA00DD00E7000901320160018E
:103DC00082014FF08C43BDE81040D869D969DA69A7
:103DD000C1F3C301C2F3407200F00700FFF7A2BFB6
:103DE0004FF08C43BDE81040D869D969DA69C1F356
:103DF0008321C2F38072C0F3C210FFF793BF4FF06C
:103E00008C4293699469C3F3C233C4F3C324052B72
:103E100019D8DFE803F003090C0F1215FFF71EFF96
:103E20000CB1B0FBF4F010BD8C4B9868F8E78B4BED
:103E30001869F5E7894B5869F2E7884BD869EFE7CD
:103E4000864BD868ECE70020EAE74FF08C42936A93
:103E5000946AC3F34243C4F30554032B12D8DFE83A
:103E600003F002080B0EFFF7F9FE002CDBD0640014
:103E7000D7E77A4B5869F8E7784B9868F5E7774BBE
:103E8000D868F2E70020F0E74FF08C43BDE810401F
:103E9000986999699A69DB69C2F34022C3F3007398
:103EA000C1F3C50100F00700FFF714BF4FF08C43CA
:103EB000BDE81040D86F99699A69DB69C2F3402266
:103EC000C3F30073C1F3C501C0F34220FFF702BF83
:103ED0004FF08C439B69C3F30263042B00F2EF8025
:103EE000DFE803F003060A0D10005C4BD8689AE780
:103EF000BDE81040FFF7B2BE584B986893E7574BA8
:103F0000D86990E7554B58698DE74FF08C4291691D
:103F10009369926911F4802F5049C2F3C0520CBFCB
:103F200048698868C3F3C3431AB1002B3FF47BAFE1
:103F300012E083B9400876E74FF08C439A6A9B6A97
:103F400012F4806F454A0CBF9069D068C3F3C52353
:103F5000002B3FF468AF5B00B0FBF3F063E7404B2E
:103F600098699969BDE81040C1F34641000FFFF719
:103F70008DBE3B4BDA69DB69C2F34302C3F34713DF
:103F8000052A16D8DFE802F00306090C0F12334A9F
:103F90005068DDE7314A106ADAE7304A506AD7E7FD
:103FA0002E4A906AD4E72D4AD06AD1E72B4A106B8B
:103FB000CEE70020CCE72A4B1A6A1B6AC2F3430201
:103FC000C3F34213072A1DD8DFE802F004070A0DE5
:103FD00010131619214A5068A7E7204A106AA4E76F
:103FE0001E4A506AA1E71D4A906A9EE71B4AD06AA2
:103FF0009BE71A4A106B98E7184AD06895E7174A6A
:10400000506B92E7002090E7154B1B6BC3F3430303
:10401000062B54D801A252F823F000BF39502008D3
:104020003F502008455020084B5020085150200890
:1040300057502008EB4E2008084B5868F3E6074B12
:10404000186AF0E6054B586AEDE6044B986AEAE612
:10405000024BD86AE7E6014B186BE4E62C1E000021
:1040600000140424174B5B6BC3F34303082B26D8BF
:1040700001A252F823F000BF395020083F50200819
:10408000455020084B502008515020085750200818
:10409000EB4E20089D502008A35020080A4B586B77
:1040A000C1E6094B9869BEE6064BD86AD96ABDE8F5
:1040B0001040C1F34711C0F34300FFF7E7BD0020F4
:1040C000B1E600BF001404242C1E0000024B1B6844
:1040D000D3F8BC30184700BF00013000024B1B680A
:1040E000D3F8CC30184700BF00013000024B1B68EA
:1040F000D3F8EC30184700BF00013000024B01211B
:104100009B69C0B2184700BFC8230000FFF7F6BF85
:104110001346054A126810B4546C0A46A44600219E
:104120005DF8044B604700BF0001300010B54FF44C
:10413000006004F015FA094C094B4FF000725A6404
:1041400022782AB9074B08481B6A01219B6A9847C5
:10415000237843F00103237010BD00BF182700002F
:1041600000840424000130000014042482B0ADF85F
:1041700004000A4B4FF400621A609DF80420084BBB
:104180002AB9D3F8082242F40062C3F808225A6818
:10419000002042F001025A6002B0704700E100E0E6
:1041A000003804242DE9F04F224B234893F81CE0FB
:1041B000224B1A7800231C4602F59875D9B28E4519
:1041C0000CD8DFF880800023A8F5107902F5907CE8
:1041D000DAB2964509D80020BDE8F08F30F8151006
:1041E0008C4238BF0C460133E8E743B929F81C304C
:1041F0000133EDE7B5F820B0594489B20AE0002751
:104200001FFA83FABEB2B442F2D900220C4D104616
:1042100035F8021F8C4203D9B142EBD1013080B294
:10422000013292B25245F3D301370028EAD128F87F
:104230001360DDE7C8230000E8230000C42300006A
:104240002626000028260000012800D17047C30759
:1042500001D44008F8E7002070470346012083425C
:1042600008DC00EBD072A3EB6203B3EBA00FB8BF86
:10427000400870474000F2E784B02DE9F7430AACEC
:1042800084E80F000023ADF806309DF8BC514D4B7B
:104290009DF8BD8159885A68B2FBF1F215B9B8F1A1
:1042A000010F2DD14849012508880B88474C80B261
:1042B0009BB20AAE03F5987306EB80004069B2FB2F
:1042C000F0F224F813200B889BB203F5987334F8AE
:1042D0001330012B06D80B889BB203F5987302228A
:1042E00024F813203A4E0DF138090027F7EE006A42
:1042F000FBB2984507D803B0BDE8F04304B070475F
:104300000DF10601D0E73FB1D9E90032B3FBF2F27B
:10431000338813FB02F37380B8F1010F08D0728861
:104320001046FFF791FF18B91046FFF796FF70800F
:104330008DB10B880AAA9BB202EB4303B3F8F430A9
:10434000012B08D10B889BB203F5987334F8132026
:10435000920824F81320DFED1F7A0023B8B29842A8
:10436000ADF8063009D2F4EEE67AF1EE10FA26DC6A
:104370000137023609F10409BAE70A8892B202F558
:104380009872013334F8122007EE102AB8EE477AFB
:104390009BB286EE876A77EE867AE0E70A8892B269
:1043A00002F59872013334F812C04FEA4C0C24F82D
:1043B00012C09BB28342ADF80630EFD9D8E7002394
:1043C000F8E700BFC8230000C4230000E823000072
:1043D000462600000000000007EE100ADFED087A14
:1043E000084837EE277AF7EE006AC6EE877AFCEEC9
:1043F000E77A17EE903A834228BF03461846704783
:1044000095BFD633404B4C0084B0F0B506AC84E881
:104410000E00DFED957A002123AC0DF16B050A4605
:104420000B46CEB2B04200F2B080002B00F0A48068
:10443000B0EE007AF4EEC77AF1EE10FAB0EE047A3C
:1044400005DBF4EEC77AF1EE10FA00F1DD80F4EE50
:10445000C77AF1EE10FAB0EE087A05DBF4EEC77A0F
:10446000F1EE10FA00F1D680F4EEC77AF1EE10FA10
:10447000B1EE007A05DBF4EEC77AF1EE10FA00F146
:10448000CC80F4EEC77AF1EE10FAB1EE047A05DBD7
:10449000F4EEC77AF1EE10FA00F1C280F4EEC77ABA
:1044A000F1EE10FA07DBB1EE087AF4EEC77AF1EE1E
:1044B00010FA00F1B880B1EE0C7AF4EEC77AF1EEA2
:1044C00010FAB2EE007A05DBF4EEC77AF1EE10FADC
:1044D00000F1AC80F4EEC77AF1EE10FAB2EE027A97
:1044E00005DBF4EEC77AF1EE10FA00F1A280F4EEEB
:1044F000C77AF1EE10FA07DBB2EE047AF4EEC77A6F
:10450000F1EE10FA00F19880B2EE087AF4EEC77A74
:10451000F1EE10FA06DBB2EE0C7AF4EEC77AF1EEA9
:1045200010FA61D4B3EE017AF4EEC77AF1EE10FA24
:1045300006DBB3EE027AF4EEC77AF1EE10FA60D43D
:10454000B3EE097AF4EEC77AF1EE10FA06DBB3EEB9
:104550000A7AF4EEC77AF1EE10FA70D9B3EE0B7A5C
:10456000F4EEC77AF1EE10FA06DB9FED407AF4EE36
:10457000C77AF1EE10FA74D9DFED3D7A9FED3D7AFE
:10458000002A18BFF0EE477A65E015F8016FA6F132
:10459000140CBCF1020F2F7C0FD894ED007AF4EECE
:1045A000C77AF1EE10FA03D50133DBB2F0EE477AA9
:1045B0000D2F16D00131043433E7A7F10A0CBCF1FA
:1045C000020F0CD894ED007AB4EEE77AF1EE10FA0F
:1045D00003DD0133DBB2F0EE477A182EE9E7182E3F
:1045E000E6D10132D2B2E5E7DFED237A9AB39FED4F
:1045F000217AF4EEC77AF1EE10FA23D5F0EE477A7D
:1046000029E0DFED1E7AF1E7DFED1D7AD2B1DFEDB3
:10461000197A20E0DFED1B7AF8E7DFED1B7AF5E78A
:10462000DFED1A7AF2E7DFED1A7AEFE7DFED197ABC
:10463000ECE7DFED197AE9E7DFED187AE6E7DFED81
:10464000187A42B19FED0A7AF4EE477AF1EE10FA49
:1046500048BFF0EE477ABDE8F04017EE900A04B08C
:104660007047DFED107AECE70000000000004C42DC
:1046700095BFD6338BE16A36EFE608369F9D42360A
:104680002E5A823301A90C3437F859342439EC34CA
:1046900034580F35AD186335883E8A35ACC5A7351B
:1046A000B1B49D36F2DD1C3770B50D461646044692
:1046B000D0B9FFF71BFDAA4807222146FFF728FDC6
:1046C000002D40F0AA81012E00F09F810B2C1DD0FF
:1046D0000C2C40F0F5800520FFF708FDA0480722CC
:1046E0000521FFF715FD98E0012818D10220FFF7FA
:1046F000FDFC9B4807220221FFF70AFD002D76D121
:10470000012E00F082810B2C40F0DA800320FFF7AD
:10471000EDFC072203219248FFF7FAFC96E00228FD
:104720000ED10420FFF7E2FC072204218C48FFF79A
:10473000EFFC002D00F06681012D40F0778155E1FE
:10474000032805D10620FFF7D1FC07220621EDE75B
:10475000042805D10820FFF7C9FC07220821E5E756
:10476000052805D10A20FFF7C1FC07220A21DDE751
:1047700006280CD17B4B20225A601920FFF7AEFC93
:104780001920FFF7A3FC78480E221921B4E7072867
:104790001ED1744B20225A601B20FFF79FFC1B2068
:1047A000FFF794FC0E221B216F48FFF7B1FC002D90
:1047B00000F02881012D40F0D980012E00F01981F0
:1047C0000C2C21D10520FFF791FC07220521A2E73F
:1047D000082840F0FD80634B20225A601D20FFF71F
:1047E0007DFC1D20FFF772FC0E221D21DCE70B2C47
:1047F0001ED0012D40F01A81012E00F0FA800C2C01
:10480000E0D00D2C00F0C1800E2C50D00F2C6FD0BA
:10481000102C75D12EE0022D40D0032D52D1012E47
:1048200059D00E2C70D00F2C62D0102C30D121E03A
:104830000320FFF75BFC4A4807220321FFF768FCCF
:10484000022D2BD0032D03D1012E44D0002070BDAA
:10485000042D00F0A480052DDAD1012E40F0A380B4
:104860000720FFF743FC07223D481146FFF750FCA5
:10487000102C5ED13B4B20225A601A20FFF72EFCF1
:104880001A20FFF723FC38480E221A21FFF740FCBC
:10489000112C50D0072D5CD1012E88E0012ED5D1EE
:1048A00069E0012E67D00D2C0FD00E2CBBD1092052
:1048B000FFF71CFC2A4807220921FFF729FCCAE759
:1048C0000D2C62D00E2C68D1F1E70B20FFF70EFC07
:1048D00007220B211FE70B20FFF708FC20480722C7
:1048E0000B21FFF715FC8FE70E2CE0D00F2CB2D177
:1048F0000720FFF7FBFB072219481146FFF708FCCA
:10490000062DC5D1012E4FE00920FFF7EFFB07224E
:10491000092100E70920FFF7E9FB114807220921D7
:10492000FFF7F6FB7FE70720FFF7E0FB07221146C2
:10493000F1E6112C0DD10B4B20225A601C20FFF701
:10494000CDFB1C20FFF7C2FB07480E221C21FFF7FE
:10495000DFFB122C2FD0082D7FF478AF012E28E03A
:1049600000C004240000304100001346022D7FF4F3
:1049700054AF012E99D10520FFF7B8FB2E4807222E
:104980000521FFF7C5FB0D2CAED10B20FFF7AEFBC9
:10499000294807220B21FFF7BBFB042DA6D1012ECE
:1049A000B8D00F2CBFD0102C3FF464AF112CC2D064
:1049B000122C7FF44BAF214B20225A601E20FFF7B0
:1049C0008DFB1E20FFF782FB1D480E221E21A3E651
:1049D0000A287FF475AE0120FFF788FB16480722EE
:1049E0000121FFF795FB012D7FF415AF012E7FF418
:1049F0002DAF0320FFF77AFB0F4807220321FFF7B3
:104A000087FB65E6012E7FF421AF0120FFF76EFBE7
:104A1000094807220121FFF77BFB0B2C3FF408AF6D
:104A2000012D3FF4E9AE0C2C3FF455AE022D3FF4BE
:104A300038AF0D2CA9D0F0E600C0042400003041AE
:104A40000000134682B02DE9F0410F2906AC84E83E
:104A50000C005FD8BDF82040BDF8225044EA0503A1
:104A6000B3F5806F56D22E4B079E9DF824809DF89B
:104A700025E043F8212001F1100701F1400C43F833
:104A8000276001F15007B24223F81C4023F8175069
:104A900042D0B8F1000F17D001F1300802EB440208
:104AA000C0F8D42143F8282044EAC12242F4004847
:104AB000C0F8D881D0F8D881C0F8D821D0F8D82152
:104AC00043F82C8043F82720BEF1000F1DD001F1E0
:104AD000600204EB4504344443F82240CA0202F564
:104AE00080622A43C0F8D44142F40044C0F8D8415F
:104AF00001F17004D0F8D85143F824508031C0F847
:104B0000D821D0F8D82143F821200020BDE8F04179
:104B100002B070470120F9E742F20210F6E700BF49
:104B2000E82300000F2910B528D892B1144A01F1EA
:104B3000300452F82440C0F8D44101F1400452F846
:104B40002440C0F8D84101F1500452F82420C0F8A4
:104B5000D8218BB10A4B01F1600253F82220C0F832
:104B6000D42101F17002803153F8222053F8213012
:104B7000C0F8D821C0F8D831002010BD0120FCE7D2
:104B8000E823000010B5274B27485A685A6842F0BE
:104B900001025A60D3F8082242F48062C3F8082266
:104BA00003F5B4331A68026852BBD3F8402442F4C8
:104BB0006752C3F840241D4AD2F80230DC05FBD40A
:104BC0001B4BD3F80427D107FBD5D3F80427D20712
:104BD000FBD4D3F84824174C174B21681A6093086C
:104BE00003F4F8530B43910001F07C0112020B43D4
:104BF00002F47832134343F08103236001230360FE
:104C00000C4B1A680A4BC3F84424084AD2F8023005
:104C100013F48073FAD1034A516863F300015160C1
:104C200010BD00BF00380424B82300000000052494
:104C300000A00524C0230000BC23000084B070B590
:104C40002DED028B82B008AC84E80F00444C6E9AC4
:104C5000A2610D9A43499DF8B531BDF8140123773F
:104C6000013A8A4278D20DA90122934209D8012B38
:104C70006FD19DF8B43173B101280FD942F20610FB
:104C800060E00E4651F8045F3668B54264D8002DE6
:104C900062D00132E9E7B0F5806FEFD2FFF746FA54
:104CA000314B32485A689FED328A6FF38A225A603C
:104CB000DA686FF31842DA60DA68042161F30902F6
:104CC000DA605A682B4942F480625A60FEF752FF5C
:104CD000294B5B686360FFF755FF03F05BFD2081A4
:104CE00003F04CFD208203F05BFDC0F30D0307EEE3
:104CF000103AB8EEC77A830BC7EE086A07EE903A0F
:104D0000F8EEE77A77EEA67AC4ED037A03F03CFD7D
:104D1000C0F30D0307EE103AB8EEC77A830BC7EE67
:104D2000086A01A807EE903AF8EEE77A002377EEDA
:104D3000A67A0193C4ED057A04F0C2FA003818BFD0
:104D40000120404202B0BDEC028BBDE8704004B0CF
:104D50007047013B0F2B90E742F20410F2E700BFCF
:104D6000C8230000A0252600003804243333334034
:104D700000007A44CDCC4C402C1E000084B010B50D
:104D80002DED028B82B006AC84E80F009DF8183040
:104D90000F2B7FD84249434C0B706C99A16106A937
:104DA00001EB8301404849699DF8AD212277013923
:104DB000814271D2012A6AD106AA02EB43039DF80F
:104DC000AC21B3F8F43022B1012B05D942F2061020
:104DD00056E0B3F5806FF9D2FFF7A8F9334B3448AA
:104DE0005A689FED348A6FF38A225A60DA686FF34B
:104DF0001842DA60DA68042161F30902DA605A685D
:104E00002D4942F480625A60FEF7B4FEFFF7BAFE05
:104E10002A4B5B68636003F0BDFC208103F0AEFCAD
:104E2000208203F0BDFCC0F30D0307EE103AB8EE8C
:104E3000C77A830BC7EE086A07EE903AF8EEE77A76
:104E400077EEA67AC4ED037A03F09EFCC0F30D035F
:104E500007EE103AB8EEC77A830BC7EE086A01A8CE
:104E600007EE903AF8EEE77A002377EEA67A019300
:104E7000C4ED057A04F024FA003818BF012040423E
:104E800002B0BDEC028BBDE8104004B07047013A9F
:104E90000F2A9AE70120F3E742F20410F0E700BF7F
:104EA000C4230000C8230000A025260000380424E5
:104EB0003333334000007A44CDCC4C402C1E0000EC
:104EC0000F29024610B54FF001000CD8D2F8CC41A2
:104ED00000FA01F32343D2F8CC119BB263F30F0124
:104EE000C2F8CC11002010BD0F29024610B54FF0BA
:104EF00001000DD8D2F8CC4100FA01F343EA144383
:104F0000D2F8CC119BB263F31F41C2F8CC11002040
:104F100010BD30B50F299DF80C402CD81F2A2AD877
:104F20000F2B28D8012C26D845686D060FD509010E
:104F300034B14518AC6B44EA835343F08063AB63F0
:104F400001448B6B43EA42438B63002030BD5CB16C
:104F5000D0F8081241F40071C0F80812D0F8081215
:104F600063F34811C0F80812D0F8083262F3040362
:104F7000C0F80832E9E70120E8E710B55BB1D0F8E6
:104F8000084263F34924C0F80842D0F8083262F3BB
:104F90004813C0F80832D0F8083261F30403C0F8AF
:104FA0000832002010BD000029B9D0F8083261F3A2
:104FB000CB23C0F80832064B5B68DB0741BF436870
:104FC0006FF300034360002058BF4FF0FF3070477D
:104FD00000380424C1B2024882B002B0FFF7E4BF37
:104FE000003804240F2915D80D4B5A68520603D4F3
:104FF000D3F8DC31002B0FDAD0F8DC2101238B4011
:105000001343D0F8DC219BB263F30F02C0F8DC211C
:1050100000207047012070474FF40450704700BFD4
:1050200000380424B1F5007F14D2B2F5806F11D29C
:1050300043686FF38A234360C36861F31843C36016
:10504000C36862F30903C360436843F48063436049
:1050500000207047012070470F2925D8012A05D16B
:10506000436A6FF3D753436200207047022A0BD183
:10507000436A6FF300034362436A6FF304134362AE
:10508000436A6FF3C303EEE7084BD3F8DC31002B20
:10509000EADA436A0122C3F3CF138A4023EA02010A
:1050A000436A61F3D613DEE7012070470038042419
:1050B0000F2903464FF0010014D81A6A00FA01F1D3
:1050C00089B2186AC2F30F220A4362F317201862EA
:1050D0001A6AC2F30F2222EA0102196A62F3172147
:1050E000196200207047000010B510B1012804D0EB
:1050F00010BDBDE81040FFF719B84FF4006003F091
:1051000049FA0A4A13786FF300031370DBB2002BDD
:10511000EED1074B07484FF000729A64064B1B6AAA
:10512000BDE81040DB6B0221184700BF18270000C4
:1051300000840424001404240001300013B50D4B36
:10514000ADF804004FF40062C3F88020BFF34F8F26
:10515000BFF36F8F03220121002004F085F904467C
:1051600028B90120FFF7C0FF204602B010BD4FF064
:10517000FF30FAE700E100E04368064A61F34923A3
:105180004360D2F8403443EA4143C2F8403400203F
:10519000704700BF00A0052484B02DE9F04F2DED2D
:1051A000028BF1B07CAC84E80F009DF885336593E9
:1051B0004FF4C47201237FA968466993DDF8048225
:1051C0009DF8845306F0E4FD94E80E006598B74C12
:1051D000FFF71AF908EE100AFFF7FEF8D4F804A05A
:1051E00007EE900A07EE10AAF8EE677AF8EE476A23
:1051F000B7EE007AC7EE268AC7EE276AC6EEA87A0F
:1052000017EE900A05F012FA08F03EFC05F000FDDA
:10521000C8EE287A86B217EE900A05F007FA08F071
:1052200033FC05F0F5FC87B2BE4204BF0136B6B2CE
:10523000002D5ED1BDF8843327804FF4C27280A95F
:10524000684666809A4CADF8843106F0A1FD7CABCF
:105250000FCBFFF711F8FEF7A5FF3246394620467F
:10526000FFF7E0FE01212046FFF786FF6368914EBD
:10527000DFF8389243F000636360636843F04003F3
:105280006360636865F3410363603323C4F8E4310A
:10529000636843F004036360D4F8DC3143F00043F7
:1052A000C4F8DC310DF2E223669306F18103A8AF66
:1052B00006F13E0B67930DF5F878659AEBB29A42CA
:1052C00000F289807C4B6A9300227C4B6B9369A926
:1052D000104604F02DF810B1452840F0E38069999C
:1052E0006AAA002004F092F8003818BF012040425A
:1052F00065E0304605F088F9BAFBF8FA804650467A
:10530000894605F071F902460B464046494605F0CC
:1053100057FC00285AD127806680324639466448B7
:10532000FFF780FE01216248FFF726FF604B5A68B5
:1053300042F000625A605A686FF386125A606A1E21
:10534000012A5A684FF0000194BF42F0020265F34F
:1053500041025A60C3F8E4115A6842F004025A60EC
:10536000D3F8DC2161F3DF72C3F8DC219DF8F12171
:105370009DF844029DF854125AB1D3F8086262F3C2
:105380004926C3F80862D3F8086261F34816C3F8E7
:105390000862474ED6F8083260F30403C6F80832B4
:1053A000FFF782F92A4600213046FFF755FE628852
:1053B0006368B3FBF2F3424A0020C2F8803271B056
:1053C000BDEC028BBDE8F04F04B070471FFA8AF2C3
:1053D00027806280A2E798F854A098F8643064931C
:1053E00018F8013F6393009352462946649B204678
:1053F000FFF78FFD36F8021F328C012A08D0AB0070
:1054000003F1105303F58723A3F83811C3F878216B
:1054100029462046FFF7E6FDDDE963215046FFF708
:1054200043F929462046FFF75FFD7B6E6C93D7F862
:10543000A4306D93669B33F802AF669340F201137C
:10544000ADF8BC31ADF8B8A1ADF8BAA170AB13E9B5
:105450000300DDE96C238DE8030029462046FFF7B1
:10546000F1FA29462046FFF72BFD00222946204667
:10547000FFF7F2FDB9F80220D9F80430B3FBF2F3DC
:10548000328CB3FBF2F34BF8043F57F8043FA6F815
:10549000D0A0CBF85030679B639A03F8012F0135F9
:1054A00067930AE74FF0FF3089E700BFC823000089
:1054B0000038042426260000FD5020080D51200845
:1054C000E823000084B02DE9F04F2DED028BEDB004
:1054D00078AC84E80F009DF8E0819DF874739DF826
:1054E00075930120B8F10F0F659000F20581DFF888
:1054F0005CA3D14E8AF800804FF4C4727BA9684641
:1055000006F046FC94E80E004846FEF77DFF08EEE4
:10551000100AFEF761FF746807EE900A07EE104A62
:10552000F8EE677AF8EE476AB7EE007AC7EE268A99
:10553000C7EE276AC6EEA87A17EE900A05F076F84D
:1055400008F0A2FA05F064FBC8EE287A85B217EEDF
:10555000900A05F06BF808F097FA05F059FB1FFA6E
:1055600080FB5D4504BF0135ADB2002F51D1BDF8C0
:105570007433B24C75804FF4C2727CA96846A6F8A9
:1055800000B0ADF8843106F003FC78AB0FCBFEF72A
:1055900073FEFEF707FE2A4659462046FFF742FDF6
:1055A00001212046FFF7E8FD6368A54D43F0006345
:1055B0006360636843F040036360636867F34103BB
:1055C00063603323C4F8E431636843F00403636029
:1055D000D4F8DC3143F00043C4F8DC31FBB2994528
:1055E00000F29680974B66930022974B679365A9CC
:1055F000104603F09DFE10B1452840F01A816599D0
:1056000066AA002003F002FF003818BF01204042C4
:1056100072E078AB03EB88082846D8F81430B4FB66
:10562000F3F404F0F1FF80462046894604F0DCFFE5
:1056300002460B464046494605F0C2FA002862D1B0
:10564000A6F800B075802A4659467C48FFF7EAFC68
:1056500001217A48FFF790FD784B5A6842F00062CA
:105660005A605A686FF386125A607A1E012A5A6885
:105670004FF0000194BF42F0020267F341025A600A
:10568000C3F8E4115A6842F004025A60D3F8DC21EE
:1056900061F3DF72C3F8DC219AF8002002F5F072A2
:1056A0006A4492F8540092F8641052785AB1D3F8D0
:1056B000084262F34924C3F80842D3F8084261F370
:1056C0004814C3F808425D4DD5F8083260F304036E
:1056D000C5F80832FEF7E8FF9AF800403A4621463E
:1056E0002846FFF7B9FCA03472887368B3FBF2F365
:1056F000534A42F8243000206DB0BDEC028BBDE867
:10570000F04F04B07047A2B2A6F800B072809BE7D9
:105710009AF80010639101F5F0736B44204693F8FA
:10572000642093F8548093F801B062921346CDF848
:1057300000B04246FFF7EDFB639901F5907335F831
:10574000130001F5987335F81320012A08D08B0057
:1057500003F1105303F58723A3F83801C3F8782128
:105760002046FFF73FFC5A4662994046FEF79CFFF1
:105770009AF8008020464146FFF7B6FB78AB03EB72
:1057800088030137D3F81431689378AB03EB8803AF
:10579000D3F85431699378AB03EB4803B3F8F43092
:1057A000ADF8A831ADF8AA3140F20113ADF8AC3133
:1057B0006CAB13E90300DDE968238DE80300414683
:1057C0002046FFF73FF99AF8008020464146FFF750
:1057D00077FB414600222046FFF73EFC08F1A0027D
:1057E00071887368B3FBF1F308F5987135F81110FF
:1057F000B3FBF1F345F8223078AA02EB480208F532
:10580000C473B2F8F42025F8132078AA02EB8802BA
:1058100008F1B403D2F8B42045F8232008F5F0725B
:1058200005EB08030DEB020898F8012083F8C0226D
:10583000D4E64FF0FF305FE7C823000000380424AF
:10584000E8230000FD5020080D512008C42300006B
:10585000D0F8E03143F00103C0F8E0310020704798
:105860002DE9F341374B9A6A0192019A16020DD540
:10587000426A1502C2F3C05008D45A6A42F40002C8
:105880005A62314B9B690421984718E0019BDC0761
:1058900009D52C4A136A43F0010313622A4B0521F0
:1058A0009B690020F0E7019C14F080740BD0254820
:1058B000012100F095F8254B02201B689847002035
:1058C00002B0BDE8F0811F4B5A68500603D4D3F8EC
:1058D000DC21002A25DA1E4D1A4FDFF86C80019B6F
:1058E000E21DD340D90716D521463846FFF7E0FB25
:1058F0002B78E6B2B3FA83F2520931463846FFF705
:1059000011F9D8F818300021304698472B78B3FAAF
:1059100083F35B092B700134102C05F10105DED1F6
:10592000CDE75A689207CAD4D3F8DC11C90FC6D1A3
:105930005A6842F004025A600198034BC0B29B6956
:10594000A2E700BF00380424C82300001C27000081
:10595000A82300000148FFF783BF00BF00380424DC
:10596000030548BF20F40060174B58BF40F40060A7
:10597000D1B11A8A93ED057A821A07EE902AF8EED1
:10598000E77A67EE877AFDEEE77A17EE903A18B27B
:10599000B0F5805F11DA002812DDB0F5006F10DB82
:1059A000A0F5006000B270471A8993ED037A821A5D
:1059B00007EE902AF8EEE77AE3E740F6FF70EFE7AC
:1059C000002000F50060EDE7C8230000406921B128
:1059D0001146C0F30B00FFF7C3BFC0F30B007047C5
:1059E000436A01291DBF43F002034362436A43F047
:1059F000807318BF43F00403436200207047000027
:105A000010B4034C24686468A4465DF8044B6047F6
:105A10000001300010B4034C2468646CA4465DF8A7
:105A2000044B604700013000024B1B68D3F8B830CC
:105A3000184700BF00013000024B1B68D3F8C0308C
:105A4000184700BF00013000024B1B68D3F8C83074
:105A5000184700BF00013000024B1B68D3F8E83044
:105A6000184700BF000130000828034B8CBF0222FA
:105A700001221A70704700BF2027000073B59B4BAE
:105A800010229A600B69DD7915F001050C4640F093
:105A90003C819D809D7118601C2229466069944E4E
:105AA00006F0CAF823690122DA71F3694FF08061C8
:105AB000D3F880304FF08C409847F36994F8301059
:105AC000D3F8D4304FF08C4098472268894B9A42E3
:105AD00040F0F980A36958783F280CD94038C0B20B
:105AE000FFF7BAFFA36984485A78403A0623D2B236
:105AF0002946FFF78FFFA369D87808B1FFF79CFF0D
:105B0000A3695878A0F11903052B01D8FFF78CFF82
:105B1000A3695878FFF798FFA16978488B784A788D
:105B20000978FFF777FFE3693BB358783F280CD932
:105B30004038C0B2FFF790FFE3696F485A78403AA7
:105B40000623D2B20021FFF765FFE369D87808B1D8
:105B5000FFF772FFE3695878A0F11903052B01D80C
:105B6000FFF762FFE3695878FFF76EFFE16963486A
:105B70008B784A780978FFF74DFF236A3BB3587852
:105B80003F280CD94038C0B2FFF766FF236A5A4855
:105B90005A78403A0623D2B20021FFF73BFF236A2E
:105BA000D87808B1FFF748FF236A5878A0F11903A5
:105BB000052B01D8FFF738FF236A5878FFF744FF19
:105BC000216A4E488B784A780978FFF723FF636A89
:105BD0003BB358783F280CD94038C0B2FFF73CFFA0
:105BE000636A45485A78403A0623D2B20021FFF74B
:105BF00011FF636AD87808B1FFF71EFF636A58780F
:105C0000A0F11903052B01D8FFF70EFF636A58783E
:105C1000FFF71AFF616A39488B784A780978FFF7ED
:105C2000F9FEA36A58783F280CD94038C0B2FFF774
:105C300013FFA36A30485A78403A0623D2B20021B3
:105C4000FFF7E8FEA36AD87808B1FFF7F5FEA36A6C
:105C50005878A0F11903052B01D8FFF7E5FEA36AD8
:105C60005878FFF7F1FEA16A24488B784A780978C2
:105C7000FFF7D0FEE36A58783F280CD94038C0B20D
:105C8000FFF7EAFEE36A1C485A78403A0623D2B28C
:105C90000021FFF7BFFEE36AD87808B1FFF7CCFE1A
:105CA000E36A5878A0F11903052B01D8FFF7BCFE71
:105CB000E36A5878FFF7C8FEE16A10488B784A78A3
:105CC0000978FFF7A7FEE3680BB9A368D3B1226890
:105CD000084B9A4216D1002301A8019303F0F0FA71
:105CE00070B14FF0FF3002B070BD00BF00840424DB
:105CF000000130000000034500C0042400001346EA
:105D000003F06CFD23690122DA710020EBE700BF8C
:105D10000369002210B5DA71836804460BB9C068C4
:105D2000A8B122680D4B9A4212D1E368197F032271
:105D30000131002003F098FB60B9A368197F0322AA
:105D4000013103F091FB003818BF0120404210BD23
:105D50000020FCE74FF0FF30F9E700BF00000345EB
:105D600038B50C4620B1022835D06FF0030038BD9D
:105D700091F90430002B0DDB5A09012103F01F03B8
:105D8000994002F12003274A42F82310BFF34F8FB6
:105D9000BFF36F8F236900229A809A7194F90430BF
:105DA000934209DB5A09012103F01F03994002F1D4
:105DB00060031C4A42F823101C226069002105F090
:105DC0003BFF2269D37923F00203D371164B1022D3
:105DD000DA600020CBE70A69D379D9071ED513F022
:105DE0000200F6D12568696843F0020341F40061BE
:105DF000696090809071D37194F90430002BE8DBD6
:105E000003F01F015B099B0003F1604303F561434D
:105E100001228A40C3F880211A60DAE74FF0FF3090
:105E2000A5E700BF00E100E0008404242DE9F84F5D
:105E300003681A69C2F340091A69DF69DE69C2F3AF
:105E4000C038504A11696FF30001044607F00F078C
:105E5000C6F303161161156A15F48065FBD19342F0
:105E60003BD1E169002938D0DFF824A14A78DAF87B
:105E700000300978D3F800B043482B46D847E16991
:105E800041484A7809780123FFF7BAFDE1693E48A5
:105E90004A7809782B46FFF7BDFDE1694A783F2A29
:105EA0001BD9403A097839482B46D2B2FFF7B2FDE8
:105EB000E169DAF800304A78D3F800A0097833486D
:105EC000403A2B46D2B2D047E16930484A78097847
:105ED000403A0123D2B2FFF793FD23681A6942F0DA
:105EE00002021A611A6942F400421A61DA69012158
:105EF00061F30302DA61DA690C2161F30712DA61F6
:105F00009A6A42F001029A6245F6A522C3F88020FF
:105F100023681A6AD007FCD4D3F880205A6A42F06A
:105F200001025A62174A116941F001011161116AB7
:105F30004905FCD5934212D1E16981B14A788B7849
:105F400011480978FFF766FDE1694A783F2A06D9CA
:105F5000403A8B780D480978D2B2FFF75BFD236891
:105F60001A6969F341021A611A6968F3CF321A613A
:105F7000DA6967F30302DA61DA6966F30712DA6154
:105F8000BDE8F88F000003450000134600C004245C
:105F900000013000F8B515699DF8186095F807C044
:105FA0001CF0020F0746144600F05B811268DFF810
:105FB000D4E27245C0B202D1022800F0498114280F
:105FC00009D11C226069002105F036FE23690022F8
:105FD0001A7100206BE095F804E0BEF1000F40F06C
:105FE0003A81132843D8DFE810F014001D0039016E
:105FF00039013901420042004200420042004200A1
:10600000420042004200420042002700600063005C
:106010006600AB682CF0040C23F0FF03AB6085F83E
:1060200007C0D6E7A86820F0FF0040F001004CF060
:10603000040CA86085F807C08D48814233D8B3FBB3
:10604000F1F35B0807D1106840F00200106010689F
:1060500040F0010010608748814203D9516841F047
:1060600001015160916BDBB263F307019163AA6890
:10607000D3B2012B0CD107F4C013B3F5801F00F08D
:10608000BD8072D8002B79D0B3F5002F00F081804D
:1060900017F4E06100F0C380B1F5407F00F0D280DA
:1060A0006FF0070003E00123D8E7906BC0B2F8BDA2
:1060B000636919838DE7AB68D8B2012840F0D180BD
:1060C00003F4C01359BBB3F5801F0BD1136966F3FA
:1060D0004E331361136943F001031361136A5905C9
:1060E000FCD576E7012E07D0022E07D00EB9E36962
:1060F00033B96FF00400DAE7236AF9E7636AF7E778
:106100005A785D4801230021FFF77AFC23681A6959
:106110006FF300021A611A6A5205FCD459E7B3F50D
:10612000801F0BD1136966F34E33136113696FF34C
:1061300000031361136A5B05FCD44AE7012E0DD0FE
:10614000022E0DD0002ED4D1E369002BD1D05A7885
:10615000494800231946FFF753FC3AE7236AF4E75E
:10616000236A002BC5D0636AF1E7B3F5C01F8FD156
:1061700022F4C012AA606FF00A0098E71A46194686
:106180003D48FFF747FC2269936823F4C0139360EE
:106190007EE7012E2ED0022E2ED0002EA9D1E3694B
:1061A000002BA6D0D8785D7808B1FFF745FC3F2DCD
:1061B00007D9A5F1400231480623D2B20021FFF7EA
:1061C00029FC002319462C482A46FFF723FC2C4BB8
:1061D00029481B681E68002319462A46B047012338
:1061E0002A4625480021FFF70BFC2269936843F4F7
:1061F0000023CCE7236AD3E7636AD1E7E36922F49B
:10620000C012AA605B7833B9236A5B781BB9636AF2
:106210005B78002BAFD042F48012AA6038E7236885
:106220005A6861F341025A6023685A69C7F3053717
:1062300022F01002102F5A6116D89A6967F30302F0
:106240009A61C6E62268536843F002035360EBE7A5
:106250006FF003002BE76FF0010028E76FF00600F6
:1062600025E74FF0FF3022E76FF008001FE700BF7F
:1062700080778E06005A62020000134600C0042494
:106280000001300000000345F0B584468BB0144691
:10629000002800F0A180002900F09E801369DA79BF
:1062A000520740F196801D79002D40F0988001271B
:1062B0009F809D716369C3E9035598605D602368A1
:1062C00098691A6942F002021A619A6942F08002E2
:1062D0009A611A6965F3CF321A61E66800F00F001F
:1062E000002E46D0626BDF6992F803E06EF303077D
:1062F000DF619778DA6967F30712DA61327F394F25
:106300008DF82750082802F1010203F1800394BFA1
:10631000002001200092326804930323CDE9063067
:1063200040F201130197ADF824302F4F73690590A7
:10633000089128466946CDE9027C8DF8263002F0A6
:10634000F7FF08B1452844D1009901AA002003F0C5
:106350005DF800283DD1009903AA03F0C9F8002890
:1063600037D1E368197F013103F01AFA00200BB02E
:10637000F0BDFFF779FB1D4B626918782368414334
:106380001160D96967F30301D961D9690C2565F3F7
:106390000711D961996A012841F0010199620BD175
:1063A000116990684D1C1561425CC3F88020226819
:1063B000136ADB07FCD4D9E70228F8D11169966883
:1063C0004D1C1561705C02311161725D40EA022260
:1063D000EBE74FF0FF30CAE76FF00400C7E76FF05C
:1063E0000100C4E71D4920083D492008202700007E
:1063F0002DE9F0418CB045F6A5270E4614460197CD
:10640000002800F0E680002900F0E3801269D379CB
:10641000590740F1B9801379002B40F0DD804FF02F
:106420000108A2F8048093716269C2E90103C2E91C
:10643000033323689D691A6942F002021A619A695E
:1064400042F080029A611A6942F400421A61D4E96A
:10645000022105F00F05002A40F08880002900F095
:106460009680626BD869D77867F30300D86190781B
:10647000DA6960F30712DA6100208DF82F000A7FD5
:10648000DFF86481564F0132082D029203F1800338
:106490000A68069394BF002501250323CDE908353A
:1064A00040F20113ADF82C304B69CDF80C800DF1A2
:1064B000040C02A90497CDF814C007950A968DF82C
:1064C0002E3002F035FF08B145285DD1029903AAAC
:1064D000002002F09BFF002856D1029905AA03F084
:1064E00007F8002850D1A368002B4DD08DF82F005D
:1064F0001A7F21680132029280311A680591616920
:10650000496806910321CDE907154FF48171ADF873
:106510002C105B698DF82E3002A9CDE90387CDE9F7
:10652000095602F005FF08B145282DD1029903AAAA
:10653000002002F06BFF38BB029905AA02F0D8FFD9
:10654000054608BB2268136943F004031361E3683E
:10655000197F013103F024F9A368197F284601311E
:1065600003F01EF900200CB0BDE8F081626BD86921
:10657000D77867F30300D8619078DA6960F307127F
:10658000DA6100297FF478AF4FF0FF30EBE728465F
:10659000FFF76AFA134B1A78636956431E60236843
:1065A000D96968F30301D961D9690C2060F3071137
:1065B000D961996A012A41F00101996202D1C3F8B7
:1065C000807001E0022AFAD02268136ADB07FCD44B
:1065D000C8E76FF00400C6E76FF00100C3E700BF33
:1065E0003D492008202700001D4920082DE9F041E1
:1065F00015468AB01C460746002800F0FB8000299B
:1066000000F0F880002A00F0F5801B69DA79520763
:1066100062D51A79002A40F0F0804FF001089A7193
:10662000A3F804806369C3E90322C3E90110236866
:106630009E691A6942F002021A619A6942F0800268
:106640009A611A6942F400421A61D4E9022106F003
:106650000F06002A43D1002900F09B80626BD869A5
:1066600092F803C06CF30300D8619078DA6960F3A4
:106670000712DA6100208DF827000A7FDFF880C159
:10668000013200920A68CDF804C0DFF878C108959D
:106690008033082E0493CDE902C794BF0023012361
:1066A0000327CDE90673059340F20113ADF82430BA
:1066B0004B698DF82630694602F03AFE08B145284C
:1066C0000AD1009901AA002002F0A0FE20B9009989
:1066D00003AA02F00DFF80B14FF0FF3056E0626B6D
:1066E000D86992F803C06CF30300D8619078DA6936
:1066F00060F30712DA610029BCD1A368002B44D0F3
:1067000000208DF827001A7F3D49013200921A6857
:1067100001913C4902912168803103916169496886
:106720000491032105914FF48171082EADF82410D6
:1067300094BF002601265B6908956946CDE9066687
:106740008DF8263002F0F4FD08B14528C4D1009937
:1067500001AA002002F05AFE0028BDD1009903AA28
:1067600002F0C6FE05460028B6D12268136943F040
:1067700004031361A368197F013103F011F8E36882
:10678000197F2846013103F00BF800200AB0BDE85C
:10679000F0813046FFF768F91B4B61691A7823686E
:1067A00055430D60D86968F30300D861D8690C259A
:1067B00065F30710D861986A012A40F001009862D9
:1067C0000BD10A698868551C0D61825CC3F8802072
:1067D0002268136ADB07FCD4D7E7022AF8D10A69DA
:1067E0008E68551C0D61B05C02320A61725D40EA30
:1067F0000222EBE76FF00400C8E76FF00100C5E785
:106800001D4920083D492008202700000369DB7945
:10681000024613F004001CBF5369D8687047012872
:1068200070B50546144614D11269002313716369CB
:1068300058681968196160B9136853B1E368197F22
:10684000013102F0C9FF236928461B68BDE870408A
:10685000184770BD1369012810B5144604BF002203
:106860001A711B685BB1A368197F0020013102F027
:10687000B3FF23690120BDE810401B68184710BD15
:10688000F0B40268116A136B11F0800F43F001033A
:10689000136301F0040169D143695F680C46002F5E
:1068A00046D0DD681E68B54244D2404E3678012E8F
:1068B0001BD105F1010CD2F88020C3F80CC07A5529
:1068C0004369DD681A68954222D30468626A42F01F
:1068D0000102626202690024147100294AD003692E
:1068E0001B681BB3F0BC01201847022EE8D1D2F878
:1068F000802005F1010CC3F80CC07A554369DD68AE
:106900005F6805F1010CC3F80CC0C2F30722D6E79B
:106910009A68A2B9012E07D1036845F6A522C3F8EB
:10692000802019B9436907E0022EF5D0F0BC70470A
:10693000D2F88020002CF9D19A6812B9F6E7002924
:10694000F4D119691D68A94224D2184D06682D7822
:10695000012D14D14D1C1D61535CC6F880300268B6
:10696000136ADB07FCD4002CB9D1DFE70C46002901
:10697000DCD1D7E79A68002AB1D00124E1E7022DE3
:10698000EDD14F1C1F61555C02311961D35D45EAA1
:106990000323E2E75A68002AE5D101684B6A43F015
:1069A00001034B6203691A7199E700BF20270000B9
:1069B00002695379117990795B0001F0010103F0CC
:1069C000020380000B4300F00400184370472DE9D8
:1069D000F04F92F806C092F802A05378D578167955
:1069E000577992F807E092F8088092F8099092F8A7
:1069F0000AB0D47A127802B35B0643EA4B7343EAD7
:106A00008A5343EA495343EA085343EA4E4343EA6D
:106A10000C4343EA47330901026843EAC62301F104
:106A2000105143EA852301F5872142F0004243EAF1
:106A300044230260CB63BDE8F08F02686CF3C71299
:106A4000026002686AF34F320260026863F3134225
