:10000000010000000D900D90D4EA000001000000F6
:10001000001020000AD31A60000000000000000059
:1000200000000000000000000000000000000000D0
:100030000000000000000000000000000D900D9086
:10004000A55A0000002020080000008000000000E9
:1000500000000000000000000000000000000000A0
:100060000000000000000000000000000000000090
:100070000000000000000000000000000000000080
:100080000000000000000000000000000000000070
:10100000304E00009D332008513320085133200812
:1010100051332008513320085133200800000000CC
:101020000000000000000000000000005133200814
:1010300051332008000000005133200851332008AC
:1010400051332008513320085133200851332008F0
:1010500051332008513320085133200851332008E0
:101060005133200851332008E9060000095C2008AC
:10107000453E2008513320085133200851332008C1
:101080005133200851332008C59B2008699C200853
:10109000513320085D9B20087583200851332008B8
:1010A0005133200851332008513320085133200890
:1010B0005133200851332008304E000051332008AE
:1010C0009D33200841060000513320085133200889
:1010D00051332008513320082D3E2008393E200886
:1010E000CD3220085133200851332008617DB36987
:1010F0005133200851332008993B200851332008F0
:1011000051332008513320082D9B2008459B20088F
:101110006D9A2008859A20089D9A2008B59A200883
:10112000CD9A2008E59A2008FD9A2008159B2008F2
:1011300051332008513320085133200851332008FF
:1011400051332008513320085133200851332008EF
:1011500051332008513320085133200851332008DF
:10116000513320085133200851332008000000007B
:10117000000000000000000000000000000000006F
:101180000348044B834202D0034B03B11847704716
:10119000440D0000440D0000000000000548064B0F
:1011A0001B1AD90F01EBA301491002D0034B03B165
:1011B00018477047440D0000440D00000000000077
:1011C00010B5064C237843B9FFF7DAFF044B13B18F
:1011D0000448AFF300800123237010BD440D0000CC
:1011E0000000000038E6200808B5054B1BB1054992
:1011F0000548AFF30080BDE80840FFF7CFBF00BF50
:1012000000000000480D000038E62008014B0122D4
:101210001A707047880D00000146014809F0FABCB9
:10122000A0DE200837B5174D174C184B2B60184817
:10123000184B236009F056FD2068296800F0C8FDAE
:10124000044601F0EFF934B1134809F0E3FC134808
:1012500009F0E0FCFEE7124800F0DEFD00F0F8FDCA
:101260004FF47A7000F01EFA0E4809F03BFDCDE90C
:1012700000440D4A0D4823464FF47A7100F04CFAB1
:1012800003B030BD900D00008C0D0000950D0000E6
:10129000ADDE2008940D0000C9DE2008EADE20083B
:1012A000192220080EDF20080D222008680D0000FA
:1012B000104B1A7810B5E2B10F4C002220461A707C
:1012C00000F0B4FD18B90D49206800F0B7FD0B4BD4
:1012D0000B48197809F09EFC206808F08DFA024648
:1012E0000B46084809F096FCBDE81040064809F096
:1012F000F9BC10BD880D0000640D0000600D0000F9
:101300002FDF200847DF200864DF200808B500F041
:1013100040F8FFF787FF00F05AF8FFF7C9FFFAE738
:10132000704770477047704708B505F041FF00F0FF
:1013300091FEBDE8084001F075B9704770477047ED
:10134000704770477047704770477047EFF31080E1
:1013500072B6704710B962B6BFF36F8F7047EFF384
:1013600011800C2383F31188704780F31188BFF339
:101370006F8F70477047704708B5FFF7D5FFFFF7CD
:10138000DDFFFFF7DCFFFFF7DBFFBDE80840FFF7FD
:10139000D8BF08B5FFF7EEFF01F00CF800F0F4F845
:1013A000FFF7E9FF00F007F8FFF7C7FFBDE80840C7
:1013B000FFF7E2BF704708B5FFF7B2FFFFF7B1FFD5
:1013C000FFF7B0FFFFF7AFFFFFF7F4FF08BD08B569
:1013D000FFF7B8FFFFF7B7FFFFF7B6FFBDE808401C
:1013E000FFF7B3BF00230B707047000030B50E4C01
:1013F000416123688BB9206083600DE0891A9A6887
:1014000041611D466AB113465A698A42F6D935B11F
:10141000A860521A83605A6130BD0025F4E720604D
:10142000F7E798608260F7E7A40D000038B505F093
:101430002FFF094C094B1A6823680025C31A2AB1EB
:1014400023B15169994203D3C91A5161206038BD53
:1014500055615B1A9268F2E7A00D0000A40D000030
:1014600038B5154D2B682BB35B69A3B1134A1468CB
:1014700002201C4405F016FF204605F01DFF104910
:101480002A6800230B7022B1D08880070AD5012377
:101490000B70002038BD022005F004FF022005F08B
:1014A0005FFFECE79268002AF3D050690344012BF8
:1014B000EAD9EEE72220EDE7A40D0000A00D000020
:1014C0009C0D000070B516469DF814200271049A18
:1014D0000260C0E903360022BDF81830826004467D
:1014E0000D46C380EEB905F0D3FE2844A0619DB13E
:1014F0002E46FFF72BFF0546FFF798FF31462046A3
:10150000FFF774FF104B1B68A34201D1FFF7A8FF40
:101510002846FFF71FFF02E0E36865617BB9002002
:1015200070BD05F0B5FE3044A061002DE0D1E36848
:101530006561002BDDD0216820469847D9E72168F6
:1015400020469847EBE700BFA40D00000D490B684B
:1015500098B100229BB1834203D1836822B90B600A
:1015600003E01A469B68F5E7936083681BB15A69EC
:1015700041690A445A6100207047222070470220C6
:10158000704700BFA40D000070B5154EFFF7E7FED1
:1015900034780546FCB9134B1C60134B1C60134B8D
:1015A0001C6005F033FE012005F07CFE05F000FF15
:1015B0000F4B0246186020B92846FFF7D6FE2320BD
:1015C00070BD23460B4840F2E73108F077FC0A4B28
:1015D0001860012333702846FFF7C7FE0020EFE7AD
:1015E0009D0D0000A40D0000A00D0000AC0D00003A
:1015F000A80D000018FCFFFF980D000038B50C4640
:101600000546A8B1A1B100230B70FFF7A8FE094B56
:101610001B68012133B9FFF7A8FE002038BD9D42A9
:1016200004D121702278002AF9D0F4E79B68F1E711
:101630002220F3E7A40D0000F0B587B01F46002379
:101640000D4616468DF817300446A8B1C3610DF15A
:101650001701FFF7D3FF9DF817207AB9BDF8343092
:1016600002939DF830302946CDE900732046334679
:10167000FFF728FF07B0F0BD2220FBE70320F9E7C2
:1016800038B5074B1D680446002140F2E7304FF49F
:101690007A720023E5FB040108F010FC38BD00BF9E
:1016A000A80D000000B58DB001238DF80F30FFF7B5
:1016B000E7FF0023CDE900330146074A0DF10F0390
:1016C00004A8FFF7B9FF18B99DF80F30002BFBD124
:1016D0000DB05DF804FB00BFE5232008F8B50C4B06
:1016E0001B68834205460E460FD30A4B00241F6831
:1016F00040F2E73021464FF47A720023E5FB070100
:1017000008F0DCFB30602046F8BD2120FCE700BF7C
:10171000980D0000A80D00002DE9F04186B0984614
:1017200000230D4617468DF81330064680B30DF1A1
:101730001301FFF763FF9DF813305BBB05A9284633
:10174000FFF7CCFF0446F8B9134B18684FF47A72D0
:101750000023A5FB000108F0B1FBC2F57A7189B244
:10176000B1F57A7FBDF83430F48308BF0021B1832E
:10177000059A02939DF830301146CDE9008330463A
:101780003B46FFF79FFE0446204606B0BDE8F081C9
:101790002224F9E70224F7E7A80D0000C2072DE98B
:1017A000F843044607D5444A136801331360FFF732
:1017B0003DFEFFF755FEA3077CD5FFF7D0FD05469C
:1017C000FFF734FE4FF000083C4F46463C680CB132
:1017D0006369A3B13A4B0022012E1A7003D118F0AD
:1017E000020F18BF1E70FFF73BFE222802D1022015
:1017F00005F0A0FD2846BDE8F843FFF7B6BD234637
:101800005A693AB91A792179914288BF1C469B6876
:10181000002BF5D12846FFF7A8FD2569DDB105F0BD
:1018200037FDA269A0EB02084FEAE873A84573F1FF
:10183000000311DB23691344A361E36813B121683A
:1018400020469847B4F80680FFF789FD0136054623
:10185000FFF7ECFDBAE7A846FFF781FD8146204679
:10186000FFF774FE4846FFF780FD2369002BE4D0A4
:10187000A38BB5EB080533B1E28B13449BB2B3F5F0
:101880007A7F0FD2E383FFF76AFD29468046204620
:10189000FFF7ACFDA36922691344A3614046FFF73B
:1018A00064FDCAE7A3F57A73E383A369013B013DB5
:1018B000A361E8E7BDE8F883AC0D0000A40D0000CB
:1018C000960D0000042902BF014B01221A707047D7
:1018D000B00D00004FF0FF33036004238380014B01
:1018E000836070473333534030B50B6843604B68B7
:1018F00083608B68C360204B1A689042E5B003D1C7
:101900004FF0FF3065B030BD186003681B4C1B788A
:10191000237004EB43030122194DA3F8F420C3689C
:101920006A702A7062932B88ADF884314FF4C272CA
:1019300004F11001684609F063FB94E80F0006F01B
:10194000D1FA0028DCD12B88ADF884314FF4C27273
:1019500004F11001684609F053FB94E80F0006F00B
:1019600053FB0028CCD1074806F086FB003818BF8F
:1019700001204042C6E700BFB40D00000C0000008B
:10198000B10D0000C5282008034B01721A6890426F
:1019900018BF186000207047B40D0000034B1A6890
:1019A000904218BF18600020704700BFB40D0000BF
:1019B00010B50F4B0F4C1A68C160E4B0904218BFCD
:1019C00018600D4B62911B88ADF8843104F1100151
:1019D0004FF4C272684609F013FB94E80F0006F05A
:1019E00081FA003818BF0120404264B010BD00BF2A
:1019F000B40D00000C000000B10D0000052838B542
:101A000005460C460AD920484FF49B7107F030FB7D
:101A10001D484FF49F7107F02BFB2EE003280ED9D1
:101A2000042828D10B2904D9174840F23B1107F0AC
:101A30001FFB240104F1105404F598240EE080B932
:101A40004B2904D910484FF49C7107F011FB04EBAB
:101A50000514240104F18C4404F5981401236360F7
:101A600038BD012801D13B29EBE7022801D12B2900
:101A7000E7E71B29E5E70529CAD8044BA4001A5952
:101A800042F020021A51EBE784DF20081C86042470
:101A9000052838B505460C460AD920484FF4CE71C2
:101AA00007F0E6FA1D484FF4D27107F0E1FA2EE094
:101AB00003280ED9042828D10B2904D9174840F24D
:101AC000A11107F0D5FA240104F1105404F598246B
:101AD0000EE080B94B2904D910484FF4CF7107F0BC
:101AE000C7FA04EB0514240104F18C4404F598149E
:101AF0000023636038BD012801D13B29EBE70228B0
:101B000001D12B29E7E71B29E5E70529CAD8044BB2
:101B1000A4001A596FF345121A51EBE784DF20082D
:101B20001C86042473B5FF230546037000204B1C5C
:101B3000687003D14FF0FF3002B070BDC1F30716DB
:101B4000331F012B8DF8060001F00F0498BF012010
:101B500007F024FC8DF804608DF80540019807F02B
:101B6000E5F80028E6D12E706C70E5E74178007842
:101B7000FFF744BF41780078FFF78ABF7047000045
:101B800030B5144A85B00023CDE90023124B4269D9
:101B90001B680293037E039223B1032B17D14FF4EA
:101BA000407101910D490E4D0A600E4A6C4613704A
:101BB00094E80F0085E80F000B4B2146186807F0EA
:101BC0007DF9003818BF0120404205B030BD4FF00C
:101BD000FF30FAE701000800A0010000BC0D000082
:101BE00068040000B90D0000C00D00004FF0FF3385
:101BF0000022C0E90133C360024B02700361027529
:101C0000704700BFA08601002DE9F04184461F4DBA
:101C10005CF8043B0F4693F8008006460FCD86B073
:101C20006C460FC495E8030007F1180384E803002D
:101C3000394651F8042B4CF8042B9942F9D1144B36
:101C40001A68964204D14FF0FF3006B0BDE8F0812B
:101C500068461E6007F008F90028F4D10D4C404694
:101C6000214607F007F90028EDD100F08FFF30463C
:101C7000FFF786FF0028E6D10749206807F084F9BE
:101C8000003818BF01204042DFE700BF44E02008D1
:101C9000C40D0000C00D00007D2B2008431C07B5BB
:101CA0000DD003098DF80430084B1B7800F00F00AD
:101CB000012B8DF8050001A804D1FFF757FF03B0F1
:101CC0005DF804FBFFF756FFF9E700BFB80D000011
:101CD000431C07B50DD003098DF80430084B1B7861
:101CE00000F00F00012B8DF8050001A804D1FFF7CB
:101CF00041FF03B05DF804FBFFF738FFF9E700BFD1
:101D0000B80D0000431E58425841014B18707047EF
:101D1000B80D0000034B41611A68904218BF18606B
:101D2000FFF72EBFC40D0000034B01761A689042E6
:101D300018BF1860FFF724BFC40D0000034B0171EA
:101D40001A68904218BF186000207047C40D000048
:101D50002DE9F041D31DDFF8748023F0070300AFB5
:101D6000ADEB030DD8F800309842154B18BFC8F8FA
:101D700000001B68144642699A420E466D4604D123
:101D8000104B027E1B789A4201D0FFF7F9FED8F87B
:101D900000102B46621902E0087903F8010B934208
:101DA000FAD10948234632462946006807F0CEF8A2
:101DB000003818BF01204042BD46BDE8F08100BF99
:101DC000BC0D0000B90D0000C00D0000C40D0000E6
:101DD00070B5A0B199B10D4E337893B90C4C0D4D3F
:101DE00060612846616000F03BF8082329462046E0
:101DF0006B6100F049F830B90123337070BD2120C8
:101E0000FCE71220FAE71020F8E700BFC80D000039
:101E1000F00D0000CC0D000008B50146024800F0AE
:101E200081F8002008BD00BFF00D000008B5014694
:101E3000014800F09DF808BDF00D000008B50A4605
:101E40000146024800F0B8F8002008BDF00D00007F
:101E500008B5024800F0FCF8002008BDF00D0000B5
:101E60004FF0FF33064AC0E90033C0E90233C0E94E
:101E700004334FF44033C0E90623024B036270473A
:101E8000A08601003333534070B50C468AB0054636
:101E900004A8FFF7ABFEA368059323680693636865
:101EA000079305F11406E3682B6304A93046FFF796
:101EB000ABFE013003D14FF0FF300AB070BD0021FE
:101EC0003046FFF73BFFA1693046FFF723FF217F34
:101ED0003046FFF729FF607FFFF714FF286BFFF7FD
:101EE000F7FE2E1D01A8FFF7F5FC2369019301A958
:101EF0003046FFF7F9FC0130DDD0A17F3046FFF717
:101F000043FDE17F3046FFF749FD216A3046FFF788
:101F10004FFD61692846FFF705FE0130CBD0002058
:101F20006863CAE741637047F7B505460027006B51
:101F3000ADF804700E46FFF7B1FE022201A905F1CB
:101F40001400FFF705FF0446286BFFF7C1FE631C72
:101F50000AD09DF804209DF8053002F03F025B088E
:101F600043EAC21333803C46204603B0F0BD000074
:101F700037B50C4600250DF10601ADF80650FFF708
:101F8000D3FF431C12D0BDF8060007EE900AFBEE0B
:101F9000CA7A17EE900A07F02FFC05A3D3E90023B5
:101FA00007F082FC07F03AFF2060284603B030BDFE
:101FB0006666666666660A4037B504460846154694
:101FC00007F01AFC20A3D3E9002307F06DFC1EA341
:101FD000D3E9002307F0B0FA07F020FF07EE900ADC
:101FE000F5EEC07AF1EE10FA48BFDFED117AFCEEA3
:101FF000E77ACDED017A9DF804302B70626B9AB1CF
:10200000022B04D80B4803B0BDE830401047052B25
:1020100001D80948F7E7072B01D80848F3E70A2B4E
:1020200094BF07480748EEE703B030BDAFF3008028
:10203000000000005CE020086FE0200887E0200836
:102040009BE02008B4E020087B14AE47E1FA28406A
:10205000FFF78CBD70B5134C134D23685E6C0023E5
:10206000194628460222B04723681E6800231946F5
:1020700002222846B04723680C4DD3F8C030052013
:10208000984723685E6C0023194628460A22B04709
:1020900023681C6800232846A4460A22BDE8704035
:1020A000194660470001300000C0042400001346B8
:1020B00030B5114B93F85830013BDBB2FD2B8FB09C
:1020C00018D80E4D0FCD6C460FC40FCD0FC40FCDD9
:1020D0000FC495E8030084E80300094C6846D4F86F
:1020E00044370BF0A9FA05F0D9F9D4F844370020A9
:1020F0000FB030BD0120FBE700021F0858021F0887
:1021000000800524134B0168D3F84437F0B501274C
:10211000013900D2F0BDD0F808C04668CCF3845530
:10212000C5EBDC62346801320023013A0CD203FAB9
:1021300005F203EA0C03C3F3150324EA0202AB40E1
:10214000134333600830E3E707FA02FE43EA0E0365
:10215000EBE700BF0080052408B51848FFF7D2FF61
:102160001748FFF7CFFF05F011FC05F023FC05F041
:102170002DFC05F03FFC05F049FC1248FFF7C2FFBB
:102180001148FFF7BFFF1148FFF7BCFF1048FFF7EA
:10219000B9FF1048FFF7B6FF0F48FFF7B3FF0F482E
:1021A000FFF7B0FF0E48FFF7ADFF0E48FFF7AAFF9D
:1021B000BDE808400C48FFF7A5BF00BFF00C0000C9
:1021C000540C0000900800005C0900005009000059
:1021D0007009000030080000240800001808000002
:1021E0006C080000B4080000A808000010B5254CD9
:1021F000FFF7B2FF94F8040600F00100FFF758FF64
:102200004FF4C023C4F86C34D4F840311E4843F472
:102210000023C4F84031D4F8403143F00103C4F83E
:102220004031D4F8403143F00203C4F84031FFF7A5
:1022300069FF16491648D1F8103543F00203C1F87A
:102240001035636923F400336361636943F48033B9
:102250006361D0F84027D0F87837C2F34342023A9E
:1022600023F4F07343EA4213C0F87837D1F894347A
:1022700043F40023C1F89434236943F460132361C9
:1022800010BD00BF008004247C0A000000A00524CB
:102290000080052408B550B10748FFF733FF074811
:1022A000FFF730FF0648BDE80840FFF72BBF0548A1
:1022B000FFF728FF0448F6E7C40A00006C0B000093
:1022C000600B0000380B0000E40A00000B48D0F857
:1022D00000D05DF804EB5DF804CB5DF804BB5DF85D
:1022E00004AB5DF8049B5DF8048B80BC40BC20BC53
:1022F00010BC08BC04BC02BC01BC7047340E00001A
:10230000114AD2F8103623F48073C2F810360F4BFE
:10231000596B41F001015963596B41F00201596356
:102320000423C2F8383482B000238DF807309DF8BA
:102330000730092B01D902B0704700BF9DF8073064
:102340000133DBB2F1E700BF0080042400840424E1
:10235000FEE7FEE7054B064A06498B4200D370476D
:1023600052F8040B43F8040BF7E700BF0C00000021
:102370005CE82008440D0000064B0748DA1C121ADE
:10238000C11E22F00302994288BF0022002108F0FA
:1023900089BD00BF301E0000440D000008B5FFF7E6
:1023A000D9FFFFF7E9FF00F0B9F8BDE80840FEF7F4
:1023B000ADBF000038B562B6394B3A4A1A603A4BA5
:1023C0003A4A93F806363A4C3A4D03F00F030F2B76
:1023D00015BF394B4FF00063D3F89312D3F837147D
:1023E0000CBF11601160354A0CBFD3F83634D3F8F6
:1023F0009232136005F0D2F92A4BE363032005F013
:102400007FFC05F0CDF92E4BDB694FF08061D3F8EE
:1024100080304FF08C409847EB69022060F30E3318
:10242000EB61284BDA696FF30202DA6105F032FAE8
:102430001D4B1A6A042161F302021A621A6A12071A
:10244000FCD5AB69022262F38403AB61AB691B0468
:10245000FCD51D4B1D4D5A6E6FF341025A665A6EE4
:102460006FF300025A66FFF74BFF19490D4B2161CC
:102470004FF4FA40E16117496062002220624FF494
:102480000040C4E90033C4E90B15C4E90F33A2606E
:102490006261E360A06263636164A26138BD00BFF2
:1024A000880E0000005A620200800424300E0000F2
:1024B000380E00000081042400001F082C0E0000CC
:1024C000000130000086042400840424002D310122
:1024D00000B4C4040048E8014FF0E02384B0D3F80E
:1024E000402F0192D3F8442F02920199094A914258
:1024F0000DD10299084A914209D1D3F8882D03924F
:10250000039A42F470020392039AC3F8882D04B030
:10251000704700BF210011101100001113B50023F6
:10252000009301932F4BD3F810250092009A00924C
:102530002D4A116821F00F01116011681160D3F864
:102540009C1421F46071C3F89C14D3F80417019112
:102550000199C3F80415D3F8001701910199C3F844
:102560000015D3F8101541F01C01C3F81015D2F86E
:10257000024014F48074FAD11C48436943F4803358
:102580004361436964F351434361FFF7A5FF184B6F
:102590004FF080725A60174BC0F84031164B5A68A2
:1025A00064F3C3025A60036A0E4A43F48033036241
:1025B000036A43F400330362D2F8943443F40023F3
:1025C000C2F89434036943F4601303610B4B1A6837
:1025D00042F400221A601A6842F480221A6002B0A3
:1025E00010BD00BF00A005240000052400800424C5
:1025F000000030410300080000810424008404240A
:1026000020F04040012802D0022805D07047034A3C
:102610001368013313607047014AF9E7900E000018
:102620008C0E000010B50F4CE3689847A3680E4865
:102630009847236902209847A46A01211520A047E2
:1026400001211620A0474FF4E1310120A047074B9C
:102650004FF48052C3F88020BFF34F8FBFF36F8FCA
:1026600010BD00BF48E120080136200800E100E06D
:1026700013B5094C00238DF804302360074B01216A
:102680009B6901A8984723681BB19DF8040002B01C
:1026900010BD00F0DDFBF6E78C0E000048E12008DD
:1026A00013B5094C8DF8070000232360074B012167
:1026B0005B690DF10700984723680BB102B010BDAC
:1026C00000F0C6FBF8E700BF900E000048E12008CC
:1026D00003681B780022202B04D0093B042B01D96E
:1026E000D0B270470368591C01605B780132F2E791
:1026F0000120704708B508F027FC162303604FF04F
:10270000FF3008BD08B508F01FFC16230360FEE784
:1027100070B50D4614460E46731B9C4201DC2046E4
:1027200070BD16F8010BFFF7BBFFF5E74FF0FF3068
:1027300070474FF400534B600020704701207047F2
:10274000002070470FB42DE9F0438BB012AB00248A
:1027500053F8046B019304AD8DF81040A846FFF7C1
:1027600087FF0D2805F8010B04D00A2802D0013498
:10277000142CF4D19E4B019FE34004F1280213F086
:1027800001030DEB02041ABF002304F8183C04F8FF
:10279000173C9DF81030CDE90268002B00F04E8107
:1027A0000025029B1B78002B4DD0DDF80C9099F88A
:1027B0000060002E47D002A8FFF78AFF044618B138
:1027C00003A8FFF785FFECE7029A1346517813F848
:1027D000010B0293252801D1252907D18E4232D140
:1027E00009F10103023203930292DAE726462046FA
:1027F000A0461A7806F07C01002A7CD100B1029331
:1028000009B3002C08BF6324082900F08780202921
:1028100000F0AA80042916D157F8042B4946144425
:1028200000200E780B460131002E6AD100286FD1AE
:10283000B7E7692A50D01ED8632A52D011D8392A56
:1028400007D82F2A34D8E8B20BB0BDE8F04304B063
:102850007047582AF7D146F0200601334FF0100890
:1028600032E0642AEFD146F4005646F020060133E8
:102870004FF00A0828E06F3AD1B20929E3D8092AB3
:10288000E1D801A151F822F0CD38200847382008BE
:102890004738200847382008F138200847382008F2
:1028A0006B38200847382008473820085738200858
:1028B000002CC8D10A211A78303A01FB042413F8FD
:1028C000012F303A092AF6D9012092E746F0200676
:1028D00001334FF00808F7E746F020060133884639
:1028E000F2E7012C46F0040638BF01240133EBE780
:1028F00046F00806FAE700299BD0002881D0029311
:102900007FE702F8016BA2424FF0010089D10B462C
:10291000994503933FF445AF013542E703A8FFF71C
:10292000D7FE039E57F8043B314603EB040C00200E
:102930000C4611F8012B12B960B103940AE00D2A7C
:102940000FD8082AF8D803F8012B63454FF001008F
:10295000EED10391039A96423FF423AF00221A70FE
:10296000DAE7202AEFD1E7E703A8FFF7B1FE039BE0
:10297000B8F1000F10D0B8F1100F17D11A78302A23
:1029800014D15A7802F0DF02582A0FD10233039390
:10299000023C4FF0100809E01A78302A16D15A7814
:1029A00002F0DF02582AF1D04FF00808039B1A7892
:1029B0002B2A0ED02D2A0FD101330393013C4FF067
:1029C000FF31039A00201444844616E04FF00A08B1
:1029D000ECE701330393013C0121F2E7A9F1410344
:1029E000052B02D920B3039222E0A9F1370317E0A7
:1029F000010010000CFB083C012092F80090964664
:102A0000B9F1000FEED0A242ECD0A9F13003DBB255
:102A1000092B06D9A9F16103052BDFD8A9F15703CA
:102A2000DBB2984502F10102E4D808B1CDF80CE020
:102A300057F8043B0CFB01F119606DE74FF0FF35CF
:102A400001E700BF064B1868002382B262F30F0350
:102A5000000C60F31F4382B0184602B0704700BFFD
:102A600044E1200809207047014803F0FBB800BF8B
:102A7000F8E0200837B5044606200D4600F0FCFAC1
:102A8000E2B2132A0346084A02D11178A52908D0D8
:102A9000127800922946054A204602F0D5FB03B081
:102AA00030BD6FF00600FAE7A4010000F8E020084E
:102AB000014803F005B800BFF8E020081FB5064B39
:102AC0001B680293054B0193054B0093054B02F0E5
:102AD000E7FE05B05DF804FB24130000B00F000012
:102AE000B4010000F8E0200807B5064B064A1B6851
:102AF0000193064B0093064B02F0D4FD03B05DF842
:102B000004FB00BF24130000F8E02008B00F000011
:102B1000B401000007B5064B064A1B680193064B3B
:102B20000093064B02F00AFD03B05DF804FB00BF02
:102B300024130000F8E02008B00F0000B4010000EA
:102B4000014902F067BA00BFF8E0200801490248D5
:102B500002F038BAB4010000F8E0200807B5064BCF
:102B60000193064B0093064A064B074902F0E0F832
:102B700003B05DF804FB00BFA8120000241300009E
:102B8000B401000000FC0200F8E02008014B1870BE
:102B9000704700BFA4010000014802F0CBBF00BF96
:102BA000F8E020080F4BDA79920714D51B79ABB9FE
:102BB0000D4B5A6948B142F010025A615A6939B155
:102BC00042F001025A610020704760F30412F4E7FA
:102BD00061F30002F6E74FF0FF3070476FF001003D
:102BE000704700BFB00E000000000345024BD879CB
:102BF00000F00100704700BFB00E00000B28014636
:102C000003D1054A012002F064BF0A2803D1024A19
:102C1000012002F079BF7047F8E020080B28014638
:102C200003D1054A022002F054BF0A2803D1024A08
:102C3000022002F069BF7047F8E02008014802F066
:102C40004FBA00BFF8E02008064B1868002382B294
:102C500062F30F03000C60F31F4382B0184602B00A
:102C6000704700BFBCE12008014B1868704700BFE7
:102C7000C0010000014804F04FB900BFC0010000CE
:102C8000014904F009B900BFC0010000014804F087
:102C9000E1B800BFC001000037B504460B200D4667
:102CA00000F0EAF9064B1B680193064B00930246BD
:102CB000054B2946204603F08FFE03B030BD00BF10
:102CC00020130000A8010000C0010000014803F02B
:102CD0007FBE00BFC0010000014803F076BE00BF08
:102CE000C00100007FB5104BD3E90354B2F5806FEB
:102CF0002E883ABF02F1FF33C3F3090340F2FF33DA
:102D000063F30D162E80258863F30D15074B258080
:102D10001B680293064B0193064B0093024B03F092
:102D20001BFE04B070BD00BFC001000020130000F6
:102D3000C00E0000A80100000D4B1A69B1F5806FAC
:102D400013B538BF01F1FF33148834BFC3F309034F
:102D500040F2FF3363F30D14064B14801B6801939C
:102D6000054B0093024A054B03F058FD02B010BD1D
:102D7000C001000020130000C00E0000A8010000E8
:102D80000D4BDA68B1F5806F13B538BF01F1FF3331
:102D9000148834BFC3F3090340F2FF3363F30D1407
:102DA000064B14801B680193054B0093024A054BA8
:102DB00003F086FC02B010BDC0010000201300002B
:102DC000C00E0000A8010000024B034A1B68034923
:102DD00003F0CEBB20130000A8010000C0010000DA
:102DE000034B044904484FF400129A6403F070BB8B
:102DF00000840424A8010000C001000007B5064BB0
:102E00000193064B0093064A064B074903F0D0FA9C
:102E100003B05DF804FB00BF301200002013000077
:102E2000A8010000001C0624C0010000014803F0B6
:102E300097B900BF48020000014803F091B900BFF4
:102E400004020000014803F08BB900BFC00100007C
:102E5000FFF7F8BF354BDFED366AD3F8102242F0AA
:102E60004002C3F8102207EE900AD3F81022F4EEC5
:102E7000E67A42F01002F1EE10FA07EE101A82B074
:102E8000C3F8102206DCF0EE086AB4EEE67AF1EE42
:102E900010FA08D5D3F8102242F02002C3F810220D
:102EA000002002B070479FED237AF4EEC77AF1EE6E
:102EB00010FA10D5D3F810226FF30302C3F81022D2
:102EC000D3F810226FF38612C3F81022D3F8102221
:102ED0006FF30412E2E777EEC77ADFED176A134A61
:102EE00087EEA67AF7EE007A77EE277AFCEEE77A9D
:102EF000CDED017A9DF80430F6EE007A77EE277A70
:102F000007EE103AB8EE477AB4EEE77AF1EE10FA2F
:102F1000C2BFFCEEE77ACDED017A9DF80430D2F81D
:102F2000101263F30301C2F81012B9E70038042449
:102F300033333340CDCCCC3F0AD7A33D0A4B9A6CF8
:102F4000013A052A0ED8DFE802F003050705090B50
:102F5000586C7047D86A7047D86B7047186B7047C9
:102F6000586B704700207047380E000006281DD8A7
:102F7000DFE800F0040A0D10131619000C4B586816
:102F800009B1B0FBF1F07047094B186AF8E7084B3C
:102F9000586AF5E7064B986AF2E7054BD86AEFE7FF
:102FA000034B186BECE7024BD868E9E70020E7E732
:102FB000380E000010B5032814D8DFE800F0020A2C
:102FC0000D100F48C06A7AB1A3B981B1B0FBF1F01E
:102FD0000DE00B48C069F6E709484069F3E7084887
:102FE0008068F0E70020EEE723B909B9400810BD7A
:102FF0004900EBE7CB07FAD50229F8D9E6E700BF8D
:10300000380E0000F8B50C461546042828D8DFE82D
:1030100000F003211B1E2400FFF790FF15B394B1AD
:1030200006F0C8FB064620460F4606F0C3FB104BD1
:10303000002206F083FA02460B463046394606F077
:103040005DFD06F0CBFEF8BD0A4BD869E6E7094BFB
:103050005869E3E7074B9868E0E7064BD868DDE777
:103060000020DBE7002CEED0B0FBF4F0EBE700BF74
:103070000000E03F380E000010B50E2800F28F81EE
:10308000DFE810F00F001E002D00530072008400D6
:103090009600B300CA00DD00E700090132016001BB
:1030A00082014FF08C43BDE81040D869D969DA69D4
:1030B000C1F3C301C2F3407200F00700FFF7A2BFE3
:1030C0004FF08C43BDE81040D869D969DA69C1F383
:1030D0008321C2F38072C0F3C210FFF793BF4FF099
:1030E0008C4293699469C3F3C233C4F3C324052BA0
:1030F00019D8DFE803F003090C0F1215FFF71EFFC4
:103100000CB1B0FBF4F010BD8C4B9868F8E78B4B1A
:103110001869F5E7894B5869F2E7884BD869EFE7FA
:10312000864BD868ECE70020EAE74FF08C42936AC0
:10313000946AC3F34243C4F30554032B12D8DFE867
:1031400003F002080B0EFFF7F9FE002CDBD0640041
:10315000D7E77A4B5869F8E7784B9868F5E7774BEB
:10316000D868F2E70020F0E74FF08C43BDE810404C
:10317000986999699A69DB69C2F34022C3F30073C5
:10318000C1F3C50100F00700FFF714BF4FF08C43F7
:10319000BDE81040D86F99699A69DB69C2F3402293
:1031A000C3F30073C1F3C501C0F34220FFF702BFB0
:1031B0004FF08C439B69C3F30263042B00F2EF8052
:1031C000DFE803F003060A0D10005C4BD8689AE7AD
:1031D000BDE81040FFF7B2BE584B986893E7574BD5
:1031E000D86990E7554B58698DE74FF08C4291694B
:1031F0009369926911F4802F5049C2F3C0520CBFF9
:1032000048698868C3F3C3431AB1002B3FF47BAF0E
:1032100012E083B9400876E74FF08C439A6A9B6AC4
:1032200012F4806F454A0CBF9069D068C3F3C52380
:10323000002B3FF468AF5B00B0FBF3F063E7404B5B
:1032400098699969BDE81040C1F34641000FFFF746
:103250008DBE3B4BDA69DB69C2F34302C3F347130C
:10326000052A16D8DFE802F00306090C0F12334ACC
:103270005068DDE7314A106ADAE7304A506AD7E72A
:103280002E4A906AD4E72D4AD06AD1E72B4A106BB8
:10329000CEE70020CCE72A4B1A6A1B6AC2F343022E
:1032A000C3F34213072A1DD8DFE802F004070A0D12
:1032B00010131619214A5068A7E7204A106AA4E79C
:1032C0001E4A506AA1E71D4A906A9EE71B4AD06ACF
:1032D0009BE71A4A106B98E7184AD06895E7174A97
:1032E000506B92E7002090E7154B1B6BC3F3430331
:1032F000062B54D801A252F823F000BF194320082E
:103300001F432008254320082B4320083143200871
:1033100037432008CB412008084B5868F3E6074B99
:10332000186AF0E6054B586AEDE6044B986AEAE63F
:10333000024BD86AE7E6014B186BE4E6380E000052
:1033400000140424174B5B6BC3F34303082B26D8EC
:1033500001A252F823F000BF194320081F432008A0
:10336000254320082B4320083143200837432008F9
:10337000CB4120087D432008834320080A4B586B2B
:10338000C1E6094B9869BEE6064BD86AD96ABDE822
:103390001040C1F34711C0F34300FFF7E7BD002021
:1033A000B1E600BF00140424380E0000024B1B6875
:1033B000D3F8BC30184700BF00013000024B1B6837
:1033C000D3F8CC30184700BF00013000024B1B6817
:1033D000D3F8EC30184700BF00013000024B012148
:1033E0009B69C0B2184700BFD8130000FFF7F6BFB3
:1033F0001346054A126810B4546C0A46A4460021CC
:103400005DF8044B604700BF0001300010B54FF479
:10341000006004F0FFF9094C094B4FF000725A6448
:1034200022782AB9074B08481B6A01219B6A9847F2
:10343000237843F00103237010BD00BF281700005C
:1034400000840424000130000014042482B0ADF88C
:1034500004000A4B4FF400621A609DF80420084BE8
:103460002AB9D3F8082242F40062C3F808225A6845
:10347000002042F001025A6002B0704700E100E013
:10348000003804242DE9F04F224B234893F81CE028
:10349000224B1A7800231C4602F59875D9B28E4546
:1034A0000CD8DFF880800023A8F5107902F5907C15
:1034B000DAB2964509D80020BDE8F08F30F8151033
:1034C0008C4238BF0C460133E8E743B929F81C3079
:1034D0000133EDE7B5F820B0594489B20AE000277E
:1034E0001FFA83FABEB2B442F2D900220C4D104644
:1034F00035F8021F8C4203D9B142EBD1013080B2C2
:10350000013292B25245F3D301370028EAD128F8AC
:103510001360DDE7D8130000F8130000D413000097
:103520003616000038160000012800D17047C30786
:1035300001D44008F8E70020704703460120834289
:1035400008DC00EBD072A3EB6203B3EBA00FB8BFB3
:10355000400870474000F2E784B02DE9F7430AAC19
:1035600084E80F000023ADF806309DF8BC514D4BA8
:103570009DF8BD8159885A68B2FBF1F215B9B8F1CE
:10358000010F2DD14849012508880B88474C80B28E
:103590009BB20AAE03F5987306EB80004069B2FB5C
:1035A000F0F224F813200B889BB203F5987334F8DB
:1035B0001330012B06D80B889BB203F598730222B7
:1035C00024F813203A4E0DF138090027F7EE006A6F
:1035D000FBB2984507D803B0BDE8F04304B070478C
:1035E0000DF10601D0E73FB1D9E90032B3FBF2F2A9
:1035F000338813FB02F37380B8F1010F08D072888F
:103600001046FFF791FF18B91046FFF796FF70803C
:103610008DB10B880AAA9BB202EB4303B3F8F430D6
:10362000012B08D10B889BB203F5987334F8132053
:10363000920824F81320DFED1F7A0023B8B29842D5
:10364000ADF8063009D2F4EEE67AF1EE10FA26DC97
:103650000137023609F10409BAE70A8892B202F585
:103660009872013334F8122007EE102AB8EE477A28
:103670009BB286EE876A77EE867AE0E70A8892B296
:1036800002F59872013334F812C04FEA4C0C24F85A
:1036900012C09BB28342ADF80630EFD9D8E70023C1
:1036A000F8E700BFD8130000D4130000F81300009F
:1036B000561600000000000007EE100ADFED087A41
:1036C000084837EE277AF7EE006AC6EE877AFCEEF6
:1036D000E77A17EE903A834228BF034618467047B0
:1036E00095BFD633404B4C0084B0F0B506AC84E8AF
:1036F0000E00DFED957A002123AC0DF16B050A4633
:103700000B46CEB2B04200F2B080002B00F0A48095
:10371000B0EE007AF4EEC77AF1EE10FAB0EE047A69
:1037200005DBF4EEC77AF1EE10FA00F1DD80F4EE7D
:10373000C77AF1EE10FAB0EE087A05DBF4EEC77A3C
:10374000F1EE10FA00F1D680F4EEC77AF1EE10FA3D
:10375000B1EE007A05DBF4EEC77AF1EE10FA00F173
:10376000CC80F4EEC77AF1EE10FAB1EE047A05DB04
:10377000F4EEC77AF1EE10FA00F1C280F4EEC77AE7
:10378000F1EE10FA07DBB1EE087AF4EEC77AF1EE4B
:1037900010FA00F1B880B1EE0C7AF4EEC77AF1EECF
:1037A00010FAB2EE007A05DBF4EEC77AF1EE10FA09
:1037B00000F1AC80F4EEC77AF1EE10FAB2EE027AC4
:1037C00005DBF4EEC77AF1EE10FA00F1A280F4EE18
:1037D000C77AF1EE10FA07DBB2EE047AF4EEC77A9C
:1037E000F1EE10FA00F19880B2EE087AF4EEC77AA2
:1037F000F1EE10FA06DBB2EE0C7AF4EEC77AF1EED7
:1038000010FA61D4B3EE017AF4EEC77AF1EE10FA51
:1038100006DBB3EE027AF4EEC77AF1EE10FA60D46A
:10382000B3EE097AF4EEC77AF1EE10FA06DBB3EEE6
:103830000A7AF4EEC77AF1EE10FA70D9B3EE0B7A89
:10384000F4EEC77AF1EE10FA06DB9FED407AF4EE63
:10385000C77AF1EE10FA74D9DFED3D7A9FED3D7A2B
:10386000002A18BFF0EE477A65E015F8016FA6F15F
:10387000140CBCF1020F2F7C0FD894ED007AF4EEFB
:10388000C77AF1EE10FA03D50133DBB2F0EE477AD6
:103890000D2F16D00131043433E7A7F10A0CBCF127
:1038A000020F0CD894ED007AB4EEE77AF1EE10FA3C
:1038B00003DD0133DBB2F0EE477A182EE9E7182E6C
:1038C000E6D10132D2B2E5E7DFED237A9AB39FED7C
:1038D000217AF4EEC77AF1EE10FA23D5F0EE477AAA
:1038E00029E0DFED1E7AF1E7DFED1D7AD2B1DFEDE1
:1038F000197A20E0DFED1B7AF8E7DFED1B7AF5E7B8
:10390000DFED1A7AF2E7DFED1A7AEFE7DFED197AE9
:10391000ECE7DFED197AE9E7DFED187AE6E7DFEDAE
:10392000187A42B19FED0A7AF4EE477AF1EE10FA76
:1039300048BFF0EE477ABDE8F04017EE900A04B0B9
:103940007047DFED107AECE70000000000004C4209
:1039500095BFD6338BE16A36EFE608369F9D423637
:103960002E5A823301A90C3437F859342439EC34F7
:1039700034580F35AD186335883E8A35ACC5A73548
:10398000B1B49D36F2DD1C3770B50D4616460446BF
:10399000D0B9FFF71BFDAA4807222146FFF728FDF3
:1039A000002D40F0AA81012E00F09F810B2C1DD02C
:1039B0000C2C40F0F5800520FFF708FDA0480722F9
:1039C0000521FFF715FD98E0012818D10220FFF727
:1039D000FDFC9B4807220221FFF70AFD002D76D14E
:1039E000012E00F082810B2C40F0DA800320FFF7DB
:1039F000EDFC072203219248FFF7FAFC96E002282B
:103A00000ED10420FFF7E2FC072204218C48FFF7C7
:103A1000EFFC002D00F06681012D40F0778155E12B
:103A2000032805D10620FFF7D1FC07220621EDE788
:103A3000042805D10820FFF7C9FC07220821E5E783
:103A4000052805D10A20FFF7C1FC07220A21DDE77E
:103A500006280CD17B4B20225A601920FFF7AEFCC0
:103A60001920FFF7A3FC78480E221921B4E7072894
:103A70001ED1744B20225A601B20FFF79FFC1B2095
:103A8000FFF794FC0E221B216F48FFF7B1FC002DBD
:103A900000F02881012D40F0D980012E00F019811D
:103AA0000C2C21D10520FFF791FC07220521A2E76C
:103AB000082840F0FD80634B20225A601D20FFF74C
:103AC0007DFC1D20FFF772FC0E221D21DCE70B2C74
:103AD0001ED0012D40F01A81012E00F0FA800C2C2E
:103AE000E0D00D2C00F0C1800E2C50D00F2C6FD0E8
:103AF000102C75D12EE0022D40D0032D52D1012E75
:103B000059D00E2C70D00F2C62D0102C30D121E067
:103B10000320FFF75BFC4A4807220321FFF768FCFC
:103B2000022D2BD0032D03D1012E44D0002070BDD7
:103B3000042D00F0A480052DDAD1012E40F0A380E1
:103B40000720FFF743FC07223D481146FFF750FCD2
:103B5000102C5ED13B4B20225A601A20FFF72EFC1E
:103B60001A20FFF723FC38480E221A21FFF740FCE9
:103B7000112C50D0072D5CD1012E88E0012ED5D11B
:103B800069E0012E67D00D2C0FD00E2CBBD109207F
:103B9000FFF71CFC2A4807220921FFF729FCCAE786
:103BA0000D2C62D00E2C68D1F1E70B20FFF70EFC34
:103BB00007220B211FE70B20FFF708FC20480722F4
:103BC0000B21FFF715FC8FE70E2CE0D00F2CB2D1A4
:103BD0000720FFF7FBFB072219481146FFF708FCF7
:103BE000062DC5D1012E4FE00920FFF7EFFB07227C
:103BF000092100E70920FFF7E9FB11480722092105
:103C0000FFF7F6FB7FE70720FFF7E0FB07221146EF
:103C1000F1E6112C0DD10B4B20225A601C20FFF72E
:103C2000CDFB1C20FFF7C2FB07480E221C21FFF72B
:103C3000DFFB122C2FD0082D7FF478AF012E28E067
:103C400000C004240000304100001346022D7FF420
:103C500054AF012E99D10520FFF7B8FB2E4807225B
:103C60000521FFF7C5FB0D2CAED10B20FFF7AEFBF6
:103C7000294807220B21FFF7BBFB042DA6D1012EFB
:103C8000B8D00F2CBFD0102C3FF464AF112CC2D091
:103C9000122C7FF44BAF214B20225A601E20FFF7DD
:103CA0008DFB1E20FFF782FB1D480E221E21A3E67E
:103CB0000A287FF475AE0120FFF788FB164807221B
:103CC0000121FFF795FB012D7FF415AF012E7FF445
:103CD0002DAF0320FFF77AFB0F4807220321FFF7E0
:103CE00087FB65E6012E7FF421AF0120FFF76EFB15
:103CF000094807220121FFF77BFB0B2C3FF408AF9B
:103D0000012D3FF4E9AE0C2C3FF455AE022D3FF4EB
:103D100038AF0D2CA9D0F0E600C0042400003041DB
:103D20000000134682B02DE9F0410F2906AC84E86B
:103D30000C005FD8BDF82040BDF8225044EA0503CE
:103D4000B3F5806F56D22E4B079E9DF824809DF8C8
:103D500025E043F8212001F1100701F1400C43F860
:103D6000276001F15007B24223F81C4023F8175096
:103D700042D0B8F1000F17D001F1300802EB440235
:103D8000C0F8D42143F8282044EAC12242F4004874
:103D9000C0F8D881D0F8D881C0F8D821D0F8D8217F
:103DA00043F82C8043F82720BEF1000F1DD001F10D
:103DB000600204EB4504344443F82240CA0202F591
:103DC00080622A43C0F8D44142F40044C0F8D8418C
:103DD00001F17004D0F8D85143F824508031C0F874
:103DE000D821D0F8D82143F821200020BDE8F041A7
:103DF00002B070470120F9E742F20210F6E700BF77
:103E0000F81300000F2910B528D892B1144A01F117
:103E1000300452F82440C0F8D44101F1400452F873
:103E20002440C0F8D84101F1500452F82420C0F8D1
:103E3000D8218BB10A4B01F1600253F82220C0F85F
:103E4000D42101F17002803153F8222053F821303F
:103E5000C0F8D821C0F8D831002010BD0120FCE7FF
:103E6000F813000010B5274B27485A685A6842F0EB
:103E700001025A60D3F8082242F48062C3F8082293
:103E800003F5B4331A68026852BBD3F8402442F4F5
:103E90006752C3F840241D4AD2F80230DC05FBD437
:103EA0001B4BD3F80427D107FBD5D3F80427D2073F
:103EB000FBD4D3F84824174C174B21681A60930899
:103EC00003F4F8530B43910001F07C0112020B4301
:103ED00002F47832134343F081032360012303602B
:103EE0000C4B1A680A4BC3F84424084AD2F8023033
:103EF00013F48073FAD1034A516863F300015160EF
:103F000010BD00BF00380424C813000000000524C1
:103F100000A00524D0130000CC13000084B070B5BD
:103F20002DED028B82B008AC84E80F00444C6E9AF1
:103F3000A2610D9A43499DF8B531BDF8140123776C
:103F4000013A8A4278D20DA90122934209D8012B65
:103F50006FD19DF8B43173B101280FD942F2061028
:103F600060E00E4651F8045F3668B54264D8002D13
:103F700062D00132E9E7B0F5806FEFD2FFF746FA81
:103F8000314B32485A689FED328A6FF38A225A6069
:103F9000DA686FF31842DA60DA68042161F3090223
:103FA000DA605A682B4942F480625A60FEF752FF89
:103FB000294B5B686360FFF755FF03F045FD2081E7
:103FC00003F036FD208203F045FDC0F30D0307EE3C
:103FD000103AB8EEC77A830BC7EE086A07EE903A3C
:103FE000F8EEE77A77EEA67AC4ED037A03F026FDC1
:103FF000C0F30D0307EE103AB8EEC77A830BC7EE95
:10400000086A01A807EE903AF8EEE77A002377EE07
:10401000A67A0193C4ED057A04F03CFA003818BF83
:104020000120404202B0BDEC028BBDE8704004B0FC
:104030007047013B0F2B90E742F20410F2E700BFFC
:10404000D8130000A0252600003804243333334061
:1040500000007A44CDCC4C40380E000084B010B53E
:104060002DED028B82B006AC84E80F009DF818306D
:104070000F2B7FD84249434C0B706C99A16106A964
:1040800001EB8301404849699DF8AD212277013950
:10409000814271D2012A6AD106AA02EB43039DF83C
:1040A000AC21B3F8F43022B1012B05D942F206104D
:1040B00056E0B3F5806FF9D2FFF7A8F9334B3448D7
:1040C0005A689FED348A6FF38A225A60DA686FF378
:1040D0001842DA60DA68042161F30902DA605A688A
:1040E0002D4942F480625A60FEF7B4FEFFF7BAFE33
:1040F0002A4B5B68636003F0A7FC208103F098FC07
:10410000208203F0A7FCC0F30D0307EE103AB8EECF
:10411000C77A830BC7EE086A07EE903AF8EEE77AA3
:1041200077EEA67AC4ED037A03F088FCC0F30D03A2
:1041300007EE103AB8EEC77A830BC7EE086A01A8FB
:1041400007EE903AF8EEE77A002377EEA67A01932D
:10415000C4ED057A04F09EF9003818BF01204042F2
:1041600002B0BDEC028BBDE8104004B07047013ACC
:104170000F2A9AE70120F3E742F20410F0E700BFAC
:10418000D4130000D8130000A02526000038042412
:104190003333334000007A44CDCC4C40380E00001D
:1041A0000F29024610B54FF001000CD8D2F8CC41CF
:1041B00000FA01F32343D2F8CC119BB263F30F0151
:1041C000C2F8CC11002010BD0F29024610B54FF0E7
:1041D00001000DD8D2F8CC4100FA01F343EA1443B0
:1041E000D2F8CC119BB263F31F41C2F8CC1100206E
:1041F00010BD30B50F299DF80C402CD81F2A2AD8A5
:104200000F2B28D8012C26D845686D060FD509013B
:1042100034B14518AC6B44EA835343F08063AB631D
:1042200001448B6B43EA42438B63002030BD5CB199
:10423000D0F8081241F40071C0F80812D0F8081242
:1042400063F34811C0F80812D0F8083262F304038F
:10425000C0F80832E9E70120E8E7000029B9D0F802
:10426000083261F3CB23C0F80832064B5B68DB07EA
:1042700041BF43686FF300034360002058BF4FF015
:10428000FF30704700380424C1B2024882B002B047
:10429000FFF7E4BF003804240F2915D80D4B5A68E6
:1042A000520603D4D3F8DC31002B0FDAD0F8DC212E
:1042B00001238B401343D0F8DC219BB263F30F0240
:1042C000C0F8DC2100207047012070474FF40450F3
:1042D000704700BF00380424B1F5007F14D2B2F556
:1042E000806F11D243686FF38A234360C36861F320
:1042F0001843C360C36862F30903C360436843F4AF
:104300008063436000207047012070470F2925D843
:10431000012A05D1436A6FF3D753436200207047E7
:10432000022A0BD1436A6FF300034362436A6FF3BF
:1043300004134362436A6FF3C303EEE7084BD3F8F9
:10434000DC31002BEADA436A0122C3F3CF138A403F
:1043500023EA0201436A61F3D613DEE701207047C6
:10436000003804240F2903464FF0010014D81A6ABC
:1043700000FA01F189B2186AC2F30F220A4362F30C
:10438000172018621A6AC2F30F2222EA0102196A80
:1043900062F31721196200207047000010B510B1B8
:1043A000012804D010BDBDE81040FFF72FB84FF42E
:1043B000006003F049FA0A4A13786FF300031370A0
:1043C000DBB2002BEED1074B07484FF000729A6426
:1043D000064B1B6ABDE81040DB6B0221184700BF8B
:1043E0002817000000840424001404240001300075
:1043F00013B50D4BADF804004FF40062C3F88020F4
:10440000BFF34F8FBFF36F8F03220121002004F011
:1044100015F9044628B90120FFF7C0FF204602B075
:1044200010BD4FF0FF30FAE700E100E04368064AB4
:1044300061F349234360D2F8403443EA4143C2F870
:1044400040340020704700BF00A0052484B02DE94F
:10445000F04F2DED028BF1B07CAC84E80F009DF89D
:10446000853365934FF4C47201237FA9684669932D
:10447000DDF804829DF8845306F0C2FD94E80E0036
:104480006598B74CFFF730F908EE100AFFF714F9FA
:10449000D4F804A007EE900A07EE10AAF8EE677AA7
:1044A000F8EE476AB7EE007AC7EE268AC7EE276AAB
:1044B000C6EEA87A17EE900A05F09EF908F01CFCEB
:1044C00005F08CFCC8EE287A86B217EE900A05F04B
:1044D00093F908F011FC05F081FC87B2BE4204BFDD
:1044E0000136B6B2002D5ED1BDF8843327804FF47B
:1044F000C27280A9684666809A4CADF8843106F095
:104500007FFD7CAB0FCBFFF727F8FEF7BBFF3246F2
:1045100039462046FFF7E0FE01212046FFF786FFDF
:104520006368914EDFF8389243F00063636063681C
:1045300043F040036360636865F3410363603323C2
:10454000C4F8E431636843F004036360D4F8DC31F9
:1045500043F00043C4F8DC310DF2E223669306F128
:104560008103A8AF06F13E0B67930DF5F878659AC5
:10457000EBB29A4200F289807C4B6A9300227C4B1A
:104580006B9369A9104603F0BDFF10B1452840F0B8
:10459000E38069996AAA002004F022F8003818BF65
:1045A0000120404265E0304605F014F9BAFBF8FA04
:1045B00080465046894605F0FDF802460B464046C7
:1045C000494605F0E3FB00285AD127806680324631
:1045D00039466448FFF780FE01216248FFF726FF55
:1045E000604B5A6842F000625A605A686FF3861254
:1045F0005A606A1E012A5A684FF0000194BF42F0C7
:10460000020265F341025A60C3F8E4115A6842F0AD
:1046100004025A60D3F8DC2161F3DF72C3F8DC21B5
:104620009DF8F1219DF844029DF854125AB1D3F837
:10463000086262F34926C3F80862D3F8086261F39E
:104640004816C3F80862474ED6F8083260F30403F0
:10465000C6F80832FFF798F92A4600213046FFF7DE
:1046600055FE62886368B3FBF2F3424A0020C2F849
:10467000803271B0BDEC028BBDE8F04F04B07047E2
:104680001FFA8AF227806280A2E798F854A098F86F
:104690006430649318F8013F6393009352462946AF
:1046A000649B2046FFF7A5FD36F8021F328C012AD5
:1046B00008D0AB0003F1105303F58723A3F838119A
:1046C000C3F8782129462046FFF7E6FDDDE963219E
:1046D0005046FFF759F929462046FFF775FD7B6ED6
:1046E0006C93D7F8A4306D93669B33F802AF669352
:1046F00040F20113ADF8BC31ADF8B8A1ADF8BAA1E4
:1047000070AB13E90300DDE96C238DE80300294653
:104710002046FFF707FB29462046FFF741FD002210
:1047200029462046FFF7F2FDB9F80220D9F80430F7
:10473000B3FBF2F3328CB3FBF2F34BF8043F57F8C0
:10474000043FA6F8D0A0CBF85030679B639A03F8DB
:10475000012F013567930AE74FF0FF3089E700BF6B
:10476000D81300000038042436160000DD4320086A
:10477000ED432008F813000084B02DE9F04F2DED33
:10478000028BEDB078AC84E80F009DF8E0819DF8D5
:1047900074739DF875930120B8F10F0F659000F2C6
:1047A0000581DFF85CA3D14E8AF800804FF4C47213
:1047B0007BA9684606F024FC94E80E004846FEF704
:1047C00093FF08EE100AFEF777FF746807EE900A71
:1047D00007EE104AF8EE677AF8EE476AB7EE007A0D
:1047E000C7EE268AC7EE276AC6EEA87A17EE900AA9
:1047F00005F002F808F080FA05F0F0FAC8EE287A21
:1048000085B217EE900A04F0F7FF08F075FA05F08C
:10481000E5FA1FFA80FB5D4504BF0135ADB2002FFC
:1048200051D1BDF87433B24C75804FF4C2727CA97B
:104830006846A6F800B0ADF8843106F0E1FB78AB2D
:104840000FCBFEF789FEFEF71DFE2A46594620468D
:10485000FFF742FD01212046FFF7E8FD6368A54D03
:1048600043F000636360636843F040036360636820
:1048700067F3410363603323C4F8E431636843F0B2
:1048800004036360D4F8DC3143F00043C4F8DC3146
:10489000FBB2994500F29680974B66930022974BA6
:1048A000679365A9104603F02DFE10B1452840F02E
:1048B0001A81659966AA002003F092FE003818BF9D
:1048C0000120404272E078AB03EB88082846D8F814
:1048D0001430B4FBF3F404F07DFF80462046894693
:1048E00004F068FF02460B464046494605F04EFA82
:1048F000002862D1A6F800B075802A4659467C4847
:10490000FFF7EAFC01217A48FFF790FD784B5A68DF
:1049100042F000625A605A686FF386125A607A1E3B
:10492000012A5A684FF0000194BF42F0020267F377
:1049300041025A60C3F8E4115A6842F004025A6016
:10494000D3F8DC2161F3DF72C3F8DC219AF8002090
:1049500002F5F0726A4492F8540092F864105278AA
:104960005AB1D3F8084262F34924C3F80842D3F895
:10497000084261F34814C3F808425D4DD5F8083287
:1049800060F30403C5F80832FEF7FEFF9AF8004012
:104990003A4621462846FFF7B9FCA034728873686E
:1049A000B3FBF2F3534A42F8243000206DB0BDEC63
:1049B000028BBDE8F04F04B07047A2B2A6F800B079
:1049C00072809BE79AF80010639101F5F0736B44D5
:1049D000204693F8642093F8548093F801B06292D3
:1049E0001346CDF800B04246FFF703FC639901F58A
:1049F000907335F8130001F5987335F81320012AE8
:104A000008D08B0003F1105303F58723A3F8380176
:104A1000C3F878212046FFF73FFC5A46629940468A
:104A2000FEF7B2FF9AF8008020464146FFF7CCFB24
:104A300078AB03EB88030137D3F81431689378AB74
:104A400003EB8803D3F85431699378AB03EB480345
:104A5000B3F8F430ADF8A831ADF8AA3140F2011343
:104A6000ADF8AC316CAB13E90300DDE968238DE8E8
:104A7000030041462046FFF755F99AF8008020468A
:104A80004146FFF78DFB414600222046FFF73EFCE2
:104A900008F1A00271887368B3FBF1F308F598710F
:104AA00035F81110B3FBF1F345F8223078AA02EB88
:104AB000480208F5C473B2F8F42025F8132078AA48
:104AC00002EB880208F1B403D2F8B42045F82320A1
:104AD00008F5F07205EB08030DEB020898F80120C9
:104AE00083F8C022D4E64FF0FF305FE7D813000010
:104AF00000380424F8130000DD432008ED432008AB
:104B0000D4130000D0F8E03143F00103C0F8E031E5
:104B1000002070472DE9F341374B9A6A0192019AC0
:104B200016020DD5426A1502C2F3C05008D45A6A63
:104B300042F400025A62314B9B690421984718E005
:104B4000019BDC0709D52C4A136A43F00103136269
:104B50002A4B05219B690020F0E7019C14F080742A
:104B60000BD02548012100F095F8254B02201B6849
:104B70009847002002B0BDE8F0811F4B5A685006EC
:104B800003D4D3F8DC21002A25DA1E4D1A4FDFF8B2
:104B90006C80019BE21DD340D90716D521463846CB
:104BA000FFF7E0FB2B78E6B2B3FA83F25209314605
:104BB0003846FFF727F9D8F81830002130469847D3
:104BC0002B78B3FA83F35B092B700134102C05F1B9
:104BD0000105DED1CDE75A689207CAD4D3F8DC11BB
:104BE000C90FC6D15A6842F004025A600198034BBB
:104BF000C0B29B69A2E700BF00380424D8130000AC
:104C00002C170000B81300000148FFF783BF00BF56
:104C100000380424030548BF20F40060174B58BF38
:104C200040F40060D1B11A8A93ED057A821A07EE3A
:104C3000902AF8EEE77A67EE877AFDEEE77A17EECC
:104C4000903A18B2B0F5805F11DA002812DDB0F5A5
:104C5000006F10DBA0F5006000B270471A8993ED79
:104C6000037A821A07EE902AF8EEE77AE3E740F635
:104C7000FF70EFE7002000F50060EDE7D8130000BB
:104C8000406921B11146C0F30B00FFF7C3BFC0F369
:104C90000B007047436A01291DBF43F002034362C2
:104CA000436A43F0807318BF43F00403436200205B
:104CB0007047000010B4034C24686468A4465DF893
:104CC000044B60470001300010B4034C2468646C4E
:104CD000A4465DF8044B604700013000024B1B689E
:104CE000D3F8B830184700BF00013000024B1B68F2
:104CF000D3F8C030184700BF00013000024B1B68DA
:104D0000D3F8C830184700BF00013000024B1B68C1
:104D1000D3F8E830184700BF000130000828034BE3
:104D20008CBF022201221A70704700BF30170000AA
:104D300073B59B4B10229A600B69DD7915F0010564
:104D40000C4640F03C819D809D7118601C222946D4
:104D50006069944E06F0A6F823690122DA71F369BE
:104D60004FF08061D3F880304FF08C409847F36962
:104D700094F83010D3F8D4304FF08C409847226824
:104D8000894B9A4240F0F980A36958783F280CD9A2
:104D90004038C0B2FFF7BAFFA36984485A78403A56
:104DA0000623D2B22946FFF78FFFA369D87808B14E
:104DB000FFF79CFFA3695878A0F11903052B01D8D0
:104DC000FFF78CFFA3695878FFF798FFA16978482F
:104DD0008B784A780978FFF777FFE3693BB3587817
:104DE0003F280CD94038C0B2FFF790FFE3696F4805
:104DF0005A78403A0623D2B20021FFF765FFE369F3
:104E0000D87808B1FFF772FFE3695878A0F1190369
:104E1000052B01D8FFF762FFE3695878FFF76EFFB3
:104E2000E16963488B784A780978FFF74DFF236A78
:104E30003BB358783F280CD94038C0B2FFF766FF23
:104E4000236A5A485A78403A0623D2B20021FFF723
:104E50003BFF236AD87808B1FFF748FF236A5878E8
:104E6000A0F11903052B01D8FFF738FF236A587802
:104E7000FFF744FF216A4E488B784A780978FFF79C
:104E800023FF636A3BB358783F280CD94038C0B23F
:104E9000FFF73CFF636A45485A78403A0623D2B28E
:104EA0000021FFF711FF636AD87808B1FFF71EFFF2
:104EB000636A5878A0F11903052B01D8FFF70EFF9C
:104EC000636A5878FFF71AFF616A39488B784A7825
:104ED0000978FFF7F9FEA36A58783F280CD94038C3
:104EE000C0B2FFF713FFA36A30485A78403A06234E
:104EF000D2B20021FFF7E8FEA36AD87808B1FFF725
:104F0000F5FEA36A5878A0F11903052B01D8FFF725
:104F1000E5FEA36A5878FFF7F1FEA16A24488B7872
:104F20004A780978FFF7D0FEE36A58783F280CD911
:104F30004038C0B2FFF7EAFEE36A1C485A78403AAC
:104F40000623D2B20021FFF7BFFEE36AD87808B18A
:104F5000FFF7CCFEE36A5878A0F11903052B01D8BE
:104F6000FFF7BCFEE36A5878FFF7C8FEE16A104815
:104F70008B784A780978FFF7A7FEE3680BB9A36836
:104F8000D3B12268084B9A4216D1002301A801939D
:104F900003F080FA70B14FF0FF3002B070BD00BF77
:104FA00000840424000130000000034500C00424F4
:104FB0000000134603F0FCFC23690122DA71002093
:104FC000EBE700BF0369002210B5DA71836804467D
:104FD0000BB9C068A8B122680D4B9A4212D1E368A0
:104FE000197F03220131002003F028FB60B9A36878
:104FF000197F0322013103F021FB003818BF012083
:10500000404210BD0020FCE74FF0FF30F9E700BF41
:105010000000034538B50C4620B1022835D06FF0AA
:10502000030038BD91F90430002B0DDB5A09012132
:1050300003F01F03994002F12003274A42F823108E
:10504000BFF34F8FBFF36F8F236900229A809A714D
:1050500094F90430934209DB5A09012103F01F033C
:10506000994002F160031C4A42F823101C22606937
:10507000002105F017FF2269D37923F00203D371D1
:10508000164B1022DA600020CBE70A69D379D907E2
:105090001ED513F00200F6D12568696843F00203BB
:1050A00041F40061696090809071D37194F904308B
:1050B000002BE8DB03F01F015B099B0003F1604359
:1050C00003F5614301228A40C3F880211A60DAE7C0
:1050D0004FF0FF30A5E700BF00E100E000840424AA
:1050E0002DE9F84F03681A69C2F340091A69DF69AC
:1050F000DE69C2F3C038504A11696FF300010446FB
:1051000007F00F07C6F303161161156A15F48065E1
:10511000FBD193423BD1E169002938D0DFF824A1CB
:105120004A78DAF800300978D3F800B043482B46C3
:10513000D847E16941484A7809780123FFF7BAFD69
:10514000E1693E484A7809782B46FFF7BDFDE169E1
:105150004A783F2A1BD9403A097839482B46D2B2BF
:10516000FFF7B2FDE169DAF800304A78D3F800A021
:1051700009783348403A2B46D2B2D047E1693048EB
:105180004A780978403A0123D2B2FFF793FD2368A9
:105190001A6942F002021A611A6942F400421A6165
:1051A000DA69012161F30302DA61DA690C2161F342
:1051B0000712DA619A6A42F001029A6245F6A52264
:1051C000C3F8802023681A6AD007FCD4D3F8802063
:1051D0005A6A42F001025A62174A116941F001010C
:1051E0001161116A4905FCD5934212D1E16981B17F
:1051F0004A788B7811480978FFF766FDE1694A78AB
:105200003F2A06D9403A8B780D480978D2B2FFF789
:105210005BFD23681A6969F341021A611A6968F330
:10522000CF321A61DA6967F30302DA61DA6966F389
:105230000712DA61BDE8F88F00000345000013464D
:1052400000C0042400013000F8B515699DF818600D
:1052500095F807C01CF0020F0746144600F05B816A
:105260001268DFF8D4E27245C0B202D1022800F021
:105270004981142809D11C226069002105F012FE21
:10528000236900221A7100206BE095F804E0BEF15A
:10529000000F40F03A81132843D8DFE810F01400E3
:1052A0001D0039013901390142004200420042002B
:1052B00042004200420042004200420042002700F9
:1052C000600063006600AB682CF0040C23F0FF0361
:1052D000AB6085F807C0D6E7A86820F0FF0040F073
:1052E00001004CF0040CA86085F807C08D4881428D
:1052F00033D8B3FBF1F35B0807D1106840F002002C
:105300001060106840F0010010608748814203D9A6
:10531000516841F001015160916BDBB263F3070109
:105320009163AA68D3B2012B0CD107F4C013B3F573
:10533000801F00F0BD8072D8002B79D0B3F5002F0C
:1053400000F0818017F4E06100F0C380B1F5407F88
:1053500000F0D2806FF0070003E00123D8E7906BE4
:10536000C0B2F8BD636919838DE7AB68D8B2012874
:1053700040F0D18003F4C01359BBB3F5801F0BD1AB
:10538000136966F34E331361136943F0010313612C
:10539000136A5905FCD576E7012E07D0022E07D0F7
:1053A0000EB9E36933B96FF00400DAE7236AF9E76D
:1053B000636AF7E75A785D4801230021FFF77AFC1A
:1053C00023681A696FF300021A611A6A5205FCD445
:1053D00059E7B3F5801F0BD1136966F34E331361A0
:1053E00013696FF300031361136A5B05FCD44AE78A
:1053F000012E0DD0022E0DD0002ED4D1E369002B4A
:10540000D1D05A78494800231946FFF753FC3AE7B0
:10541000236AF4E7236A002BC5D0636AF1E7B3F58A
:10542000C01F8FD122F4C012AA606FF00A0098E763
:105430001A4619463D48FFF747FC2269936823F452
:10544000C01393607EE7012E2ED0022E2ED0002EA8
:10545000A9D1E369002BA6D0D8785D7808B1FFF711
:1054600045FC3F2D07D9A5F1400231480623D2B2B1
:105470000021FFF729FC002319462C482A46FFF794
:1054800023FC2C4B29481B681E68002319462A461A
:10549000B04701232A4625480021FFF70BFC22696B
:1054A000936843F40023CCE7236AD3E7636AD1E728
:1054B000E36922F4C012AA605B7833B9236A5B788F
:1054C0001BB9636A5B78002BAFD042F48012AA60EC
:1054D00038E723685A6861F341025A6023685A69C1
:1054E000C7F3053722F01002102F5A6116D89A69B7
:1054F00067F303029A61C6E62268536843F0020329
:105500005360EBE76FF003002BE76FF0010028E733
:105510006FF0060025E74FF0FF3022E76FF008003C
:105520001FE700BF80778E06005A62020000134614
:1055300000C004240001300000000345F0B584469B
:105540008BB01446002800F0A180002900F09E8056
:105550001369DA79520740F196801D79002D40F0E9
:10556000988001279F809D716369C3E90355986006
:105570005D60236898691A6942F002021A619A69AB
:1055800042F080029A611A6965F3CF321A61E668C7
:1055900000F00F00002E46D0626BDF6992F803E046
:1055A0006EF30307DF619778DA6967F30712DA6150
:1055B000327F394F8DF82750082802F1010203F19C
:1055C000800394BF002001200092326804930323DB
:1055D000CDE9063040F201130197ADF824302F4F8A
:1055E00073690590089128466946CDE9027C8DF8DB
:1055F000263002F087FF08B1452844D1009901AA5E
:10560000002002F0EDFF00283DD1009903AA03F02D
:1056100059F8002837D1E368197F013103F0AAF95E
:1056200000200BB0F0BDFFF779FB1D4B62691878C5
:10563000236841431160D96967F30301D961D969CE
:105640000C2565F30711D961996A012841F0010120
:1056500099620BD1116990684D1C1561425CC3F8C9
:1056600080202268136ADB07FCD4D9E70228F8D12E
:10567000116996684D1C1561705C02311161725D93
:1056800040EA0222EBE74FF0FF30CAE76FF0040078
:10569000C7E76FF00100C4E7FD3B20081D3C200870
:1056A000301700002DE9F0418CB045F6A5270E46D5
:1056B00014460197002800F0E680002900F0E380FE
:1056C0001269D379590740F1B9801379002B40F062
:1056D000DD804FF00108A2F8048093716269C2E98D
:1056E0000103C2E9033323689D691A6942F002028B
:1056F0001A619A6942F080029A611A6942F4004282
:105700001A61D4E9022105F00F05002A40F08880D3
:10571000002900F09680626BD869D77867F30300A0
:10572000D8619078DA6960F30712DA6100208DF8A9
:105730002F000A7FDFF86481564F0132082D029254
:1057400003F180030A68069394BF00250125032313
:10575000CDE9083540F20113ADF82C304B69CDF896
:105760000C800DF1040C02A90497CDF814C0079524
:105770000A968DF82E3002F0C5FE08B145285DD19D
:10578000029903AA002002F02BFF002856D10299AB
:1057900005AA02F097FF002850D1A368002B4DD036
:1057A0008DF82F001A7F21680132029280311A6829
:1057B00005916169496806910321CDE907154FF408
:1057C0008171ADF82C105B698DF82E3002A9CDE9FE
:1057D0000387CDE9095602F095FE08B145282DD181
:1057E000029903AA002002F0FBFE38BB029905AA29
:1057F00002F068FF054608BB2268136943F0040302
:105800001361E368197F013103F0B4F8A368197FCD
:105810002846013103F0AEF800200CB0BDE8F0815D
:10582000626BD869D77867F30300D8619078DA693A
:1058300060F30712DA6100297FF478AF4FF0FF3090
:10584000EBE72846FFF76AFA134B1A786369564369
:105850001E602368D96968F30301D961D9690C20F6
:1058600060F30711D961996A012A41F00101996237
:1058700002D1C3F8807001E0022AFAD02268136ACC
:10588000DB07FCD4C8E76FF00400C6E76FF0010047
:10589000C3E700BF1D3C200830170000FD3B200877
:1058A0002DE9F04115468AB01C460746002800F055
:1058B000FB80002900F0F880002A00F0F5801B69C9
:1058C000DA79520762D51A79002A40F0F0804FF059
:1058D00001089A71A3F804806369C3E90322C3E94C
:1058E000011023689E691A6942F002021A619A69DE
:1058F00042F080029A611A6942F400421A61D4E9C6
:10590000022106F00F06002A43D1002900F09B80F7
:10591000626BD86992F803C06CF30300D861907889
:10592000DA6960F30712DA6100208DF827000A7F38
:10593000DFF880C1013200920A68CDF804C0DFF8B8
:1059400078C108958033082E0493CDE902C794BF2F
:10595000002301230327CDE90673059340F20113C9
:10596000ADF824304B698DF82630694602F0CAFD47
:1059700008B145280AD1009901AA002002F030FEA2
:1059800020B9009903AA02F09DFE80B14FF0FF30CC
:1059900056E0626BD86992F803C06CF30300D861DB
:1059A0009078DA6960F30712DA610029BCD1A36844
:1059B000002B44D000208DF827001A7F3D4901328A
:1059C00000921A6801913C4902912168803103914B
:1059D000616949680491032105914FF48171082E92
:1059E000ADF8241094BF002601265B69089569462E
:1059F000CDE906668DF8263002F084FD08B1452811
:105A0000C4D1009901AA002002F0EAFD0028BDD10E
:105A1000009903AA02F056FE05460028B6D1226876
:105A2000136943F004031361A368197F013102F085
:105A3000A1FFE368197F2846013102F09BFF002097
:105A40000AB0BDE8F0813046FFF768F91B4B616989
:105A50001A78236855430D60D86968F30300D8614C
:105A6000D8690C2565F30710D861986A012A40F0BF
:105A7000010098620BD10A698868551C0D61825C2F
:105A8000C3F880202268136ADB07FCD4D7E7022A18
:105A9000F8D10A698E68551C0D61B05C02320A614A
:105AA000725D40EA0222EBE76FF00400C8E76FF096
:105AB0000100C5E7FD3B20081D3C20083017000011
:105AC0000369DB79024613F004001CBF5369D868F0
:105AD0007047012870B50546144614D11269002399
:105AE0001371636958681968196160B9136853B113
:105AF000E368197F013102F059FF236928461B68CA
:105B0000BDE87040184770BD1369012810B51446F0
:105B100004BF00221A711B685BB1A368197F0020C3
:105B2000013102F043FF23690120BDE810401B68EA
:105B3000184710BDF0B40268116A136B11F0800FA2
:105B400043F00103136301F0040169D143695F6805
:105B50000C46002F46D0DD681E68B54244D2404E48
:105B60003678012E1BD105F1010CD2F88020C3F844
:105B70000CC07A554369DD681A68954222D30468DF
:105B8000626A42F001026262026900241471002913
:105B90004AD003691B681BB3F0BC01201847022ED2
:105BA000E8D1D2F8802005F1010CC3F80CC07A5579
:105BB0004369DD685F6805F1010CC3F80CC0C2F3EE
:105BC0000722D6E79A68A2B9012E07D1036845F6E5
:105BD000A522C3F8802019B9436907E0022EF5D049
:105BE000F0BC7047D2F88020002CF9D19A6812B925
:105BF000F6E70029F4D119691D68A94224D2184D8D
:105C000006682D78012D14D14D1C1D61535CC6F81A
:105C100080300268136ADB07FCD4002CB9D1DFE7BF
:105C20000C460029DCD1D7E79A68002AB1D00124BC
:105C3000E1E7022DEDD14F1C1F61555C0231196166
:105C4000D35D45EA0323E2E75A68002AE5D10168FB
:105C50004B6A43F001034B6203691A7199E700BF75
:105C60003017000002695379117990795B0001F0D7
:105C7000010103F0020380000B4300F0040018430D
:105C800070472DE9F04F92F806C092F802A05378C1
:105C9000D5781679577992F807E092F8088092F84B
:105CA000099092F80AB0D47A127802B35B0643EAFC
:105CB0004B7343EA8A5343EA495343EA085343EA9E
:105CC0004E4343EA0C4343EA47330901026843EA7F
:105CD000C62301F1105143EA852301F5872142F0E3
:105CE000004243EA44230260CB63BDE8F08F0268C0
:105CF0006CF3C712026002686AF34F3202600268F6
:105D000063F313420260036865F3410303600368B1
:105D100066F383030360036867F306130360036895
:105D20006EF30A230360036868F3CB230360036800
:105D300069F30C33036003686BF314530360036867
:105D400064F300030360D0E7054B9A689107FCD425
:105D50005A689207F9D4DA69002AF6D1704700BF71
:105D6000008C0424064B1A6A61F397421A621A6A7D
:105D700060F34C221A621A6A9204FCD5704700BF85
:105D800000800424024B0122C3F80421704700BFA5
:105D9000008C0424074B5A68012A0AD102221A6196
:105DA000DA699207FCD40122C3F804229A60FFF753
:105DB000CBBF7047008C042410B5064CFFF7C4FF1E
:105DC0006368012B03D1FFF7E5FFFFF7BDFF037801
:105DD000E36010BD008C042410B101281CD0704772
:105DE0004A680B7812B1127843EAC2034A7843EA50
:105DF00042038A6812B1127843EA82138A7843EA2E
:105E00008203CA6812B1127843EA4223104A9364AB
:105E1000936D002BFCD170474A680B7812B1127851
:105E200043EAC2034A7843EA42038A6812B112780D
:105E300043EA82138A7843EA8203CA6812B112786D
:105E400043EA4223024A9366936F002BFCD17047CA
:105E5000008C042410B1012804D07047034BC3F810
:105E600044117047014BC3F864117047008C04243F
:105E700010B1012804D07047034BC3F84412704797
:105E8000014BC3F864127047008C042410B1012840
:105E900004D07047034BC3F840127047014BC3F85E
:105EA00060127047008C042418B1012804D000202F
:105EB0007047034B186C7047014B186E704700BF5A
:105EC000008C042418B101280BD00020704711B1B8
:105ED000012903D07047074BD86C7047054B186DEC
:105EE000704721B10129F0D1024B186F7047014B67
:105EF000D86E7047008C042410B101280CD0704774
:105F00000B4B29B1012905D09A6D002AFCD17047AD
:105F1000DA64F9E71A65F7E7054B29B1012905D0DD
:105F20009A6F002AFCD17047DA66F9E71A67F7E73B
:105F3000008C0424044B4FF480625A60034B4FF4EE
:105F400080021A60704700BF0000081200E100E004
:105F5000094B4FF48002C3F88020BFF34F8FBFF38B
:105F60006F8F064B4FF480629A601A60044AD36BBD
:105F700043F48063D363704700E100E0000008123F
:105F80000081042410B4034C2468646CA4465DF8BA
:105F9000044B604700013000024B1B680121D3F81D
:105FA000F030184700013000034B1B680A469B6C19
:105FB00001460248184700BF0001300000140424C5
:105FC000014BDB685B691847000130008A1E70B521
:105FD00043680D46052A04D8DFE802F01B1D4C4E2D
:105FE00050528469B3F1884F5CD163783F2B19D943
:105FF000554B60781B684038D3F8E830C0B29847FA
:1060000062785248403A0623D2B20021FFF7BAFF25
:1060100008E0C469E6E7B3F1884F046A32D16078DA
:106020003F283AD8E07820B1474B1B68D3F8C030FE
:1060300098476078A0F11903052B04D8424B1B68E0
:10604000D3F8B8309847032D06D13F4B60781B68D2
:106050000121D3F8D43098473B4B60781B68D3F8C4
:10606000C8309847A378627821783948BDE87040F5
:10607000FFF788BF446AB5E7846AB3E7C46AB1E74B
:10608000046BAFE7334A9342C9D0334A93420DD1F0
:1060900060783F28C6D9032DAAD14038C0B2FFF797
:1060A0007BFFA5E72B4A9342EFD19EE72B4A934211
:1060B00048D1002C46D062783F2A14D9032D03D151
:1060C000403AD0B2FFF768FF1F4B60781B6840383A
:1060D000D3F8E830C0B298476278A37821781B489B
:1060E000403AD2B2C2E71A4821780923FFF74AFFA3
:1060F000E07820B1144B1B68D3F8C0309847032DCB
:1061000002D16078FFF748FF0F4B60781B68D3F827
:10611000C830984721780D4862780023FFF732FF96
:106120006078A178A0F12E03032B02D82638C0B2E4
:1061300002E00F2804D10720BDE87040FFF734BF0C
:106140000638F4E770BD00BF0001300000C0042431
:10615000000013460001004400000245001804241A
:10616000F0B5436885B00024B3F1884F019405462B
:10617000029403940BD0774A934208D0764A934214
:1061800000F0D180754C181B4442444164009A6869
:106190000192019A02F00602062A4FEA84742CD179
:1061A0005B690293029B990710D56A6913686BB10A
:1061B00001215171202098476B6993F82820032A08
:1061C00004D193F826300BB144F01004029B5A0717
:1061D00007D56A69136823B1012111724FF4007069
:1061E0009847029B1B0740F1A0806A69136823B19E
:1061F0000121D1714FF480709847019B9E071DD5F6
:106200006B691E6910201A6A6968964209D09F69F5
:106210000138BF5C0F6002F101021A62F3D19642AD
:106220000CD14A6822F002024A60002283F826203C
:106230001B681BB144F0010420469847019B580796
:1062400038D56B691A68002A34D06A685169C90761
:1062500025D511685A69DB69D1546B69DA69D96847
:1062600001328A42DA611AD169684A6822F0010271
:106270004A6093F82820023A0021012A197164D853
:1062800093F8272083F82710022A5ED0032A59D0DA
:10629000012A01D144F001041B68204698476B692C
:1062A0001A683AB1D969DB68994203D044F04004D6
:1062B00020469047019B1A074AD16B689B6903935C
:1062C0006B78DB0608D5039BDF0705D56B6944F4C3
:1062D00080641B68204698476B785E0608D5039B50
:1062E000980705D56B6944F400641B6820469847FD
:1062F000AB78D90708D5039B5A0705D56B6944F4D9
:1063000000541B682046984795F90130002B1FDA8E
:10631000039B1B071CD56B691B6844F4805005B0B8
:10632000BDE8F0401847012431E7029BDF067FF506
:1063300064AF6A691368002B3FF45FAF012191716C
:10634000802059E744F00404A6E744F00204A3E7E0
:1063500005B0F0BD0001004400000245001804240F
:1063600030B504460AB3B0F5E10F1ED85368802556
:10637000DD608900B1FBF0F1D3F8C0006FF30500D8
:10638000C3F8C000002018605860D860DD60C1F319
:1063900087151D60C1F3873501F03F015D60C3F8CB
:1063A000C010D8605369DC6230BD40F20160FBE789
:1063B0002DE9F7434E69DDF8289096F8295015F03D
:1063C00001050C46174698466ED1C6E900053572A0
:1063D00086F8265086F824504B68B3F1884F02D0D7
:1063E000354A934212D1354B10229A60344BA26B3E
:1063F000DB69019294F834200092D3F8A45094F809
:106400003C20002301214FF08C40A84762682D4BAF
:106410009A4215D103F15F4303F5213310229A60AC
:10642000274BA26BDB69019294F834200092D3F8D9
:10643000A45094F83C20012319464FF08C40A84703
:106440006268214B9A4210D103F5D8434FF40012F1
:106450005A641B4B228F1B6A0092DD6994F83C2022
:1064600094F8353019480121A847E3680BB923692E
:10647000B3B16568B5F1884F08D00F4B9D4205D088
:10648000104B9D4202D0104B9D4211D10C4BDB684A
:106490004A461D680B9B41463846A847C9F800008C
:1064A0006369012283F82920002003B0BDE8F0834E
:1064B0004FF0FF30F9E700BF0001004400840424DE
:1064C00000013000000002450018042400140424D8
:1064D00038B54368B3F1884F04460D4602D01F4AD1
:1064E000934207D11E4BDB690021D3F8E8304FF00F
:1064F0008C40984762681B4B9A4207D1184BDB6966
:106500000121D3F8E8304FF08C4098476268164B71
:106510009A4205D1124B15481B6A0821DB6B98473C
:10652000E3680BB923698BB16368B3F1884F08D076
:106530000A4A934205D00B4A934202D00A4A934238
:1065400009D1074BDB6828465B68984763690020E0
:1065500083F8290038BD4FF0FF30FBE7000100440D
:106560000001300000000245001804240014042437
:1065700070B50C4615461E4620B1022872D06FF049
:10658000030070BD91F9080000280CDB430947495E
:1065900000F01F0020330122824041F82320BFF386
:1065A0004F8FBFF36F8FE06862696368B0B192F894
:1065B00026209AB1B3F1884F0BD03D4A934208D0C0
:1065C0003C4A934205D03C4A934202D04FF0FF3000
:1065D000D7E7007932462946FFF7F2FCD4E90402F6
:1065E000636890B1127982B1B3F1884F08D0304A14
:1065F000934205D02F4A934202D02F4A9342E5D1CD
:10660000007932462946FFF7DBFC63682B4AB3F179
:10661000884F05D026498B4202D026498B421DD196
:106620001023D36094F90830002B09DB5A090121AB
:1066300003F01F03994002F160031C4A42F8231043
:10664000636900225A601A7283F8262093F8292081
:1066500022F0020283F82920002092E74FF4001371
:106660009364DFE74A6992F82930D907AED513F071
:106670000203F1D161684B605360137282F82630D7
:106680004FF44073138594F90830002BE4DB03F0DA
:106690001F015B099B0003F1604303F56143012285
:1066A0008A40C3F880211A60D6E700BF00E100E00D
:1066B0000001004400000245001804240084042462
:1066C0002DE9F04F8FB00DF11C0A06460D4690469D
:1066D00000211C225046DDF864901F4604F0E2FBC6
:1066E000002E00F08D80002D00F08A80D8F8142054
:1066F00092F82930580704D44FF0FF300FB0BDE8AE
:10670000F08F92F82630002B7DD1012482F82640AC
:10671000D8F80CE013629661D8F804301561BEF128
:10672000000F59D0B3F1884F099450D0374A9342A3
:106730004DD0374A93424CD0364A9342DCD1224660
:106740000324CDE90C4201210B91DEF80000DEF8B4
:1067500008C007919EF80410BEF800E0CEF3091EB1
:106760006EF30D1000F0070BBBF1020F01BFBA680A
:1067700094686BF302049460274C0EF10102954279
:10678000E26838BF05F1FF3ED2F808B0189ACDF89C
:10679000149038BFCEF3090E6EF30D10CDE903C28D
:1067A000CDE9010A009532463846D8470130A3D0DA
:1067B000D8F80C00E3680079DB6839464A46984708
:1067C000E36849461B6938469847002096E7192236
:1067D000B7E71B220224B4E7596989060ED45A6828
:1067E00042F002025A60F0E74C1C1462715C1960BE
:1067F0000138F4D0116AA942F6D1F0E71020F9E788
:106800006FF004007AE76FF0010077E700010044C1
:106810000000024500180424000130002DE9F04F6B
:106820008FB0984607AB81460F46184616460021A2
:106830001C22DDF864A004F035FB0346B9F1000F1B
:106840007BD0002F79D0726992F82910490704D4BF
:106850004FF0FF300FB0BDE8F08F117901296FD0F4
:1068600000250124546015723069D760C2F8149075
:10687000D561726800285BD0B2F1884FCDE9085429
:1068800051D031498A424ED030498A424DD03049A8
:106890008A42DDD10324B0F800B0D0F800C0D0F8AF
:1068A00008E0CBF3091BCDE90C456BF30D1C01216E
:1068B0000B9107910CF007050021022D0A91017937
:1068C00001BFD8F80800846865F302048460214C95
:1068D0000BF101008742E06838BF07F1FF3B856894
:1068E0001898CDF814A038BFCBF3090B6BF30D1C2F
:1068F000CDE903E0CDE901C300974B464046A847E8
:106900000130A5D03069E3680079DB685246414622
:10691000984796F8403023B9E36851461B694046D2
:106920009847002096E71825B5E71A250224B2E714
:10693000536843F001035360F3E76FF0040089E705
:106940006FF0010086E700BF00010044000002452F
:1069500000180424000130002DE9F3470746DDE963
:106960000AA8DDF83090084616461D461FB311B33D
:106970000AB35B6993F82920520723D595F8404064
:10698000F4B12A7812F0060F1CD0032283F82720D6
:106990003146CDE9008953462A46FFF73FFF60B9EB
:1069A00053462A4631463846CDE90A8902B0BDE849
:1069B000F047FFF785BE6FF0040002B0BDE8F08736
:1069C0002046FAE74FF0FF30F7E74369186A70474F
:1069D0004369D869704700002DE9F0471C465B69A0
:1069E000924693F8292080469007DDE9086789469A
:1069F00040F120825FFA88F5A5F11501052900F222
:106A0000D680DFE801F0031929426C94B9F1000F38
:106A10000DD002212046FFF7D9FA626992F8293099
:106A200043F0080382F829300020BDE8F08722F007
:106A3000080283F82920F7E7B9F1000F09D00321F4
:106A40002046FFF7C3FA626992F8293043F0100339
