:10000000010000000D900D901CDE000001000000BA
:1000100000102000CBE951B70000000000000000F4
:1000200000000000000000000000000000000000D0
:100030000000000000000000000000000D900D9086
:10004000A55A0000002020080000008000000000E9
:1000500000000000000000000000000000000000A0
:100060000000000000000000000000000000000090
:100070000000000000000000000000000000000080
:100080000000000000000000000000000000000070
:10100000D84E0000CD3420088134200881342008D7
:101010008134200881342008813420080000000039
:1010200000000000000000000000000081342008E3
:101030008134200800000000813420088134200819
:10104000813420088134200881342008813420082C
:10105000813420088134200881342008813420081C
:101060008134200881342008590500002D5F2008B4
:10107000F940200881342008813420088134200878
:101080008134200881342008918F20083590200871
:1010900081342008298F20084177200881342008D6
:1010A00081342008813420088134200881342008CC
:1010B0008134200881342008D84E00008134200873
:1010C000CD342008B1040000813420088134200888
:1010D0008134200881342008E1402008ED402008B8
:1010E000FD3320088134200881342008E172B3697F
:1010F000813420088134200881342008813420087C
:101100008134200881342008F98E2008118F2008AE
:10111000398E2008518E2008698E2008818E200883
:10112000998E2008B18E2008C98E2008E18E2008F3
:10113000813420088134200881342008813420083B
:10114000813420088134200881342008813420082B
:10115000813420088134200881342008813420081B
:1011600081342008813420088134200800000000E8
:10117000000000000000000000000000000000006F
:101180000348044B834202D0034B03B11847704716
:10119000B40B0000B40B0000000000000548064B33
:1011A0001B1AD90F01EBA301491002D0034B03B165
:1011B00018477047B40B0000B40B0000000000009B
:1011C00010B5064C237843B9FFF7DAFF044B13B18F
:1011D0000448AFF300800123237010BDB40B00005E
:1011E0000000000010DB200808B5054B1BB10549C5
:1011F0000548AFF30080BDE80840FFF7CFBF00BF50
:1012000000000000B80B000010DB2008014B012299
:101210001A707047D40B000010B5044C04482268C3
:10122000002109F09DF80023236010BDC00C0000D0
:10123000F80B000070B5064D064E00243368A3423B
:1012400000DC70BD15F8010B08F032FF0134F5E742
:10125000F80B0000C00C0000F0B5B3B00021C422B0
:1012600001A8009109F07CF8C821684600F0F4FE5E
:10127000061E27DD154F3C683119C82924DD002CD6
:1012800022DD1348C1F5C875C8392A46014409F062
:101290004DF80022DFF838E06B46114613F801CB19
:1012A000BCF1000F09D0C72C05F101000EF805C0F4
:1012B000DDBF013405460122054601318E42EDD1E4
:1012C00002B13C6033B0F0BD2546E2E7C00C00003F
:1012D000F80B000038B5FFF79FFFFFF7BDFF0D4D7E
:1012E0004EF662243E21284609F042F830B16420CF
:1012F00000F09EFABDE83840FFF7AEBFFFF7ACFF45
:10130000013C03D1BDE83840FFF786BF012000F063
:101310008FFAE7E7F80B0000234B13B5234818605A
:1013200000F07EFE044608B100BEFDE7204808F04C
:101330001DFF00F0A9FE4FF47A7000F079FAFFF774
:101340008BFFFFF769FF1B4808F010FF1A4800F0F9
:101350008FFEFFF7BFFFFFF76DFF4FF47A7000F0CD
:1013600067FA164808F002FF154800F081FEFFF703
:10137000B1FFFFF75FFF134808F0F8FE124800F0D6
:1013800077FEFFF7A7FFFFF755FFCDE900440F4AAF
:101390000F4823464FF47A7100F084FA08B100BE7A
:1013A000FDE702B010BD00BFD00B00000C00000034
:1013B00008D420082CD420083CD4200840D420088D
:1013C0004FD4200854D4200864D420080D222008CB
:1013D000D80B00001FB5264B1A78002A40D00024F5
:1013E00024481C70CDE901448DF80C4008F0BEFE85
:1013F000214800F03DFEFFF76DFF2049204808F02E
:10140000C4FF78B34368029301A9102202A88DF8A3
:101410000C4008F0FDF8C0F38D011A4808F036FEC4
:10142000194808F0A3FE194800F022FEFFF752FF0A
:101430001749134808F0A9FFB8B18388ADF8083000
:1014400001A90023102202A88DF80A3008F0E0F864
:10145000C1B2104808F01AFE4FF47A7000F0E8F9B3
:1014600004B010BDFFF7E6FEDAE7FFF7E3FEF3E7AF
:10147000D40B000069D420087BD4200880D4200835
:10148000F80B000085D4200891D42008A5D42008AA
:10149000AAD42008AFD4200808B500F040F8FFF720
:1014A0003BFF00F05AF8FFF795FFFAE770477047E7
:1014B0007047704708B505F07DF800F063FEBDE8A1
:1014C000084001F047B97047704770477047704750
:1014D0007047704770477047EFF3108072B67047DF
:1014E00010B962B6BFF36F8F7047EFF311800C2312
:1014F00083F31188704780F31188BFF36F8F7047B3
:101500007047704708B5FFF7D5FFFFF7DDFFFFF71E
:10151000DCFFFFF7DBFFBDE80840FFF7D8BF08B5E9
:10152000FFF7EEFF00F0DEFF00F0F4F8FFF7E9FF51
:1015300000F007F8FFF7C7FFBDE80840FFF7E2BF7C
:10154000704708B5FFF7B2FFFFF7B1FFFFF7B0FF35
:10155000FFF7AFFFFFF7F4FF08BD08B5FFF7B8FFCF
:10156000FFF7B7FFFFF7B6FFBDE80840FFF7B3BFCF
:1015700000230B707047000030B50E4C41612368AA
:101580008BB9206083600DE0891A9A6841611D461D
:101590006AB113465A698A42F6D935B1A860521A1F
:1015A00083605A6130BD0025F4E72060F7E798605A
:1015B0008260F7E7D40C000038B505F04FF8094C0D
:1015C000094B1A6823680025C31A2AB123B151694F
:1015D000994203D3C91A5161206038BD55615B1A25
:1015E0009268F2E7D00C0000D40C000038B5154D1D
:1015F0002B682BB35B69A3B1134A146802201C4407
:1016000005F036F8204605F03DF810492A68002319
:101610000B7022B1D08880070AD501230B700020FF
:1016200038BD022005F024F8022005F07FF8ECE731
:101630009268002AF3D050690344012BEAD9EEE7FF
:101640002220EDE7D40C0000D00C0000CC0C0000F0
:1016500070B516469DF814200271049A0260C0E924
:1016600003360022BDF81830826004460D46C38060
:10167000EEB904F0F3FF2844A0619DB12E46FFF7B8
:101680002BFF0546FFF798FF31462046FFF774FF12
:10169000104B1B68A34201D1FFF7A8FF2846FFF7B4
:1016A0001FFF02E0E36865617BB9002070BD04F0B4
:1016B000D5FF3044A061002DE0D1E3686561002BC7
:1016C000DDD0216820469847D9E721682046984711
:1016D000EBE700BFD40C00000D490B6898B1002265
:1016E0009BB1834203D1836822B90B6003E01A46A1
:1016F0009B68F5E7936083681BB15A6941690A44A6
:101700005A6100207047222070470220704700BFB6
:10171000D40C000070B5154EFFF7E7FE347805468F
:10172000FCB9134B1C60134B1C60134B1C6004F082
:1017300053FF012004F09CFF05F020F80F4B0246F8
:10174000186020B92846FFF7D6FE232070BD234637
:101750000B4840F2E73107F065FD0A4B18600123A2
:1017600033702846FFF7C7FE0020EFE7CD0C0000DE
:10177000D40C0000D00C0000DC0C0000D80C0000E1
:1017800018FCFFFFC80C000038B50C460546A8B190
:10179000A1B100230B70FFF7A8FE094B1B680121C4
:1017A00033B9FFF7A8FE002038BD9D4204D1217057
:1017B0002278002AF9D0F4E79B68F1E72220F3E7CA
:1017C000D40C0000F0B587B01F4600230D46164626
:1017D0008DF817300446A8B1C3610DF11701FFF76A
:1017E000D3FF9DF817207AB9BDF8343002939DF8E5
:1017F00030302946CDE9007320463346FFF728FFF5
:1018000007B0F0BD2220FBE70320F9E738B5074B0E
:101810001D680446002140F2E7304FF47A7200233D
:10182000E5FB040107F0FEFC38BD00BFD80C00004A
:1018300000B58DB001238DF80F30FFF7E7FF0023CF
:10184000CDE900330146074A0DF10F0304A8FFF765
:10185000B9FF18B99DF80F30002BFBD10DB05DF822
:1018600004FB00BF71252008F8B50C4B1B688342B0
:1018700005460E460FD30A4B00241F6840F2E7309E
:1018800021464FF47A720023E5FB070107F0CAFCFA
:1018900030602046F8BD2120FCE700BFC80C0000E6
:1018A000D80C00002DE9F04186B0984600230D4683
:1018B00017468DF81330064680B30DF11301FFF77C
:1018C00063FF9DF813305BBB05A92846FFF7CCFFEB
:1018D0000446F8B9134B18684FF47A720023A5FB3D
:1018E000000107F09FFCC2F57A7189B2B1F57A7FE9
:1018F000BDF83430F48308BF0021B183059A029308
:101900009DF830301146CDE9008330463B46FFF765
:101910009FFE0446204606B0BDE8F0812224F9E788
:101920000224F7E7D80C0000C2072DE9F84304466B
:1019300007D5444A136801331360FFF73DFEFFF7F4
:1019400055FEA3077CD5FFF7D0FD0546FFF734FE13
:101950004FF000083C4F46463C680CB16369A3B1A8
:101960003A4B0022012E1A7003D118F0020F18BF53
:101970001E70FFF73BFE222802D1022004F0C0FEB9
:101980002846BDE8F843FFF7B6BD23465A693AB981
:101990001A792179914288BF1C469B68002BF5D1AA
:1019A0002846FFF7A8FD2569DDB104F057FEA269BE
:1019B000A0EB02084FEAE873A84573F1000311DBBE
:1019C00023691344A361E36813B121682046984753
:1019D000B4F80680FFF789FD01360546FFF7ECFDF8
:1019E000BAE7A846FFF781FD81462046FFF774FE5F
:1019F0004846FFF780FD2369002BE4D0A38BB5EBAD
:101A0000080533B1E28B13449BB2B3F57A7F0FD252
:101A1000E383FFF76AFD294680462046FFF7ACFDC9
:101A2000A36922691344A3614046FFF764FDCAE736
:101A3000A3F57A73E383A369013B013DA361E8E762
:101A4000BDE8F883DC0C0000D40C0000C40C0000DE
:101A5000FF2373B54A1C03704FF000030546437023
:101A600003D14FF0FF3002B070BDC1F30716012063
:101A7000321F82428DF8060001F00F0488BF18461D
:101A800006F090FE8DF804608DF80540019806F090
:101A900033FB0028E5D12E706C70E4E7FFF7D8BF68
:101AA000052838B505460C460AD920484FF49B71E5
:101AB00006F0E2FC1D484FF49F7106F0DDFC2EE0BD
:101AC00003280ED9042828D10B2904D9174840F23D
:101AD0003B1106F0D1FC240104F1105404F59824C4
:101AE0000EE080B94B2904D910484FF49C7106F0E0
:101AF000C3FC04EB0514240104F18C4404F5981490
:101B00000123636038BD012801D13B29EBE702289E
:101B100001D12B29E7E71B29E5E70529CAD8044BA2
:101B2000A4001A5942F020021A51EBE7C2D420084F
:101B30001C860424052838B505460C460AD92048D9
:101B40004FF4CE7106F098FC1D484FF4D27106F0A8
:101B500093FC2EE003280ED9042828D10B2904D9A0
:101B6000174840F2A11106F087FC240104F110543B
:101B700004F598240EE080B94B2904D910484FF49D
:101B8000CF7106F079FC04EB0514240104F18C44B8
:101B900004F598140023636038BD012801D13B2966
:101BA000EBE7022801D12B29E7E71B29E5E7052907
:101BB000CAD8044BA4001A596FF345121A51EBE727
:101BC000C2D420081C86042473B5FF230546037085
:101BD00000204B1C687003D14FF0FF3002B070BD85
:101BE000C1F30716331F012B8DF8060001F00F0417
:101BF00098BF012006F0D6FD8DF804608DF80540F1
:101C0000019806F079FA0028E6D12E706C70E5E7AD
:101C100041780078FFF744BF41780078FFF78ABF2A
:101C2000012838B502D0022803D038BD0D4B1870FA
:101C3000FBE70D480D4D00F0ECF910B100232B70BF
:101C4000F3E70B4C0848217800F0B3F92B78002B10
:101C5000EBD0084B214618680122BDE8384006F059
:101C600078BB00BFF90C0000E40C0000F80C000089
:101C7000E00C0000180D00004FF0FF33C0E9003306
:101C80004FF4E13383600123838183730023C0E930
:101C90000433704738B501F1180200F10C0351F814
:101CA000044B43F8044B9142F9D1264B1A689042F9
:101CB00002D14FF0FF3038BD234C186043692360D8
:101CC000437E012B37D0991E4B424B415B03E3808F
:101CD000837E022B32D0DA1E534253419B03238171
:101CE000037E1A4D8168012B0CBF00234FF4E06383
:101CF000238201232371026812686261144A00235F
:101D00001370026A1348E36000F048F9207D294609
:101D100006F0AAFA0028CCD10B49286806F02EFB61
:101D20000028C6D10C49207D06F0EAFA003818BF19
:101D300001204042BFE74FF48053C8E74FF400430F
:101D4000CDE700BF1C0D0000FC0C0000180D0000CA
:101D5000F80C0000E40C0000212C20080B4A08B508
:101D60000B461168884218BF10605BB10849436197
:101D70000B60084B186806F001FB003818BF012003
:101D8000404208BD4FF0FF30FBE700BF1C0D0000D4
:101D9000FC0C0000180D000008B50F4B1A689042AB
:101DA00018BF1860022914D8012941760ED08B1E65
:101DB000594259414B030949CB80094B186806F039
:101DC000DDFA003818BF0120404208BD4FF48053AF
:101DD000F1E74FF0FF30F8E71C0D0000FC0C0000AD
:101DE000180D000008B50F4B1A68904218BF186014
:101DF000032914D8022981760ED0CB1E59425941AD
:101E00008B0309490B81094B186806F0B7FA0038B3
:101E100018BF0120404208BD4FF40043F1E74FF0E6
:101E2000FF30F8E71C0D0000FC0C0000180D00004E
:101E300008B50D4B1A68904218BF1860022910D8D7
:101E40000129017609490CBF00234FF4E0630B829E
:101E5000074B186806F092FA003818BF012040427C
:101E600008BD4FF0FF30FBE71C0D0000FC0C00002C
:101E7000180D000080F82610704700000D4B10B5BB
:101E800014461A68904218BF186011B94FF0FF301D
:101E900010BD002CFAD0084B2246186806F044FA10
:101EA0000028F3D1054B1A78002AFCD000221A70C2
:101EB00060B2EDE71C0D0000180D0000F90C0000E9
:101EC000314B2DE9F74F17461A6890420546884670
:101ED00018BF186000293FD0002F3DD02B4E33781B
:101EE00003F0FF0473B3DFF8B090484600F08CF8BD
:101EF0000446002835D1DFF8A090DFF898B008F14B
:101F0000FF35484600F080F800283AD1FFF7E4FAA0
:101F10008046484600F063F8337882464BBB48461B
:101F200000F077F828BB019001221949DBF8000086
:101F3000327006F00EFA019BD8B140463370FFF7BD
:101F4000CFFA09E0134B124918680122327006F0EB
:101F500000FA0028C7D034704FF0FF3003B0BDE85E
:101F6000F08F95F826000028F8D00120FFF760FCDC
:101F7000BBE740460134FFF7B3FAA74205F801AFCB
:101F8000BFD160B2EAE700BF1C0D0000F80C0000F2
:101F9000E00C0000180D0000E40C000038B50B4602
:101FA000044600211846154608F0DAF9C4E9000590
:101FB00038BD826843689A420FD0C3680268D15422
:101FC000C36842680133B3FBF2F102FB1133C36013
:101FD0008368013383600120704700207047826866
:101FE00010B503460AB900BEFDE702690168885CC6
:101FF0001A6959680132B2FBF1F401FB14221A612B
:102000009A68013A9A6010BD8068B0FA80F0400981
:10201000704783684068C31A5842584170470000AF
:1020200038B590B10A4C0B4D6860204600F032F88C
:102030002E222F2321462846C4E9022300F037F838
:10204000003818BF0120000138BD2120FCE700BF87
:10205000200D0000380D00000A4608B5014618B1F1
:10206000024800F063F808BD2120FCE7380D0000AD
:1020700008B5014620B1034800F05BF8002008BD18
:102080002120FCE7380D0000014800F06BB800BFCC
:10209000380D00004FF0FF33C0E90033C0E90233D0
:1020A0004FF416524FF00123C0E90423704770B576
:1020B00086B0054668460C46FFF7DEFD05F5AC73B5
:1020C000AB6005F12C03EB60236801932E1D636860
:1020D000009364224FF4967369463046CDE9042399
:1020E000FFF7D8FD411C1CD021693046FFF736FEB2
:1020F000A17D3046FFF750FEE17D3046FFF772FECE
:10210000617D3046FFF794FE217D3046FFF7B2FE39
:10211000A1682846FFF758FDE168A81CFFF7BEFC40
:10212000002006B070BD0430FFF7A8BE0430FFF7F2
:10213000C7BE37B50D23044608468DF807300D4657
:1021400008F0ECF9294682B22046FFF7ECFF0122A5
:102150000DF107012046FFF7E6FF0A20FFF768FBB5
:1021600003B030BD10B50446FFF756FD6420FFF7FD
:102170005FFB2046FFF74CFDBDE810404FF47A703E
:10218000FFF756BB70B5134C134D23685E6C0023EC
:10219000194628460222B04723681E6800231946C4
:1021A00002222846B04723680C4DD3F8C0300520E2
:1021B000984723685E6C0023194628460A22B047D8
:1021C00023681C6800232846A4460A22BDE8704004
:1021D000194660470001300000C004240000134687
:1021E00030B5114B93F85830013BDBB2FD2B8FB06B
:1021F00018D80E4D0FCD6C460FC40FCD0FC40FCDA8
:102200000FC495E8030084E80300094C6846D4F83D
:1022100044370AF07DFC04F027FBD4F84437002053
:102220000FB030BD0120FBE700021F0858021F0855
:1022300000800524134B0168D3F84437F0B501271B
:10224000013900D2F0BDD0F808C04668CCF38455FF
:10225000C5EBDC62346801320023013A0CD203FA88
:1022600005F203EA0C03C3F3150324EA0202AB40B0
:10227000134333600830E3E707FA02FE43EA0E0334
:10228000EBE700BF0080052408B51848FFF7D2FF30
:102290001748FFF7CFFF04F05FFD04F071FD04F075
:1022A0007BFD04F08DFD04F097FD1248FFF7C2FF9F
:1022B0001148FFF7BFFF1148FFF7BCFF1048FFF7B9
:1022C000B9FF1048FFF7B6FF0F48FFF7B3FF0F48FD
:1022D000FFF7B0FF0E48FFF7ADFF0E48FFF7AAFF6C
:1022E000BDE808400C48FFF7A5BF00BF600B000029
:1022F000C40A000000070000CC070000C00700006F
:10230000E0070000A0060000940600008806000018
:10231000DC060000240700001807000010B5254C5B
:10232000FFF7B2FF94F8040600F00100FFF758FF32
:102330004FF4C023C4F86C34D4F840311E4843F441
:102340000023C4F84031D4F8403143F00103C4F80D
:102350004031D4F8403143F00203C4F84031FFF774
:1023600069FF16491648D1F8103543F00203C1F849
:102370001035636923F400336361636943F4803388
:102380006361D0F84027D0F87837C2F34342023A6D
:1023900023F4F07343EA4213C0F87837D1F8943449
:1023A00043F40023C1F89434236943F46013236198
:1023B00010BD00BF00800424EC08000000A005242C
:1023C0000080052408B550B10748FFF733FF0748E0
:1023D000FFF730FF0648BDE80840FFF72BBF054870
:1023E000FFF728FF0448F6E734090000DC09000085
:1023F000D0090000A8090000540900000B48D0F8DB
:1024000000D05DF804EB5DF804CB5DF804BB5DF82B
:1024100004AB5DF8049B5DF8048B80BC40BC20BC21
:1024200010BC08BC04BC02BC01BC7047000F00001B
:10243000114AD2F8103623F48073C2F810360F4BCD
:10244000596B41F001015963596B41F00201596325
:102450000423C2F8383482B000238DF807309DF889
:102460000730092B01D902B0704700BF9DF8073033
:102470000133DBB2F1E700BF0080042400840424B0
:10248000FEE7FEE7054B064A06498B4200D370473C
:1024900052F8040B43F8040BF7E700BF0C000000F0
:1024A00034DD2008B40B0000064B0748DA1C121A72
:1024B000C11E22F00302994288BF0022002107F0CA
:1024C0004FBF00BFD41E0000B40B000008B5FFF7DB
:1024D000D9FFFFF7E9FF00F0B9F8BDE80840FEF7C3
:1024E000DBBF000038B562B6394B3A4A1A603A4B46
:1024F0003A4A93F806363A4C3A4D03F00F030F2B45
:1025000015BF394B4FF00063D3F89312D3F837144B
:102510000CBF11601160354A0CBFD3F83634D3F8C4
:102520009232136004F020FB2A4BE363032004F093
:10253000CDFD04F01BFB2E4BDB694FF08061D3F81F
:1025400080304FF08C409847EB69022060F30E33E7
:10255000EB61284BDA696FF30202DA6104F080FB69
:102560001D4B1A6A042161F302021A621A6A1207E9
:10257000FCD5AB69022262F38403AB61AB691B0437
:10258000FCD51D4B1D4D5A6E6FF341025A665A6EB3
:102590006FF300025A66FFF74BFF19490D4B21619B
:1025A0004FF4FA40E16117496062002220624FF463
:1025B0000040C4E90033C4E90B15C4E90F33A2603D
:1025C0006261E360A06263636164A26138BD00BFC1
:1025D000540F0000005A620200800424FC0E000028
:1025E000040F00000081042400001F08F80E000002
:1025F000000130000086042400840424002D3101F1
:1026000000B4C4040048E8014FF0E02384B0D3F8DC
:10261000402F0192D3F8442F02920199094A914226
:102620000DD10299084A914209D1D3F8882D03921D
:10263000039A42F470020392039AC3F8882D04B0FF
:10264000704700BF210011101100001113B50023C5
:10265000009301932F4BD3F810250092009A00921B
:102660002D4A116821F00F01116011681160D3F833
:102670009C1421F46071C3F89C14D3F804170191E1
:102680000199C3F80415D3F8001701910199C3F813
:102690000015D3F8101541F01C01C3F81015D2F83D
:1026A000024014F48074FAD11C48436943F4803327
:1026B0004361436964F351434361FFF7A5FF184B3E
:1026C0004FF080725A60174BC0F84031164B5A6871
:1026D00064F3C3025A60036A0E4A43F48033036210
:1026E000036A43F400330362D2F8943443F40023C2
:1026F000C2F89434036943F4601303610B4B1A6806
:1027000042F400221A601A6842F480221A6002B071
:1027100010BD00BF00A00524000005240080042493
:1027200000003041030008000081042400840424D8
:1027300020F04040012802D0022805D07047034A0B
:102740001368013313607047014AF9E75C0F00001A
:10275000580F000010B50F4CE3689847A3680E4867
:102760009847236902209847A46A01211520A047B1
:1027700001211620A0474FF4E1310120A047074B6B
:102780004FF48052C3F88020BFF34F8FBFF36F8F99
:1027900010BD00BF78D520083137200800E100E0E7
:1027A00013B5094C00238DF804302360074B012139
:1027B0009B6901A8984723681BB19DF8040002B0EB
:1027C00010BD00F09FFCF6E7580F000078D52008F8
:1027D00013B5094C8DF8070000232360074B012136
:1027E0005B690DF10700984723680BB102B010BD7B
:1027F00000F088FCF8E700BF5C0F000078D52008E7
:1028000003681B780022202B04D0093B042B01D93C
:10281000D0B270470368591C01605B780132F2E75F
:102820000120704708B507F011FE162303604FF032
:10283000FF3008BD08B507F009FE16230360FEE768
:1028400070B50D4614460E46731B9C4201DC2046B3
:1028500070BD16F8010BFFF7BBFFF5E74FF0FF3037
:1028600070474FF400534B600020704701207047C1
:10287000002070470FB42DE9F0438BB012AB002459
:1028800053F8046B019304AD8DF81040A846FFF790
:1028900087FF0D2805F8010B04D00A2802D0013467
:1028A000142CF4D19E4B019FE34004F1280213F055
:1028B00001030DEB02041ABF002304F8183C04F8CE
:1028C000173C9DF81030CDE90268002B00F04E81D6
:1028D0000025029B1B78002B4DD0DDF80C9099F859
:1028E0000060002E47D002A8FFF78AFF044618B107
:1028F00003A8FFF785FFECE7029A1346517813F817
:10290000010B0293252801D1252907D18E4232D10E
:1029100009F10103023203930292DAE726462046C8
:10292000A0461A7806F07C01002A7CD100B10293FF
:1029300009B3002C08BF6324082900F087802029F0
:1029400000F0AA80042916D157F8042B49461444F4
:1029500000200E780B460131002E6AD100286FD17D
:10296000B7E7692A50D01ED8632A52D011D8392A25
:1029700007D82F2A34D8E8B20BB0BDE8F04304B032
:102980007047582AF7D146F0200601334FF010085F
:1029900032E0642AEFD146F4005646F020060133B7
:1029A0004FF00A0828E06F3AD1B20929E3D8092A82
:1029B000E1D801A151F822F0FD392008773920082B
:1029C0007739200877392008213A200877392008FC
:1029D0009B39200877392008773920088739200863
:1029E000002CC8D10A211A78303A01FB042413F8CC
:1029F000012F303A092AF6D9012092E746F0200645
:102A000001334FF00808F7E746F020060133884607
:102A1000F2E7012C46F0040638BF01240133EBE74E
:102A200046F00806FAE700299BD0002881D00293DF
:102A30007FE702F8016BA2424FF0010089D10B46FB
:102A4000994503933FF445AF013542E703A8FFF7EB
:102A5000D7FE039E57F8043B314603EB040C0020DD
:102A60000C4611F8012B12B960B103940AE00D2A4B
:102A70000FD8082AF8D803F8012B63454FF001005E
:102A8000EED10391039A96423FF423AF00221A70CD
:102A9000DAE7202AEFD1E7E703A8FFF7B1FE039BAF
:102AA000B8F1000F10D0B8F1100F17D11A78302AF2
:102AB00014D15A7802F0DF02582A0FD1023303935F
:102AC000023C4FF0100809E01A78302A16D15A78E3
:102AD00002F0DF02582AF1D04FF00808039B1A7861
:102AE0002B2A0ED02D2A0FD101330393013C4FF036
:102AF000FF31039A00201444844616E04FF00A0880
:102B0000ECE701330393013C0121F2E7A9F1410312
:102B1000052B02D920B3039222E0A9F1370317E075
:102B2000010010000CFB083C012092F80090964632
:102B3000B9F1000FEED0A242ECD0A9F13003DBB224
:102B4000092B06D9A9F16103052BDFD8A9F1570399
:102B5000DBB2984502F10102E4D808B1CDF80CE0EF
:102B600057F8043B0CFB01F119606DE74FF0FF359E
:102B700001E700BF064B1868002382B262F30F031F
:102B8000000C60F31F4382B0184602B0704700BFCC
:102B90005CD62008014B1868704700BFC8000000D1
:102BA000014B1868704700BF6C000000014B1868AB
:102BB000704700BF28000000014803F0AFBB00BF12
:102BC000C8000000014803F0A9BB00BF6C00000072
:102BD000014803F0A3BB00BF28000000014903F037
:102BE0005DBB00BFC8000000014903F057BB00BF38
:102BF0006C000000014903F051BB00BF2800000039
:102C0000014803F029BB00BFC8000000014803F0E1
:102C100023BB00BF6C000000014803F01DBB00BFD8
:102C20002800000037B5044600200D4600F0B6FB32
:102C3000064B1B680193064B00930246054B294641
:102C4000204603F0BFF803B030BD00BFC41300003E
:102C50001C000000C800000037B5044601200D46E6
:102C600000F09CFB064B1B680193064B0093024649
:102C7000054B2946204603F0A5F803B030BD00BF40
:102C8000C41300001C0000006C00000037B50446AF
:102C90000B200D4600F082FB064B1B680193064B90
:102CA00000930246054B2946204603F08BF803B0FB
:102CB00030BD00BFC013000010000000280000005D
:102CC000014803F07BB800BFC8000000014803F0D2
:102CD00075B800BF6C000000014803F06FB800BF7A
:102CE00028000000014803F066B800BFC8000000DB
:102CF000014803F060B800BF6C000000014803F019
:102D00005AB800BF280000007FB5104BD3E9035428
:102D1000B2F5806F2E883ABF02F1FF33C3F3090387
:102D200040F2FF3363F30D162E80258863F30D15F3
:102D3000074B25801B680293064B0193064B0093BB
:102D4000024B02F0FFFF04B070BD00BFC8000000DE
:102D5000C4130000501000001C0000007FB5104B91
:102D6000D3E90354B2F5806F2E883ABF02F1FF33E6
:102D7000C3F3090340F2FF3363F30D162E80258859
:102D800063F30D15074B25801B680293064B0193D7
:102D9000064B0093024B02F0D5FF04B070BD00BF9C
:102DA0006C000000C4130000501000001C00000064
:102DB0007FB5104BD3E90354B2F5806F2E883ABF2C
:102DC00002F1FF33C3F3090340F2FF3363F30D163F
:102DD0002E80258863F30D15074B25801B68029311
:102DE000064B0193064B0093024B02F0ABFF04B07D
:102DF00070BD00BF28000000C0130000600F00007D
:102E0000100000000D4B1A69B1F5806F13B538BF83
:102E100001F1FF33148834BFC3F3090340F2FF33D9
:102E200063F30D14064B14801B680193054B00934C
:102E3000024A054B02F000FF02B010BDC8000000BE
:102E4000C4130000501000001C0000000D4B1A6954
:102E5000B1F5806F13B538BF01F1FF33148834BF6B
:102E6000C3F3090340F2FF3363F30D14064B1480E0
:102E70001B680193054B0093024A054B02F0DCFEF0
:102E800002B010BD6C000000C41300005010000020
:102E90001C0000000D4B1A69B1F5806F13B538BFE7
:102EA00001F1FF33148834BFC3F3090340F2FF3349
:102EB00063F30D14064B14801B680193054B0093BC
:102EC000024A054B02F0B8FE02B010BD2800000017
:102ED000C0130000600F0000100000000D4BDA6806
:102EE000B1F5806F13B538BF01F1FF33148834BFDB
:102EF000C3F3090340F2FF3363F30D14064B148050
:102F00001B680193054B0093024A054B02F0FEFD3E
:102F100002B010BDC8000000C41300005010000033
:102F20001C0000000D4BDA68B1F5806F13B538BF97
:102F300001F1FF33148834BFC3F3090340F2FF33B8
:102F400063F30D14064B14801B680193054B00932B
:102F5000024A054B02F0DAFD02B010BD6C00000021
:102F6000C4130000501000001C0000000D4BDA6874
:102F7000B1F5806F13B538BF01F1FF33148834BF4A
:102F8000C3F3090340F2FF3363F30D14064B1480BF
:102F90001B680193054B0093024A054B02F0B6FDF6
:102FA00002B010BD28000000C0130000600F000038
:102FB00010000000024B034A1B68034902F0F2BCF8
:102FC000C41300001C000000C8000000024B034AAC
:102FD0001B68034902F0E6BCC41300001C0000009B
:102FE0006C000000024B034A1B68034902F0DABC84
:102FF000C013000010000000280000000149024832
:1030000002F070BC1C000000C8000000014902482A
:1030100002F068BC1C0000006C000000034B044977
:1030200004484FF400129A6402F05CBC008404244B
:10303000100000002800000007B5064B0193064B66
:103040000093064A064B074902F0C0FB03B05DF847
:1030500004FB00BF48130000C41300001C00000064
:1030600000FC0200C800000007B5064B0193064BA8
:103070000093064A064B074902F0A8FB03B05DF82F
:1030800004FB00BF48130000C41300001C00000034
:1030900000FC02006C00000007B5064B0193064BD4
:1030A0000093064A064B074902F090FB03B05DF817
:1030B00004FB00BFD0120000C0130000100000008D
:1030C000001C062428000000014AC9B202F0ECBA34
:1030D0006C000000014AC9B202F012BB6C00000093
:1030E000014802F0E1B900BFC8000000014802F049
:1030F000DBB900BF6C000000014802F0D5B900BF89
:1031000028000000FFF7F8BF012809D0022809D0E5
:1031100050B9064B5B6993F8290000F00100704735
:10312000034BF7E7034BF5E700207047C8000000AA
:103130006C000000280000001B28014603D1054A4E
:10314000012002F0B1BA1A2803D1024A012002F08C
:10315000D7BA70476C0000001B28014603D1054A0E
:10316000022002F0A1BA1A2803D1024A022002F07A
:10317000C7BA70476C000000354BDFED366AD3F8F4
:10318000102242F04002C3F8102207EE900AD3F852
:103190001022F4EEE67A42F01002F1EE10FA07EE99
:1031A000101A82B0C3F8102206DCF0EE086AB4EE02
:1031B000E67AF1EE10FA08D5D3F8102242F0200298
:1031C000C3F81022002002B070479FED237AF4EE7E
:1031D000C77AF1EE10FA10D5D3F810226FF303027C
:1031E000C3F81022D3F810226FF38612C3F810220E
:1031F000D3F810226FF30412E2E777EEC77ADFED1F
:10320000176A134A87EEA67AF7EE007A77EE277AE6
:10321000FCEEE77ACDED017A9DF80430F6EE007A07
:1032200077EE277A07EE103AB8EE477AB4EEE77AEF
:10323000F1EE10FAC2BFFCEEE77ACDED017A9DF80F
:103240000430D2F8101263F30301C2F81012B9E788
:103250000038042433333340CDCCCC3F0AD7A33DD0
:103260000A4B9A6C013A052A0ED8DFE802F00305F2
:103270000705090B586C7047D86A7047D86B7047C0
:10328000186B7047586B704700207047040F0000A0
:1032900006281DD8DFE800F0040A0D1013161900E7
:1032A0000C4B586809B1B0FBF1F07047094B186A34
:1032B000F8E7084B586AF5E7064B986AF2E7054BC2
:1032C000D86AEFE7034B186BECE7024BD868E9E7E5
:1032D0000020E7E7040F000010B5032814D8DFE84A
:1032E00000F0020A0D100F48C06A7AB1A3B981B18B
:1032F000B0FBF1F00DE00B48C069F6E70948406902
:10330000F3E708488068F0E70020EEE723B909B941
:10331000400810BD4900EBE7CB07FAD50229F8D9E0
:10332000E6E700BF040F0000F8B50C461546042878
:1033300028D8DFE800F003211B1E2400FFF790FFD0
:1033400015B394B105F03AFC064620460F4605F049
:1033500035FC104B002205F0F5FA02460B463046CC
:10336000394605F0CFFD05F03DFFF8BD0A4BD869A1
:10337000E6E7094B5869E3E7074B9868E0E7064B37
:10338000D868DDE70020DBE7002CEED0B0FBF4F0DE
:10339000EBE700BF0000E03F040F000010B50E286F
:1033A00000F28F81DFE810F00F001E002D005300A7
:1033B000720084009600B300CA00DD00E700090136
:1033C0003201600182014FF08C43BDE81040D869A2
:1033D000D969DA69C1F3C301C2F3407200F0070092
:1033E000FFF7A2BF4FF08C43BDE81040D869D96900
:1033F000DA69C1F38321C2F38072C0F3C210FFF710
:1034000093BF4FF08C4293699469C3F3C233C4F302
:10341000C324052B19D8DFE803F003090C0F12159C
:10342000FFF71EFF0CB1B0FBF4F010BD8C4B986899
:10343000F8E78B4B1869F5E7894B5869F2E7884B39
:10344000D869EFE7864BD868ECE70020EAE74FF051
:103450008C42936A946AC3F34243C4F30554032B2A
:1034600012D8DFE803F002080B0EFFF7F9FE002C7C
:10347000DBD06400D7E77A4B5869F8E7784B986857
:10348000F5E7774BD868F2E70020F0E74FF08C4380
:10349000BDE81040986999699A69DB69C2F34022D6
:1034A000C3F30073C1F3C50100F00700FFF714BFB9
:1034B0004FF08C43BDE81040D86F99699A69DB6979
:1034C000C2F34022C3F30073C1F3C501C0F342202D
:1034D000FFF702BF4FF08C439B69C3F30263042BD9
:1034E00000F2EF80DFE803F003060A0D10005C4BEA
:1034F000D8689AE7BDE81040FFF7B2BE584B98680D
:1035000093E7574BD86990E7554B58698DE74FF0D3
:103510008C4291699369926911F4802F5049C2F3EA
:10352000C0520CBF48698868C3F3C3431AB1002B6B
:103530003FF47BAF12E083B9400876E74FF08C434D
:103540009A6A9B6A12F4806F454A0CBF9069D068F2
:10355000C3F3C523002B3FF468AF5B00B0FBF3F06F
:1035600063E7404B98699969BDE81040C1F3464153
:10357000000FFFF78DBE3B4BDA69DB69C2F34302F4
:10358000C3F34713052A16D8DFE802F00306090C37
:103590000F12334A5068DDE7314A106ADAE7304AE1
:1035A000506AD7E72E4A906AD4E72D4AD06AD1E70D
:1035B0002B4A106BCEE70020CCE72A4B1A6A1B6A15
:1035C000C2F34302C3F34213072A1DD8DFE802F017
:1035D00004070A0D10131619214A5068A7E7204A5C
:1035E000106AA4E71E4A506AA1E71D4A906A9EE746
:1035F0001B4AD06A9BE71A4A106B98E7184AD068B2
:1036000095E7174A506B92E7002090E7154B1B6B2C
:10361000C3F34303062B54D801A252F823F000BF92
:103620003D46200843462008494620084F462008CA
:10363000554620085B462008EF442008084B586890
:10364000F3E6074B186AF0E6054B586AEDE6044BC3
:10365000986AEAE6024BD86AE7E6014B186BE4E6A3
:10366000040F000000140424174B5B6BC3F34303E7
:10367000082B26D801A252F823F000BF3D462008AF
:1036800043462008494620084F4620085546200852
:103690005B462008EF442008A1462008A7462008E2
:1036A0000A4B586BC1E6094B9869BEE6064BD86ACF
:1036B000D96ABDE81040C1F34711C0F34300FFF7DA
:1036C000E7BD0020B1E600BF00140424040F000091
:1036D000024B1B68D3F8BC30184700BF0001300014
:1036E000024B1B68D3F8CC30184700BF00013000F4
:1036F000024B1B68D3F8EC30184700BF00013000C4
:10370000024B01219B69C0B2184700BF781400002A
:10371000FFF7F6BF1346054A126810B4546C0A4608
:10372000A44600215DF8044B604700BF0001300053
:1037300010B54FF4006003F053FA094C094B4FF0F9
:1037400000725A6422782AB9074B08481B6A012183
:103750009B6A9847237843F00103237010BD00BF94
:10376000C817000000840424000130000014042461
:1037700082B0ADF804000A4B4FF400621A609DF865
:103780000420084B2AB9D3F8082242F40062C3F897
:1037900008225A68002042F001025A6002B07047C5
:1037A00000E100E0003804242DE9F04F224B2348CB
:1037B00093F81CE0224B1A7800231C4602F59875FA
:1037C000D9B28E450CD8DFF880800023A8F5107997
:1037D00002F5907CDAB2964509D80020BDE8F08F5A
:1037E00030F815108C4238BF0C460133E8E743B976
:1037F00029F81C300133EDE7B5F820B0594489B2FF
:103800000AE000271FFA83FABEB2B442F2D90022BE
:103810000C4D104635F8021F8C4203D9B142EBD152
:10382000013080B2013292B25245F3D30137002801
:10383000EAD128F81360DDE778140000981400003E
:1038400074140000D6160000D8160000012800D11C
:103850007047C30701D44008F8E7002070470346CB
:103860000120834208DC00EBD072A3EB6203B3EBD0
:10387000A00FB8BF400870474000F2E784B02DE9C0
:10388000F7430AAC84E80F000023ADF806309DF83A
:10389000BC514D4B9DF8BD8159885A68B2FBF1F27D
:1038A00015B9B8F1010F2DD14849012508880B88B9
:1038B000474C80B29BB20AAE03F5987306EB8000CA
:1038C0004069B2FBF0F224F813200B889BB203F599
:1038D000987334F81330012B06D80B889BB203F58C
:1038E0009873022224F813203A4E0DF1380900276C
:1038F000F7EE006AFBB2984507D803B0BDE8F04385
:1039000004B070470DF10601D0E73FB1D9E90032AC
:10391000B3FBF2F2338813FB02F37380B8F1010FAB
:1039200008D072881046FFF791FF18B91046FFF7CC
:1039300096FF70808DB10B880AAA9BB202EB4303FD
:10394000B3F8F430012B08D10B889BB203F59873C0
:1039500034F81320920824F81320DFED1F7A002397
:10396000B8B29842ADF8063009D2F4EEE67AF1EE3C
:1039700010FA26DC0137023609F10409BAE70A8891
:1039800092B202F59872013334F8122007EE102A31
:10399000B8EE477A9BB286EE876A77EE867AE0E7E2
:1039A0000A8892B202F59872013334F812C04FEAD5
:1039B0004C0C24F812C09BB28342ADF80630EFD90C
:1039C000D8E70023F8E700BF781400007414000063
:1039D00098140000F61600000000000007EE100A20
:1039E000DFED087A084837EE277AF7EE006AC6EE70
:1039F000877AFCEEE77A17EE903A834228BF0346B7
:103A00001846704795BFD633404B4C0084B0F0B594
:103A100006AC84E80E00DFED957A002123AC0DF1B1
:103A20006B050A460B46CEB2B04200F2B080002BC6
:103A300000F0A480B0EE007AF4EEC77AF1EE10FA4E
:103A4000B0EE047A05DBF4EEC77AF1EE10FA00F17D
:103A5000DD80F4EEC77AF1EE10FAB0EE087A05DBFD
:103A6000F4EEC77AF1EE10FA00F1D680F4EEC77AE0
:103A7000F1EE10FAB1EE007A05DBF4EEC77AF1EE62
:103A800010FA00F1CC80F4EEC77AF1EE10FAB1EE44
:103A9000047A05DBF4EEC77AF1EE10FA00F1C28089
:103AA000F4EEC77AF1EE10FA07DBB1EE087AF4EE25
:103AB000C77AF1EE10FA00F1B880B1EE0C7AF4EEAC
:103AC000C77AF1EE10FAB2EE007A05DBF4EEC77AAF
:103AD000F1EE10FA00F1AC80F4EEC77AF1EE10FAD4
:103AE000B2EE027A05DBF4EEC77AF1EE10FA00F1DD
:103AF000A280F4EEC77AF1EE10FA07DBB2EE047A98
:103B0000F4EEC77AF1EE10FA00F19880B2EE087A7E
:103B1000F4EEC77AF1EE10FA06DBB2EE0C7AF4EEB0
:103B2000C77AF1EE10FA61D4B3EE017AF4EEC77AF7
:103B3000F1EE10FA06DBB3EE027AF4EEC77AF1EE9C
:103B400010FA60D4B3EE097AF4EEC77AF1EE10FA07
:103B500006DBB3EE0A7AF4EEC77AF1EE10FA70D90A
:103B6000B3EE0B7AF4EEC77AF1EE10FA06DB9FEDB6
:103B7000407AF4EEC77AF1EE10FA74D9DFED3D7AAF
:103B80009FED3D7A002A18BFF0EE477A65E015F800
:103B9000016FA6F1140CBCF1020F2F7C0FD894ED2D
:103BA000007AF4EEC77AF1EE10FA03D50133DBB2F6
:103BB000F0EE477A0D2F16D00131043433E7A7F128
:103BC0000A0CBCF1020F0CD894ED007AB4EEE77A3F
:103BD000F1EE10FA03DD0133DBB2F0EE477A182E76
:103BE000E9E7182EE6D10132D2B2E5E7DFED237A1C
:103BF0009AB39FED217AF4EEC77AF1EE10FA23D54D
:103C0000F0EE477A29E0DFED1E7AF1E7DFED1D7A6D
:103C1000D2B1DFED197A20E0DFED1B7AF8E7DFEDB6
:103C20001B7AF5E7DFED1A7AF2E7DFED1A7AEFE7B4
:103C3000DFED197AECE7DFED197AE9E7DFED187AC5
:103C4000E6E7DFED187A42B19FED0A7AF4EE477AA3
:103C5000F1EE10FA48BFF0EE477ABDE8F04017EEFB
:103C6000900A04B07047DFED107AECE70000000026
:103C700000004C4295BFD6338BE16A36EFE608363A
:103C80009F9D42362E5A823301A90C3437F859349D
:103C90002439EC3434580F35AD186335883E8A35F5
:103CA000ACC5A735B1B49D36F2DD1C3770B50D46F5
:103CB00016460446D0B9FFF71BFDAA480722214645
:103CC000FFF728FD002D40F0AA81012E00F09F8112
:103CD0000B2C1DD00C2C40F0F5800520FFF708FDC3
:103CE000A04807220521FFF715FD98E0012818D10B
:103CF0000220FFF7FDFC9B4807220221FFF70AFD87
:103D0000002D76D1012E00F082810B2C40F0DA805C
:103D10000320FFF7EDFC072203219248FFF7FAFC8E
:103D200096E002280ED10420FFF7E2FC07220421CE
:103D30008C48FFF7EFFC002D00F06681012D40F06C
:103D4000778155E1032805D10620FFF7D1FC072232
:103D50000621EDE7042805D10820FFF7C9FC07225A
:103D60000821E5E7052805D10A20FFF7C1FC072255
:103D70000A21DDE706280CD17B4B20225A6019204E
:103D8000FFF7AEFC1920FFF7A3FC78480E2219219B
:103D9000B4E707281ED1744B20225A601B20FFF77E
:103DA0009FFC1B20FFF794FC0E221B216F48FFF79E
:103DB000B1FC002D00F02881012D40F0D980012EAA
:103DC00000F019810C2C21D10520FFF791FC07226E
:103DD0000521A2E7082840F0FD80634B20225A60AD
:103DE0001D20FFF77DFC1D20FFF772FC0E221D2118
:103DF000DCE70B2C1ED0012D40F01A81012E00F0C3
:103E0000FA800C2CE0D00D2C00F0C1800E2C50D08C
:103E10000F2C6FD0102C75D12EE0022D40D0032D29
:103E200052D1012E59D00E2C70D00F2C62D0102CF4
:103E300030D121E00320FFF75BFC4A480722032131
:103E4000FFF768FC022D2BD0032D03D1012E44D0A7
:103E5000002070BD042D00F0A480052DDAD1012EC4
:103E600040F0A3800720FFF743FC07223D4811469E
:103E7000FFF750FC102C5ED13B4B20225A601A20D9
:103E8000FFF72EFC1A20FFF723FC38480E221A21D8
:103E9000FFF740FC112C50D0072D5CD1012E88E09B
:103EA000012ED5D169E0012E67D00D2C0FD00E2C3C
:103EB000BBD10920FFF71CFC2A4807220921FFF784
:103EC00029FCCAE70D2C62D00E2C68D1F1E70B203B
:103ED000FFF70EFC07220B211FE70B20FFF708FC62
:103EE000204807220B21FFF715FC8FE70E2CE0D0AE
:103EF0000F2CB2D10720FFF7FBFB07221948114610
:103F0000FFF708FC062DC5D1012E4FE00920FFF771
:103F1000EFFB0722092100E70920FFF7E9FB114821
:103F200007220921FFF7F6FB7FE70720FFF7E0FBF9
:103F300007221146F1E6112C0DD10B4B20225A60BD
:103F40001C20FFF7CDFB1C20FFF7C2FB07480E2209
:103F50001C21FFF7DFFB122C2FD0082D7FF478AF48
:103F6000012E28E000C00424000030410000134668
:103F7000022D7FF454AF012E99D10520FFF7B8FB35
:103F80002E4807220521FFF7C5FB0D2CAED10B20D3
:103F9000FFF7AEFB294807220B21FFF7BBFB042DDF
:103FA000A6D1012EB8D00F2CBFD0102C3FF464AF97
:103FB000112CC2D0122C7FF44BAF214B20225A601F
:103FC0001E20FFF78DFB1E20FFF782FB1D480E22EF
:103FD0001E21A3E60A287FF475AE0120FFF788FBB7
:103FE000164807220121FFF795FB012D7FF415AF3D
:103FF000012E7FF42DAF0320FFF77AFB0F48072235
:104000000321FFF787FB65E6012E7FF421AF012036
:10401000FFF76EFB094807220121FFF77BFB0B2C02
:104020003FF408AF012D3FF4E9AE0C2C3FF455AE40
:10403000022D3FF438AF0D2CA9D0F0E600C00424C7
:10404000000030410000134682B02DE9F0410F29F5
:1040500006AC84E80C005FD8BDF82040BDF82250C3
:1040600044EA0503B3F5806F56D22E4B079E9DF8A8
:1040700024809DF825E043F8212001F1100701F18B
:10408000400C43F8276001F15007B24223F81C406E
:1040900023F8175042D0B8F1000F17D001F13008C3
:1040A00002EB4402C0F8D42143F8282044EAC1229C
:1040B00042F40048C0F8D881D0F8D881C0F8D8219F
:1040C000D0F8D82143F82C8043F82720BEF1000F08
:1040D0001DD001F1600204EB4504344443F8224052
:1040E000CA0202F580622A43C0F8D44142F4004477
:1040F000C0F8D84101F17004D0F8D85143F82450E9
:104100008031C0F8D821D0F8D82143F821200020F0
:10411000BDE8F04102B070470120F9E742F2021019
:10412000F6E700BF981400000F2910B528D892B107
:10413000144A01F1300452F82440C0F8D44101F18E
:10414000400452F82440C0F8D84101F1500452F81C
:104150002420C0F8D8218BB10A4B01F1600253F83A
:104160002220C0F8D42101F17002803153F82220BE
:1041700053F82130C0F8D821C0F8D831002010BD44
:104180000120FCE79814000010B5274B27485A6817
:104190005A6842F001025A60D3F8082242F4806261
:1041A000C3F8082203F5B4331A68026852BBD3F887
:1041B000402442F46752C3F840241D4AD2F802302A
:1041C000DC05FBD41B4BD3F80427D107FBD5D3F870
:1041D0000427D207FBD4D3F84824174C174B216887
:1041E0001A60930803F4F8530B43910001F07C012B
:1041F00012020B4302F47832134343F0810323602D
:10420000012303600C4B1A680A4BC3F84424084A84
:10421000D2F8023013F48073FAD1034A516863F381
:104220000001516010BD00BF003804246814000074
:104230000000052400A00524701400006C14000088
:1042400084B070B52DED028B82B008AC84E80F000D
:10425000444C6E9AA2610D9A43499DF8B531BDF860
:1042600014012377013A8A4278D20DA901229342A0
:1042700009D8012B6FD19DF8B43173B101280FD942
:1042800042F2061060E00E4651F8045F3668B5420F
:1042900064D8002D62D00132E9E7B0F5806FEFD22B
:1042A000FFF746FA314B32485A689FED328A6FF376
:1042B0008A225A60DA686FF31842DA60DA680421F9
:1042C00061F30902DA605A682B4942F480625A604D
:1042D000FEF752FF294B5B686360FFF755FF02F062
:1042E00099FD208102F08AFD208202F099FDC0F341
:1042F0000D0307EE103AB8EEC77A830BC7EE086AD3
:1043000007EE903AF8EEE77A77EEA67AC4ED037AF4
:1043100002F07AFDC0F30D0307EE103AB8EEC77A4B
:10432000830BC7EE086A01A807EE903AF8EEE77A29
:10433000002377EEA67A0193C4ED057A03F090FA94
:10434000003818BF0120404202B0BDEC028BBDE82E
:10435000704004B07047013B0F2B90E742F204100D
:10436000F2E700BF78140000A025260000380424DE
:104370003333334000007A44CDCC4C40040F00006E
:1043800084B010B52DED028B82B006AC84E80F002E
:104390009DF818300F2B7FD84249434C0B706C9915
:1043A000A16106A901EB8301404849699DF8AD214F
:1043B00022770139814271D2012A6AD106AA02EB21
:1043C00043039DF8AC21B3F8F43022B1012B05D999
:1043D00042F2061056E0B3F5806FF9D2FFF7A8F964
:1043E000334B34485A689FED348A6FF38A225A60FF
:1043F000DA686FF31842DA60DA68042161F30902BF
:10440000DA605A682D4942F480625A60FEF7B4FEC1
:10441000FFF7BAFE2A4B5B68636002F0FBFC208169
:1044200002F0ECFC208202F0FBFCC0F30D0307EE6F
:10443000103AB8EEC77A830BC7EE086A07EE903AD7
:10444000F8EEE77A77EEA67AC4ED037A02F0DCFCA8
:10445000C0F30D0307EE103AB8EEC77A830BC7EE30
:10446000086A01A807EE903AF8EEE77A002377EEA3
:10447000A67A0193C4ED057A03F0F2F9003818BF6B
:104480000120404202B0BDEC028BBDE8104004B0F8
:104490007047013A0F2A9AE70120F3E742F204102D
:1044A000F0E700BF7414000078140000A025260077
:1044B000003804243333334000007A44CDCC4C40E0
:1044C000040F00000F29024610B54FF001000CD870
:1044D000D2F8CC4100FA01F32343D2F8CC119BB2BD
:1044E00063F30F01C2F8CC11002010BD0F29024662
:1044F00010B54FF001000DD8D2F8CC4100FA01F30D
:1045000043EA1443D2F8CC119BB263F31F41C2F8C3
:10451000CC11002010BD30B50F299DF80C402CD8CF
:104520001F2A2AD80F2B28D8012C26D845686D06BB
:104530000FD5090134B14518AC6B44EA835343F0FD
:104540008063AB6301448B6B43EA42438B6300207F
:1045500030BD5CB1D0F8081241F40071C0F8081207
:10456000D0F8081263F34811C0F80812D0F80832E6
:1045700062F30403C0F80832E9E70120E8E700002D
:1045800029B9D0F8083261F3CB23C0F80832064BC2
:104590005B68DB0741BF43686FF3000343600020A3
:1045A00058BF4FF0FF30704700380424C1B20248B2
:1045B00082B002B0FFF7E4BF003804240F2915D8F9
:1045C0000D4B5A68520603D4D3F8DC31002B0FDAB6
:1045D000D0F8DC2101238B401343D0F8DC219BB2BF
:1045E00063F30F02C0F8DC21002070470120704700
:1045F0004FF40450704700BF00380424B1F5007F29
:1046000014D2B2F5806F11D243686FF38A234360EE
:10461000C36861F31843C360C36862F30903C360EE
:10462000436843F480634360002070470120704773
:104630000F2925D8012A05D1436A6FF3D753436266
:1046400000207047022A0BD1436A6FF300034362D4
:10465000436A6FF304134362436A6FF3C303EEE7E5
:10466000084BD3F8DC31002BEADA436A0122C3F3AA
:10467000CF138A4023EA0201436A61F3D613DEE7CF
:1046800001207047003804240F2903464FF0010031
:1046900014D81A6A00FA01F189B2186AC2F30F221B
:1046A0000A4362F3172018621A6AC2F30F2222EA41
:1046B0000102196A62F31721196200207047000095
:1046C00010B510B1012804D010BDBDE81040FFF7AF
:1046D0002FB84FF4006002F09DFA0A4A13786FF386
:1046E00000031370DBB2002BEED1074B07484FF0ED
:1046F00000729A64064B1B6ABDE81040DB6B022116
:10470000184700BFC81700000084042400140424C4
:104710000001300013B50D4BADF804004FF40062FA
:10472000C3F88020BFF34F8FBFF36F8F03220121A7
:10473000002003F069F9044628B90120FFF7C0FF03
:10474000204602B010BD4FF0FF30FAE700E100E074
:104750004368064A61F349234360D2F8403443EA90
:104760004143C2F840340020704700BF00A0052438
:1047700084B02DE9F04F2DED028BF1B07CAC84E8D4
:104780000F009DF8853365934FF4C47201237FA910
:1047900068466993DDF804829DF8845305F0B0FE05
:1047A00094E80E006598B74CFFF730F908EE100A50
:1047B000FFF714F9D4F804A007EE900A07EE10AA48
:1047C000F8EE677AF8EE476AB7EE007AC7EE268A07
:1047D000C7EE276AC6EEA87A17EE900A04F010FA20
:1047E00007F03EFD04F0FEFCC8EE287A86B217EE14
:1047F000900A04F005FA07F033FD04F0F3FC87B2E9
:10480000BE4204BF0136B6B2002D5ED1BDF884337E
:1048100027804FF4C27280A9684666809A4CADF832
:10482000843105F06DFE7CAB0FCBFFF727F8FEF768
:10483000BBFF324639462046FFF7E0FE0121204605
:10484000FFF786FF6368914EDFF8389243F000630C
:104850006360636843F040036360636865F341032A
:1048600063603323C4F8E431636843F00403636096
:10487000D4F8DC3143F00043C4F8DC310DF2E2231C
:10488000669306F18103A8AF06F13E0B67930DF521
:10489000F878659AEBB29A4200F289807C4B6A9371
:1048A00000227C4B6B9369A9104603F011F810B1FC
:1048B000452840F0E38069996AAA002003F076F861
:1048C000003818BF0120404265E0304604F086F908
:1048D000BAFBF8FA80465046894604F06FF9024662
:1048E0000B464046494604F055FC00285AD1278023
:1048F0006680324639466448FFF780FE01216248EF
:10490000FFF726FF604B5A6842F000625A605A680F
:104910006FF386125A606A1E012A5A684FF000012E
:1049200094BF42F0020265F341025A60C3F8E411F9
:104930005A6842F004025A60D3F8DC2161F3DF7256
:10494000C3F8DC219DF8F1219DF844029DF8541232
:104950005AB1D3F8086262F34926C3F80862D3F863
:10496000086261F34816C3F80862474ED6F8083269
:1049700060F30403C6F80832FFF798F92A460021CD
:104980003046FFF755FE62886368B3FBF2F3424A94
:104990000020C2F8803271B0BDEC028BBDE8F04F50
:1049A00004B070471FFA8AF227806280A2E798F865
:1049B00054A098F86430649318F8013F639300930F
:1049C00052462946649B2046FFF7A5FD36F8021F94
:1049D000328C012A08D0AB0003F1105303F5872372
:1049E000A3F83811C3F8782129462046FFF7E6FDE1
:1049F000DDE963215046FFF759F929462046FFF7C4
:104A000075FD7B6E6C93D7F8A4306D93669B33F87D
:104A100002AF669340F20113ADF8BC31ADF8B8A116
:104A2000ADF8BAA170AB13E90300DDE96C238DE8A2
:104A3000030029462046FFF707FB29462046FFF7DB
:104A400041FD002229462046FFF7F2FDB9F8022079
:104A5000D9F80430B3FBF2F3328CB3FBF2F34BF82A
:104A6000043F57F8043FA6F8D0A0CBF85030679B1E
:104A7000639A03F8012F013567930AE74FF0FF307F
:104A800089E700BF7814000000380424D61600001F
:104A900001472008114720089814000084B02DE930
:104AA000F04F2DED028BEDB078AC84E80F009DF84F
:104AB000E0819DF874739DF875930120B8F10F0F94
:104AC000659000F20581DFF85CA3D14E8AF8008082
:104AD0004FF4C4727BA9684605F012FD94E80E00FD
:104AE0004846FEF793FF08EE100AFEF777FF74685A
:104AF00007EE900A07EE104AF8EE677AF8EE476A7A
:104B0000B7EE007AC7EE268AC7EE276AC6EEA87A05
:104B100017EE900A04F074F807F0A2FB04F062FBB1
:104B2000C8EE287A85B217EE900A04F069F807F00B
:104B300097FB04F057FB1FFA80FB5D4504BF01356E
:104B4000ADB2002F51D1BDF87433B24C75804FF423
:104B5000C2727CA96846A6F800B0ADF8843105F0B1
:104B6000CFFC78AB0FCBFEF789FEFEF71DFE2A4681
:104B700059462046FFF742FD01212046FFF7E8FD98
:104B80006368A54D43F000636360636843F04003CE
:104B90006360636867F3410363603323C4F8E431FF
:104BA000636843F004036360D4F8DC3143F00043EE
:104BB000C4F8DC31FBB2994500F29680974B6693BE
:104BC0000022974B679365A9104602F081FE10B151
:104BD000452840F01A81659966AA002002F0E6FE99
:104BE000003818BF0120404272E078AB03EB880820
:104BF0002846D8F81430B4FBF3F403F0EFFF8046F6
:104C00002046894603F0DAFF02460B4640464946F5
:104C100004F0C0FA002862D1A6F800B075802A46D8
:104C200059467C48FFF7EAFC01217A48FFF790FDDE
:104C3000784B5A6842F000625A605A686FF38612E5
:104C40005A607A1E012A5A684FF0000194BF42F060
:104C5000020267F341025A60C3F8E4115A6842F055
:104C600004025A60D3F8DC2161F3DF72C3F8DC215F
:104C70009AF8002002F5F0726A4492F8540092F813
:104C8000641052785AB1D3F8084262F34924C3F849
:104C90000842D3F8084261F34814C3F808425D4D56
:104CA000D5F8083260F30403C5F80832FEF7FEFFBA
:104CB0009AF800403A4621462846FFF7B9FCA0344E
:104CC00072887368B3FBF2F3534A42F82430002031
:104CD0006DB0BDEC028BBDE8F04F04B07047A2B2DE
:104CE000A6F800B072809BE79AF80010639101F576
:104CF000F0736B44204693F8642093F8548093F843
:104D000001B062921346CDF800B04246FFF703FCB3
:104D1000639901F5907335F8130001F5987335F830
:104D20001320012A08D08B0003F1105303F58723C9
:104D3000A3F83801C3F878212046FFF73FFC5A4614
:104D400062994046FEF7B2FF9AF80080204641463D
:104D5000FFF7CCFB78AB03EB88030137D3F81431B2
:104D6000689378AB03EB8803D3F85431699378AB3D
:104D700003EB4803B3F8F430ADF8A831ADF8AA312D
:104D800040F20113ADF8AC316CAB13E90300DDE97F
:104D900068238DE8030041462046FFF755F99AF84D
:104DA000008020464146FFF78DFB41460022204609
:104DB000FFF73EFC08F1A00271887368B3FBF1F3C2
:104DC00008F5987135F81110B3FBF1F345F822306E
:104DD00078AA02EB480208F5C473B2F8F42025F86B
:104DE000132078AA02EB880208F1B403D2F8B420A9
:104DF00045F8232008F5F07205EB08030DEB0208D7
:104E000098F8012083F8C022D4E64FF0FF305FE726
:104E1000781400000038042498140000014720088A
:104E20001147200874140000D0F8E03143F001036A
:104E3000C0F8E031002070472DE9F341374B9A6A02
:104E40000192019A16020DD5426A1502C2F3C050B2
:104E500008D45A6A42F400025A62314B9B69042119
:104E6000984718E0019BDC0709D52C4A136A43F0E8
:104E7000010313622A4B05219B690020F0E7019C86
:104E800014F080740BD02548012100F095F8254BD3
:104E900002201B689847002002B0BDE8F0811F4B3C
:104EA0005A68500603D4D3F8DC21002A25DA1E4DB7
:104EB0001A4FDFF86C80019BE21DD340D90716D54D
:104EC00021463846FFF7E0FB2B78E6B2B3FA83F2CF
:104ED000520931463846FFF727F9D8F81830002133
:104EE000304698472B78B3FA83F35B092B70013473
:104EF000102C05F10105DED1CDE75A689207CAD41E
:104F0000D3F8DC11C90FC6D15A6842F004025A60C6
:104F10000198034BC0B29B69A2E700BF003804248C
:104F200078140000CC170000581400000148FFF767
:104F300083BF00BF00380424030548BF20F400608D
:104F4000174B58BF40F40060D1B11A8A93ED057A2F
:104F5000821A07EE902AF8EEE77A67EE877AFDEE7E
:104F6000E77A17EE903A18B2B0F5805F11DA0028B0
:104F700012DDB0F5006F10DBA0F5006000B27047E5
:104F80001A8993ED037A821A07EE902AF8EEE77AEF
:104F9000E3E740F6FF70EFE7002000F50060EDE783
:104FA00078140000406921B11146C0F30B00FFF7EF
:104FB000C3BFC0F30B007047436A01291DBF43F014
:104FC00002034362436A43F0807318BF43F0040353
:104FD0004362002070472DE9F04F92F806C092F826
:104FE00002A05378D5781679577992F807E092F8AD
:104FF000088092F8099092F80AB0D47A127802B335
:105000005B0643EA4B7343EA8A5343EA495343EA54
:10501000085343EA4E4343EA0C4343EA473309014A
:10502000026843EAC62301F1105143EA852301F5E2
:10503000872142F0004243EA44230260CB63BDE88B
:10504000F08F02686CF3C712026002686AF34F3295
:105050000260026863F313420260036865F3410370
:105060000360036866F383030360036867F3061352
:10507000036003686EF30A230360036868F3CB23BD
:105080000360036869F30C33036003686BF3145324
:105090000360036864F300030360D0E7054B9A687C
:1050A0009107FCD45A689207F9D4DA69002AF6D13C
:1050B000704700BF008C0424064B1A6A61F39742C4
:1050C0001A621A6A60F34C221A621A6A9204FCD5B8
:1050D000704700BF00800424024B0122C3F8042162
:1050E000704700BF008C0424074B5A68012A0AD17C
:1050F00002221A61DA699207FCD40122C3F8042261
:105100009A60FFF7CBBF7047008C042410B5064CA3
:10511000FFF7C4FF6368012B03D1FFF7E5FFFFF73B
:10512000BDFF0378E36010BD008C042410B101289A
:105130001CD070474A680B7812B1127843EAC20358
:105140004A7843EA42038A6812B1127843EA82132A
:105150008A7843EA8203CA6812B1127843EA42238A
:10516000104A9364936D002BFCD170474A680B780A
:1051700012B1127843EAC2034A7843EA42038A68CA
:1051800012B1127843EA82138A7843EA8203CA682A
:1051900012B1127843EA4223024A9366936F002BBE
:1051A000FCD17047008C042410B1012804D0704752
:1051B000034BC3F844117047014BC3F864117047A7
:1051C000008C042410B1012804D07047034BC3F8AD
:1051D00044127047014BC3F864127047008C0424DA
:1051E00010B1012804D07047034BC3F84012704738
:1051F000014BC3F860127047008C042418B10128D9
:1052000004D000207047034B186C7047014B186E98
:10521000704700BF008C042418B101280BD0002077
:10522000704711B1012903D07047074BD86C704704
:10523000054B186D704721B10129F0D1024B186F51
:105240007047014BD86E7047008C042410B10128C0
:105250000CD070470B4B29B1012905D09A6D002A5B
:10526000FCD17047DA64F9E71A65F7E7054B29B115
:10527000012905D09A6F002AFCD17047DA66F9E758
:105280001A67F7E7008C0424044B4FF480625A60DD
:10529000034B4FF480021A60704700BF00000812F1
:1052A00000E100E0094B4FF48002C3F88020BFF317
:1052B0004F8FBFF36F8F064B4FF480629A601A6076
:1052C000044AD36B43F48063D363704700E100E08A
:1052D000000008120081042410B4034C2468646C9C
:1052E000A4465DF8044B604700013000024B1B6888
:1052F0000121D3F8F030184700013000034B1B6840
:105300000A469B6C01460248184700BF0001300066
:10531000001404248A1E70B543680D46052A04D87B
:10532000DFE802F01B1D4C4E50528469B3F1884FE8
:105330005CD163783F2B19D9554B60781B68403896
:10534000D3F8E830C0B2984762785248403A062312
:10535000D2B20021FFF7C0FF08E0C469E6E7B3F16D
:10536000884F046A32D160783F283AD8E07820B17B
:10537000474B1B68D3F8C03098476078A0F11903F9
:10538000052B04D8424B1B68D3F8B8309847032D3F
:1053900006D13F4B60781B680121D3F8D430984781
:1053A0003B4B60781B68D3F8C8309847A378627885
:1053B00021783948BDE87040FFF78EBF446AB5E7F1
:1053C000846AB3E7C46AB1E7046BAFE7334A934238
:1053D000C9D0334A93420DD160783F28C6D9032DF6
:1053E000AAD14038C0B2FFF781FFA5E72B4A93420C
:1053F000EFD19EE72B4A934248D1002C46D06278E9
:105400003F2A14D9032D03D1403AD0B2FFF76EFFE3
:105410001F4B60781B684038D3F8E830C0B298471B
:105420006278A37821781B48403AD2B2C2E71A4882
:1054300021780923FFF750FFE07820B1144B1B6857
:10544000D3F8C0309847032D02D16078FFF74EFFA4
:105450000F4B60781B68D3F8C830984721780D4807
:1054600062780023FFF738FF6078A178A0F12E035F
:10547000032B02D82638C0B202E00F2804D107203F
:10548000BDE87040FFF73ABF0638F4E770BD00BFD3
:105490000001300000C00424000013460001004455
:1054A0000000024500180424F0B5436885B00024CC
:1054B000B3F1884F01940546029403940BD0774AC8
:1054C000934208D0764A934200F0D180754C181B65
:1054D0004442444164009A680192019A02F0060233
:1054E000062A4FEA84742CD15B690293029B9907C8
:1054F00010D56A6913686BB101215171202098475A
:105500006B6993F82820032A04D193F826300BB155
:1055100044F01004029B5A0707D56A69136823B147
:10552000012111724FF400709847029B1B0740F154
:10553000A0806A69136823B10121D1714FF4807092
:105540009847019B9E071DD56B691E6910201A6A3A
:105550006968964209D09F690138BF5C0F6002F10B
:1055600001021A62F3D196420CD14A6822F002027B
:105570004A60002283F826201B681BB144F0010416
:1055800020469847019B580738D56B691A68002A4E
:1055900034D06A685169C90725D511685A69DB6931
:1055A000D1546B69DA69D96801328A42DA611AD159
:1055B00069684A6822F001024A6093F82820023A9A
:1055C0000021012A197164D893F8272083F8271045
:1055D000022A5ED0032A59D0012A01D144F00104E5
:1055E0001B68204698476B691A683AB1D969DB682D
:1055F000994203D044F0400420469047019B1A078B
:105600004AD16B689B6903936B78DB0608D5039BD3
:10561000DF0705D56B6944F480641B682046984712
:105620006B785E0608D5039B980705D56B6944F433
:1056300000641B6820469847AB78D90708D5039BC0
:105640005A0705D56B6944F400541B6820469847F7
:1056500095F90130002B1FDA039B1B071CD56B69E2
:105660001B6844F4805005B0BDE8F04018470124A1
:1056700031E7029BDF067FF564AF6A691368002B90
:105680003FF45FAF01219171802059E744F0040499
:10569000A6E744F00204A3E705B0F0BD0001004412
:1056A0000000024500180424012810B41FD15369DA
:1056B00019691C681962002183F82610BCB153686F
:1056C000B3F1884F11D00B4A93420ED00A4A93424D
:1056D00004D00A4A9A1A534253415800800723467D
:1056E00040F001005DF8044B18470846F6E75DF806
:1056F000044B7047000100440000024500180424D8
:10570000012810B42AD15369D968D96193F82810B7
:105710000239002401291C7105D893F8271083F859
:105720002740022916D102201968B9B15368B3F194
:10573000884F18D00E4A934215D00E4A934214D087
:105740000D4A9A1A534253415B005DF8044B40EAFC
:1057500083700847032904D00129E5D05DF8044B84
:1057600070470420E0E70023EFE70123EDE700BFE7
:1057700000010044000002450018042430B504462E
:105780000AB3B0F5E10F1ED853688025DD608900AB
:10579000B1FBF0F1D3F8C0006FF30500C3F8C0000F
:1057A000002018605860D860DD60C1F387151D6067
:1057B000C1F3873501F03F015D60C3F8C010D860C8
:1057C0005369DC6230BD40F20160FBE737B54A69DE
:1057D00092F8293013F001030C4657D1C2E90003B7
:1057E000137282F8263082F824304B68B3F1884F68
:1057F00002D0354A934212D1344B10229A60344B76
:10580000A26BDB69019294F834200092D3F8A45083
:1058100094F83C20002301214FF08C40A847626897
:105820002C4B9A4215D103F15F4303F5213310222B
:105830009A60274BA26BDB69019294F834200092A6
:10584000D3F8A45094F83C20012319464FF08C4023
:10585000A8476268204B9A4210D103F5D8434FF411
:1058600000125A641A4B228F1B6A0092DD6994F869
:105870003C2094F8353019480121A847E3683BB92A
:1058800023692BB96369012283F8292000200EE0E7
:105890006368B3F1884F0CD00B4A934209D00D4A8C
:1058A000934206D00C4A93420BD04FF0FF3003B026
:1058B00030BD00230A48036001F0D2FF0028E1D088
:1058C000F3E70123F6E700BF00010044008404244D
:1058D00000013000000002450018042400140424D4
:1058E000D017000038B54368B3F1884F044602D0A2
:1058F000264A934207D1264BDB690021D3F8E830D2
:105900004FF08C4098476268224B9A4207D1204B57
:10591000DB690121D3F8E8304FF08C40984762688A
:105920001D4B9A4205D11A4B1C481B6A0821DB6BA0
:105930009847E26832B9236923B96369002083F884
:10594000290038BD6368B3F1884F0BD00F498B42F3
:1059500008D010498B4205D00F498B4202D04FF03E
:10596000FF30EEE711790E4D03222868013102F075
:105970004BF80028F3D123692868197903220131F3
:1059800002F042F80028D8D0E9E700BF0001004447
:105990000001300000000245001804240014042413
:1059A000D017000010B50C4620B102287ED06FF051
:1059B000030010BD91F90830002B0DDB5A090121BD
:1059C00003F01F03994002F120034A4A42F82310D2
:1059D000BFF34F8FBFF36F8FE268616963683ABBB3
:1059E000D4E904216368002A3ED16368424AB3F1D6
:1059F000884F51D11023D36094F90830002B09DB74
:105A00005A09012103F01F03994002F16003394A4A
:105A100042F82310636900225A601A7283F8262024
:105A200093F8292022F0020283F829200020C0E701
:105A300091F826100029D3D0B3F1884F0BD02F490D
:105A40008B4208D02E498B4205D02E498B4202D082
:105A50004FF0FF30ADE711792B4B0131186802F0A0
:105A60008BF90028BCD0F3E709790029BDD0B3F148
:105A7000884F08D021498B4205D021498B4202D062
:105A800020498B42E4D111791F4B0131186802F093
:105A900073F90028A9D0DBE718498B42AAD018492E
:105AA0008B42A7D04FF400139364A5E74A6992F89C
:105AB0002930D907CCD513F00203B7D161684B6008
:105AC0005360137282F826304FF44073138594F9B3
:105AD0000830002BAADB03F01F015B099B0003F1D8
:105AE000604303F5614301228A40C3F880211A60B4
:105AF0009CE700BF00E100E00084042400010044B2
:105B00000000024500180424D01700002DE9F043DE
:105B10000E468BB09046074600287BD0002979D0EE
:105B2000536993F82920510704D44FF0FF300BB08C
:105B3000BDE8F08393F82620002A6ED1012583F872
:105B40002650D8F80C90D8F8044098611E611A626B
:105B5000B9F1000F4AD0B4F1884F09D0304B9C42C4
:105B600006D0304B9C423FD02F4B9C42DDD10325C9
:105B7000142200210DEB020004F0F2FB99F804302E
:105B8000049401330093294B0193294B294C089627
:105B9000CDE902370323069320688DF8265040F2A2
:105BA000011301226946ADF8243001F091FE08B1DD
:105BB0004528BAD10099206801AA01F0F7FE002813
:105BC000B3D10099206803AA01F062FF0028ACD18C
:105BD000D8F80C3020681979013102F0B1F820684A
:105BE00002F0CCF80020A2E70225C1E76269920624
:105BF0000ED4636843F002036360F3E7501C18623D
:105C0000BA5C22600139F4D01A6AB242F6D1F0E7E8
:105C10001021F9E76FF0040089E76FF0010086E7D3
:105C20000001004400000245001804243941200806
:105C300059412008D01700002DE9F0430F468BB0E2
:105C40001546804600286BD0002969D0536993F827
:105C50002920520761D51A79012A64D00022012433
:105C60005C601A72D5F810906E68D9605861DA617C
:105C7000B9F1000F4CD0B6F1884F09D02B4B9E42A2
:105C800006D02B4B9E4241D02A4B9E4245D1032445
:105C90001022002106A804F063FB99F804308DF867
:105CA000264001330093244B0193244B244CCDF820
:105CB0001080CDE9023603230593206808974FF43E
:105CC000817301226946ADF8243001F001FE08B16C
:105CD000452822D10099206801AA01F067FEE0B9A9
:105CE0000099206803AA01F0D3FEB0B92B6920689F
:105CF0001979013102F024F895F8403013B9206881
:105D000002F03CF800200BB0BDE8F0830224BFE7AE
:105D1000736843F001037360F4E74FF0FF30F2E77C
:105D20006FF00400EFE76FF00100ECE700010044C2
:105D30000000024500180424394120085941200878
:105D4000D01700002DE9F3470746DDE90AA8DDF882
:105D50003090084616461D461FB311B30AB35B695F
:105D600093F82920520723D595F84040F4B12A78BA
:105D700012F0060F1CD0032283F827203146CDE90C
:105D8000008953462A46FFF757FF60B953462A4613
:105D900031463846CDE90A8902B0BDE8F047FFF741
:105DA000B5BE6FF0040002B0BDE8F0872046FAE708
:105DB0004FF0FF30F7E74369186A70474369D869C5
:105DC000704700002DE9F0471C465B69924693F846
:105DD000292080469007894603D44FF0FF30BDE864
:105DE000F0875FFA88F5A5F11501052900F2E48036
:105DF000DFE801F0031828416D98B9F1000F0CD0CD
:105E000002212046FFF786FA626992F8293043F0B2
:105E1000080382F829300020E1E722F0080283F825
:105E20002920F8E7B9F1000F09D003212046FFF738
:105E300071FA626992F8293043F01003E9E722F021
:105E40001002ECE7B9F1000F0DD093F82620002ADC
:105E500040F0F6816168CA6842F04002CA600122DF
:105E600083F82620D7E76168CA6822F04002CA603A
:105E700083F82690CFE76268516821F002015160F3
:105E8000D4E90310F0B9C1B10D20906093F8263029
:105E9000ABB1B2F1884F08D08F4B9A4205D08F4BEF
:105EA0009A4202D08E4B9A4209D109798D4B013129
:105EB000186801F061FF10B18FE7052393606369F3
:105EC0000022CDE70D2090600029DFD1F7E762685E
:105ED000516821F001015160216949B9E3682BB98A
:105EE00003239360636900221A7194E70B23F8E798
:105EF0000B2090601B79002BF4D0B2F1884F08D0B2
:105F0000754B9A4205D0754B9A4202D0744B9A4217
:105F1000E8D10979734B0131186801F02DFF002891
:105F2000E0D05AE76268516821F003015160E168EE
:105F300069B9D4E90421636812BBE368002B39D145
:105F4000072362689360636900221A7188E793F8F7
:105F50002630002BEDD0B2F1884F08D05E4B9A422C
:105F600005D05E4B9A4202D05D4B9A42E1D109794D
:105F70005C4B0131186801F0FFFE0028D9D02CE7F6
:105F80000979B9B1B3F1884F08D053498B4205D094
:105F900052498B4202D052498B420BD11179514B5D
:105FA0000131186801F0E8FE00287FF416AF23697C
:105FB000002BC2D00F23C4E76A1E132A00F24381CC
:105FC000DFE812F03900140047005E006F00920015
:105FD00041014101410141014101410141014101B1
:105FE00041019700170092009A00920094F8403007
:105FF00013B96FF00600F2E66268374B9A42F8D1A7
:106000002378990717D501212046FFF783F96368A4
:106010009A6D42F001029A659A6D42F002029A6509
:1060200094F841109A6D41B342F010029A659A6D4E
:1060300042F020029A6508F4E066B6F5A06F73D0CE
:106040005ED8002E73D0B6F5807F72D06FF0080056
:10605000C5E66268204B9A42CBD123785A07C8D54F
:1060600001212046FFF756F963689A6D42F001025C
:106070009A659A6D6FF34102D1E761F30412D5E797
:1060800021780B07D7D563681A6C42F001021A64B5
:106090001A6C8F074CBF6FF3410242F002021A6480
:1060A000C9E76368B3F1884F02D00B4A9342A0D18D
:1060B0002378DE069DD506212046FFF72BF92046E2
:1060C0000721FFF727F92378D80692D5626813696C
:1060D00043F040031361AEE70001004400000245B5
:1060E00000180424D0170000257815F02005A2D050
:1060F0007FE783F824908EE6257815F04005F6E7D3
:10610000B6F5C06F17D0B6F5E06F9FD10026022715
:1061100008F44053B3F5805F10D0B3F5005F1BD097
:1061200073B16FF009005AE600260027F0E7032755
:10613000EEE70926F9E700260127E9E747F0180707
:1061400008F44043B3F5804F09D0B3F5004F06D0B3
:106150003BB16FF00A0042E647F00807F0E747F06E
:10616000040708F44033B3F5003F2FD007D8002BC5
:106170003BD0B3F5803F19D06FF00B002FE6B3F59D
:10618000403FF9D1637803F01803182B07D104219D
:106190002046FFF7BFF805212046FFF7BBF823880C
:1061A00003F4C073B3F5C07F0BD0E5E7637819073C
:1061B00003D505212046FFF7ADF894F90030002BF8
:1061C000DADA6268136943F022030DE06378DA06D5
:1061D00003D504212046FFF79DF86378DB07CBD574
:1061E0006268136943F020031361AB1E012B05D8CD
:1061F00018F4802F2AD118F4002F2AD1D4F8048063
:10620000D8F8103023F01003C8F810302246514659
:106210004846FFF7B3FA6369012183F82850C8F8AC
:106220000810C8F80C70C8F8CC60D8F8AC2061F33E
:10623000C402C8F8AC2093F8292042F00402EEE52D
:106240006FF00100CBE56FF00300C8E56FF00C00C4
:10625000C5E56FF00D00C2E542694368107A5969DF
:10626000137981F080015B00C1F3C01103F00203D8
:106270000B435179C90001F008010B4391790901E1
:1062800001F010010B43D179490101F02001800197
:106290000B4300F040001843704700004B6993F82F
:1062A00029305B0732D54B68002B32D0032830D819
:1062B000DFE800F0020B121F4A78120729D51A698D
:1062C00022F002021A61002070474A78100720D598
:1062D0001A6942F00202F5E7B3F1884F02D00E4A84
:1062E000934216D14A78910613D51A6922F0010219
:1062F000E8E7B3F1884F02D0074A934209D14A78C0
:10630000920606D51A6942F00102DBE74FF0FF3032
:1063100070476FF00300704700010044024630B53B
:10632000536800201BB3516991F8291049071ED505
:10633000557899699278EB064CBFC1F30013034678
:1063400015F0400418BFC1F3401412F0010218BF49
:10635000C1F380122D060FD5C1F3C01143EA4403E7
:1063600043EA810343EAC20363F3070030BD0246F8
:10637000014604460346F1E70021EFE741F20273CC
:10638000984221D011DC41F2045398421CD005DC24
:10639000F8B101280CBF21200120704741F20173A0
:1063A00098420CBF11200120704742F2041398421A
:1063B0000CD042F2061398420AD042F203139842DC
:1063C0000CBF2120012070472120704728207047F2
:1063D0002B207047014BDB695B6E184700013000D2
:1063E000014BDB699B6B184700013000014BDB69F7
:1063F0005B6A184700013000404B994270B50C466B
:10640000154679D83E4B99420AD93E4B4FF40012BB
:106410005A623D4B10229A615A6C42F010025A6443
:1064200001283FD0022855D048BB384EF3690121DE
:10643000A4220846D3F8EC309847354B9C60FFF710
:10644000D5FF344B9D42344B02BF5A6822F4404280
:106450005A604FF45942A3F86020F3692A469B68BA
:1064600021464FF08C40984750B92C4B9C420BD89A
:106470002B4B4FF40032DA664FF48022DA660020AC
:10648000BDE87040FFF77ABF264B9C42F7D9244BFA
:10649000DA6E9203F3D44FF480229A664FF40032FE
:1064A0009A66ECE71A4B5C61FFF794FF1A4B4FF4C6
:1064B0005942A3F8A020154BDB692A469B6D214663
:1064C0004FF08C4098470028DAD1592CD0D95A2C5B
:1064D000DDD1D4E70E4B9C61FFF782FF0E4B4FF4EA
:1064E0005942A3F8E020094BDB692A46DB6B2146C1
:1064F0004FF08C409847C3E7212070BD0095BA0A41
:10650000FF0D270700002820008000460001300012
:10651000040F0000005A6202008018467F4A5D05A1
:1065200000840424BF8C6C051E4B994270B505464F
:106530000E460DD81C4A536A23F4001353621B4BBA
:106540009A6922F010029A615A6C22F010025A6481
:10655000002211464FF08C4000F072FC0446FFF719
:106560000DFF0246D8B9D5B1042D13D1104A3146DA
:106570000120FFF741FF04B22046FFF7FFFE02466D
:1065800068B929464FF08C4000F05AFCBDE87040D5
:10659000FFF7F4BE022DEFD1054A3146E9E7104678
:1065A00070BD00BFFF0D27070000282000800046B7
:1065B000005A620208B503214FF08C4000F020FD24
:1065C000032000F083FDBDE8084002490220FFF7E8
:1065D000ABBF00BF0095BA0A10B5002486B00123F6
:1065E00021460820ADF808308DF80430CDE9034489
:1065F0008DF800408DF80A400594FEF75DFD684671
:10660000FEF784FD01AB02A9204603938DF80840F4
:10661000FEF78CFD0F212046FEF7D4FD0F2120460A
:10662000FEF7DEFDFEF758FD094B9C61DA69520763
:10663000FCD4084A4FF480615160074A4FF480014E
:10664000116001221A61DA69002AFCD106B010BD7E
:10665000008C04240000081200E100E0014B98695E
:10666000704700BF008C042400210846FEF7D4BD0B
:1066700000F00101830748BF41F002010020FEF74E
:1066800093BD00002DE9F0410446FAF725FF1A4DAD
:106690000746D5F81880FFF7E7FF06460020FEF70B
:1066A000ADFD830705D4A6EB0803042B01D84645AE
:1066B00014D1A969B4F1FF3F28BF0134C1F103032C
:1066C0002344072B98BFCC1C00210846621EFEF70E
:1066D000BDFD0220FFF7CCFFFEF7D6FD3846FAF7E6
:1066E000FFFE064A13782BB1AB6C43F00103AB6499
:1066F00000231370BDE8F081008C04240C0100001D
:10670000830700F0010109D5064B01221A70064AE1
:10671000936C23F0010341F0020193640020FEF723
:1067200051BD00BF0C010000008C0424830742BF50
:10673000024B0222C3F84021704700BF008C0424A2
:1067400038B5FEF7AFFDFAF7D0FE04460020FEF79D
:1067500055FD830700F0010548BF45F0020500F034
:1067600003010020FEF73CFD2846FBF7DDF820463C
:10677000FAF7C1FEBDE83840FEF786BD4FF4004091
:1067800070470000044B4FF48072DA63034B4FF400
:1067900000629A60704700BF008104240000081264
:1067A00008B5284B4FF400621A60274AD2F88C379C
:1067B00043F4004343F08003C2F88C37D2F88C379F
:1067C0005B06FBD5D2F88C27204BDFED216A9FEDCD
:1067D000216A214902F03F021A601A68262A84BF02
:1067E00026221A601D4A9268EAB11D48C2F31502BA
:1067F0000260D3ED007A90ED007AF8EE677AB8EE99
:10680000477A77EEA67A37EE267A67EE867AC7EE73
:10681000876AC1ED006AFFF7B5FF0A4B4FF40062CB
:106820005A60086808BDD3ED007AF8EE677A77EE13
:10683000A67ADFED0C6A67EE867A87EEA67A81ED9E
:10684000007AE8E70000081200A00524DC17000029
:1068500089410B4233335340D41700000007000036
:10686000D8170000C4A08342F0B5A24CA24BA26886
:106870000578A24E02EA0301027802F001020A43FF
:106880009F49A2608A6802EA0304427802F001028A
:10689000920042EA951222438A600A69457802EA28
:1068A00003040278C2F344022243964C0A61A268B0
:1068B00002EA0301827802F00302520142EAD502A1
:1068C0000A439149A2608A6884781A4042EA940295
:1068D0008E4C8A60A268C1781A4001F01F011143F2
:1068E000A160B268047902EA030504F03F04C278AB
:1068F000640044EAD214C2F3411242EA84022A43F9
:10690000B260834E4579B26802EA0304027905F069
:106910007F05920942EA850222437E4DB260AA6851
:1069200002EA0304C27902F00F0222437A4CAA6001
:10693000A268C579067A1A4042EA1512774DA2601C
:10694000AA6802EA0304427C02F07F022243AA60A2
:10695000734DAA6802EA0304027A02F07F0222431E
:10696000AA60704DAA6802EA0304427A02F01F028C
:10697000520042EAD61222436B4EAA60B268857A70
:1069800002EA0304C27A520042EAD512057B05F0FE
:10699000010542EA45222243644DB260AA68467A64
:1069A00002EA0304827A02F07F02D20042EA56121F
:1069B0002243AA605E4D5F4EAA6802EA0304B0F863
:1069C0000D202243AA60B268457D02EA0304027DDD
:1069D00005F00F0542EA05222243574DB260AA682E
:1069E000564E02EA0304427DC2F302122243AA6019
:1069F000B268C57D477902EA0304827D05F00F0580
:106A000042EA05222243B2604D4EC57DB26802EAD9
:106A10000304027E120142EA1512457E05F00F05BD
:106A200042EA05322243474DB260AA68467E02EA36
:106A30000304827E120142EA16122243AA60424DEA
:106A4000AA6802EA0304B0F81B202243AA603F4D63
