:10000000010000000D900D90448B060001000000DF
:100010000010200097E2FF4C0000000000000000EC
:1000200000000000000000000000000000000000D0
:100030000000000000000000000000000D900D9086
:10004000A55A0000002020080000008000000000E9
:1000500000000000000000000000000000000000A0
:100060000000000000000000000000000000000090
:100070000000000000000000000000000000000080
:100080000000000000000000000000000000000070
:10100000408A0100D99422088D9422088D942208E8
:101010008D9422088D9422088D94220800000000EF
:101020000000000000000000000000008D94220875
:101030008D942208000000008D9422088D942208CF
:101040008D9422088D9422088D9422088D94220874
:101050008D9422088D9422088D9422088D94220864
:101060008D9422088D942208E907000055BF2208BC
:10107000999F2208410F23088D9422088D942208FD
:101080008D9422088D9422089502230839032308A1
:101090008D9422082D022308D9E622088D94220877
:1010A0008D9422088D9422088D9422088D94220814
:1010B0008D9422088D942208408A01008D94220884
:1010C000D9942208410700008D9422088D942208AB
:1010D0008D9422088D942208819F22088D9F2208DA
:1010E000099422088D942208290F2308FDFA3869F3
:1010F0008D9422088D942208ED9C22088D9422085C
:101100008D9422088D942208FD01230815022308DE
:101110003D012308550123086D012308850123089B
:101120009D012308B5012308CD012308E50123080B
:101130008D942208350F23088D9422088D9422085F
:101140008D9422088D9422088D9422088D94220873
:101150008D9422088D9422088D9422088D94220863
:101160008D9422088D9422088D942208000000009E
:10117000000000000000000000000000000000006F
:101180000348044B834202D0034B03B11847704716
:10119000440E0000440E0000000000000548064B0D
:1011A0001B1AD90F01EBA301491002D0034B03B165
:1011B00018477047440E0000440E00000000000075
:1011C00010B5064C237843B9FFF7DAFF044B13B18F
:1011D0000448AFF300800123237010BD440E0000CB
:1011E00000000000A885260808B5054B1BB105497D
:1011F0000548AFF30080BDE80840FFF7CFBF00BF50
:1012000000000000480E0000A88526082DE9F14FD7
:10121000002006F05FF8DFF87883CE4CC8F80000B5
:101220004FF6FF77102106F061F8D8F80000CA4D9C
:10123000CA4EDFF86093394600220AF05AFA0022BB
:10124000D8F80000FF210AF064FAD8F8000006F090
:1012500041F84FF4A071206006F0F9FF20684621A4
:1012600007F00CF82068012106F0B8FF20686FF045
:10127000CA0106F0CAFF2068092107F07DF820683E
:10128000102106F033F80022206811460AF06FFAA8
:101290000022206811460AF046FA4FF48032206896
:1012A00000210AF040FA206822F03EF9AC4928609B
:1012B00022F046F9286842F2D17106F0C8FF28688A
:1012C00042F2D17106F0DAFF28686FF0700106F083
:1012D00085FF28686FF00C0106F097FF2868092148
:1012E00007F04AF828684FF4803106F035FA28688C
:1012F0009C4D102105F0FAFF20689B4C23F0ECFA7E
:1013000042F2D171206006F0A2FF206842F2D17152
:1013100006F0B4FF20682A2106F060FF20686FF015
:101320000B0106F072FF2068092107F025F82068FC
:101330008E4923F0DDFA00228D4920688D4C0AF099
:101340000CFAD8F8000005F0C5FF4FF49B7120603F
:1013500006F07DFF20683C2106F090FF2068002108
:1013600006F03CFF20686FF09A0106F04EFF2068FF
:10137000092107F001F82068102105F0B7FF47F6B2
:101380009E5A2068012106F0E7F9206851460022A4
:101390000AF0AFF920680022FF210AF0BAF9002212
:1013A000206811460AF0BFF94FF48032206800210E
:1013B0000AF0B9F9206823F08FFA4521306006F071
:1013C00046FF306842F2D17106F058FF3068612163
:1013D00006F004FF30686FF0020106F016FF306877
:1013E000092106F0C9FF3068294623F081FA3068E8
:1013F000394600220AF09CF930680022FF210AF0E9
:10140000A7F93068002202210AF0ACF900225A49FB
:1014100030685A4E0AF0A1F9206823F05DFAA02145
:10142000306006F014FF306842F2D17106F026FFFA
:1014300030686FF0450106F0D1FE30686FF00C01A6
:1014400006F0E3FE3068092106F096FF3068294671
:1014500023F04EFA3068394600220AF069F9306804
:101460000022FF210AF074F9002249463068444EF8
:101470000AF073F9206823F02FFA5A21306006F041
:10148000E6FE306842F2D17106F0F8FE306867215E
:1014900006F0A4FE3068132106F0B7FE306809217B
:1014A00006F06AFF4FF2602B3068294623F020FADD
:1014B0003068594600220AF03BF930680022FF21CB
:1014C0000AF046F93068002201210AF04BF90022A7
:1014D0002C4930682C4E0AF040F9206805F0FAFEDD
:1014E0002D21306006F0B3FE3068322106F0C6FED2
:1014F00030681C2106F072FE30684FF0FF3106F0B4
:1015000084FE3068092106F037FF3068012106F0BB
:1015100023F93068102105F0E9FE306851460022B9
:101520000AF0E7F83068DFF870A00022FF210AF027
:10153000F0F80022114630680AF0F5F8306821F022
:10154000F3FF1249CAF8000021F0FAFFDAF80000B0
:1015500024E000BFFC0E0000F80E0000EC0E0000BE
:101560007057230888812608F40E00009C7F250808
:1015700088B22508F00E0000E4252608E80E0000D9
:10158000E40E0000FC8D2508E00E000018AF2308D3
:10159000000F0000CCE72508DC0E000042F2D171FC
:1015A00006F055FEDAF8000042F2D17106F066FE50
:1015B000DAF80000012106F011FEDAF8000000213F
:1015C00006F023FEDAF80000092106F0D5FEDAF86D
:1015D00000004FF0011106F0BFF8DAF8000010210A
:1015E00005F084FEDAF80000DFF898A3962122F0D7
:1015F0008FFB306821F098FFD649CAF8000021F02F
:101600009FFFDAF8000042F2D17106F020FEDAF80E
:10161000000042F2D17106F031FEDAF800004FF01E
:10162000FF3106F0DBFDDAF800004FF0FF3106F085
:10163000ECFDDAF80000092106F09EFEDAF8000061
:101640004FF0011106F088F8DAF80000102105F0DB
:101650004DFEDAF80000DFF830A3502122F058FBED
:10166000306821F061FFBC49CAF8000021F068FF32
:10167000DAF8000042F2D17106F0E9FDDAF8000074
:1016800042F2D17106F0FAFDDAF80000092106F005
:1016900073FEDAF800004FF0011106F05DF8DAF899
:1016A0000000DFF8E8A2102105F020FE306821F0EC
:1016B0003BFFAA49CAF8000021F042FFDAF8000017
:1016C00042F2D17106F0C3FDDAF8000042F2D171A6
:1016D00006F0D4FDDAF800004FF0FF3106F07EFD91
:1016E000DAF80000012106F090FDDAF80000092187
:1016F00006F042FEDAF800004FF0011106F02CF877
:10170000DAF80000DFF888A2102105F0EFFD30685C
:10171000934E21F009FF5146306021F011FF3068EF
:1017200042F2D17106F093FD306842F2D17106F0B9
:10173000A5FD3068012106F051FD30684FF0FF3102
:1017400006F063FD3068092106F016FE30684FF0A0
:10175000011106F001F83068102105F0C7FD30686E
:10176000804E962122F0D4FA206823F0B5F8A0210B
:10177000306006F06CFD306842F2D17106F07EFDFB
:1017800030686FF0450106F029FD30680F2106F042
:101790003CFD3068092106F0EFFD3068294623F052
:1017A000A7F83068002240F2F27109F0C1FF3068FA
:1017B0000022FF2109F0CCFF0022494630686A4E22
:1017C00009F0CBFF2068694C21F0AEFE684920602B
:1017D00021F0B6FE206842F2D17106F038FD206893
:1017E00042F2D17106F04AFD20688E2106F0F6FC27
:1017F00020686FF0110106F008FD2068092106F04D
:10180000BBFD20685B4905F0A7FF2068102105F0AB
:101810006DFD2068584C282122F07AFAD8F8000093
:1018200005F058FD4FF49B71206006F010FD206814
:101830003C2106F023FD2068002106F0CFFC206843
:101840006FF0590106F0E1FC2068092106F094FDD3
:101850002068102105F04AFD2068012105F07CFF79
:1018600045F2DF4319462068002209F042FF206854
:101870000022FF2109F04DFF00222068114609F0E7
:1018800052FF4FF480322068002109F04CFF20689D
:1018900023F022F8A021306006F0D9FC306842F233
:1018A000D17106F0EBFC30686FF0450106F096FC54
:1018B00030686FF00C0106F0A8FC3068092106F0D2
:1018C0005BFD3068294623F013F830683946002262
:1018D00009F02EFF30680022FF2109F039FF0022B5
:1018E00049463068254E09F038FF206822F0F4FFA1
:1018F000A021306006F0ABFC306842F2D17106F0F6
:10190000BDFC30686FF0450106F068FC30680A21C4
:1019100006F07BFC3068092106F02EFD3068294670
:1019200022F0E6FF30683946002209F001FF3068F6
:101930000022FF2109F00CFF002249463068104EBA
:10194000DFF8509009F009FF206821F0EDFD08490B
:10195000306021E010BE24082C862308E49A230876
:10196000CC0E0000C80E0000BC0E0000C40E00002B
:101970007419240803000100C00E0000B80E000016
:10198000B40E0000D80E0000D40E0000D00E0000EF
:1019900034EA2308AC0E000021F0D2FD306842F298
:1019A000D17106F054FC306842F2D17106F066FC49
:1019B00030688E2106F012FC30686FF0110106F0DD
:1019C00024FC3068092106F0D7FC3068DB4905F0BB
:1019D000C3FE3068102105F089FC3068D84E2821FC
:1019E00022F096F9206805F075FC2D21306006F094
:1019F0002EFC3068322106F041FC30681C2106F0D4
:101A0000EDFB30684FF0FF3106F0FFFB3068092135
:101A100006F0B2FC3068012105F09EFE306810210E
:101A200005F064FC45F2DF4319463068002209F0F6
:101A300060FE30680022FF2109F06BFE0022114693
:101A4000306809F070FE306821F06EFDBD49C9F8BC
:101A5000000021F075FDD9F8000042F2D17106F0C6
:101A6000F6FBD9F8000042F2D17106F007FCD9F874
:101A70000000012106F0B2FBD9F80000002106F0B9
:101A8000C4FBD9F80000092106F076FCD9F8000063
:101A90004FF0011105F060FED9F80000102105F0AB
:101AA00025FCD9F80000DFF8C892962122F030F921
:101AB000306821F039FDA449C9F8000021F040FD4B
:101AC000D9F8000042F2D17106F0C1FBD9F800004C
:101AD00042F2D17106F0D2FBD9F800004FF0FF318D
:101AE00006F07CFBD9F800004FF0FF3106F08DFBCB
:101AF000D9F80000092106F03FFCD9F800004FF0AA
:101B0000011105F029FED9F80000102105F0EEFBC7
:101B1000D9F80000DFF85C92502122F0F9F8306823
:101B200021F002FD8949C9F8000021F009FDD9F82A
:101B3000000042F2D17106F08AFBD9F8000042F2AF
:101B4000D17106F09BFBD9F80000092106F014FCC6
:101B5000D9F800004FF0011105F0FEFDD9F80000A2
:101B6000DFF81492102105F0C1FB306821F0DCFC95
:101B70007749C9F8000021F0E3FCD9F8000042F2EF
:101B8000D17106F064FBD9F8000042F2D17106F081
:101B900075FBD9F800004FF0FF3106F01FFBD9F8B4
:101BA0000000012106F031FBD9F80000092106F000
:101BB000E3FBD9F800004FF0011105F0CDFDD9F895
:101BC0000000DFF8B891102105F090FB3068614EFD
:101BD00021F0AAFC5146306021F0B2FC306842F29C
:101BE000D17106F034FB306842F2D17106F046FB49
:101BF0003068012106F0F2FA30684FF0FF3106F04C
:101C000004FB3068092106F0B7FB30684FF0011182
:101C100005F0A2FD3068102105F068FB30684E4EDB
:101C2000962122F075F8206822F056FE5A21306085
:101C300006F00DFB306842F2D17106F01FFB3068F0
:101C4000672106F0CBFA3068132106F0DEFA30681F
:101C5000092106F091FB3068294622F049FE3068E0
:101C60005946002209F064FD30680022FF2109F086
:101C70006FFD30680022012109F074FD0022374910
:101C80003068374E09F069FD2068364C22F024FE9A
:101C90004521206006F0DBFA206842F2D17106F09F
:101CA000EDFA2068612106F099FA20686FF00201D0
:101CB00006F0ABFA2068092106F05EFB2068294691
:101CC00022F016FE20683946002209F031FD206816
:101CD0000022FF2109F03CFD20680022022109F0CA
:101CE00041FD002220492068204C09F036FDD8F83B
:101CF000000005F0EFFA4FF49B71206006F0A7FAA0
:101D000020683C2106F0BAFA2068002106F066FA45
:101D100020686FF0180106F078FA2068092106F0B3
:101D20002BFB2068102105F0E1FA40F61F482068DF
:101D3000012105F011FD206822E000BF0300010031
:101D4000B00E000018AF230810BE24082C8623080C
:101D5000E49A23089C0E0000980E0000FC8D2508D4
:101D60008C0E0000940E0000E4252608900E000062
:101D7000A80E0000A40E0000A00E0000CCE725086D
:101D80004146002209F0B5FC20680022FF2109F03D
:101D9000C0FC00222068114609F0C5FC4FF48032D7
:101DA0002068002109F0BFFC206822F095FDA021E9
:101DB000306006F04CFA306842F2D17106F05EFAFB
:101DC00030686FF0450106F009FA30680A2106F024
:101DD0001CFA3068092106F0CFFA3068294622F053
:101DE00087FD3068002240F2F27109F0A1FC3068F2
:101DF0000022FF2109F0ACFC002249463068DA4E8F
:101E000009F0ABFC206822F067FDA021306006F0ED
:101E10001EFA306842F2D17106F030FA30686FF085
:101E2000450106F0DBF930686FF00C0106F0EDF9C2
:101E30003068092106F0A0FA3068294622F058FDE2
:101E400030683946002209F073FC30680022FF2117
:101E500009F07EFC002249463068C44E09F07DFC42
:101E6000206821F061FBC249306021F069FB3068D5
:101E700042F2D17106F0EBF9306842F2D17106F00E
:101E8000FDF930688E2106F0A9F930686FF0110174
:101E900006F0BBF93068092106F06EFA3068B549E2
:101EA00005F05AFC3068102105F020FA3068B24E77
:101EB000282121F02DFF206805F00CFA2D2130603B
:101EC00006F0C5F93068322106F0D8F930681C21D7
:101ED00006F084F930684FF0FF3106F096F930686B
:101EE000092106F049FA3068012105F035FC306817
:101EF000102105F0FBF930684146002209F0F9FB9A
:101F00003068DFF898820022FF2109F002FC0022ED
:101F10001146306809F007FC306821F005FB97494D
:101F2000C8F8000021F00CFBD8F8000042F2D17193
:101F300006F08DF9D8F8000042F2D17106F09EF952
:101F4000D8F80000012106F049F9D8F80000002176
:101F500006F05BF9D8F80000092106F00DFAD8F870
:101F600000004FF0011105F0F7FBD8F80000102138
:101F700005F0BCF9D8F80000DFF82482962121F0A2
:101F8000C7FE306821F0D0FA7D49C8F8000021F082
:101F9000D7FAD8F8000042F2D17106F058F9D8F813
:101FA000000042F2D17106F069F9D8F800004FF054
:101FB000FF3106F013F9D8F800004FF0FF3106F0BA
:101FC00024F9D8F80000092106F0D6F9D8F8000065
:101FD0004FF0011105F0C0FBD8F80000102105F00A
:101FE00085F9D8F80000DFF8BC81502121F090FE7F
:101FF000306821F099FA6349C8F8000021F0A0FA8E
:10200000D8F8000042F2D17106F021F9D8F80000AA
:1020100042F2D17106F032F9D8F80000092106F039
:10202000ABF9D8F800004FF0011105F095FBD8F896
:102030000000DFF87481102105F058F9306821F0B4
:1020400073FA5149C8F8000021F07AFAD8F8000074
:1020500042F2D17106F0FBF8D8F8000042F2D171DB
:1020600006F00CF9D8F800004FF0FF3106F0B6F892
:10207000D8F80000012106F0C8F8D8F800000921BE
:1020800006F07AF9D8F800004FF0011105F064FB72
:10209000D8F80000102105F029F930683B4E21F0F6
:1020A00043FA5146306021F04BFA306842F2D17168
:1020B00006F0CDF8306842F2D17106F0DFF83068F2
:1020C000012106F08BF830684FF0FF3106F09DF8E3
:1020D0003068092106F050F930684FF0011105F021
:1020E0003BFB3068102105F001F93068284E96213D
:1020F00021F00EFE206822F0EFFB5A21306006F03E
:10210000A6F8306842F2D17106F0B8F8306867215D
:1021100006F064F83068132106F077F8306809217A
:1021200006F02AF93068294622F0E2FB3068594669
:10213000002209F0FDFA30680022FF2109F008FBB7
:1021400030680022012109F00DFB0022114930689E
:1021500009F003FB2068104C22F0BEFB45212060F3
:1021600006F075F8206821E0880E0000840E00005B
:102170007419240803000100800E000018AF230822
:1021800010BE24082C862308E49A23086C0E000055
:10219000680E0000FC8D2508640E00007C0E000017
:1021A000780E0000740E0000700E000042F2D17133
:1021B00006F064F82068612106F010F820686FF0DE
:1021C000020106F022F82068092106F0D5F82068FF
:1021D000294622F08DFB20683946002209F0A8FA32
:1021E00020680022FF2109F0B3FA206800220221B2
:1021F00009F0B8FA20680749002209F0AEFA06484B
:102200000649006800231A4601B0BDE8F04F02F00D
:1022100057BD00BFE4252608AC0E0000213220087F
:1022200038B5054602F032FD0446284602F02AFD84
:10223000072C01BF024A137883F00103137038BDE5
:10224000040F000037B51AF09FFD044605201BF06F
:1022500071FB054600201BF06DFB0D4B0093024601
:1022600000232946204614F093FC0146204602F044
:10227000ABFAFEF7CBFF002005F02CF8054B1860F9
:10228000054B186803B0BDE8304002F0FFBB00BF4B
:1022900088B22508600E0000000F000070477047EC
:1022A0007047704708B52BF029F925F071FFBDE89C
:1022B000084026F055BA704708B500F00DF800F058
:1022C00011F8BDE8084000F01BB870477047704730
:1022D000704770477047704701482DF093BD00BFAD
:1022E0000C00000008B5044826F05EFEBDE808407A
:1022F000024826F059BE00BFBA7F2508B57F2508E1
:1023000008B5044826F01EFFBDE80840024826F044
:1023100019BF00BFC27F2508BF7F250808B500F0A0
:1023200081FB00F0E1F800F09BFB00F053FAFAE7C4
:10233000014B01221A707047310F0000014B01223E
:102340001A707047300F000001201AF0C5BD000060
:10235000052838B505460C460AD920484FF4CE71F9
:102360002DF052FE1D484FF4D2712DF04DFE2EE09F
:1023700003280ED9042828D10B2904D9174840F284
:10238000A1112DF041FE240104F1105404F598240C
:102390000EE080B94B2904D910484FF4CF712DF0CD
:1023A00033FE04EB0514240104F18C4404F5981465
:1023B0000023636038BD012801D13B29EBE70228E7
:1023C00001D12B29E7E71B29E5E70529CAD8044BEA
:1023D000A4001A596FF345121A51EBE7C57F25087F
:1023E0001C86042438B50378052B044616D840789B
:1023F000ABB939280ED825786478052D1FD92E4819
:102400004FF412712DF000FE2B484FF414712DF093
:10241000FBFD45E02CF0AEFF0028ECD038BD5A1E85
:10242000012A05D9032B06D0042B06D10B2800E086
:102430000F28E0D9F2E70928FBE70528F9E7032D83
:102440000ED9042D2AD10B2C04D91B4840F24D2162
:102450002DF0DAFD240104F1105404F598240EE067
:1024600095B94B2C04D9144840F24A212DF0CCFDEB
:1024700004EB0514240104F18C4404F598146368FA
:1024800083F001036360C9E7012D01D13B2CE9E72B
:10249000022D01D12B2CE5E71B2CE3E7052CB3D84B
:1024A000064BA4001A591959C2F3401282F00102D6
:1024B00062F345111951B1E7C57F25081C86042434
:1024C000012802D10548FFF78DBF022801D1044839
:1024D000F9E7032801D10348F5E770471E00000023
:1024E0001B000000180000007FB58F4C8F4D904EF0
:1024F0002CF0D6FD62782378A07843EA022343EAE1
:1025000000402CF0F7FF617820788A4CFFF720FF1D
:1025100062782378A07843EA022343EA00402CF053
:10252000E9FF61782078844CFFF712FF6278237806
:10253000A07843EA022343EA00402CF0DBFF6178F5
:1025400020787E4CFFF704FF62782378A07843EA76
:10255000022343EA00402CF0CDFF61782078784CCC
:10256000FFF7F6FE62782378A07843EA022343EA75
:1025700000402CF0BFFF61782078724CFFF7E8FE36
:1025800062782378A07843EA022343EA00402CF0E3
:10259000B1FF61782078FFF7DBFE6A782B78A878A6
:1025A00043EA022343EA00402CF0A4FF664A517834
:1025B0001378907843EA012343EA00402CF09AFF15
:1025C000624A51781378907843EA0123002443EA61
:1025D00000402CF08FFF009433460822012128464A
:1025E0002CF0F4FE009433460822022128462CF0F9
:1025F000EDFE009433460822032128462CF0E6FE27
:10260000534D544A54482346CDE9004441F28831A1
:1026100000F0CAFB77215148286000F0E1FE00F08D
:1026200001FF286801F09AF928684D4D00F040FE3E
:1026300003A800F06BFE23464A4A4B484FF47A71D8
:10264000CDE9004400F0B0FB484801F001FF04F080
:1026500017FE01F0EFF901F043FA454A45482346D9
:10266000CDE90044012100F09FFBFFF7EBFD424B59
:10267000424C1868012104F039FE414B01211868D1
:1026800004F034FE3F4B2146186822F031F93E4BEE
:102690003E49186822F02CF93D4B2946186822F073
:1026A00027F93C4B0121186804F020FE3A4B012128
:1026B000186804F01BFE394B0121186804F016FE5F
:1026C000374B2146186822F013F9364B3649186803
:1026D00022F00EF9354B3649186822F009F9354BCE
:1026E0000121186804F002FE334B0121186804F040
:1026F000FDFD324B0121186804F0F8FD304B2146F6
:10270000186822F0F5F82F4B2F49186822F0F0F8DE
:102710002E4B2946186822F0EBF82D4B0121186842
:1027200004F0E4FD04B070BD2700000015000000B7
:10273000C134200824000000210000001E00000019
:102740001B000000180000000B81250808812508E7
:102750002C0F00003D332008340F00002A00000039
:102760008C80250831332008540F0000D4802508C0
:10277000493320080C0F0000F00E00008881260865
:10278000E00E0000EC0E0000E80E00007980250845
:10279000C80E0000D80E0000C00E0000B00E0000F1
:1027A000940E0000BC0E000091802508B80E0000B9
:1027B000A0802508AC0E0000900E0000800E0000E6
:1027C000640E0000880E0000A48025088C0E000016
:1027D000740E000030B52DED028B8DB01AF088FB21
:1027E0006A4A1368C31A042B02D910601CF010FD4A
:1027F0000024039401F026F8654B1A78002A60D073
:1028000004A920461C7000F069FD04982EF0CAFA55
:10281000604ACDE90001092106A82FF013FD5E4BA7
:1028200006A9186822F064F8DDED047AB3EE0E8A8A
:10283000F4EEC87AF1EE10FA0ADB584D4FF60001BB
:102840002868224608F074FF5549286822F050F89D
:10285000DDED047AF4EEC87AF1EE10FAB3EE048AF4
:102860000FD5F4EEC87AF1EE10FA0ADD4B4C40F2C7
:10287000F2712068002208F05BFF4A49206822F0CC
:1028800037F8DDED047AF4EEC87AF1EE10FA0AD5E5
:10289000424C4FF0FF312068002208F049FF4249C6
:1028A000206822F025F803A800F0D4FE039B3F4ADD
:1028B000092109A82FF0C6FC3D4B09A9186822F090
:1028C00017F83C4B1A78002A3AD03B4C002220469D
:1028D0001A70FFF787FD3948FFF784FD3848FFF786
:1028E00081FD25786478052D0AD936484FF4FD71AD
:1028F0002DF08AFB334840F2FF112DF085FB2BE0D1
:10290000042D21D10B2C04D92E484FF4FE712DF04B
:102910007BFB240104F1105404F5982463682A4ACF
:102920002A4D10682A4CDBB223B32A4921F0E0FF7C
:102930002868012104F010FF2068012104F0D6FC72
:102940000DB0BDEC028B30BD032DD3D8DFE805F010
:10295000020C0E104B2CCDD804EB0514240104F10D
:102960008C4404F59814D9E73B2CF4E72B2CF2E7C0
:102970001B2CF0E7184921F0BBFF2868012104F067
:10298000B5FC2068012104F0E7FED9E7080F00003C
:10299000310F0000B4802508EC0E0000C80E0000C6
:1029A000BD8025088C802508C1802508C6802508A3
:1029B000640E0000300F000027000000240000001B
:1029C00021000000C57F2508B80E0000AC0E0000F5
:1029D0009C0E0000CF802508A08025087047EFF3EB
:1029E000108072B6704710B962B6BFF36F8F704730
:1029F000EFF311800C2383F31188704780F3118863
:102A0000BFF36F8F70477047704708B5FFF74AFCF8
:102A1000FFF752FCFFF759FCFFF758FCBDE80840F0
:102A2000FFF755BC08B5FFF7EEFF25F061FD00F09C
:102A3000F3F8FFF7E9FF00F007F8FFF73CFCBDE80B
:102A40000840FFF7E2BF704708B5FFF727FCFFF724
:102A500026FCFFF725FCFFF724FCFFF7F4FF08BD79
:102A600008B5FFF735FCFFF734FCFFF733FCBDE892
:102A70000840FFF730BC00230B70704730B50E4C98
:102A8000416123688BB9206083600DE0891A9A68E0
:102A900041611D466AB113465A698A42F6D935B179
:102AA000A860521A83605A6130BD0025F4E72060A7
:102AB000F7E798608260F7E7840F000038B52AF0E6
:102AC00099FD094C094B1A6823680025C31A2AB1DD
:102AD00023B15169994203D3C91A5161206038BDAD
:102AE00055615B1A9268F2E7800F0000840F0000C6
:102AF00038B5154D2B682BB35B69A3B1134A146825
:102B000002201C442AF080FD20462AF087FD10494F
:102B10002A6800230B7022B1D08880070AD50123D0
:102B20000B70002038BD02202AF06EFD02202AF032
:102B3000C9FDECE79268002AF3D050690344012BE9
:102B4000EAD9EEE72220EDE7840F0000800F0000B5
:102B50007C0F000070B516469DF814200271049A8F
:102B60000260C0E903360022BDF8183082600446D6
:102B70000D46C380EEB92AF03DFD2844A0619DB109
:102B80002E46FFF72CFF0546FFF798FF31462046FB
:102B9000FFF774FF104B1B68A34201D1FFF7A8FF9A
:102BA0002846FFF720FF02E0E36865617BB900205B
:102BB00070BD2AF01FFD3044A061002DE0D1E36814
:102BC0006561002BDDD0216820469847D9E7216850
:102BD00020469847EBE700BF840F00000D490B68C3
:102BE00098B100229BB1834203D1836822B90B6064
:102BF00003E01A469B68F5E7936083681BB15A6946
:102C000041690A445A61002070472220704702201F
:102C1000704700BF840F000070B5154EFFF7E8FE47
:102C200034780546FCB9134B1C60134B1C60134BE6
:102C30001C602AF09DFC01202AF0E6FC2AF06AFDC7
:102C40000F4B0246186020B92846FFF7D7FE232015
:102C500070BD23460B4840F2E7312EF005FC0A4BCD
:102C60001860012333702846FFF7C8FE0020EFE705
:102C70007D0F0000840F0000800F00008C0F00000B
:102C8000880F000018FCFFFF780F000038B50C46D5
:102C90000546A8B1A1B100230B70FFF7A9FE094BAF
:102CA0001B68012133B9FFF7A9FE002038BD9D4202
:102CB00004D121702278002AF9D0F4E79B68F1E76B
:102CC0002220F3E7840F0000F0B587B01F460023F1
:102CD0000D4616468DF817300446A8B1C3610DF1B4
:102CE0001701FFF7D3FF9DF817207AB9BDF83430EC
:102CF00002939DF830302946CDE9007320463346D3
:102D0000FFF728FF07B0F0BD2220FBE70320F9E71B
:102D100038B5074B1D680446002140F2E7304FF4F8
:102D20007A720023E5FB04012EF09EFB38BD00BF44
:102D3000880F000000B58DB001238DF80F30FFF72C
:102D4000E7FF0023CDE900330146074A0DF10F03E9
:102D500004A8FFF7B9FF18B99DF80F30002BFBD17D
:102D60000DB05DF804FB00BF773A2008F8B50C4BB6
:102D70001B68834205460E460FD30A4B00241F688A
:102D800040F2E73021464FF47A720023E5FB070159
:102D90002EF06AFB30602046F8BD2120FCE700BF22
:102DA000780F0000880F00002DE9F04186B09846AA
:102DB00000230D4617468DF81330064680B30DF1FB
:102DC0001301FFF763FF9DF813305BBB05A928468D
:102DD000FFF7CCFF0446F8B9134B18684FF47A722A
:102DE0000023A5FB00012EF03FFBC2F57A7189B2EA
:102DF000B1F57A7FBDF83430F48308BF0021B18388
:102E0000059A02939DF830301146CDE90083304693
:102E10003B46FFF79FFE0446204606B0BDE8F08122
:102E20002224F9E70224F7E7880F0000C2072DE902
:102E3000F843044607D5444A136801331360FFF78B
:102E40003DFEFFF755FEA3077CD5FFF7D1FD0546F4
:102E5000FFF734FE4FF000083C4F46463C680CB18B
:102E60006369A3B13A4B0022012E1A7003D118F006
:102E7000020F18BF1E70FFF73BFE222802D102206E
:102E80002AF00AFC2846BDE8F843FFF7B7BD234601
:102E90005A693AB91A792179914288BF1C469B68D0
:102EA000002BF5D12846FFF7A9FD2569DDB12AF0F1
:102EB000A1FBA269A0EB02084FEAE873A84573F1F1
:102EC000000311DB23691344A361E36813B1216894
:102ED00020469847B4F80680FFF78AFD013605467C
:102EE000FFF7ECFDBAE7A846FFF782FD81462046D2
:102EF000FFF774FE4846FFF781FD2369002BE4D0FD
:102F0000A38BB5EB080533B1E28B13449BB2B3F549
:102F10007A7F0FD2E383FFF76BFD29468046204678
:102F2000FFF7ACFDA36922691344A3614046FFF794
:102F300065FDCAE7A3F57A73E383A369013B013D0D
:102F4000A361E8E7BDE8F8838C0F0000840F000060
:102F5000740F0000052838B505460C460AD92048EC
:102F60004FF49B712DF050F81D484FF49F712DF0D8
:102F70004BF82EE003280ED9042828D10B2904D9B8
:102F8000174840F23B112DF03FF8240104F1105492
:102F900004F598240EE080B94B2904D910484FF469
:102FA0009C712DF031F804EB0514240104F18C44DC
:102FB00004F598140123636038BD012801D13B2931
:102FC000EBE7022801D12B29E7E71B29E5E70529D3
:102FD000CAD8044BA4001A5942F020021A51EBE758
:102FE000C57F25081C860424052838B505460C46EF
:102FF0000AD920484FF4CE712DF006F81D484FF441
:10300000D2712DF001F82EE003280ED9042828D122
:103010000B2904D9174840F2A1112CF0F5FF240127
:1030200004F1105404F598240EE080B94B2904D91A
:1030300010484FF4CF712CF0E7FF04EB0514240186
:1030400004F18C4404F598140023636038BD012812
:1030500001D13B29EBE7022801D12B29E7E71B2906
:10306000E5E70529CAD8044BA4001A596FF34512A5
:103070001A51EBE7C57F25081C86042473B5FF238E
:103080000546037000204B1C687003D14FF0FF30E1
:1030900002B070BDC1F30716331F012B8DF8060077
:1030A00001F00F0498BF01202DF0F6F98DF80460AF
:1030B0008DF8054001982CF01DFA0028E6D12E70FD
:1030C0006C70E5E741780078FFF744BF41780078FD
:1030D000FFF78ABF13B50368114A1C7800238DF8E7
:1030E00000308DF80230019303691360012B9ABF01
:1030F0000133DBB20423694620468DF801302CF001
:1031000099FC024648B9014620462CF033FD0038B0
:1031100018BF0120404202B010BD4FF0FF30FAE767
:10312000900F0000002303704FF0FF32C36042F2A3
:103130001073C0E9012203827047000010B4031D20
:1031400001F1140251F8044B43F8044B9142F9D1B8
:10315000064B1A68904204D05DF8044B1860FFF7E4
:10316000B9BF4FF0FF305DF8044B7047940F00007B
:10317000064B1A68904218BF1860022902D80161F4
:10318000FFF7A8BF4FF0FF30704700BF940F00005B
:10319000034B81821A68904218BF18600020704764
:1031A000940F0000034B01711A68904218BF186019
:1031B00000207047940F0000F8B503681F780F4B8C
:1031C00016461A68904218BF18600D4B02691B68BA
:1031D0009A4204460D4601D0FFF77CFF2179334621
:1031E0002A4638462CF0E0FC044620B938462CF03C
:1031F000FBFD2046F8BD4FF0FF30FBE7940F0000C9
:10320000900F0000F8B503681F780F4B16461A6838
:10321000904218BF18600D4B02691B689A42044621
:103220000D4601D0FFF756FF217933462A4638462E
:103230002CF02CFD044620B938462CF0D5FD204654
:10324000F8BD4FF0FF30FBE7940F0000900F000037
:1032500030B5044685B0006805780293089B039357
:10326000114B01921A680091944218BF1C600F4BD9
:1032700022691B689A4202D02046FFF72BFF0121EA
:1032800028462CF085FD2279694628462CF08CFDD5
:10329000044628B928462CF0A7FD204605B030BDCD
:1032A0004FF0FF30FAE700BF940F0000900F0000CE
:1032B00010B568B1074C2060074824F0ADFE064900
:1032C000204624F0B2FE003818BF0120000110BDD6
:1032D0002120FCE7A80F0000980F000013B50C4652
:1032E00071B102280CD8014601AB07486A4624F0A8
:1032F000C3FE38B9009B2360019B636002B010BD20
:103300002120FBE70120F9E7A80F000008B50146DE
:1033100030B1044824F018FF003818BF012008BD60
:103320002120FCE7A80F00001FB501220B468DF8F5
:103330000F0000920DF10F010448FFF789FF0028EC
:1033400014BF3120002005B05DF804FBC40F00005D
:103350001FB502220B468DF80F0000920DF10F01F0
:1033600001220548FFF774FF002814BF3120002018
:1033700005B05DF804FB00BFC40F000013B50B8857
:10338000ADF806300C460DF10601FFF7E1FFBDF880
:103390000630238002B010BD07B502228DF804006C
:1033A0008DF80510054801A9FFF706FF002814BF96
:1033B0003120002003B05DF804FB00BFC40F000003
:1033C00013B500230C460DF10601ADF80630FFF7EA
:1033D000BFFFBDF806305BBA238002B010BD00000D
:1033E00010B50F4C86B0206001A82176FFF79AFE39
:1033F00001A92046FFF7A2FE01300ED0217E204613
:10340000FFF7D0FE04992046FFF7B2FE00212046C8
:10341000FFF7BEFE002006B010BD1020FBE700BF86
:10342000C40F0000F7B5784B00270DF10301D02041
:103430001F608DF80370FFF777FF9DF80330602B56
:10344000064640F0DE80B621E020FFF7A5FF0546E6
:103450000220FFF76FFC6D49ADF8067088208DF8EB
:1034600004708DF80570FFF773FF0DF10601044637
:103470008A20FFF76DFF664BBDF806201A800444D2
:103480000DF106018C20FFF763FFE4B2614BBDF83C
:10349000062061491A800444A120FFF745FFE4B2E9
:1034A000044401A9E220FFF73FFFE4B204440DF118
:1034B0000501E1208DF80470FFF736FF9DF8052027
:1034C0009DF8043055491344E4B2554A0444E320BE
:1034D0001380FFF729FFE4B2044401A9E420FFF7B9
:1034E00023FF9DF80430E4B21B0104440DF10501F3
:1034F000E5208DF80430FFF717FF9DF805309DF8A3
:10350000042003F00F031343E4B2464A044401A924
:10351000E6201380FFF708FF9DF80430E4B21B019A
:1035200004440DF10501E5208DF80430FFF7FCFEA1
:103530009DF805309DF804201B098DF80530E4B294
:103540001343394A044401A9E7201380FFF7ECFE36
:10355000E4B2364B9DF8042035491A7004448E209D
:10356000FFF7F6FEE4B2334904449020FFF706FF6C
:10357000E4B2314904449220FFF700FFE4B22F493E
:1035800004449420FFF7FAFEE4B22D490444962047
:10359000FFF7F4FEE4B22B4904449820FFF7EEFE57
:1035A000E4B2294904449A20FFF7E8FEE4B227492F
:1035B00004449C20FFF7E2FEE4B2254904449E2027
:1035C000FFF7DCFE01210746F220FFF7E5FE26218A
:1035D0000544F420FFF7E0FE3544EDB205448021B8
:1035E000F520FFF7D9FEE4B2EDB23C44E4B2284442
:1035F000002C18BF0130C0B2003818BF012003B042
:10360000F0BD0120FBE700BFE00F00000610000046
:10361000041000000210000000100000FC0F000069
:10362000FE0F0000FA0F0000F80F0000F60F000078
:10363000F40F0000F20F0000F00F0000EE0F00008A
:10364000EC0F0000EA0F0000E80F0000E60F00009A
:10365000E40F00002DE9F74F07460DF106014FF08A
:103660000008F7208DF80580FFF7AAFE0DF105018F
:103670000546F920BDF80690FFF756FE674B1B681C
:10368000B3F5FA3E4FEAE37141F1FF310EFB01F36E
:103690000646AEFB0EC000EB4300614BB3F90020C1
:1036A000D41702FB01F30EFB0433A2FB0E242344C8
:1036B0001B034FEA023A43EA12535A4AB2F9004056
:1036C000E21704FB00FB0CFB02BBA4FB0C245C44D4
:1036D000120A42EA046212EB0A0243EB2423524C20
:1036E000B4F800A003F50043A2FB0A240AFB03443C
:1036F000E317621053EA640400F08E809DF80540E1
:1037000044EA0924DFF83491B9F900904FEAE97AE4
:1037100009FB00F00CFB0A00A9FB0CC94844DFF8C8
:103720002091B9F900904FEAE97A09FB01F10EFB0B
:103730000A11A9FB0E9E714449042411C4F580149A
:1037400041EAD9314FEA494919EB0C0904F0004C20
:1037500040EB01014CEA540CE007344CB4F9004052
:1037600018EB0908B0EB080001EBC4016CEB010495
:1037700040F63541A0FB010C01FB04C12DF024FEF5
:103780002B4BB3F900304C13420B864642EAC14240
:1037900003FB04F04FEAE37802FB0800A3FB0238C6
:1037A00040445C4302FB0044A3FB02321444214A20
:1037B000B2F9002002FB01F04FEAE27808FB0E00AC
:1037C000A2FB0E2C5B0E604443EAC413D20C13EB35
:1037D0000E0342EA403241EB64649B18164A44EB04
:1037E000E044B2F90000C1171B0A090143EA04636F
:1037F00041EA10710001C01841EB24214FF4C84286
:1038000000232DF0E1FD3860A819C0B2003818BFC0
:10381000012003B0BDE8F08F0120FAE7E00F0000BF
:10382000F20F0000F00F0000F40F0000EE0F000098
:10383000E40F0000E60F0000E80F0000EA0F0000B0
:10384000EC0F00002621F420FFF7A6BD08B50448C0
:10385000FFF73CFCBDE808400120FFF76BBA00BF52
:103860002110000008B50448FFF72CFCBDE8084013
:103870000120FFF75FBA00BF2110000030B585B00E
:1038800014460D468DF80F00FFF7E0FF2346084869
:10389000009501220DF10F01FFF7DAFC044620B973
:1038A000FFF7E0FF204605B030BD3120FBE700BF49
:1038B00008100000024601212020FFF7DFBF0000B2
:1038C00013B501210DF106020020FFF7D7FF9DF887
:1038D0000630DB0622D5FFF7B9FFF42310488DF838
:1038E000073001220DF10701FFF766FC044610B115
:1038F000312002B010BDFFF7B5FF0120FFF71AFA23
:103900000DF1060201212046FFF7B8FF9DF80630B1
:1039100003F09003902B18BF0220EAE70E20E8E79F
:103920000810000013B5044604F03804FFF78EFFBA
:10393000012309488DF80540022201A98DF80430C1
:10394000FFF73AFC044620B9FFF78CFF204602B08F
:1039500010BD3120FBE700BF0810000010B5214C5E
:1039600086B0206001A8FFF7DDFB5B2301A920469C
:103970008DF804302376FFF7E1FB013003D11024EA
:10398000204606B010BD217E2046FFF70BFC0499AF
:103990002046FFF7EDFB00212046FFF7F9FB2E2123
:1039A00004F11900FFF76AFBFFF750FF6420FFF7EF
:1039B000C1F90DF10300FFF77DFF0028DFD19DF86D
:1039C0000330812BDBD1FFF77BFF04460028D7D1E2
:1039D0001020FFF7A7FF04460028D1D1FFF742FFD0
:1039E000CEE700BF0810000008B119F001BA704717
:1039F00030B50D4B1B7885B00C469BB10B4B1B684B
:103A00005B685D6875B10A4B02930023CDE9002322
:103A10000390B1F90630B1F90420B4F90000B1F90E
:103A20000210A84705B030BD2B00000090740000C4
:103A3000E949200870B500F019FE00F029FE104E8B
:103A4000104D114C114A30604FF4C85328461049AC
:103A500019F0F8F8204619F0D1F833681A885B8815
:103A600063800C4B6361237C228023F0340343F09A
:103A70002403E56023742046BDE8704019F0F0B8D7
:103A80009074000074740000241000007410000092
:103A900074420000F149200838B50E4D2B680C46E1
:103AA000B3B1A9B11B685B6898472B681B689B681A
:103AB000984730B12B6808491B680848DB6898476D
:103AC0000120064BA0731B882380034B1B88638057
:103AD00038BD00BFB87400009474000096740000F4
:103AE00010B500F001FA00F00DFA0A4B186010B1A1
:103AF00003681B689847084C204619F08DF901238C
:103B000023702046054B636019F096F9044B18604A
:103B100010BD00BFB874000098740000994A2008D6
:103B2000BC7400000F2070470F207047034B1A68C9
:103B30001AB100211A68196010477047C474000058
:103B40000378052B17D840781BB9392815D92BF0E5
:103B500011BC5A1E012A05D9032B08D0042B08D00A
:103B6000062800E0102834BF0020212070470A28D2
:103B7000F9E70C28F7E72120704718467047000046
:103B800038B50446FFF7DCFF80BB25786478052D47
:103B90000AD920484FF4CE712CF036FA1D484FF464
:103BA000D2712CF031FA2EE0032D0ED9042D28D13C
:103BB0000B2C04D9174840F2A1112CF025FA24014E
:103BC00004F1105404F598240EE085B94B2C04D967
:103BD00010484FF4CF712CF017FA04EB05142401B0
:103BE00004F18C4404F598140023636038BD012D62
:103BF00001D13B2CEBE7022D01D12B2CE7E71B2C4D
:103C0000E5E7052CCAD8044BA4001A596FF34512F6
:103C10001A51EBE7C57F25081C86042443689B687E
:103C2000B3F5002F07B505D10389ADF8043001A81D
:103C3000FFF7A6FF03B05DF804FB000038B50446AB
:103C4000FFF77EFF80BB25786478052D0AD92048D0
:103C50004FF49B712CF0D8F91D484FF49F712CF054
:103C6000D3F92EE0032D0ED9042D28D10B2C04D925
:103C7000174840F23B112CF0C7F9240104F110540D
:103C800004F598240EE085B94B2C04D910484FF464
:103C90009C712CF0B9F904EB0514240104F18C4457
:103CA00004F598140123636038BD012D01D13B2C2C
:103CB000EBE7022D01D12B2CE7E71B2CE5E7052CC8
:103CC000CAD8044BA4001A5942F020021A51EBE75B
:103CD000C57F25081C860424F7B5134E04460D46FF
:103CE000174630682BF012FEC207FAD46068FFF75F
:103CF00095FF294630683A462BF0D0FD05463068DE
:103D00002BF004FEC307FAD463685A689268B2F5D0
:103D1000002F05D11B89ADF8043001A8FFF78EFFF5
:103D2000284603B0F0BD00BFC07400002DE9F34188
:103D30004368089F5B89ADF80430044601A80D462E
:103D40001646FFF77BFFA7B1D6F800800D4E30680E
:103D50002BF0DCFDC307FAD40B4B60681F60FFF744
:103D60005DFF30684246294602B0BDE8F0412BF0C5
:103D700095BD32682946204602B0BDE8F041FFF704
:103D8000ABBF00BFC0740000C47400007FB51D4607
:103D900043688DF807105B89ADF80C30044603A822
:103DA0001646FFF7EDFE01220DF107012046FFF751
:103DB00093FF60B95DB1636803A85B89ADF80C300F
:103DC000FFF73CFF2A4631462046FFF785FF04B047
:103DD00070BD0000F0B50B688DB005460C4606AE10
:103DE00003F1180718685968324603C20833BB420A
:103DF0001646F7D1636802AE03F1100718685968D8
:103E0000324603C20833BB421646F7D11C4E00208F
:103E100031462BF0D7FC034678BB012024F060FF2D
:103E2000306802A92BF0F2FC034630BB154930681C
:103E30002BF050FD034600BB2BF0CDF80346E0B954
:103E400062689268B2F5002F09D12289ADF804208A
:103E50008DF8060001982BF04DFB034668B9638985
:103E6000ADF8043000238DF8063001982BF042FBAA
:103E7000034610B9044AC5E9002418460DB0F0BD48
:103E8000C07400002D4B20081081250838B131B1D5
:103E9000044B1A685B6802800B8000207047212069
:103EA000704700BFD8740000064BDFED077A93ED32
:103EB000027AB4EEE77AF1EE10FA4CBF012000204E
:103EC000704700BFD87400000000FA43014902485F
:103ED00000F0D4B8D8740000C8740000014800F0A5
:103EE00036B800BFC8740000034B044A1A60044B84
:103EF00001221A7000207047E87400002081250814
:103F0000E4740000034B04481B78002B08BF00201A
:103F1000704700BFE4740000E874000070B501460B
:103F2000012251F8045F13460C4654F8046CB54264
:103F300005DA013B13F0FF0344F80469F5D10132BF
:103F40001BB2D2B2062A40F82350EAD170BD00F06D
:103F50002FBA2DE9F04143680446002186B0084697
:103F60009B6898476368012108469B689847636887
:103F700002205B689847636803205B689847636822
:103F800002201B68984763680320DB6898476D46EA
:103F90002F460026A84663681B6998470136062EFF
:103FA00047F8040BF7D163685B6998472846FFF729
:103FB000B5FF039BB3F5805F03DB282006B0BDE8A7
:103FC000F081C3F580532381636800219B68022040
:103FD0009847636801219B68032098476368002025
:103FE0005B689847636801205B68984763680220B4
:103FF0001B68984763680020DB6898470026636861
:104000001B6998470136062E45F8040BF7D1636803
:104010005B6998474046FFF781FF039BB3F5805FDC
:10402000CBDAC3F580536381636800219B6801206C
:104030009847636801219B680220984763680020C5
:104040005B689847636803205B6898476368002053
:10405000DB68984763681B6998476368A0815B6960
:10406000984763680320DB68984763681B69984733
:104070006368E0815B69984700209FE7F8B50446D4
:104080000D46FFF766FF00284BD1216826890A7D7F
:104090006389002A46D11A463346B1F80AE00F6810
:1040A000B1F80EC09E453ABFA3EB0E039BB20023AE
:1040B0007B438F89944538BFA2EB0C02A7EB0E0718
:1040C000B3FBF7F32B604B6834BF92B2002253432B
:1040D0000A8AA2EB0C02B3FBF2F36B60E38906EEF3
:1040E000903AA38907EE103AF8EE666AB8EEC77AFE
:1040F0000B89C6EE877AB7EE007A77EEC77A07EEBD
:10410000106AB8EEC77A27EE277A07EE903AF8EEF3
:10411000E77A67EE877A9FED047A67EE877AC5EDD6
:10412000027AF8BD3246B8E70000803911B104299F
:1041300000D07047014B01221A707047EC740000E8
:104140002E2358430023984200D1704700BF01330B
:10415000F9E70000034B1A78587842EA00202AF069
:1041600086BA00BF308125080378052B17D8407820
:104170001BB9392815D92BF0FDB85A1E012A05D9CB
:10418000032B08D0042B08D0062800E0102834BFE9
:104190000020212070470A28F9E70C28F7E72120A2
:1041A000704718467047000010B5144BE6B01A78F7
:1041B000002AFCD000221A700DF5CB73104C6293CC
:1041C000104B04F110011B88ADF884314FF4C2721A
:1041D00068462EF08DF994E80F002AF0BFF9BDF87B
:1041E00096311A0546BF23F400639BB243F4006383
:1041F00000280CBF1846002066B010BDEC7400000B
:104200002C0000003081250830B5184C2378E218C6
:10421000E3B082F8540004F110014FF4C272684612
:1042200061932EF065F994E80F002AF0E3F9D0B914
:104230000F4D4FF4C2722B88ADF8843104F1100198
:1042400068462EF055F994E80F002AF041F950B96C
:104250002B786A7843EA022363F30F0063B0BDE86A
:1042600030402AF0F5B963B030BD00BF2C0000002B
:104270003081250808B520B90420FFF7C5FF0020CC
:1042800008BD032801D10A20F7E72120F8E7000044
:1042900073B50D461C46C1B2EBB28DF804108DF813
:1042A00005308DF80620064601988DF800108DF82F
:1042B00001302BF01FF9B0B9684614B3FFF754FF73
:1042C00088B9042E4FEA05140FD036B11B2D04D93E
:1042D0001D484FF49C712BF097FE04F18C4303F5BD
:1042E000981301225A6002B070BD0B2D04D91648F4
:1042F00040F23B112BF088FE04F1105303F5982394
:10430000EFE7FFF731FF0028EDD1042E4FEA051447
:104310000DD036B11B2D04D90B484FF4CF712BF0C3
:1043200073FE04F18C4303F598130022DAE70B2D9A
:1043300004D9054840F2A1112BF066FE04F1105398
:1043400003F59823F1E700BFC57F2508032816D899
:10435000DFE800F002070D110023012208210420EC
:1043600003E0002301220A211846FFF791BF002332
:1043700001223621F8E7012200231146EFE77047BA
:104380000B46032812D8DFE800F002060B0E0022CD
:104390000821042002E000220A211046FFF778BF1E
:1043A00000223621F9E700220121F2E770470000E0
:1043B00010B5104B4360E4B00F4B03600F4B104C33
:1043C0006293104B4FF4C2721B88ADF8843104F134
:1043D000100168462EF08CF894E80F0029F0E6FFF3
:1043E00028B909482AF0ACF808B9084B1870002021
:1043F00064B010BD348125084C8125083333534007
:104400002C000000308125082D512008EC7400009C
:1044100030B4054604481346026854680A46A44668
:10442000294630BC604700BFF074000030B5054637
:10443000064887B003680391002200929C6803AA93
:1044400004232946A04707B030BD00BFF074000028
:1044500038B501461248FFF7BDFC9620FEF76AFC0E
:10446000104B187800B938BD9C1C5B78FF2803F00E
:104470007F055BB211D0002B08DA00221146FFF74E
:10448000C7FF05EB8500FEF755FC04E021462A46F0
:10449000FFF7BEFF2C442346E3E7002BFBDAF0E7EF
:1044A000F0740000648125082DE9F341DFF898805D
:1044B0001C46B8F80030551E0544834207460E4698
:1044C000ADB203D11C4B1B88AB4210D07BBA042287
:1044D000ADF804300DEB02016BBA2A20ADF80630BE
:1044E000FFF796FF28BB144BA8F800701D80134DF2
:1044F0002B88013C3444B342A4B203D1104B1B8837
:10450000A3420FD073BA0422ADF804300DEB0201C0
:1045100063BA2B20ADF80630FFF77AFF48B9084B95
:104520002E801C80074803685C6800231A462C21F3
:10453000A04702B0BDE8F081C4010000C201000044
:10454000C0010000F0740000C60100002DE9F74F23
:104550000C9D0E9E86468C46002D76D0002E74D083
:1045600080B2B0F5A07F70D294B2B4F5A07F6CD2C7
:1045700089B2B1F5F07F68D29FB2B7F5F07F64D20F
:10458000964562DC9C4560DC01340137241A7F1AB1
:10459000BFB2A4B2DFF8C0A0DFF8C080DFF8C0B0BF
:1045A000DFF8C0903B4622467C43FFF77DFF284F53
:1045B000CAF80040274C00233B6023609DF834304C
:1045C00088F800302368DAF800108B4203D30F9884
:1045D000B047002325E0C91AB1F5006F98F8002014
:1045E00028BF4FF400613960FAB905EB4302DFF8E8
:1045F00070C00B4405EB430392F800E050780232A0
:1046000040EA0E209A422CF8020BF5D15846490098
:10461000C9F80000FFF70AFF48B101900F98B047B2
:10462000019B184603B0BDE8F08F2846EFE798F8E5
:1046300000303A682BB1D9F8003003EB4203C9F8D7
:104640000030236813442360BCE72123E9E700BF5F
:104650000485000000850000088500000C8500002E
:10466000FC740000FC84000000207047044B054AE5
:104670001A60054A5A60054B01221A7000207047E3
:10468000108500004001E001CC8125080D85000067
:10469000034B04481B78002B08BF0020704700BF65
:1046A0000D850000108500000022C9B207F064B833
:1046B00009B203F0AABD09B203F090BD38B50546B2
:1046C000006807F071F8044600222721006900F015
:1046D000B9FA60690022282100F0B4FA606928B1B3
:1046E00094F828309B0701D507F031F994F8283069
:1046F000002262F3000384F8283028686261A26116
:10470000602106F0D8FD2069BDE8384004F0A4B867
:1047100070B5044607F048F8054600B306695EB177
:1047200000222521304600F08DFA2B6923B10022AA
:104730002621204600F086FA2C615CB10022272158
:10474000204600F07FFA2B6923B100222821304651
:1047500000F078FA2046BDE8704004F07DB870BDE6
:1047600008B510B918F010FB00B1006908BD08B514
:1047700018F00AFBBDE80840FFF7F2BF38B5054660
:10478000006807F011F80446FFF7F1FF6061286840
:1047900020610022BDE83840262100F053BA08B558
:1047A00010B918F0F1FA00B1406908BD08B510B9A8
:1047B00018F0EAFA00B1C06908BD08B510B918F0E0
:1047C000E3FA00B1006A08BD38B50D46044618B9D1
:1047D00018F0DAFA0446C0B1636AA560032B14D15D
:1047E000E368186807F010F878B9E368586807F0CC
:1047F0000BF850B9E368986807F006F828B9E36841
:104800001868BDE8384008F069B938BD08B508B97E
:1048100018F0BAFA806808BD2DE9F047A2B08846C2
:1048200091461F469DF8A8A0054606F0BDFF044628
:10483000FFF79DFF0646A069C8B1B04217D0FFF749
:1048400067FF0021A06918F087FC00221146A069CB
:1048500003F0F2FC0022A069602106F02CFD94F820
:1048600028309A0702D5304607F071F8A6696069CA
:10487000A56138B194F828309B0703D507F067F895
:1048800000236361A8F10A02042A94F828308CBF3F
:104890000022012262F300036AF3410384F8283006
:1048A0000021284618F058FCFFF761FF002118F09E
:1048B00053FC00221146284603F0BEFCFFF757FFC9
:1048C0000022114603F0B8FC00226021284606F0C1
:1048D000F2FCFFF74CFF0022602106F0ECFC59EAE5
:1048E00007030BD12846FFF713FFBAF1000F36D0AC
:1048F000304622B0BDE8F04707F029B8684618F006
:1049000011FC5D4B02937F425C4B039311A8009511
:10491000CDF82C900C9718F005FC23691193CDE984
:104920001C97B8F10E0F0FD8DFE808F0081C252CF3
:104930003238495B69787F8790999F00504B01938B
:104940000023CDE908330A9300222521304600F0E8
:1049500079F9684618F030FC11A818F02DFC22B047
:10496000BDE8F087464B0193204618F013FACDE9D5
:1049700008000023E7E7424B0193204618F00AFAAB
:104980004042F4E73F4B0193204618F013FAEEE75C
:104990003C4B0193204618F00DFAF1E7384F019790
:1049A000204618F0F7F90025CDE9080020460A95C1
:1049B000129718F0EFF9CDE9195540420FE0304F4A
:1049C0000197204618F0E6F94042CDE9080000259D
:1049D00020460A95129718F0DDF9CDE919551B907C
:1049E000B2E7284F0197204618F0E4F90025CDE9F9
:1049F000080020460A95129718F0DCF9DBE7214FF2
:104A00000197204618F0D6F94042CDE9080000256C
:104A100020460A95129718F0CDF9DEE71A4B01935C
:104A20000023CDE90833FF238DE7174B1293FF23B3
:104A3000CDE9193300231B9386E7114B12932046CF
:104A400018F0A8F90023CDE91933B6E70C4B1293FF
:104A5000204618F09FF90023CDE91933BFE7094B31
:104A60001293204618F0A6F9ECE7064B1293204665
:104A700018F0A0F9EFE700BF7D572008BD562008C9
:104A8000B7562008B1562008A956200807B50023BC
:104A900000931A461946FFF7BFFE03B05DF804FB0A
:104AA00010B50C4610B918F06FF948B1D0F8543170
:104AB000002C0CBF4FF0FF3201221344C0F85431D8
:104AC00010BD08B510B918F05FF928B1D0F854013D
:104AD0000028D4BF0020012008BD50B1837E03F020
:104AE0003F038B4204D9C0680C2303FB01007047CD
:104AF0000020704710B50C4668B94B68186860B163
:104B0000036943B10022E26021469847207EC043FA
:104B100000F0010002E00068F1E7012010BD000094
:104B200070B5044600F0BAFBB8B963680021986814
:104B3000FFF7D3FF0E460546E5B921462846FFF7A5
:104B4000D9FF024698B1636829469868FFF7C5FF08
:104B5000002842D1012A4DD00AE0006883680BB1D9
:104B6000217A9847237E98075DD4D907DDD50022A6
:104B7000104670BD2A683AB96368013698683146B4
:104B8000FFF7ABFF0546D7E795F908102B7A002908
:104B9000F2DA802B04D0217A23F080038B42EBD110
:104BA0006B68E36020469047237E9A073BD4DB077F
:104BB000E2D5DCE790F90810027A002912DB12B185
:104BC000217A91420ED14268E26020469847237EC6
:104BD0009E0728D4D80705D5C9E7012AC8D103689C
:104BE000002BE7D16368013598682946FFF775FF08
:104BF0000028F4D160684368ABB1237E590712D412
:104C0000237A233B012B10D94FF4804102F0BDFBE6
:104C100048B1237A113BDBB21B2B06D8084A22FA93
:104C200003F3DA0701D50122A2E763685B686360DA
:104C30002046FFF775FF431E5A425A4198E700BFCE
:104C4000FF270F0B10B588B0B8B10023CDE90432AF
:104C50009DF81C300A4C8DF80C1023F00703CDE9A9
:104C600001008DF81C3001A8236806932060FFF72F
:104C700057FF069B236008B010BD0120FBE700BF73
:104C8000188500000068704740687047007A00F09F
:104C90007F00704700697047C0687047074B1B680A
:104CA00003B970475A68824202D01A68824203D11F
:104CB0001A7E42F001021A765B69F1E7188500005E
:104CC0002DE9F0470646904699460F4602F08AFDC8
:104CD000D6F808A09AF81A50DAF80C006C1C04F008
:104CE0003F0464F3050504EB44048AF81A50A1005C
:104CF00019F094F9B268CAF80C00D36803B9FEE75A
:104D0000927E6FF00B0102F03F020C2414FB0214A0
:104D100018191F5180F80880C0F80490BDE8F0878A
:104D2000037A013B0F2B94BF006900207047037A80
:104D3000143B052B94BF006900207047027A132AA8
:104D40000B4606D10269B2F900109942B8BF194664
:104D500011807047F8B50746002018F093F8002638
:104D60000446354634B9BDB9C6B93046BDE8F84049
:104D700018F088B8204600F097FA636DBB4205D161
:104D8000022808D02646042808BF2546204618F0E9
:104D900079F80446E6E725462846F8BD3546FBE7A0
:104DA000037F2DE9F047DC0705468846924602D589
:104DB0000020BDE8F087C668BEB137464FF0010954
:104DC00031462846D047B8420446F1D03E46ACB9F9
:104DD0002B7F1907ECD5B9F1000FE9D02846C04761
:104DE000044636B14FF00009F1E71A07F6D48847B8
:104DF0000446002CDCD026464FF00009206802F063
:104E0000D0FA030638D4276837BBEB68A342CFD06B
:104E100073B128461E68FFF79DFF0F2102463046FA
:104E2000FFF710FF0128C3D1EB68186803F014FDE9
:104E3000EC6028462468FFF78DFF0E2102462046CD
:104E4000FFF700FF0128B3D1EB68186803F004FDF9
:104E50002B69A3B90120ACE70121384602F095FA8D
:104E600020B9384606F0BEFC0746CDE7012138469A
:104E700002F08BFA0028C8D037462646A0E728461D
:104E80009847E7E70148202118F01DBF048900007A
:104E9000014B1868704700BF1C85000010B5044620
:104EA000064A0749FFF77CFF63692BB120B920460A
:104EB0000121BDE81040184710BD00BFC7ED210813
:104EC000BBED210810B50749074A0446FFF768FF04
:104ED0006369014623B118B92046BDE81040184760
:104EE00010BD00BFC1ED2108CFED210838B5037F0B
:104EF000C3F3C00543F0080303775B07044606D4F9
:104F0000FFF7CCFF237F65F3C303237738BDFFF79B
:104F1000D9FFF7E770B5064602F04BFA04460028C1
:104F200038D0C368E3B11B68B34219D1037FDA07F5
:104F300044BF6FF30003037718F03FFFE368834239
:104F400029D1204618F03CFFE368984223D1056838
:104F50002046FFF7FFFE0F2102462846FFF772FEAC
:104F6000E36823B11B68B34204BF0023E36020461B
:104F700018F023FF054668B12B68B3422946204646
:104F80000DD118F0DFFE284619F030F8B3680BB1E8
:104F900000229A6070BD2046FFF7A8FFE0E718F0F6
:104FA00012FFE7E770B50C46054698B30846FFF7D1
:104FB000B1FF284618F001FF0146C8B9204602F0AB
:104FC000F8F940B1A3689B6853B1DB681B68A34242
:104FD00006D1FFF78BFFA36813B9204602F002FC4D
:104FE000A36828469D6018F091FE064638B9FEE792
:104FF0000B68A3420ED0284618F0E5FEDCE70460FB
:10500000284618F0DAFE864204D12846BDE87040F2
:10501000FFF76CBF70BD10B1C06800B10068704789
:1050200013B50191FFF7F7FF044610B9012002B054
:1050300010BD802102F0B7F90028F7D101AA0D2197
:105040002046FFF7FFFDF2E738B50346E0B1027FE7
:10505000C2F340048C4217D061F341020277FFF79C
:10506000DAFF044680B1DA6818461568FFF772FE69
:105070000E2102462846FFF7E5FD012804D120460F
:10508000BDE8384003F0E8BB38BDF8B5064670B15E
:1050900002F08FF9044650B1017F11F0010106D1F1
:1050A000FFF7D2FF204618F088FE054600B9F8BD8C
:1050B0002B689E4229D1E36883B11F68BE420DD0A0
:1050C0002046FFF747FE0F2102463846FFF7BAFD9C
:1050D0000128ECD1E368186803F0BEFB2369E560A2
:1050E0000BB120469847E36820461D68FFF732FE63
:1050F0000E2102462846FFF7A5FD0128D7D1E36817
:105100001868BDE8F84003F0A7BB2946204618F010
:105110005AFECAE710B1007FC0F34000704718F094
:1051200059BE00004078830742BF034B00221A603B
:10513000C0F34000704700BF20850000427993070C
:1051400013D5002390F84410036322F00302427148
:10515000C0E90A33054A0364C0E91233C0E90733E2
:1051600063F3030180F8441013607047208500004A
:105170002DE9F3410446406A63781A0711D5454B7F
:1051800003211A68FFF75EFD2046FFF7CBFF0028DA
:105190006CD16378C4E90900C4E9110060F3C3036A
:1051A0006370606A3C4DE66A286000286ED0394F13
:1051B00008213A68FFF746FD2046FFF7B3FF0028B5
:1051C00054D1002E44D0C4E91100606201904FF424
:1051D000807805466D220021304605F05FFC2844AA
:1051E0006C22002187B205B2304605F057FC03B2AD
:1051F000002BB8BFFF331B1213FB08F330460FFA26
:1052000083F806F0EFFA06460028E3D115B9B8F5A1
:10521000807F14D07D422DB24FF4803696FBF8F695
:1052200036B201AB3246294604F11C0018F056FA9A
:1052300001AB3246294604F1200018F04FFA20460F
:1052400001F04AFB204602B0BDE8F041FFF76ABF1B
:10525000637828683A68DB070BD53A682868072125
:10526000FFF7F0FC2046FFF75DFF58B102B0BDE844
:10527000F0810421FFF7E6FC2046FFF753FF0028EA
:10528000EBD0F3E7C4E911006062EFE7002EEDD048
:10529000D5E700BF2485000020850000014B186879
:1052A000704700BF2485000008B103681878704774
:1052B00038B50D46044600283ED0437943F002033A
:1052C0004371214B1B68834202BF204B00221A60AE
:1052D00003681B78013B012B12D821B9416381621D
:1052E0000023E3620CE0436B8B4204BF0023436363
:1052F000836A8B4204BF00238362C36A8B42EFD070
:1053000038BD437943F00203437103681B78013BC6
:10531000012B11D81DB945638562C4620CE0436B53
:10532000AB4204BF00234363836AAB4204BF002344
:105330008362C36AAB42F0D017F0A4FD0028E0D12D
:10534000024B1860DCE700BF2485000020850000C8
:1053500043796FF3000310B54371044617F0C8FD9D
:10536000E06417F0C5FDA06410BD10B90880488046
:10537000704703681B7803F0FD03012B05BFB0F9EC
:1053800008300B804FF6FF73B0F90A001CBF0B808A
:105390004FF0FF30EBE758B103681B7803F0FD03D3
:1053A000012B04D190F8440000F00F00704700205A
:1053B000704740B103681B7803F0FD03012B01D156
:1053C000006B70470020704700230B804B8058B162
:1053D00003681B7803F0FD03012B01BFB0F91830FF
:1053E0000B80B0F91A304B80704718B1437943F005
:1053F0000803437170470000014B1868704700BFF5
:105400002085000073B50E460121044601F0BDFF62
:10541000054610B1002002B070BD306801902A46E8
:10542000012301A9204603F0DCF801A9204603F07E
:1054300038FC2A46064601A904F1140018F006F8C3
:1054400080B1204606F0E0F9451E002D11DBA3686F
:105450001B6801A953F82500FFF7D4FF0028DAD113
:10546000013DF2E74FF40021204601F08EFF0028B5
:10547000E7D1002ECED02046CDE700002DE9F8433D
:1054800004468A4D6378406A28601B0728D4884EFA
:1054900033681B681F6928BB384604F10408FFF70E
:1054A0008CF94146FFF7AEFF286070B93846FFF728
:1054B0007DF94146FFF7A6FF286030B93846FFF76F
:1054C0004FF94146FFF79EFF2860A36A73B100239E
:1054D0002046E36101F000FA2046FFF723FE28B1E1
:1054E000BDE8F883E36A002B00F0D880606A2A6880
:1054F0006368904240F0DE80A389A188E288286832
:10550000C91AE389D21AB4F91C3009B20B4403EB6F
:10551000D3735B10A383B4F91E30A18212B213447B
:1055200003EBD3735B10E383E369E2822362002819
:10553000D6D032680221FFF785FB2046FFF7F2FD47
:105540000028CDD133685B791807C9D4204600F014
:10555000B7FE2046FFF7E6FD0028C1D1E36A002B25
:1055600057D194F84130D90753D4676A002F50D0EF
:105570004FF40041384601F008FF002840F02A812E
:105580003268B4F91480D2F800E0B4F916C09EF87D
:105590001A1088EAE873A3EBE8739BB28B4207D238
:1055A0008CEAEC73A3EBEC739BB2994288BFE06387
:1055B000A18FE38F4144634409B21BB2A187E38703
:1055C00081EAE17C9EF81BE0ACEBE17C1FFA8CFCED
:1055D00083EAE370A0EBE370F44580B201D886451E
:1055E00017D2844540F2FB800029CCBF022301235F
:1055F000B4F840101B0121F4F87143F480730B439D
:10560000A4F840300C213846FFF71CFB2046FFF77A
:1056100089FD2046FFF786FD00287FF461AFE36A2D
:10562000002B7FF45DAF6378DA0720D4606C17F04D
:105630006DFC326813689B8B984210D9286805214D
:10564000FFF700FB2046FFF76DFD00287FF448AF11
:10565000637843F00103637017F04AFCA064E36AC7
:10566000002B7FF43DAF6378DB077FF539AFA06C8B
:1056700017F04CFC32681368DB8B98427FF630AF32
:1056800028680621FFF7DEFA2046FFF74BFD0028C9
:105690007FF426AF17F02CFCA06421E74FF40051F3
:1056A00001F073FE00287FF421AFF5E620850000AD
:1056B00024850000E360002850D12B68C4E9093339
:1056C000002B3FF419AF17F013FC637860646FF39D
:1056D00000036370B4F84030286823F4FF7300229D
:1056E00023F00103C4E90522E263A4F840303268E4
:1056F0000121FFF7A7FA2046FFF714FD00287FF4E9
:10570000EFAED6F8008098F805301F073FF5E8AEF9
:105710002868042101F039FEC8B12868D8F834306F
:10572000834214D001F045FE8146D8F8340008F1D8
:105730000407E8B9B9F1000F2AD02868FFF7A5FCE3
:105740003846FFF7EFFC10B92B68C8F83430204614
:10575000FFF7E8FC00283FF4CFAEC1E63268032132
:10576000FFF770FA2046FFF7DDFC0028A5D0B7E66A
:1057700001F01FFE81450346DCD0D8F8340023BB7E
:10578000C8B92868B9F1000FD7D132680E2106E0F8
:10579000D8F83400326828B9326828680E21FFF73B
:1057A00051FACDE70F21FFF74DFA3846FFF7BAFC63
:1057B0000028F1D0CBE732680F21FFF743FA3846D3
:1057C000FFF7B0FC0028DCD0C1E70028D9D0326850
:1057D0001021F2E7384606F005F80746C6E6002B2A
:1057E000CCBF0823042303E7C0682DE9F04F03680A
:1057F000A64E1C69306085B0002C00F08D80FFF74C
:105800009DFC4379590700F187806369002B40F0C4
:1058100083809F4D3068694617F03EFB30689DF8E5
:105820000F90FFF78BFC00232B609DF80E30037167
:10583000012B036805D11C6917F05AFBC4F8580105
:1058400006E01A78042A03D1BDF90C20002AF2D10F
:10585000346822681378012B49D11069BDF900C062
:105860000168BDF902700B7CA4F814C09A06E782A7
:105870002CD403F03003102B0AD1BDF80030BDF951
:105880000220ADF802304B889B1A013BADF8003086
:1058900017F080FA2368186917F08CFA206D48B168
:1058A0002269009B9A4205D0BDF90220BDF9001083
:1058B00002F0C2FC009BA3602379012B04F10400D9
:1058C00012D1FFF7DBFDA36823611BE00A88A2EB7E
:1058D0000C02013AADF800204A88D21B013AADF81B
:1058E0000220DA06C9D4D3E7FFF742FCEBE7022B2C
:1058F00040F00C819DF80E106379012903F0080235
:105900000DD19AB13068FFF719FCB9F1000F81D1C0
:10591000C6F80090C5F8009005B0BDE8F08F2AB138
:10592000002223F00903A26463712272676D002FC5
:10593000E8D03846FFF76FFB28600028E2D08021CE
:1059400001F031FD019AE368E2609DF80EB094F831
:10595000088084F808B0BBF1010F824664D1B8F129
:10596000000F40D117F0C4FA0199A06409290ED1A3
:1059700038464146FFF768FB3846FFF78FFA201D8F
:10598000FFF7D0FB0028BDD100232B60BAE70B291D
:1059900007D138464146FFF757FB3846FFF792FAE2
:1059A000EDE7BAF1000FEFD10A2904F104043846FB
:1059B0000DD1FFF735FB2046FFF7B4FB0028A1D13E
:1059C000326859462868FFF73DF92046D8E71B2979
:1059D00075D1FFF725FB2046FFF7A4FB002891D1E6
:1059E00032682021EEE70028CED1B8F1010FCBD1EB
:1059F0000A2A2CD06379DB0736D4A06C17F086FA1C
:105A000023689B8B984263792CD943F0010363711F
:105A1000019B0A2BB8D117F06BFA3268E0640521BC
:105A20002868FFF70FF9AAE732680028ACD1BBF16C
:105A3000000FA9D1B8F1010FA6D10A2B019341D0D3
:105A40006379002262F30003A26463719CE7326809
:105A500028680221FFF7F6F8201DFFF763FB0028F6
:105A6000C8D04FE7D8078FD5E06C17F04FFA2368FE
:105A7000DB8B984288D917F03BFA0199E0640A2938
:105A800004F1040406D1326806219BE72485000056
:105A900020850000092907D138460021FFF7D4FAF4
:105AA0003846FFF7FBF990E70B2907D1384600216C
:105AB000FFF7CAFA3846FFF705FA86E73846FFF7D8
:105AC000AFFA82E728680821271DFFF7BBF83846A0
:105AD000FFF728FB00287FF415AF63792868326848
:105AE000D9070AD5326828680721FFF7ABF838468E
:105AF000FFF718FB0028A3D004E70421FFF7A2F862
:105B00003846FFF70FFB0028ECD0FBE6042B40F0F3
:105B1000C5819DF80E206379012A03F008013ED16A
:105B200000297FF4EFAE676D019B94F80880E36075
:105B30002272002F3FF4E6AE3846FFF76CFA286079
:105B400000283FF4DFAE9DF80E3013B10023ADF80E
:105B50000C303846FFF75FFA286000283FF4D2AED9
:105B60009DF80E30012B40F0CD80B8F1000F52D1DE
:105B700017F0BEF90199A0640A2923D1286801F021
:105B8000DEFEA8B13846FFF7C5FA002800F099807C
:105B9000326801212868FFF755F8201D33E00029FD
:105BA000C1D0002123F00903A16463712172BAE717
:105BB0002868102101F0E9FB0028E3D13846FFF7FF
:105BC000A9FAE5E7142905D1BDF80C30013BADF881
:105BD0000C3076E0132903D1BDF80C300133F6E721
:105BE0001B2904F10408384612D1FFF719FA404680
:105BF000FFF798FA00287FF485AE326828682021E4
:105C0000FFF720F84046FFF78DFA002859D079E6D3
:105C1000FFF706FAF6E7B8F1010F52D16379DB0717
:105C20000FD5E06C17F072F92368DB8B984248D9E6
:105C300017F05EF90199E0640A2959D1326806210A
:105C4000A8E7A06C17F062F923689B8B98426379F0
:105C500035D943F00103637117F04AF9019BE06401
:105C60000A2B27D1286801F06AFE90B13846FFF769
:105C700056FA01281ED93846FFF74CFA80F0010188
:105C8000C9B23846FFF7E0F92868202101F074FB1B
:105C900010E02868102101F078FB0028E6D1326876
:105CA00028680521FEF7CEFF201DFFF73BFA0028EC
:105CB0007FF428AE637943F00103637101E0D807F4
:105CC000AFD4BDF90C304FF0000AC5F800A0002B8E
:105CD0003FF418AE3846FFF71DFABDF90C30804688
:105CE000002800F0B280534580F29A80043491E09D
:105CF00014293FF469AF13293FF46EAF3846FFF71C
:105D00008FF94AE7002BDCD1B8F1010FD9D1019B03
:105D10000A2B2DD101F013FE80BB2868102101F061
:105D200034FB58BB32682868082104F10408FEF7E8
:105D300089FF4046FFF7F6F900287FF4E3AD637969
:105D4000D90704D4326828680421FEF77BFF404657
:105D5000FFF7E8F900287FF4D5AD326828680721FD
:105D6000FEF770FF4046FFF7DDF900287FF4CAAD6B
:105D700063790022A26462F300039EE73846FFF7CE
:105D8000C9F9637998B3DA0727D4326828680821FB
:105D900004F10408FEF756FF4046FFF7C3F9002858
:105DA0007FF4B0AD326828680421FEF74BFF40460F
:105DB000FFF7B8F900287FF4A5AD326828680721FD
:105DC000FEF740FF4046FFF7ADF900287FF49AAD9B
:105DD0000A213846FFF724F9C4E73846FFF79FF950
:105DE0000128D2D92868202101F0C6FAC0E7DB07D4
:105DF000BED401213846FFF727F9B9E71421384608
:105E0000FFF70EF92046FFF78DF900287FF47AADF1
:105E10000AF1010ABDF90C305B429A45EEDB71E5EF
:105E20003FF470AD04340BE013213846FFF7F8F867
:105E30002046FFF777F900287FF464AD0AF1010AE4
:105E4000BDF90C309A45EFDB5CE5002B12DA043427
:105E50000AE03846FFF736F82046FFF763F90028D6
:105E60007FF450AD08F10108BDF90C305B42984554
:105E7000EFDB47E53FF446AD04340AE03846FFF770
:105E80000DF82046FFF74EF900287FF43BAD08F1EE
:105E90000108BDF90C309845F0DB33E5032B7FF4A6
:105EA00031ADA36D002B3FF42DAD029A03EB8201BF
:105EB00033F922A09DF80E30B1F90280012B04F1D4
:105EC00004070AD1B4F91030534503D1B4F91230A4
:105ED000434502D03846FFF74BF93846FFF722F921
:105EE00000287FF40FADA4F808A0A4F80A809DF85C
:105EF0000E30012B384608D1FFF7C0FA3846FFF7BD
:105F000011F900283FF4DFACFCE4FFF731F9F5E7C5
:105F10002DE9F0470D462021804616461F4601F028
:105F200034FA002800F0AB809DF82030032B404667
:105F300027D103F053FC8246FFF75EFA12220021BC
:105F40008146404604F0AAFD002104461322404643
:105F500004F0A4FDBAF1020F014669D0BAF1030FB3
:105F600047D0BAF1010F2ED1B8F81430B9F9142086
:105F70001C4424B2002F7FDB002E36DA944234DC3E
:105F800023E003F031FC8246FFF736FA10220021AD
:105F90008146404604F082FD00210446112240461D
:105FA00004F07CFDBAF1020F01465ED0BAF1030F96
:105FB00045D0BAF1010F06D1B8F81630B9F916205C
:105FC0001C4424B2D6E7002F0DDA002D01DA023D81
:105FD0002DB2002DC4BF02352DB22E1EB8BF033620
:105FE00046F38F0602E0002EEFDB2E463046BDE87A
:105FF000F087B8F81830B8F8142001339B1A20B293
:106000001BB21B1A09B25B1A03EBD373224402EBD7
:10601000630214B2B9F81830B9F8142001339B1A8E
:10602000C3F3C03101FA83F302EB630212B2A1E7BA
:10603000B8F81840B9F91820241A24B29AE7B8F829
:106040001A30B8F8162001339B1A20B21BB21B1A63
:1060500009B25B1A03EBD373224402EB630214B25E
:10606000B9F81A30B9F81620D8E7B8F81A40B9F9D3
:106070001A20241A24B27DE79442B6DBA5E7EF424A
:1060800044BF7F423DB2AE42A8BF2E46AEE70000FD
:106090002DE9F04F87B0CDE9041205469B4603F089
:1060A0009DFB064618B9002007B0BDE8F08F12220C
:1060B0000021284604F0F2FC132203B20021074617
:1060C0002846039304F0EAFC03B280462846029374
:1060D00005F09AFB4FF00009019041F6FF74019B17
:1060E000994506D141F6FF739C42DCD0604200B274
:1060F000DAE7AB682B491B6853F829A0504601F03A
:106100004AF928B94FF48051504601F03EF920B9C0
:10611000234609F101091C46E1E7022E20D0032E97
:1061200024D0012EF4D1AB8ABAF914103B4459445F
:10613000049A88B209B291421BB2E9DB059A9142F6
:10614000E6DCC31A1BB283EAE37084EAE471A0EBD5
:10615000E370A1EBE47180B289B28842D8D2D8E76B
:106160002B8BBAF91810A3EB0803E0E7BAF8183044
:10617000BAF81410039A01335B1AC3F3C03000FA63
:1061800083F3288B01EB6301AB8A0130C01A00B2A4
:10619000801A029A801A00EBD0703B4409B203EBDC
:1061A0006003C4E7010004002DE9F04F87B0CDE99A
:1061B000041205469B4603F017FB064618B900205B
:1061C00007B0BDE8F08F10220021284604F066FCDD
:1061D000112203B2002107462846039304F05EFC17
:1061E00003B280462846029305F00EFB4FF00009EB
:1061F000019041F6FF74019B994506D141F6FF736A
:106200009C42DCD0604200B2DAE7AB682B491B68E5
:1062100053F829A0504601F0BEF828B94FF4805138
:10622000504601F0B2F820B9234609F101091C4695
:10623000E1E7022E20D0032E24D0012EF4D1EB8AE8
:10624000BAF916103B445944049A88B209B29142F3
:106250001BB2E9DB059A9142E6DCC31A1BB283EA62
:10626000E37084EAE471A0EBE370A1EBE47180B227
:1062700089B28842D8D2D8E76B8BBAF91A10A3EB4F
:106280000803E0E7BAF81A30BAF81610039A013397
:106290005B1AC3F3C03000FA83F3688B01EB630130
:1062A000EB8A0130C01A00B2801A029A801A00EB01
:1062B000D0703B4409B203EB6003C4E70100040063
:1062C0002DE9F04F43698DB00446002B00F01E828B
:1062D000C56A002D40F08A81FEF7E0FF0368666A18
:1062E0001A7E0592238B0392A28A0495134423837A
:1062F000E28A638B029513446383A846002E00F064
:10630000398100230A93B1464FF4807A9B466D226F
:106310000021484604F0C2FB584483B26C2200219D
:106320000FFA80FB4846069304F0B8FB00B20AFB64
:1063300000F04FEA202A484605F054FA069B8146B1
:106340000028E4D1A2690B92BBF1000F02D1BAF58B
:10635000807F09D059424FF480320AAB09B20BA8B2
:1063600092FBFAF217F0BAF9BDF92C20BDF92E30E4
:10637000002AB8BF5242002BB8BF5B429BB292B218
:106380009A42029B88BF012302934FF01001049BA5
:10639000304698BF0123049300F0F7FFC0B94FF4D3
:1063A0008071304600F0F1FF18B9029B002B40F0DD
:1063B000E1804FF40071304600F0E7FF18B9049B0C
:1063C000002B40F0D780304605F00CFA064695E7E2
:1063D000304603F0FBF9029B10F0010F14BF194681
:1063E000002110F0020F18BF1A46049B099108BF44
:1063F000002210F0040F14BF9A464FF0000A10F06C
:10640000080F304618BF9946089208BF4FF00009A0
:1064100003F0FCF90690304603F0FAF90790304695
:1064200003F048FA8346304603F0ACFA069B09991C
:10643000002BDDE9073201DC002B14DDBAF1000F7F
:1064400004D0BDF92EC0039FBC451EDAB9F1000F80
:1064500009D0059FBDF92EE0C7F1000CE645DCBF71
:1064600035464FF00C08BBF1000F12DC002810DCA1
:106470000699002946DC002B35DC00288FDD002A38
:106480008DD04FF00009CA4669E135464FF00C083F
:10649000E9E721B1BDF92CC0039FBC451BDA4AB125
:1064A000059FBDF92CE0C7F1000CE645DCBF354681
:1064B0004FF00308069F002F32DC002B0FDCBBF1EE
:1064C000000FDADD002800F33D8100293FF467AFBB
:1064D0004FF0000933E135464FF00308EAE7BBF11E
:1064E000000F00F32781002800F3ED81B9F1000FC0
:1064F0003FF455AF059BBDF92E205B429A423FF712
:106500004EAF2CE0002B00F3088100281DDD002A8F
:1065100040F02C81BAF1000F3FF441AF914602E107
:10652000002B00F3F680BBF1000FEEDD4FF0000909
:10653000002800F30B81002900F0F180BDF92C3018
:10654000039A9342C0F2EB8009E0BAF1000F3FF4E6
:1065500026AFBDF92E30039A9342FFF620AF029B7F
:10656000002B94F840300CBF0C22032262F303038B
:1065700084F84030002D00F0C98094F84030E56286
:1065800068F30303002784F84030A7618021284680
:1065900000F0FBFE002840F0EC80B84A41F6FF73A3
:1065A0000093114604F1340016F0C4FEB4F93430FF
:1065B00013B94EF20103A386B4F93830002B00F072
:1065C0006281B4F9363013B94EF20103E386B4F9AF
:1065D0003A3013B941F6FF73638700220921284638
:1065E000FEF730FB6378980700F19080A8464FF4DF
:1065F000807900276D220021404604F04FFA38448C
:106600006C22002186B207B2404604F047FA03B27A
:10661000002BB8BFFF331B1213FB09F340460FFAE0
:1066200083F905F0DFF880460028E3D117B9B9F502
:10663000807F0DD0002371424FF480320B9392FB88
:10664000F9F20BAB12B209B204F1140017F046F8DC
:1066500094F8406006F00F06032E284640F017819C
:1066600003F090F90746284603F024F90096024605
:106670003B46B4F914102846FFF74AFC0746284663
:1066800003F0A4F810F0010600F01681002681073F
:106690005CBF27EAE7773FB210F0040302D1002E77
:1066A00000F30F81020702D426EAE67636B2B4F987
:1066B0001A20B4F93630B1189942BCBF9B1A1EB2E9
:1066C000B4F93A30B1189942C8BF9B1AB4F91820EE
:1066D000C8BF1EB2B4F93430B9189942BCBF9B1A76
:1066E0001FB2B4F93830B9189942C4BF9B1A1FB20F
:1066F00032463946284603F0C3F963789B0705D430
:10670000238B1F44638B27831E4466830DB0BDE833
:10671000F08FBBF1000F3FF70BAF00281DDCBAF183
:10672000000F3FF4E3AEBDF92E30039A9342FFF61B
:10673000DDAE14E7002807DC00293FF4D7AE4FF0A8
:10674000000AFBE64FF000094FF0000A29B1BDF93D
:106750002C3003998B42BFF602AF002ADFD0059B95
:10676000BDF92C205B429A42D9DCF8E64FF00009D3
:10677000F5E7284603F038F8022812D003283CD069
:10678000012850D1E98A013141F6FF723B4609B236
:106790002846FFF709FDEA8AE086013A3B4612B235
:1067A0000BE03B4641F6FF72B5F91A102846FFF799
:1067B000FBFCB5F91A20E0863B4630492846FFF736
:1067C000F3FC6087284603F009F8022831D003283B
:1067D0003CD0012854D1002341F6FF72B5F91410C2
:1067E0002846FFF755FCB5F91420A086002323495D
:1067F0002846FFF74DFC2087D8E66B8BEE8A0133E5
:106800009B1BC3F3C03202FA83F306EB6306B6B2F6
:10681000711C41F6FF723B4609B22846FFF7C4FCE3
:10682000721EE086BAE74EF20103E38641F6FF707E
:10683000C7E7002341F6FF72B5F918102846FFF7A5
:1068400027FCB5F91820A0860023D0E72B8BAE8A51
:1068500001339B1BC3F3C03202FA83F306EB6306DA
:10686000B6B2711C002341F6FF7209B22846FFF749
:106870000FFC721EA086002312B2B8E701E0FFFFF2
:106880004EF20103A38641F6FF73238799E602F0D7
:10689000BDFF0646284602F0BBFF0C2200920346CD
:1068A0003246B4F916102846FFF732FB0646284652
:1068B00002F08CFF0027EAE6002F7FF7E8AE3746AC
:1068C000F0E61E46F3E6002A3FF410AE059BBDF944
:1068D0002C205B422AE700BF2DE9F74FC56A04462A
:1068E000002D00F0C08090F840301B0700F0BB8006
:1068F000FEF7D4FC03688146402128465F7E00F005
:1069000044FD00B9E061284602F068FF8046284651
:1069100002F06AFF94F8406006F00F060C2E8346E2
:1069200076D10022B4F91EA0A283A8BBC7F16407E8
:1069300064230AFB07F7284697FBF3F7E78302F087
:1069400067FF0746284602F061FF00960246B4F949
:106950001E103B462846FFF7DBFA5B460246E08303
:106960005946284603F0C6F8E369002B7BD1284638
:1069700002F04CFF0646284602F04AFF002E00F3C4
:10698000E180002837DD002E35D00123324600217A
:10699000284603F0AFF82EE0FEF780FC03685B7E2C
:1069A00000221646C3F164036421BAF1000F26D118
:1069B000B4F91A20B4F93630A4F81EA0B1189942DF
:1069C000BCBF9B1A1EB2B4F93A30B1189942C4BF89
:1069D0009B1A1EB23346624941F6FF722846FFF702
:1069E000E3FB0644012332B20021284603F082F87B
:1069F000E369002B37D1B8F1000F6AD187E0564424
:106A000036B20AFB03FA9AFBF1FA0FFA8AFACCE7DC
:106A1000032E40F090800022B4F91CA0E283B8F16C
:106A2000000F23D1C7F1640764230AFB07F7284648
:106A300097FBF3F7A78302F03DFF0746284602F0D5
:106A4000A1FF00960346B4F91C103A462846FFF70A
