:10000000010000000D900D9024FE00000100000092
:1000100000102000AC645EF9000000000000000049
:1000200000000000000000000000000000000000D0
:100030000000000000000000000000000D900D9086
:10004000A55A0000002020080000008000000000E9
:1000500000000000000000000000000000000000A0
:100060000000000000000000000000000000000090
:100070000000000000000000000000000000000080
:100080000000000000000000000000000000000070
:10100000D04D000009442008BD432008BD432008FE
:10101000BD432008BD432008BD4320080000000058
:10102000000000000000000000000000BD43200898
:10103000BD43200800000000BD432008BD43200838
:10104000BD432008BD432008BD432008BD43200800
:10105000BD432008BD432008BD432008BD432008F0
:10106000BD432008BD432008510500000D6C200839
:10107000AD4C20089DA32008BD432008BD43200897
:10108000BD432008BD432008F99920089D9A2008F7
:10109000BD4320089199200889832008BD4320087A
:1010A000BD432008BD432008BD432008BD432008A0
:1010B000BD432008BD432008D04D0000BD4320089B
:1010C00009442008A9040000BD432008BD432008AE
:1010D000BD432008BD432008954C2008A14C2008A2
:1010E00039432008BD43200885A3200805DAAF69ED
:1010F000BD432008BD432008BD432008BD43200850
:10110000BD432008BD432008619920087999200833
:10111000A1982008B9982008D1982008E9982008BB
:101120000199200819992008319920084999200827
:10113000BD43200891A32008BD432008BD432008DB
:10114000BD432008BD432008BD432008BD432008FF
:10115000BD432008BD432008BD432008BD432008EF
:10116000BD432008BD432008BD4320080000000007
:10117000000000000000000000000000000000006F
:101180000348044B834202D0034B03B11847704716
:10119000AC0B0000AC0B0000000000000548064B43
:1011A0001B1AD90F01EBA301491002D0034B03B165
:1011B00018477047AC0B0000AC0B000000000000AB
:1011C00010B5064C237843B9FFF7DAFF044B13B18F
:1011D0000448AFF300800123237010BDAC0B000066
:1011E0000000000020FB200808B5054B1BB1054995
:1011F0000548AFF30080BDE80840FFF7CFBF00BF50
:1012000000000000B00B000020FB200810B5074CC8
:10121000074800F055FD204600F0BCFE204600F0D7
:10122000E1FE044B00221A7010BD00BFCC0B000081
:101230000C000000C80B00007FB59E4B1B780C2BE8
:1012400000F2FE81DFE813F00D002D003F00650085
:101250007F00A200B700D000E000FB000C012401D9
:101260005601954800F0BEFE94499348022300229F
:1012700001F050FE924990480C23002201F04AFEF2
:1012800090498D481623002201F044FE8E49202308
:101290000022894801F03EFE04B0BDE8704001F034
:1012A0006DBE854800F09EFE052214234FF6FF7C9C
:1012B0001146CDE9003C8048282301F0ACF9834970
:1012C00023230F22E5E77C4800F08CFE4FF6FF74E5
:1012D000052219231146CDE900347748372301F060
:1012E000CDF922460021744801F041FE07237849D8
:1012F0007148062201F00EFE1223764906226E483E
:1013000001F008FE4FF6FF7211466B4801F02FFE08
:10131000C2E7694800F066FE4FF6FF760A23CDE982
:1013200001362823009305223C230221624801F064
:10133000C8F9694960480E23062201F0EBFD6549B2
:1013400019230622A5E75C4800F04CFE4FF6FF7417
:101350000A23CDE901342823009305223C230221EE
:10136000554801F04FFA22460021534801F0FFFD95
:10137000574951480723062201F0CCFD1223564954
:101380004D48062201F0C6FD1D23B6E74A4800F08D
:1013900029FE05250322CDE9002528234FF6FF74F9
:1013A0000222CDE902344448114601F07FFA4B494C
:1013B0001F230F226DE7404800F014FE28244FF64B
:1013C000FF73CDE90243022203230520CDE900305B
:1013D00011462346384801F092FA3D493648142315
:1013E000224601F097FDE2E7334800F0FBFD4FF69F
:1013F000FF7300931822142320212F4800F0C6FE0B
:10140000374912230F2244E74FF6FF742A4800F0B1
:10141000E9FD1423182220212748009401F0D2F876
:1014200022460021244801F0A2FD294922480C232C
:10143000102201F06FFD2A49172310225FE71E4892
:1014400000F0D0FD0A234FF6FF71CDE901310223F0
:10145000009314220F232821174801F005F81BE7F9
:10146000154800F0BFFD1F49134801F06FFD1E49EC
:1014700011480E23012201F04DFD1C490E481E2388
:10148000012201F047FD00210B4801F05FFD03E759
:10149000094800F0A7FD4FF6FF71074800F0B8FDBE
:1014A0004FF6FF720021044801F061FD1049172337
:1014B000102224E7C80B0000CC0B000048E72008EE
:1014C0004FE7200854E720085DE7200867E7200879
:1014D0006CE7200871E720087BE7200881E72008F7
:1014E0008AE72008BCED200891E7200898E720084B
:1014F0009DE72008534800F075FD17234FF6FF7253
:10150000CDE9013200224023114600934D484E4B55
:1015100001F0BCFA4D494B481E230A2201F0FAFCA7
:1015200001F02CFD4FF4FA7000F084FA01F038FD60
:101530004FF4FA7000F07EFA01F044FD4FF4FA70B7
:1015400000F078FA01F02CFD4FF4FA7000F072FA16
:1015500001F038FD8F24204601F046FD013C0520B6
:1015600000F068FA14F0FF04F5D1E0B201F03CFDA0
:101570000134052000F05EFA8F2CF6D10621002000
:1015800001F044FD4FF47A7000F054FA172501F091
:1015900085FD4FF6FF76402400221146CDE9015625
:1015A000294B0094274801F071FA1E230A2227498B
:1015B000244801F0AFFC01F0E1FC0621002001F01D
:1015C00037FD4FF47A7000F035FA01F067FD002224
:1015D0001146CDE901561C4B00941A4801F056FA09
:1015E0001E230A221949174801F094FC01F0C6FC99
:1015F0000621002001F02EFD4FF47A7000F01AFA57
:1016000001F04CFD00221146CDE901560E4B00942D
:101610000C4801F03BFA1E230A220C49094801F04C
:1016200079FC01F0ABFC0621002001F025FD4FF410
:101630007A7000F0FFF904B0BDE8704001F02EBDF3
:1016400004B070BDCC0B0000AAE72008A2E7200878
:10165000074B1B7883420AD1012908D1054A137828
:101660000B2B9DBF13780133DBB20023137070473F
:1016700062E82008C80B000008B500F052F8FFF738
:10168000C5FD00F06CF8FFF7D7FDFAE7704770472B
:101690007047704708B505F0A5FD01F011FDBDE8E4
:1016A000084001F0F5BF704708B500F00BF8BDE841
:1016B000084000F00DB8704770477047704770479A
:1016C00070477047014807F0CBBD00BF0D00000018
:1016D000014802F0F3BA00BF62E82008EFF310807F
:1016E00072B6704710B962B6BFF36F8F7047EFF3F1
:1016F00011800C2383F31188704780F31188BFF3A6
:101700006F8F70477047704708B5FFF7C3FFFFF74B
:10171000CBFFFFF7D0FFFFF7CFFFBDE80840FFF793
:10172000CCBF08B5FFF7EEFF01F07AFE00F0F4F849
:10173000FFF7E9FF00F007F8FFF7B5FFBDE8084045
:10174000FFF7E2BF704708B5FFF7A0FFFFF79FFF65
:10175000FFF79EFFFFF79DFFFFF7F4FF08BD08B5F9
:10176000FFF7ACFFFFF7ABFFFFF7AAFFBDE80840AC
:10177000FFF7A7BF00230B707047000030B50E4C79
:10178000416123688BB9206083600DE0891A9A68F3
:1017900041611D466AB113465A698A42F6D935B18C
:1017A000A860521A83605A6130BD0025F4E72060BA
:1017B000F7E798608260F7E7F40B000038B505F0B2
:1017C00071FD094C094B1A6823680025C31A2AB118
:1017D00023B15169994203D3C91A5161206038BDC0
:1017E00055615B1A9268F2E7F00B0000F40B000001
:1017F00038B5154D2B682BB35B69A3B1134A146838
:1018000002201C4405F058FD204605F05FFD1049FC
:101810002A6800230B7022B1D08880070AD50123E3
:101820000B70002038BD022005F046FD022005F0B7
:10183000A1FDECE79268002AF3D050690344012B24
:10184000EAD9EEE72220EDE7F40B0000F00B0000F0
:10185000EC0B000070B516469DF814200271049A36
:101860000260C0E903360022BDF8183082600446E9
:101870000D46C380EEB905F015FD2844A0619DB169
:101880002E46FFF72BFF0546FFF798FF314620460F
:10189000FFF774FF104B1B68A34201D1FFF7A8FFAD
:1018A0002846FFF71FFF02E0E36865617BB900206F
:1018B00070BD05F0F7FC3044A061002DE0D1E36875
:1018C0006561002BDDD0216820469847D9E7216863
:1018D00020469847EBE700BFF40B00000D490B686A
:1018E00098B100229BB1834203D1836822B90B6077
:1018F00003E01A469B68F5E7936083681BB15A6959
:1019000041690A445A610020704722207047022032
:10191000704700BFF40B000070B5154EFFF7E7FEEF
:1019200034780546FCB9134B1C60134B1C60134BF9
:101930001C6005F075FC012005F0BEFC05F042FDC1
:101940000F4B0246186020B92846FFF7D6FE232029
:1019500070BD23460B4840F2E73108F05DFF0A4BAB
:101960001860012333702846FFF7C7FE0020EFE719
:10197000ED0B0000F40B0000F00B0000FC0B00006E
:10198000F80B000018FCFFFFE80B000038B50C4610
:101990000546A8B1A1B100230B70FFF7A8FE094BC3
:1019A0001B68012133B9FFF7A8FE002038BD9D4216
:1019B00004D121702278002AF9D0F4E79B68F1E77E
:1019C0002220F3E7F40B0000F0B587B01F46002398
:1019D0000D4616468DF817300446A8B1C3610DF1C7
:1019E0001701FFF7D3FF9DF817207AB9BDF83430FF
:1019F00002939DF830302946CDE9007320463346E6
:101A0000FFF728FF07B0F0BD2220FBE70320F9E72E
:101A100038B5074B1D680446002140F2E7304FF40B
:101A20007A720023E5FB040108F0F6FE38BD00BF22
:101A3000F80B000000B58DB001238DF80F30FFF7D3
:101A4000E7FF0023CDE900330146074A0DF10F03FC
:101A500004A8FFF7B9FF18B99DF80F30002BFBD190
:101A60000DB05DF804FB00BF75272008C2072DE903
:101A7000F843044607D5444A136801331360FFF75F
:101A80009DFEFFF7B5FEA3077CD5FFF730FE0546A8
:101A9000FFF794FE4FF000083C4F46463C680CB1FF
:101AA0006369A3B13A4B0022012E1A7003D118F0DA
:101AB000020F18BF1E70FFF79BFE222802D10220E2
:101AC00005F042FC2846BDE8F843FFF716BE234662
:101AD0005A693AB91A792179914288BF1C469B68A4
:101AE000002BF5D12846FFF708FE2569DDB105F08A
:101AF000D9FBA269A0EB02084FEAE873A84573F18D
:101B0000000311DB23691344A361E36813B1216867
:101B100020469847B4F80680FFF7E9FD01360546F0
:101B2000FFF74CFEBAE7A846FFF7E1FD81462046E5
:101B3000FFF7D4FE4846FFF7E0FD2369002BE4D011
:101B4000A38BB5EB080533B1E28B13449BB2B3F51D
:101B50007A7F0FD2E383FFF7CAFD294680462046ED
:101B6000FFF70CFEA36922691344A3614046FFF707
:101B7000C4FDCAE7A3F57A73E383A369013B013D82
:101B8000A361E8E7BDE8F883FC0B0000F40B00005C
:101B9000E40B000013B50368114A1C7800238DF88C
:101BA00000308DF80230019303691360012B9ABF56
:101BB0000133DBB20423694620468DF8013007F07B
:101BC00015FA024648B90146204607F0AFFA003838
:101BD00018BF0120404202B010BD4FF0FF30FAE7BD
:101BE000000C0000002303704FF0FF32C36042F28C
:101BF0001073C0E9012203827047000010B4031D76
:101C000001F1140251F8044B43F8044B9142F9D10D
:101C1000064B1A68904204D05DF8044B1860FFF739
:101C2000B9BF4FF0FF305DF8044B7047040C000063
:101C3000F8B503681F780F4B16461A68904218BF14
:101C400018600D4B02691B689A4204460D4601D08C
:101C5000FFF7A0FF217933462A46384607F080FA7D
:101C6000044620B9384607F0EDFA2046F8BD4FF09B
:101C7000FF30FBE7040C0000000C000098B501F1F8
:101C8000080323F0070300AFADEB030D6B464C1CBC
:101C900003F8012B0A460146184609F071FD224659
:101CA00069460448FFF7C4FF002814BF3120002014
:101CB000BD4698BD0C0C00000022FFF7DFBF0000FE
:101CC00010B586B0E8B1114C206001A8FFF78AFF7B
:101CD0003D238DF8043001A900232046ADF81430CF
:101CE000FFF78CFF01300ED0094B0A480122192161
:101CF0001A70FFF7E1FF003818BF0120000106B09D
:101D000010BD2120FBE71020F9E700BF0C0C0000FC
:101D1000080C000069E820082DE9F341134F06463E
:101D2000B0254FF0000801210DF107008DF8075094
:101D3000FFF7C2FF022104463846FFF7BDFF4022ED
:101D4000044411463046FFF799FF0135EDB20444D3
:101D5000B62DA04406F14006E5D1B8F1000F0CBF46
:101D60004046312002B0BDE8F08100BF67E820089E
:101D700007B5A72301210DF107008DF80730FFF704
:101D80009BFF03B05DF804FB07B5A62301210DF10D
:101D900007008DF80730FFF78FFF03B05DF804FBF5
:101DA00007B581238DF80500022101A88DF80430C4
:101DB000FFF782FF03B05DF804FB07B52623ADF8FB
:101DC000003000238DF802008DF803308DF80410E8
:101DD0008DF80530082142F6FF736846ADF80630ED
:101DE000FFF76AFF03B05DF804FB07B52723ADF8E2
:101DF000003000238DF802008DF803308DF80410B8
:101E00008DF80530082142F6FF736846ADF80630BC
:101E1000FFF752FF03B05DF804FB00001FB50B4B4A
:101E2000019300238DF808308DF809008DF80A30F1
:101E30008DF80B1042F601730A2101A8ADF80C30A1
:101E4000FFF73AFF05B05DF804FB00BFA30030299F
:101E50001FB50B4B019300238DF808308DF8090056
:101E60008DF80A308DF80B1042F601730A2101A893
:101E7000ADF80C30FFF720FF05B05DF804FB00BFA4
:101E8000A300302A07B52E2301210DF107008DF89C
:101E90000730FFF711FF03B05DF804FB07B55238B8
:101EA0008DF8070001210DF10700FFF705FF03B0D2
:101EB0005DF804FB00290B46B8BFCB1DDB1000EB1F
:101EC0008310074B185C4B4203F0070301F0070136
:101ED00058BF5942084140F3000080B2704700BF2C
:101EE000300C0000074902464FF4C070131E18BFA3
:101EF00001235B4201F8013B431E98B20028F5D153
:101F0000704700BF300C0000002070470148FFF709
:101F100003BF00BF300C000030B500290B46B8BF2E
:101F2000CB1DDB104C4204F007040A4D00EB83107C
:101F300001F0070158BF614201242B5C04FA01F152
:101F400022B10B43DBB22B54002030BD23EA010346
:101F5000F9E700BF300C0000044B054A1A60054A3F
:101F60005A60054B01221A7000207047280C0000AF
:101F70004000300084E82008240C0000034B044893
:101F80001B78002B08BF0020704700BF240C000006
:101F9000280C000038B50446F0B1104DFFF7DCFF07
:101FA0002B6873B12B681A885B88638000204FF020
:101FB000FF33C4E901300A4B60612280E360207482
:101FC00038BDFFF7DBFF436828601B68984700288F
:101FD000E8D04FF40070F3E71020F1E7B00D0000F7
:101FE0000101000108B5094B1B684BB158B15B6892
:101FF0000020DB689847003818BF0120C00108BDE9
:102000004FF40070FBE71020F9E700BFB00D0000AF
:10201000094A126808B50346084642B153B15368ED
:10202000DB689847003818BF0120C00108BD4FF495
:102030000070FBE71020F9E7B00D000038B5054649
:10204000084611461A461C4B1C686CB37DB350EA17
:1020500001032ED4B5F9003083422ADDB5F90230F0
:102060008B4226DDAB7B022B10D0032B17D0012B2C
:1020700004D12388013B5B1A014618B263685B6890
:102080009847003818BF0120C00138BD2588013DA0
:102090002D1A28B26588013D6D1A29B2EEE76588D0
:1020A000013D2D1A0846F8E74FF40070EDE71020C7
:1020B000EBE70420E9E700BFB00D00002DE9F04F89
:1020C0001546314A85B01268BDF83CB01F468046BF
:1020D000BDF938300C46002A51D0002852D0A3EB6D
:1020E0000509A7EB010AB9F1000FB8BFC9F1000952
:1020F000BAF1000FB8BFCAF1000AD14504DD3A4673
:102100002C461F460D461346BC4205DD2A461D4699
:10211000134622463C4617463E1BB2B201925A1B5A
:1021200082EAE271A1EBE271C6F3C03202FA86F6EE
:102130009D42B4BF01234FF0FF3302917610039309
:10214000BC4203DD002005B0BDE8F08FD1455B4601
:10215000C7BF224629462A4621464046FFF76EFF62
:10216000029BF61AB3B236B2002E05DA039A154472
:10217000019A13442DB21EB2013424B2E0E74FF4A9
:102180000070E0E71020DEE7B00D00002DE9F04F11
:102190001E465A4B87B01B68BDF84050044688461F
:1021A0009246002B00F0A480002800F0A480B7B273
:1021B000C7F101031BB20293C7EBC7335B001BB22D
:1021C000049393B217FA82F2019312B22B46FFF7EF
:1021D00035FF019BDA1B12B22B4641462046FFF722
:1021E0002DFF17FA88F12B46524609B21FFA88F9DB
:1021F0002046FFF723FFA9EB07012B46524609B201
:102200002046FFF71BFF00230393039BB34203DB2E
:10221000002007B0BDE8F08F029B002B0ADB049B77
:1022200002331AB20492029A12FA83F3013E1BB2ED
:1022300036B20293039B01331FFA83F81BB2039358
:10224000029B03EB480301331BB20293019B09EB92
:10225000080B0FFA8BFB13FA86F2A9EB080A12B2ED
:102260002B4659460FFA8AFA20460592FFF7E6FEFA
:10227000059A2B4651462046FFF7E0FE019BB7B278
:10228000DA1B12B22B46594620460592FFF7D6FEBE
:10229000059A2B4651462046FFF7D0FE019B09EBDD
:1022A000070A03EB080B0FFA8AFA0FFA8BFBA9EB6C
:1022B00007072B465A4651463FB22046FFF7BEFE5F
:1022C0002B465A4639462046FFF7B8FE019BA3EB42
:1022D00008080FFA88F82B46424651462046FFF779
:1022E000ADFE2B46424639462046FFF7A7FE8CE757
:1022F0004FF400708DE710208BE700BFB00D000099
:102300002DE9F04F87B01C469DF840300293A3B2F0
:102310009046C3F10102C3EBC3335B001BB20493CD
:10232000504BBDF844901B6812B206460192002B38
:1023300000F09280002800F0928000230393029B1B
:1023400003F0040305938DB2039BA34203DB00203B
:1023500007B0BDE8F08F019B002B0ADB049B023322
:102360001AB20492019A12FA83F3013C1BB224B20E
:102370000193039B01339FB21BB20393019B03EBB9
:10238000470301331BB20193059BB3B11FFA84FBD2
:102390001BFA88F2E9194B4612B209B21FFA88FA01
:1023A0003046FFF74BFE0AEB070205EB0B014B46ED
:1023B00012B209B23046FFF741FE029B990716D5CB
:1023C0001FFA88FA1FFA84FBAAEB0B02E9194B46A5
:1023D00012B209B23046FFF731FEAAEB070205EB55
:1023E0000B014B4612B209B23046FFF727FE029BA3
:1023F0001A0716D51FFA84FA17FA88F2A5EB0A0114
:102400004B4612B209B21FFA88FB3046FFF716FEA0
:102410000AEB0B02E91B4B4612B209B23046FFF73A
:102420000DFE029BDB078FD51FFA84FB1FFA88FA8B
:10243000AAEB0702A5EB0B014B4612B209B23046DC
:10244000FFF7FCFDAAEB0B02E91B4B4612B209B2E7
:102450003046FFF7F3FD77E74FF4007078E7102080
:1024600076E700BFB00D00002DE9F04F8BB01C46A1
:10247000BDF858300593A3B2C3F10105C3EBC333D4
:102480005B001BB207934E4B1B6880468A469DF843
:102490005000BDF954102DB2002B00F08B80B8F124
:1024A000000F00F08A808BB2069393B213FA81F189
:1024B0000393049300F00103089300F002031FFA52
:1024C00081FB00270993A74203DB00200BB0BDE886
:1024D000F08F002D5DDB079B02331AB2661E15FAE2
:1024E00083F336B207921DB201371FFA87F905EB65
:1024F00049053FB20135BE422DB22CDB089B9BB192
:10250000039A05980190B1B2521A0698490011FA3F
:1025100082F1014409EB0A0309B21BB2009112B225
:1025200019464046FFF7CAFD099BA3B1039A0598D7
:102530000190B1B2521A0698490011FA82F1014491
:10254000AAEB090909B20FFA89F3009112B21946F0
:102550004046FFF7B3FDA64212D0089B6BB1059A27
:1025600001920AEB04030FFA8BF21BB20092194698
:10257000BDF910204046FFF7A1FD099B5BB9344629
:10258000049B013B9BB204930BF101031FFA83FBF5
:1025900099E72646A8E7059A0192AAEB04030FFAE9
:1025A0008BF21BB200921946BDF910204046FFF78E
:1025B00085FDE4E74FF4007088E7102086E700BF50
:1025C000B00D00002DE9F04385B09A429CB215464B
:1025D000CCBF2C1B6400BDF83080CBBF24B224B22A
:1025E00022460022CDE900481E460B460746894692
:1025F000FFF764FD03230022CDE900320446CDF845
:10260000088033462A4649463846FFF72DFF2043C7
:1026100005B0BDE8F0832DE9F3475D1EBDF82C90B1
:102620000D442DB2CDE900292B46174680468A4637
:10263000FFF744FDBDF92840013C3C4424B22B4641
:1026400022465146CDE9004906464046FFF736FD91
:1026500053463A465146CDE9004906434046FFF706
:102660002DFDCDE9004906432B463A462946404612
:10267000FFF724FD304302B0BDE8F0872DE9F74FA6
:10268000BDF93050BDF834A0013D154481460E46D9
:10269000934698460C4600272DB206EB08039C4251
:1026A00003DB384603B0BDE8F08F23462146CDE971
:1026B000005A5A464846FFF701FD0134074324B249
:1026C000EBE72DE9F04F8BB08846BDF950A0BDF97E
:1026D0005410BDF858709A455546A8BF1D4605EBE5
:1026E000D5756D108D42A8BF0D461FFA85F91FFAEA
:1026F00088F1069119FA88F19C460BB203931FFAF0
:102700008CF304934FEA49039BB20593049B013B6E
:1027100013FA81F3059914465B1ACDE90027039952
:102720001BB2A4B206460993FFF7C8FC621E1FFA4B
:102730008AF312FA8AF2079393B212B2CDE9002714
:10274000039908938346099B3046FFF7B7FC079B24
:102750004C44013B4BEA000A0FFA84FB13FA84F461
:10276000059BE41A24B2CDE9004743465A46414648
:102770003046FFF7A3FC069B049A013B13441FFA63
:1027800083F81BB2CDE900475A4619464AEA000AC7
:102790003046FFF793FC0123039900934AEA000AAD
:1027A0002B465A4601973046FFF7AAFDA8EB0908C9
:1027B0000FFA88F802234AEA000400935A462B468F
:1027C000414601973046FFF79BFD089B0197A3EB1D
:1027D00009090FFA89F9042300934A462B4641461A
:1027E00004433046FFF78CFD08230443009303990C
:1027F00001972B464A463046FFF782FD20430BB037
:10280000BDE8F08F2DE9F04F89B01FFA83FBBDF9C9
:102810004850BDF94C60BDF850A007929D422C462F
:10282000A8BF1C4604EBD4746410B442A8BF34465D
:102830001FFA84F88EB24FEA480905961FFA89F903
:1028400018FA81F636B2ABEB0903CDE9005A3146EE
:102850001BB20746FFF712FF059B079A0690013B44
:10286000013D0BEB0301A5EB09052DB24244A1EBA1
:102870000801012312B20093CDE9015A234609B29F
:1028800038460592FFF7F0FD069B059A43EA000BD8
:1028900002230093CDE9015A234631463846FFF71B
:1028A000E3FD4BEA000009B0BDE8F08F2DE9F04FE1
:1028B00085B00546BDF84470BDF938B0BDF93C900F
:1028C000BDF940A00391CDE900B716469846FFF741
:1028D000F5FB4B465A464146CDE900A7044628463B
:1028E000FFF7ECFBCDE900670443039B52464946E2
:1028F0002846FFF7E3FB204305B0BDE8F08F2DE944
:10290000F04F8DB01446BDF95860BDF86420BDF994
:1029100060700490B4420D460592BDF95C1066DD0E
:10292000BC426CDC2246344616462A461D461346F7
:10293000BC426CD19D42C2BF2A461D4613468D4201
:1029400004DC8B42B8BF0B461BB22946059A04989B
:10295000CDE9164222460DB0BDE8F04FFFF7AEBB01
:10296000099A0A9B9BFBF3F1079B9AFBF3F329441B
:102970002B449344039A09B21BB299429244059A9C
:10298000C8BF0846CDE90082C8BF19464246C8BF45
:1029900003460498FFF792FB08F1010249EA000997
:1029A0000FFA82F860E00B9B089A96FBF3F1029B0A
:1029B00016441944039A079B94FBF3F32B4409B282
:1029C0001BB299421444059AC8BF0846CDE900825B
:1029D000C8BF19464246C8BF03460498FFF76EFBBE
:1029E00008F1010249EA00090FFA82F848E0BE4204
:1029F0009EDD2246344616462A461D46134622468A
:102A0000B7423C4617462A460D4611468ADA9BB223
:102A1000ADB202935B1B1FFA86F81BB2A2B20993F8
:102A2000A8EB02031BB289B20A934B1B1BB20393A0
:102A3000BBB29A1A12B20792029ABE42A3EB0803E3
:102A40001BB218BF08F1FF38A1EB02014FF0000ADA
:102A50000AB20B9318BF0FFA88F3089214BF0693BB
:102A60000696A046D346D146069B98457FF778AF99
:102A7000089BA8EB06065E43039BA8EB04045C439B
:102A8000B84590DD48460DB0BDE8F08F2DE9F04F18
:102A900089B09246BDF94880049318F1070248BFF7
:102AA00008F10E02CDE902010024D210BDF94CB0AC
:102AB000BDF85030019227462646A14639B20AEBAE
:102AC00007028B4512B220DD0499214400250591AF
:102AD00014E0480705BF0598C9107608465CF10761
:102AE0000BD503990298294409B2CDE90623FFF7D3
:102AF000A5FADDE9062349EA0009013529B288452E
:102B0000E7DC019A01371444D8E7484609B0BDE82C
:102B1000F08F00002DE9F04F95B007460392BDF805
:102B200078200592BDF87C200492A34A9DF880602D
:102B300012689DF884508846002A00F052810028CF
:102B400000F052814169002940F0BE80118888451B
:102B500080F24C8152880399914280F2478106228B
:102B600012FB0682002A4FF008047CDD14FB0512DC
:102B7000002A78DDAF2B88BF01334FF0050288BFF4
:102B8000DBB20A928D4ABDF80CB003EB83034FF021
:102B90000009D3184C460E930E9B13F80930079387
:102BA0001FFA89F308931FFA88F3069309FB06F3CB
:102BB00013FA88F31BB2099308230B9333B20C93D7
:102BC0002BB24FF0000A0D93079BDA074FD5012E69
:102BD0001FFA8AF20DD1012D0BD1089B06995918C5
:102BE000059B5A4412B209B23846FFF727FA04434C
:102BF0000CE0059B019315FB02F20D9B00935A44D8
:102C00000C9B099912B23846FFF738FD079B5B0809
:102C100007930B9B013B0AF1010A13F0FF034FFAE4
:102C20008AFA0B93D0D10A9B013B09F1010913F0F9
:102C3000FF034FFA89F90A93AED1DDE904239342E9
:102C400011D0012E31D1012D2FD1069B0192039A73
:102C50000533073212B21BB200921946039A384666
:102C6000FFF72CFA0443204615B0BDE8F08FDDE9EC
:102C700004239342CAD0012E1FFA8AF207D1012DF4
:102C800005D1089B06995A445918049BAAE7049B4E
:102C9000019315FB02F20D9B00935A440C9B09997A
:102CA00012B23846FFF7EAFCA1E70699039A06EB51
:102CB00086031944ED00049B01930095334609B245
:102CC0003846FFF7DBFCCDE70A89486809680D91B3
:102CD0009B1ADBB200EBC30230F8333006939378D3
:102CE0000993D3780E9392F9053092F906200A924F
:102CF00046EA0502012A86BF0A9A089300224FF08D
:102D0000000994BFCDE90722079213FA88F31FFA4E
:102D100088F2CB46CA464C46129213930E9B9A45B4
:102D2000A1D2BDF80C300B93079B039A534413FBBD
:102D300005F313FA82F332B21BB210922AB20C934B
:102D40004FF000084B4611922AE05A1CD2B25B07A2
:102D50000F9207D1069B06990D9A01339BB212F888
:102D600001B006931BF0800F11D0012E28D1012D48
:102D700026D1DDE90A239A18139B524408EB03017C
:102D800012B2059B09B23846FFF758F904434FEADF
:102D90004B0B08F101080F9B5FFA8BFB5FFA88F879
:102DA000099A9045D1D391440AF1010A5FFA89F951
:102DB0005FFA8AFAB2E700BFB00D0000BCE8200855
:102DC000089B0C9A03EB0801129B01FB0631049B44
:102DD0000193119B009309B2109B3846FFF74EFCFC
:102DE000D4E74FF400743EE710243CE708243AE7A8
:102DF000F0B5474A126885B004460B46002A00F039
:102E00008180002800F081804269002A34D10A299B
:102E100008D143890281427B03EBC2036381012015
:102E200005B0F0BD0D29FAD0E17B007B657B71B167
:102E3000B4F90860062111FB0061B4F90060B142E9
:102E4000C1BFB4F90A10228101EBC5026281CDE94C
:102E50000205E2880192A2880092B4F90A20B4F92E
:102E600008102046FFF756FE237B228903EB43031D
:102E700002EB43032381D3E70A2907D1002303810F
:102E8000417B127B438901FB0233C7E70D29C6D082
:102E9000117A8B42C3D3907A9842C0D35568591A9D
:102EA00005EBC105A97859B3E87818B3E07B267B18
:102EB000677B90B195F905000844B4F9081006FB4A
:102EC0000011B4F90000814207DD00202081B4F92F
:102ED0000A10127B02FB07126281CDE90267E288C9
:102EE0000192A2880092B4F90A20B4F90810204691
:102EF000FFF710FE2979227B238901FB0233B9E712
:102F00000846F7E74FF400708AE7102088E700BF13
:102F1000B00D000038B505460B48006870B185B1AA
:102F20002A816B814C1E14F8011F09B9084604E080
:102F30002846FFF75DFF0028F5D038BD4FF400703C
:102F4000FBE71020F9E700BFB00D000068B143694E
:102F500031B113B943890633438141610020704781
:102F6000002BFAD04389063BF6E71020704718B1D2
:102F70008180C280002070471020704708B5074B41
:102F80001B683BB15B681B699847003818BF01207C
:102F9000400108BD4FF40070FBE700BFB00D00001A
:102FA00008B5074B1B683BB15B685B699847003805
:102FB00018BF0120C00108BD4FF40070FBE700BF3F
:102FC000B00D000008B5074B1B683BB15B689B69FF
:102FD0009847003818BF0120C00108BD4FF40070A9
:102FE000FBE700BFB00D000008B5074B1B683BB105
:102FF0005B68DB699847003818BF0120C00108BD35
:103000004FF40070FBE700BFB00D000008B5074BA0
:103010001B683BB15B681B6A9847003818BF0120EA
:10302000C00108BD4FF40070FBE700BFB00D000009
:1030300008B5074B1B683BB15B685B6A9847003873
:1030400018BF0120C00108BD4FF40070FBE700BFAE
:10305000B00D000008B5074B1B683BB15B689B6A6D
:103060009847003818BF0120C00108BD4FF4007018
:10307000FBE700BFB00D000008B5074B1B683BB174
:103080005B68DB6A9847003818BF0120C00108BDA3
:103090004FF40070FBE700BFB00D000008B5074B10
:1030A0001B683BB15B681B6B9847003818BF012059
:1030B000C00108BD4FF40070FBE700BFB00D000079
:1030C00070B5134C134D23685E6C002319462846D7
:1030D0000222B04723681E680023194602222846B0
:1030E000B04723680C4DD3F8C030052098472368BB
:1030F0005E6C0023194628460A22B04723681C68E4
:1031000000232846A4460A22BDE8704019466047BD
:103110000001300000C004240000134630B5114BFC
:1031200093F85830013BDBB2FD2B8FB018D80E4D11
:103130000FCD6C460FC40FCD0FC40FCD0FC495E853
:10314000030084E80300094C6846D4F844370BF0C8
:10315000E7FC04F0ADF9D4F8443700200FB030BDDF
:103160000120FBE700021F0858021F080080052409
:10317000134B0168D3F84437F0B50127013900D269
:10318000F0BDD0F808C04668CCF38455C5EBDC62CE
:10319000346801320023013A0CD203FA05F203EA43
:1031A0000C03C3F3150324EA0202AB40134333605C
:1031B0000830E3E707FA02FE43EA0E03EBE700BF3D
:1031C0000080052408B51848FFF7D2FF1748FFF71D
:1031D000CFFF04F0E5FB04F0F7FB04F001FC04F082
:1031E00013FC04F01DFC1248FFF7C2FF1148FFF763
:1031F000BFFF1148FFF7BCFF1048FFF7B9FF1048A9
:10320000FFF7B6FF0F48FFF7B3FF0F48FFF7B0FF18
:103210000E48FFF7ADFF0E48FFF7AAFFBDE80840D4
:103220000C48FFF7A5BF00BF580B0000BC0A000008
:10323000F8060000C4070000B8070000D807000027
:10324000980600008C06000080060000D4060000EE
:103250001C0700001007000010B5254CFFF7B2FF57
:1032600094F8040600F00100FFF758FF4FF4C02364
:10327000C4F86C34D4F840311E4843F40023C4F839
:103280004031D4F8403143F00103C4F84031D4F860
:10329000403143F00203C4F84031FFF769FF16499B
:1032A0001648D1F8103543F00203C1F810356369B0
:1032B00023F400336361636943F480336361D0F8BE
:1032C0004027D0F87837C2F34342023A23F4F07330
:1032D00043EA4213C0F87837D1F8943443F400231A
:1032E000C1F89434236943F46013236110BD00BF17
:1032F00000800424E408000000A0052400800524C8
:1033000008B550B10748FFF733FF0748FFF730FF14
:103310000648BDE80840FFF72BBF0548FFF728FF28
:103320000448F6E72C090000D4090000C809000091
:10333000A00900004C0900000B48D0F800D05DF84F
:1033400004EB5DF804CB5DF804BB5DF804AB5DF8FD
:10335000049B5DF8048B80BC40BC20BC10BC08BC46
:1033600004BC02BC01BC7047C00D0000114AD2F879
:10337000103623F48073C2F810360F4B596B41F0AE
:1033800001015963596B41F0020159630423C2F8EA
:10339000383482B000238DF807309DF80730092BB0
:1033A00001D902B0704700BF9DF807300133DBB28E
:1033B000F1E700BF0080042400840424FEE7FEE758
:1033C000054B064A06498B4200D3704752F8040B5E
:1033D00043F8040BF7E700BF0C00000044FD200891
:1033E000AC0B0000064B0748DA1C121AC11E22F073
:1033F0000302994288BF0022002108F00EB900BFE5
:10340000CC1D0000AC0B000008B5FFF7D9FFFFF79B
:10341000E9FF00F0B9F8BDE80840FEF72DB900005B
:1034200038B562B6394B3A4A1A603A4B3A4A93F881
:1034300006363A4C3A4D03F00F030F2B15BF394BAC
:103440004FF00063D3F89312D3F837140CBF116018
:103450001160354A0CBFD3F83634D3F8923213607A
:1034600004F0A6F92A4BE363032004F05FFC04F0A8
:10347000A1F92E4BDB694FF08061D3F880304FF01B
:103480008C409847EB69022060F30E33EB61284BC8
:10349000DA696FF30202DA6104F006FA1D4B1A6A68
:1034A000042161F302021A621A6A1207FCD5AB69A1
:1034B000022262F38403AB61AB691B04FCD51D4B94
:1034C0001D4D5A6E6FF341025A665A6E6FF3000239
:1034D0005A66FFF74BFF19490D4B21614FF4FA4033
:1034E000E16117496062002220624FF40040C4E9A4
:1034F0000033C4E90B15C4E90F33A2606261E360D5
:10350000A06263636164A26138BD00BF140E000055
:10351000005A620200800424BC0D0000C40D0000AB
:103520000081042400001F08B80D000000013000D5
:103530000086042400840424002D310100B4C40456
:103540000048E8014FF0E02384B0D3F8402F019207
:10355000D3F8442F02920199094A91420DD1029960
:10356000084A914209D1D3F8882D0392039A42F474
:1035700070020392039AC3F8882D04B0704700BF0D
:10358000210011101100001113B5002300930193C5
:103590002F4BD3F810250092009A00922D4A116803
:1035A00021F00F01116011681160D3F89C1421F40F
:1035B0006071C3F89C14D3F8041701910199C3F802
:1035C0000415D3F8001701910199C3F80015D3F839
:1035D000101541F01C01C3F81015D2F8024014F484
:1035E0008074FAD11C48436943F4803343614369D2
:1035F00064F351434361FFF7A5FF184B4FF080720E
:103600005A60174BC0F84031164B5A6864F3C30236
:103610005A60036A0E4A43F480330362036A43F438
:1036200000330362D2F8943443F40023C2F8943494
:10363000036943F4601303610B4B1A6842F40022E0
:103640001A601A6842F480221A6002B010BD00BFEE
:1036500000A005240000052400800424000030415F
:1036600003000800008104240084042420F040406A
:10367000012802D0022805D07047034A136801339D
:1036800013607047014AF9E71C0E0000180E000095
:1036900010B50F4CE3689847A3680E489847236914
:1036A00002209847A46A01211520A0470121162075
:1036B000A0474FF4E1310120A047074B4FF480525F
:1036C000C3F88020BFF34F8FBFF36F8F10BD00BFD3
:1036D00044F520086D46200800E100E013B5094CD0
:1036E00000238DF804302360074B01219B6901A85A
:1036F000984723681BB19DF8040002B010BD00F08C
:10370000DBFAF6E7180E000044F5200813B5094C63
:103710008DF8070000232360074B01215B690DF141
:103720000700984723680BB102B010BD00F0C4FA3F
:10373000F8E700BF1C0E000044F5200803681B7862
:103740000022202B04D0093B042B01D9D0B27047B2
:103750000368591C01605B780132F2E70120704771
:1037600008B507F0ADFF162303604FF0FF3008BD2A
:1037700008B507F0A5FF16230360FEE770B50D46F8
:1037800014460E46731B9C4201DC204670BD16F8A1
:10379000010BFFF7BBFFF5E74FF0FF3070474FF429
:1037A00000534B6000207047012070470020704795
:1037B0000FB42DE9F0438BB012AB002453F8046B27
:1037C000019304AD8DF81040A846FFF787FF0D2840
:1037D00005F8010B04D00A2802D00134142CF4D1CE
:1037E0009E4B019FE34004F1280213F001030DEB0F
:1037F00002041ABF002304F8183C04F8173C9DF893
:103800001030CDE90268002B00F04E810025029BAC
:103810001B78002B4DD0DDF80C9099F80060002E3D
:1038200047D002A8FFF78AFF044618B103A8FFF7A4
:1038300085FFECE7029A1346517813F8010B0293C7
:10384000252801D1252907D18E4232D109F1010362
:10385000023203930292DAE726462046A0461A78FF
:1038600006F07C01002A7CD100B1029309B3002C40
:1038700008BF6324082900F08780202900F0AA806F
:10388000042916D157F8042B4946144400200E7819
:103890000B460131002E6AD100286FD1B7E7692AA3
:1038A00050D01ED8632A52D011D8392A07D82F2ACF
:1038B00034D8E8B20BB0BDE8F04304B07047582AE2
:1038C000F7D146F0200601334FF0100832E0642AA9
:1038D000EFD146F4005646F0200601334FF00A08B7
:1038E00028E06F3AD1B20929E3D8092AE1D801A129
:1038F00051F822F039492008B3482008B34820087D
:10390000B34820085D492008B3482008D74820085C
:10391000B3482008B3482008C3482008002CC8D169
:103920000A211A78303A01FB042413F8012F303AA7
:10393000092AF6D9012092E746F0200601334FF01C
:103940000808F7E746F0200601338846F2E7012C25
:1039500046F0040638BF01240133EBE746F00806C1
:10396000FAE700299BD0002881D002937FE702F874
:10397000016BA2424FF0010089D10B469945039398
:103980003FF445AF013542E703A8FFF7D7FE039E9A
:1039900057F8043B314603EB040C00200C4611F8A9
:1039A000012B12B960B103940AE00D2A0FD8082A3E
:1039B000F8D803F8012B63454FF00100EED10391D5
:1039C000039A96423FF423AF00221A70DAE7202AC6
:1039D000EFD1E7E703A8FFF7B1FE039BB8F1000FB3
:1039E00010D0B8F1100F17D11A78302A14D15A78A4
:1039F00002F0DF02582A0FD102330393023C4FF04A
:103A0000100809E01A78302A16D15A7802F0DF023D
:103A1000582AF1D04FF00808039B1A782B2A0ED0B1
:103A20002D2A0FD101330393013C4FF0FF31039A4C
:103A300000201444844616E04FF00A08ECE70133F6
:103A40000393013C0121F2E7A9F14103052B02D9BF
:103A500020B3039222E0A9F1370317E00100100020
:103A60000CFB083C012092F800909646B9F1000F3B
:103A7000EED0A242ECD0A9F13003DBB2092B06D97B
:103A8000A9F16103052BDFD8A9F15703DBB29845F3
:103A900002F10102E4D808B1CDF80CE057F8043B7C
:103AA0000CFB01F119606DE74FF0FF3501E700BF36
:103AB000064B1868002382B262F30F03000C60F318
:103AC0001F4382B0184602B0704700BFB8F5200807
:103AD000014B1868704700BF30000000014803F038
:103AE00035BA00BF30000000014903F0EFB900BF54
:103AF00030000000014803F0C7B900BF30000000EB
:103B000037B504460B200D4600F0B8FA064B1B688B
:103B10000193064B00930246054B2946204602F0CE
:103B200075FF03B030BD00BF081200001800000090
:103B300030000000014802F065BF00BF3000000007
:103B4000014802F05CBF00BF300000007FB5104BA1
:103B5000D3E90354B2F5806F2E883ABF02F1FF33E8
:103B6000C3F3090340F2FF3363F30D162E8025885B
:103B700063F30D15074B25801B680293064B0193D9
:103B8000064B0093024B02F001FF04B070BD00BF72
:103B90003000000008120000200E00001800000095
:103BA0000D4B1A69B1F5806F13B538BF01F1FF33C2
:103BB000148834BFC3F3090340F2FF3363F30D14D9
:103BC000064B14801B680193054B0093024A054B7A
:103BD00002F03EFE02B010BD3000000008120000EE
:103BE000200E0000180000000D4BDA68B1F5806F60
:103BF00013B538BF01F1FF33148834BFC3F3090391
:103C000040F2FF3363F30D14064B14801B680193DD
:103C1000054B0093024A054B02F06CFD02B010BD4B
:103C20003000000008120000200E00001800000004
:103C3000024B034A1B68034902F0B4BC081200009F
:103C40001800000030000000034B044904484FF402
:103C500000129A6402F056BC00840424180000008C
:103C60003000000007B5064B0193064B0093064A4F
:103C7000064B074902F0B6FB03B05DF804FB00BF3A
:103C8000901100000812000018000000001C06241B
:103C900030000000014802F07DBA00BFB80000000B
:103CA000014802F077BA00BF74000000014802F03A
:103CB00071BA00BF30000000FFF7F8BF7FB50126E2
:103CC000427803788DF80C208DF80D308DF80E6059
:103CD000044603988DF808208DF8093004F0BCFFE5
:103CE000284D286070B96378052B0DD12178264BBB
:103CF000264A43F82140207904F0BAFDA378244AEB
:103D00000121D15404B070BD042B1FD1304604F002
:103D100086FD034628600028F4D11E4A114652F859
:103D2000040B68B95BB2D8B2002341F8204000937D
:103D30002279194B1949415C02A804F0F9FEDDE72C
:103D40000133082BEBD14FF0FF33ECE704F067FDB4
:103D5000034628600028D5D1114A104652F8041BAA
:103D600049B95BB2D9B2002340F8214000932279CF
:103D70000C4B0D48DFE70133082BEFD14FF0FF3339
:103D8000F0E700BFF41200009C120000494E20082A
:103D9000F0120000B0120000394E2008FC000000B4
:103DA000D0120000294E20080401000010B504467E
:103DB00029B1042912D0BDE8104005F0E3BE4B281C
:103DC00004D90D4840F2DB1105F046FB240104F153
:103DD0008C4404F598146068C0B210BD0B2804D957
:103DE00005484FF4EF7105F037FB240104F110543E
:103DF00004F59824EFE700BFBCF5200810B5044691
:103E000041780078FFF7D2FFA378064AD35C40B22E
:103E1000984218BF0121207808BF0021FDF718FC47
:103E200010BD00BFF0120000024B53F82000FFF756
:103E3000E5BF00BFD0120000024B53F82000FFF78F
:103E4000DDBF00BFB0120000024B53F82000FFF7A7
:103E5000D5BF00BF9C120000354BDFED366AD3F8AA
:103E6000102242F04002C3F8102207EE900AD3F865
:103E70001022F4EEE67A42F01002F1EE10FA07EEAC
:103E8000101A82B0C3F8102206DCF0EE086AB4EE15
:103E9000E67AF1EE10FA08D5D3F8102242F02002AB
:103EA000C3F81022002002B070479FED237AF4EE91
:103EB000C77AF1EE10FA10D5D3F810226FF303028F
:103EC000C3F81022D3F810226FF38612C3F8102221
:103ED000D3F810226FF30412E2E777EEC77ADFED32
:103EE000176A134A87EEA67AF7EE007A77EE277AFA
:103EF000FCEEE77ACDED017A9DF80430F6EE007A1B
:103F000077EE277A07EE103AB8EE477AB4EEE77A02
:103F1000F1EE10FAC2BFFCEEE77ACDED017A9DF822
:103F20000430D2F8101263F30301C2F81012B9E79B
:103F30000038042433333340CDCCCC3F0AD7A33DE3
:103F40000A4B9A6C013A052A0ED8DFE802F0030505
:103F50000705090B586C7047D86A7047D86B7047D3
:103F6000186B7047586B704700207047C40D0000F5
:103F700006281DD8DFE800F0040A0D1013161900FA
:103F80000C4B586809B1B0FBF1F07047094B186A47
:103F9000F8E7084B586AF5E7064B986AF2E7054BD5
:103FA000D86AEFE7034B186BECE7024BD868E9E7F8
:103FB0000020E7E7C40D000010B5032814D8DFE89F
:103FC00000F0020A0D100F48C06A7AB1A3B981B19E
:103FD000B0FBF1F00DE00B48C069F6E70948406915
:103FE000F3E708488068F0E70020EEE723B909B955
:103FF000400810BD4900EBE7CB07FAD50229F8D9F4
:10400000E6E700BFC40D0000F8B50C4615460428CD
:1040100028D8DFE800F003211B1E2400FFF790FFE3
:1040200015B394B106F0C4F8064620460F4606F0D4
:10403000BFF8104B002205F07FFF02460B463046CA
:10404000394606F059FA06F0C7FBF8BD0A4BD869A5
:10405000E6E7094B5869E3E7074B9868E0E7064B4A
:10406000D868DDE70020DBE7002CEED0B0FBF4F0F1
:10407000EBE700BF0000E03FC40D000010B50E28C4
:1040800000F28F81DFE810F00F001E002D005300BA
:10409000720084009600B300CA00DD00E700090149
:1040A0003201600182014FF08C43BDE81040D869B5
:1040B000D969DA69C1F3C301C2F3407200F00700A5
:1040C000FFF7A2BF4FF08C43BDE81040D869D96913
:1040D000DA69C1F38321C2F38072C0F3C210FFF723
:1040E00093BF4FF08C4293699469C3F3C233C4F316
:1040F000C324052B19D8DFE803F003090C0F1215B0
:10410000FFF71EFF0CB1B0FBF4F010BD8C4B9868AC
:10411000F8E78B4B1869F5E7894B5869F2E7884B4C
:10412000D869EFE7864BD868ECE70020EAE74FF064
:104130008C42936A946AC3F34243C4F30554032B3D
:1041400012D8DFE803F002080B0EFFF7F9FE002C8F
:10415000DBD06400D7E77A4B5869F8E7784B98686A
:10416000F5E7774BD868F2E70020F0E74FF08C4393
:10417000BDE81040986999699A69DB69C2F34022E9
:10418000C3F30073C1F3C50100F00700FFF714BFCC
:104190004FF08C43BDE81040D86F99699A69DB698C
:1041A000C2F34022C3F30073C1F3C501C0F3422040
:1041B000FFF702BF4FF08C439B69C3F30263042BEC
:1041C00000F2EF80DFE803F003060A0D10005C4BFD
:1041D000D8689AE7BDE81040FFF7B2BE584B986820
:1041E00093E7574BD86990E7554B58698DE74FF0E7
:1041F0008C4291699369926911F4802F5049C2F3FE
:10420000C0520CBF48698868C3F3C3431AB1002B7E
:104210003FF47BAF12E083B9400876E74FF08C4360
:104220009A6A9B6A12F4806F454A0CBF9069D06805
:10423000C3F3C523002B3FF468AF5B00B0FBF3F082
:1042400063E7404B98699969BDE81040C1F3464166
:10425000000FFFF78DBE3B4BDA69DB69C2F3430207
:10426000C3F34713052A16D8DFE802F00306090C4A
:104270000F12334A5068DDE7314A106ADAE7304AF4
:10428000506AD7E72E4A906AD4E72D4AD06AD1E720
:104290002B4A106BCEE70020CCE72A4B1A6A1B6A28
:1042A000C2F34302C3F34213072A1DD8DFE802F02A
:1042B00004070A0D10131619214A5068A7E7204A6F
:1042C000106AA4E71E4A506AA1E71D4A906A9EE759
:1042D0001B4AD06A9BE71A4A106B98E7184AD068C5
:1042E00095E7174A506B92E7002090E7154B1B6B40
:1042F000C3F34303062B54D801A252F823F000BFA6
:104300001D53200823532008295320082F53200829
:10431000355320083B532008CF512008084B5868DC
:10432000F3E6074B186AF0E6054B586AEDE6044BD6
:10433000986AEAE6024BD86AE7E6014B186BE4E6B6
:10434000C40D000000140424174B5B6BC3F343033C
:10435000082B26D801A252F823F000BF1D532008D5
:1043600023532008295320082F53200835532008B1
:104370003B532008CF512008815320088753200841
:104380000A4B586BC1E6094B9869BEE6064BD86AE2
:10439000D96ABDE81040C1F34711C0F34300FFF7ED
:1043A000E7BD0020B1E600BF00140424C40D0000E6
:1043B000024B1B68D3F8BC30184700BF0001300027
:1043C000024B1B68D3F8CC30184700BF0001300007
:1043D000024B1B68D3F8EC30184700BF00013000D7
:1043E000024B01219B69C0B2184700BF181300009F
:1043F000FFF7F6BF1346054A126810B4546C0A461C
:10440000A44600215DF8044B604700BF0001300066
:1044100010B54FF4006003F007FA094C094B4FF058
:1044200000725A6422782AB9074B08481B6A012196
:104430009B6A9847237843F00103237010BD00BFA7
:1044400068160000008404240001300000140424D5
:1044500082B0ADF804000A4B4FF400621A609DF878
:104460000420084B2AB9D3F8082242F40062C3F8AA
:1044700008225A68002042F001025A6002B07047D8
:1044800000E100E0003804242DE9F04F224B2348DE
:1044900093F81CE0224B1A7800231C4602F598750D
:1044A000D9B28E450CD8DFF880800023A8F51079AA
:1044B00002F5907CDAB2964509D80020BDE8F08F6D
:1044C00030F815108C4238BF0C460133E8E743B989
:1044D00029F81C300133EDE7B5F820B0594489B212
:1044E0000AE000271FFA83FABEB2B442F2D90022D2
:1044F0000C4D104635F8021F8C4203D9B142EBD166
:10450000013080B2013292B25245F3D30137002814
:10451000EAD128F81360DDE7181300003813000013
:10452000141300007615000078150000012800D152
:104530007047C30701D44008F8E7002070470346DE
:104540000120834208DC00EBD072A3EB6203B3EBE3
:10455000A00FB8BF400870474000F2E784B02DE9D3
:10456000F7430AAC84E80F000023ADF806309DF84D
:10457000BC514D4B9DF8BD8159885A68B2FBF1F290
:1045800015B9B8F1010F2DD14849012508880B88CC
:10459000474C80B29BB20AAE03F5987306EB8000DD
:1045A0004069B2FBF0F224F813200B889BB203F5AC
:1045B000987334F81330012B06D80B889BB203F59F
:1045C0009873022224F813203A4E0DF1380900277F
:1045D000F7EE006AFBB2984507D803B0BDE8F04398
:1045E00004B070470DF10601D0E73FB1D9E90032C0
:1045F000B3FBF2F2338813FB02F37380B8F1010FBF
:1046000008D072881046FFF791FF18B91046FFF7DF
:1046100096FF70808DB10B880AAA9BB202EB430310
:10462000B3F8F430012B08D10B889BB203F59873D3
:1046300034F81320920824F81320DFED1F7A0023AA
:10464000B8B29842ADF8063009D2F4EEE67AF1EE4F
:1046500010FA26DC0137023609F10409BAE70A88A4
:1046600092B202F59872013334F8122007EE102A44
:10467000B8EE477A9BB286EE876A77EE867AE0E7F5
:104680000A8892B202F59872013334F812C04FEAE8
:104690004C0C24F812C09BB28342ADF80630EFD91F
:1046A000D8E70023F8E700BF181300001413000038
:1046B00038130000961500000000000007EE100AF5
:1046C000DFED087A084837EE277AF7EE006AC6EE83
:1046D000877AFCEEE77A17EE903A834228BF0346CA
:1046E0001846704795BFD633404B4C0084B0F0B5A8
:1046F00006AC84E80E00DFED957A002123AC0DF1C5
:104700006B050A460B46CEB2B04200F2B080002BD9
:1047100000F0A480B0EE007AF4EEC77AF1EE10FA61
:10472000B0EE047A05DBF4EEC77AF1EE10FA00F190
:10473000DD80F4EEC77AF1EE10FAB0EE087A05DB10
:10474000F4EEC77AF1EE10FA00F1D680F4EEC77AF3
:10475000F1EE10FAB1EE007A05DBF4EEC77AF1EE75
:1047600010FA00F1CC80F4EEC77AF1EE10FAB1EE57
:10477000047A05DBF4EEC77AF1EE10FA00F1C2809C
:10478000F4EEC77AF1EE10FA07DBB1EE087AF4EE38
:10479000C77AF1EE10FA00F1B880B1EE0C7AF4EEBF
:1047A000C77AF1EE10FAB2EE007A05DBF4EEC77AC2
:1047B000F1EE10FA00F1AC80F4EEC77AF1EE10FAE7
:1047C000B2EE027A05DBF4EEC77AF1EE10FA00F1F0
:1047D000A280F4EEC77AF1EE10FA07DBB2EE047AAB
:1047E000F4EEC77AF1EE10FA00F19880B2EE087A92
:1047F000F4EEC77AF1EE10FA06DBB2EE0C7AF4EEC4
:10480000C77AF1EE10FA61D4B3EE017AF4EEC77A0A
:10481000F1EE10FA06DBB3EE027AF4EEC77AF1EEAF
:1048200010FA60D4B3EE097AF4EEC77AF1EE10FA1A
:1048300006DBB3EE0A7AF4EEC77AF1EE10FA70D91D
:10484000B3EE0B7AF4EEC77AF1EE10FA06DB9FEDC9
:10485000407AF4EEC77AF1EE10FA74D9DFED3D7AC2
:104860009FED3D7A002A18BFF0EE477A65E015F813
:10487000016FA6F1140CBCF1020F2F7C0FD894ED40
:10488000007AF4EEC77AF1EE10FA03D50133DBB209
:10489000F0EE477A0D2F16D00131043433E7A7F13B
:1048A0000A0CBCF1020F0CD894ED007AB4EEE77A52
:1048B000F1EE10FA03DD0133DBB2F0EE477A182E89
:1048C000E9E7182EE6D10132D2B2E5E7DFED237A2F
:1048D0009AB39FED217AF4EEC77AF1EE10FA23D560
:1048E000F0EE477A29E0DFED1E7AF1E7DFED1D7A81
:1048F000D2B1DFED197A20E0DFED1B7AF8E7DFEDCA
:104900001B7AF5E7DFED1A7AF2E7DFED1A7AEFE7C7
:10491000DFED197AECE7DFED197AE9E7DFED187AD8
:10492000E6E7DFED187A42B19FED0A7AF4EE477AB6
:10493000F1EE10FA48BFF0EE477ABDE8F04017EE0E
:10494000900A04B07047DFED107AECE70000000039
:1049500000004C4295BFD6338BE16A36EFE608364D
:104960009F9D42362E5A823301A90C3437F85934B0
:104970002439EC3434580F35AD186335883E8A3508
:10498000ACC5A735B1B49D36F2DD1C3770B50D4608
:1049900016460446D0B9FFF71BFDAA480722214658
:1049A000FFF728FD002D40F0AA81012E00F09F8125
:1049B0000B2C1DD00C2C40F0F5800520FFF708FDD6
:1049C000A04807220521FFF715FD98E0012818D11E
:1049D0000220FFF7FDFC9B4807220221FFF70AFD9A
:1049E000002D76D1012E00F082810B2C40F0DA8070
:1049F0000320FFF7EDFC072203219248FFF7FAFCA2
:104A000096E002280ED10420FFF7E2FC07220421E1
:104A10008C48FFF7EFFC002D00F06681012D40F07F
:104A2000778155E1032805D10620FFF7D1FC072245
:104A30000621EDE7042805D10820FFF7C9FC07226D
:104A40000821E5E7052805D10A20FFF7C1FC072268
:104A50000A21DDE706280CD17B4B20225A60192061
:104A6000FFF7AEFC1920FFF7A3FC78480E221921AE
:104A7000B4E707281ED1744B20225A601B20FFF791
:104A80009FFC1B20FFF794FC0E221B216F48FFF7B1
:104A9000B1FC002D00F02881012D40F0D980012EBD
:104AA00000F019810C2C21D10520FFF791FC072281
:104AB0000521A2E7082840F0FD80634B20225A60C0
:104AC0001D20FFF77DFC1D20FFF772FC0E221D212B
:104AD000DCE70B2C1ED0012D40F01A81012E00F0D6
:104AE000FA800C2CE0D00D2C00F0C1800E2C50D0A0
:104AF0000F2C6FD0102C75D12EE0022D40D0032D3D
:104B000052D1012E59D00E2C70D00F2C62D0102C07
:104B100030D121E00320FFF75BFC4A480722032144
:104B2000FFF768FC022D2BD0032D03D1012E44D0BA
:104B3000002070BD042D00F0A480052DDAD1012ED7
:104B400040F0A3800720FFF743FC07223D481146B1
:104B5000FFF750FC102C5ED13B4B20225A601A20EC
:104B6000FFF72EFC1A20FFF723FC38480E221A21EB
:104B7000FFF740FC112C50D0072D5CD1012E88E0AE
:104B8000012ED5D169E0012E67D00D2C0FD00E2C4F
:104B9000BBD10920FFF71CFC2A4807220921FFF797
:104BA00029FCCAE70D2C62D00E2C68D1F1E70B204E
:104BB000FFF70EFC07220B211FE70B20FFF708FC75
:104BC000204807220B21FFF715FC8FE70E2CE0D0C1
:104BD0000F2CB2D10720FFF7FBFB07221948114623
:104BE000FFF708FC062DC5D1012E4FE00920FFF785
:104BF000EFFB0722092100E70920FFF7E9FB114835
:104C000007220921FFF7F6FB7FE70720FFF7E0FB0C
:104C100007221146F1E6112C0DD10B4B20225A60D0
:104C20001C20FFF7CDFB1C20FFF7C2FB07480E221C
:104C30001C21FFF7DFFB122C2FD0082D7FF478AF5B
:104C4000012E28E000C0042400003041000013467B
:104C5000022D7FF454AF012E99D10520FFF7B8FB48
:104C60002E4807220521FFF7C5FB0D2CAED10B20E6
:104C7000FFF7AEFB294807220B21FFF7BBFB042DF2
:104C8000A6D1012EB8D00F2CBFD0102C3FF464AFAA
:104C9000112CC2D0122C7FF44BAF214B20225A6032
:104CA0001E20FFF78DFB1E20FFF782FB1D480E2202
:104CB0001E21A3E60A287FF475AE0120FFF788FBCA
:104CC000164807220121FFF795FB012D7FF415AF50
:104CD000012E7FF42DAF0320FFF77AFB0F48072248
:104CE0000321FFF787FB65E6012E7FF421AF01204A
:104CF000FFF76EFB094807220121FFF77BFB0B2C16
:104D00003FF408AF012D3FF4E9AE0C2C3FF455AE53
:104D1000022D3FF438AF0D2CA9D0F0E600C00424DA
:104D2000000030410000134682B02DE9F0410F2908
:104D300006AC84E80C005FD8BDF82040BDF82250D6
:104D400044EA0503B3F5806F56D22E4B079E9DF8BB
:104D500024809DF825E043F8212001F1100701F19E
:104D6000400C43F8276001F15007B24223F81C4081
:104D700023F8175042D0B8F1000F17D001F13008D6
:104D800002EB4402C0F8D42143F8282044EAC122AF
:104D900042F40048C0F8D881D0F8D881C0F8D821B2
:104DA000D0F8D82143F82C8043F82720BEF1000F1B
:104DB0001DD001F1600204EB4504344443F8224065
:104DC000CA0202F580622A43C0F8D44142F400448A
:104DD000C0F8D84101F17004D0F8D85143F82450FC
:104DE0008031C0F8D821D0F8D82143F82120002004
:104DF000BDE8F04102B070470120F9E742F202102D
:104E0000F6E700BF381300000F2910B528D892B17B
:104E1000144A01F1300452F82440C0F8D44101F1A1
:104E2000400452F82440C0F8D84101F1500452F82F
:104E30002420C0F8D8218BB10A4B01F1600253F84D
:104E40002220C0F8D42101F17002803153F82220D1
:104E500053F82130C0F8D821C0F8D831002010BD57
:104E60000120FCE73813000010B5274B27485A688B
:104E70005A6842F001025A60D3F8082242F4806274
:104E8000C3F8082203F5B4331A68026852BBD3F89A
:104E9000402442F46752C3F840241D4AD2F802303D
:104EA000DC05FBD41B4BD3F80427D107FBD5D3F883
:104EB0000427D207FBD4D3F84824174C174B21689A
:104EC0001A60930803F4F8530B43910001F07C013E
:104ED00012020B4302F47832134343F08103236040
:104EE000012303600C4B1A680A4BC3F84424084A98
:104EF000D2F8023013F48073FAD1034A516863F395
:104F00000001516010BD00BF0038042408130000E8
:104F10000000052400A00524101300000C1300005D
:104F200084B070B52DED028B82B008AC84E80F0020
:104F3000444C6E9AA2610D9A43499DF8B531BDF873
:104F400014012377013A8A4278D20DA901229342B3
:104F500009D8012B6FD19DF8B43173B101280FD955
:104F600042F2061060E00E4651F8045F3668B54222
:104F700064D8002D62D00132E9E7B0F5806FEFD23E
:104F8000FFF746FA314B32485A689FED328A6FF389
:104F90008A225A60DA686FF31842DA60DA6804210C
:104FA00061F30902DA605A682B4942F480625A6060
:104FB000FEF752FF294B5B686360FFF755FF02F075
:104FC0004DFD208102F03EFD208202F04DFDC0F338
:104FD0000D0307EE103AB8EEC77A830BC7EE086AE6
:104FE00007EE903AF8EEE77A77EEA67AC4ED037A08
:104FF00002F02EFDC0F30D0307EE103AB8EEC77AAB
:10500000830BC7EE086A01A807EE903AF8EEE77A3C
:10501000002377EEA67A0193C4ED057A03F0C0FA77
:10502000003818BF0120404202B0BDEC028BBDE841
:10503000704004B07047013B0F2B90E742F2041020
:10504000F2E700BF18130000A02526000038042452
:105050003333334000007A44CDCC4C40C40D0000C3
:1050600084B010B52DED028B82B006AC84E80F0041
:105070009DF818300F2B7FD84249434C0B706C9928
:10508000A16106A901EB8301404849699DF8AD2162
:1050900022770139814271D2012A6AD106AA02EB34
:1050A00043039DF8AC21B3F8F43022B1012B05D9AC
:1050B00042F2061056E0B3F5806FF9D2FFF7A8F977
:1050C000334B34485A689FED348A6FF38A225A6012
:1050D000DA686FF31842DA60DA68042161F30902D2
:1050E000DA605A682D4942F480625A60FEF7B4FED5
:1050F000FFF7BAFE2A4B5B68636002F0AFFC2081C9
:1051000002F0A0FC208202F0AFFCC0F30D0307EE1A
:10511000103AB8EEC77A830BC7EE086A07EE903AEA
:10512000F8EEE77A77EEA67AC4ED037A02F090FC07
:10513000C0F30D0307EE103AB8EEC77A830BC7EE43
:10514000086A01A807EE903AF8EEE77A002377EEB6
:10515000A67A0193C4ED057A03F022FA003818BF4D
:105160000120404202B0BDEC028BBDE8104004B00B
:105170007047013A0F2A9AE70120F3E742F2041040
:10518000F0E700BF1413000018130000A02526004C
:10519000003804243333334000007A44CDCC4C40F3
:1051A000C40D00000F29024610B54FF001000CD8C5
:1051B000D2F8CC4100FA01F32343D2F8CC119BB2D0
:1051C00063F30F01C2F8CC11002010BD0F29024675
:1051D00010B54FF001000DD8D2F8CC4100FA01F320
:1051E00043EA1443D2F8CC119BB263F31F41C2F8D7
:1051F000CC11002010BD30B50F299DF80C402CD8E3
:105200001F2A2AD80F2B28D8012C26D845686D06CE
:105210000FD5090134B14518AC6B44EA835343F010
:105220008063AB6301448B6B43EA42438B63002092
:1052300030BD5CB1D0F8081241F40071C0F808121A
:10524000D0F8081263F34811C0F80812D0F80832F9
:1052500062F30403C0F80832E9E70120E8E7000040
:1052600029B9D0F8083261F3CB23C0F80832064BD5
:105270005B68DB0741BF43686FF3000343600020B6
:1052800058BF4FF0FF30704700380424C1B20248C5
:1052900082B002B0FFF7E4BF003804240F2915D80C
:1052A0000D4B5A68520603D4D3F8DC31002B0FDAC9
:1052B000D0F8DC2101238B401343D0F8DC219BB2D2
:1052C00063F30F02C0F8DC21002070470120704713
:1052D0004FF40450704700BF00380424B1F5007F3C
:1052E00014D2B2F5806F11D243686FF38A23436002
:1052F000C36861F31843C360C36862F30903C36002
:10530000436843F480634360002070470120704786
:105310000F2925D8012A05D1436A6FF3D753436279
:1053200000207047022A0BD1436A6FF300034362E7
:10533000436A6FF304134362436A6FF3C303EEE7F8
:10534000084BD3F8DC31002BEADA436A0122C3F3BD
:10535000CF138A4023EA0201436A61F3D613DEE7E2
:1053600001207047003804240F2903464FF0010044
:1053700014D81A6A00FA01F189B2186AC2F30F222E
:105380000A4362F3172018621A6AC2F30F2222EA54
:105390000102196A62F317211962002070470000A8
:1053A00010B510B1012804D010BDBDE81040FFF7C2
:1053B0002FB84FF4006002F051FA0A4A13786FF3E5
:1053C00000031370DBB2002BEED1074B07484FF000
:1053D00000729A64064B1B6ABDE81040DB6B022129
:1053E000184700BF68160000008404240014042439
:1053F0000001300013B50D4BADF804004FF400620E
:10540000C3F88020BFF34F8FBFF36F8F03220121BA
:10541000002003F099F9044628B90120FFF7C0FFE6
:10542000204602B010BD4FF0FF30FAE700E100E087
:105430004368064A61F349234360D2F8403443EAA3
:105440004143C2F840340020704700BF00A005244B
:1054500084B02DE9F04F2DED028BF1B07CAC84E8E7
:105460000F009DF8853365934FF4C47201237FA923
:1054700068466993DDF804829DF8845306F080F94C
:1054800094E80E006598B74CFFF730F908EE100A63
:10549000FFF714F9D4F804A007EE900A07EE10AA5B
:1054A000F8EE677AF8EE476AB7EE007AC7EE268A1A
:1054B000C7EE276AC6EEA87A17EE900A04F09AFEA5
:1054C00008F06EF805F088F9C8EE287A86B217EE73
:1054D000900A04F08FFE08F063F805F07DF987B2BA
:1054E000BE4204BF0136B6B2002D5ED1BDF8843392
:1054F00027804FF4C27280A9684666809A4CADF846
:10550000843106F03DF97CAB0FCBFFF727F8FEF7AF
:10551000BBFF324639462046FFF7E0FE0121204618
:10552000FFF786FF6368914EDFF8389243F000631F
:105530006360636843F040036360636865F341033D
:1055400063603323C4F8E431636843F004036360A9
:10555000D4F8DC3143F00043C4F8DC310DF2E2232F
:10556000669306F18103A8AF06F13E0B67930DF534
:10557000F878659AEBB29A4200F289807C4B6A9384
:1055800000227C4B6B9369A9104603F041F810B1DF
:10559000452840F0E38069996AAA002003F0A6F844
:1055A000003818BF0120404265E0304604F010FE8C
:1055B000BAFBF8FA80465046894604F0F9FD0246E7
:1055C0000B464046494605F0DFF800285AD12780AF
:1055D0006680324639466448FFF780FE0121624802
:1055E000FFF726FF604B5A6842F000625A605A6823
:1055F0006FF386125A606A1E012A5A684FF0000142
:1056000094BF42F0020265F341025A60C3F8E4110C
:105610005A6842F004025A60D3F8DC2161F3DF7269
:10562000C3F8DC219DF8F1219DF844029DF8541245
:105630005AB1D3F8086262F34926C3F80862D3F876
:10564000086261F34816C3F80862474ED6F808327C
:1056500060F30403C6F80832FFF798F92A460021E0
:105660003046FFF755FE62886368B3FBF2F3424AA7
:105670000020C2F8803271B0BDEC028BBDE8F04F63
:1056800004B070471FFA8AF227806280A2E798F878
:1056900054A098F86430649318F8013F6393009322
:1056A00052462946649B2046FFF7A5FD36F8021FA7
:1056B000328C012A08D0AB0003F1105303F5872385
:1056C000A3F83811C3F8782129462046FFF7E6FDF4
:1056D000DDE963215046FFF759F929462046FFF7D7
:1056E00075FD7B6E6C93D7F8A4306D93669B33F891
:1056F00002AF669340F20113ADF8BC31ADF8B8A12A
:10570000ADF8BAA170AB13E90300DDE96C238DE8B5
:10571000030029462046FFF707FB29462046FFF7EE
:1057200041FD002229462046FFF7F2FDB9F802208C
:10573000D9F80430B3FBF2F3328CB3FBF2F34BF83D
:10574000043F57F8043FA6F8D0A0CBF85030679B31
:10575000639A03F8012F013567930AE74FF0FF3092
:1057600089E700BF181300000038042476150000F4
:10577000E1532008F15320083813000084B02DE9CC
:10578000F04F2DED028BEDB078AC84E80F009DF862
:10579000E0819DF874739DF875930120B8F10F0FA7
:1057A000659000F20581DFF85CA3D14E8AF8008095
:1057B0004FF4C4727BA9684605F0E2FF94E80E003E
:1057C0004846FEF793FF08EE100AFEF777FF74686D
:1057D00007EE900A07EE104AF8EE677AF8EE476A8D
:1057E000B7EE007AC7EE268AC7EE276AC6EEA87A19
:1057F00017EE900A04F0FEFC07F0D2FE04F0ECFF76
:10580000C8EE287A85B217EE900A04F0F3FC07F090
:10581000C7FE04F0E1FF1FFA80FB5D4504BF0135C0
:10582000ADB2002F51D1BDF87433B24C75804FF436
:10583000C2727CA96846A6F800B0ADF8843105F0C4
:105840009FFF78AB0FCBFEF789FEFEF71DFE2A46C1
:1058500059462046FFF742FD01212046FFF7E8FDAB
:105860006368A54D43F000636360636843F04003E1
:105870006360636867F3410363603323C4F8E43112
:10588000636843F004036360D4F8DC3143F0004301
:10589000C4F8DC31FBB2994500F29680974B6693D1
:1058A0000022974B679365A9104602F0B1FE10B134
:1058B000452840F01A81659966AA002002F016FF7B
:1058C000003818BF0120404272E078AB03EB880833
:1058D0002846D8F81430B4FBF3F404F079FC804681
:1058E0002046894604F064FC02460B464046494681
:1058F00004F04AFF002862D1A6F800B075802A465D
:1059000059467C48FFF7EAFC01217A48FFF790FDF1
:10591000784B5A6842F000625A605A686FF38612F8
:105920005A607A1E012A5A684FF0000194BF42F073
:10593000020267F341025A60C3F8E4115A6842F068
:1059400004025A60D3F8DC2161F3DF72C3F8DC2172
:105950009AF8002002F5F0726A4492F8540092F826
:10596000641052785AB1D3F8084262F34924C3F85C
:105970000842D3F8084261F34814C3F808425D4D69
:10598000D5F8083260F30403C5F80832FEF7FEFFCD
:105990009AF800403A4621462846FFF7B9FCA03461
:1059A00072887368B3FBF2F3534A42F82430002044
:1059B0006DB0BDEC028BBDE8F04F04B07047A2B2F1
:1059C000A6F800B072809BE79AF80010639101F589
:1059D000F0736B44204693F8642093F8548093F856
:1059E00001B062921346CDF800B04246FFF703FCC7
:1059F000639901F5907335F8130001F5987335F844
:105A00001320012A08D08B0003F1105303F58723DC
:105A1000A3F83801C3F878212046FFF73FFC5A4627
:105A200062994046FEF7B2FF9AF800802046414650
:105A3000FFF7CCFB78AB03EB88030137D3F81431C5
:105A4000689378AB03EB8803D3F85431699378AB50
:105A500003EB4803B3F8F430ADF8A831ADF8AA3140
:105A600040F20113ADF8AC316CAB13E90300DDE992
:105A700068238DE8030041462046FFF755F99AF860
:105A8000008020464146FFF78DFB4146002220461C
:105A9000FFF73EFC08F1A00271887368B3FBF1F3D5
:105AA00008F5987135F81110B3FBF1F345F8223081
:105AB00078AA02EB480208F5C473B2F8F42025F87E
:105AC000132078AA02EB880208F1B403D2F8B420BC
:105AD00045F8232008F5F07205EB08030DEB0208EA
:105AE00098F8012083F8C022D4E64FF0FF305FE73A
:105AF000181300000038042438130000E153200874
:105B0000F153200814130000D0F8E03143F00103F2
:105B1000C0F8E031002070472DE9F341374B9A6A15
:105B20000192019A16020DD5426A1502C2F3C050C5
:105B300008D45A6A42F400025A62314B9B6904212C
:105B4000984718E0019BDC0709D52C4A136A43F0FB
:105B5000010313622A4B05219B690020F0E7019C99
:105B600014F080740BD02548012100F095F8254BE6
:105B700002201B689847002002B0BDE8F0811F4B4F
:105B80005A68500603D4D3F8DC21002A25DA1E4DCA
:105B90001A4FDFF86C80019BE21DD340D90716D560
:105BA00021463846FFF7E0FB2B78E6B2B3FA83F2E2
:105BB000520931463846FFF727F9D8F81830002146
:105BC000304698472B78B3FA83F35B092B70013486
:105BD000102C05F10105DED1CDE75A689207CAD431
:105BE000D3F8DC11C90FC6D15A6842F004025A60DA
:105BF0000198034BC0B29B69A2E700BF00380424A0
:105C0000181300006C160000F81200000148FFF79E
:105C100083BF00BF00380424030548BF20F40060A0
:105C2000174B58BF40F40060D1B11A8A93ED057A42
:105C3000821A07EE902AF8EEE77A67EE877AFDEE91
:105C4000E77A17EE903A18B2B0F5805F11DA0028C3
:105C500012DDB0F5006F10DBA0F5006000B27047F8
:105C60001A8993ED037A821A07EE902AF8EEE77A02
:105C7000E3E740F6FF70EFE7002000F50060EDE796
:105C800018130000406921B11146C0F30B00FFF763
:105C9000C3BFC0F30B007047436A01291DBF43F027
:105CA00002034362436A43F0807318BF43F0040366
:105CB0004362002070472DE9F04F92F806C092F839
:105CC00002A05378D5781679577992F807E092F8C0
:105CD000088092F8099092F80AB0D47A127802B348
:105CE0005B0643EA4B7343EA8A5343EA495343EA68
:105CF000085343EA4E4343EA0C4343EA473309015E
:105D0000026843EAC62301F1105143EA852301F5F5
:105D1000872142F0004243EA44230260CB63BDE89E
:105D2000F08F02686CF3C712026002686AF34F32A8
:105D30000260026863F313420260036865F3410383
:105D40000360036866F383030360036867F3061365
:105D5000036003686EF30A230360036868F3CB23D0
:105D60000360036869F30C33036003686BF3145337
:105D70000360036864F300030360D0E7054B9A688F
:105D80009107FCD45A689207F9D4DA69002AF6D14F
:105D9000704700BF008C0424064B1A6A61F39742D7
:105DA0001A621A6A60F34C221A621A6A9204FCD5CB
:105DB000704700BF00800424024B0122C3F8042175
:105DC000704700BF008C0424074B5A68012A0AD18F
:105DD00002221A61DA699207FCD40122C3F8042274
:105DE0009A60FFF7CBBF7047008C042410B5064CB7
:105DF000FFF7C4FF6368012B03D1FFF7E5FFFFF74F
:105E0000BDFF0378E36010BD008C042410B10128AD
:105E10001CD070474A680B7812B1127843EAC2036B
:105E20004A7843EA42038A6812B1127843EA82133D
:105E30008A7843EA8203CA6812B1127843EA42239D
:105E4000104A9364936D002BFCD170474A680B781D
:105E500012B1127843EAC2034A7843EA42038A68DD
:105E600012B1127843EA82138A7843EA8203CA683D
:105E700012B1127843EA4223024A9366936F002BD1
:105E8000FCD17047008C042410B1012804D0704765
:105E9000034BC3F844117047014BC3F864117047BA
:105EA000008C042410B1012804D07047034BC3F8C0
:105EB00044127047014BC3F864127047008C0424ED
:105EC00010B1012804D07047034BC3F8401270474B
:105ED000014BC3F860127047008C042418B10128EC
:105EE00004D000207047034B186C7047014B186EAC
:105EF000704700BF008C042418B101280BD000208B
:105F0000704711B1012903D07047074BD86C704717
:105F1000054B186D704721B10129F0D1024B186F64
:105F20007047014BD86E7047008C042410B10128D3
:105F30000CD070470B4B29B1012905D09A6D002A6E
:105F4000FCD17047DA64F9E71A65F7E7054B29B128
:105F5000012905D09A6F002AFCD17047DA66F9E76B
:105F60001A67F7E7008C0424044B4FF480625A60F0
:105F7000034B4FF480021A60704700BF0000081204
:105F800000E100E0094B4FF48002C3F88020BFF32A
:105F90004F8FBFF36F8F064B4FF480629A601A6089
:105FA000044AD36B43F48063D363704700E100E09D
:105FB000000008120081042410B4034C2468646CAF
:105FC000A4465DF8044B604700013000024B1B689B
:105FD0000121D3F8F030184700013000034B1B6853
:105FE0000A469B6C01460248184700BF000130007A
:105FF00000140424014BDB685B6918470001300082
:106000008A1E70B543680D46052A04D8DFE802F001
:106010001B1D4C4E50528469B3F1884F5CD163789C
:106020003F2B19D9554B60781B684038D3F8E830BE
:10603000C0B2984762785248403A0623D2B2002153
:10604000FFF7BAFF08E0C469E6E7B3F1884F046AD6
:1060500032D160783F283AD8E07820B1474B1B68AE
:10606000D3F8C03098476078A0F11903052B04D805
:10607000424B1B68D3F8B8309847032D06D13F4BED
:1060800060781B680121D3F8D43098473B4B607887
:106090001B68D3F8C8309847A378627821783948CC
:1060A000BDE87040FFF788BF446AB5E7846AB3E78C
:1060B000C46AB1E7046BAFE7334A9342C9D0334AAD
:1060C00093420DD160783F28C6D9032DAAD140381C
:1060D000C0B2FFF77BFFA5E72B4A9342EFD19EE7C3
:1060E0002B4A934248D1002C46D062783F2A14D9DB
:1060F000032D03D1403AD0B2FFF768FF1F4B607801
:106100001B684038D3F8E830C0B298476278A3786B
:1061100021781B48403AD2B2C2E71A4821780923B5
:10612000FFF74AFFE07820B1144B1B68D3F8C0306A
:106130009847032D02D16078FFF748FF0F4B607836
:106140001B68D3F8C830984721780D48627800233F
:10615000FFF732FF6078A178A0F12E03032B02D85D
:106160002638C0B202E00F2804D10720BDE87040F5
:10617000FFF734BF0638F4E770BD00BF0001300000
:1061800000C0042400001346000100440000024542
:1061900000180424F0B5436885B00024B3F1884F9B
:1061A00001940546029403940BD0774A934208D099
:1061B000764A934200F0D180754C181B444244410A
:1061C00064009A680192019A02F00602062A4FEAD8
:1061D00084742CD15B690293029B990710D56A697C
:1061E00013686BB101215171202098476B6993F8B6
:1061F0002820032A04D193F826300BB144F0100470
:10620000029B5A0707D56A69136823B101211172ED
:106210004FF400709847029B1B0740F1A0806A6909
:10622000136823B10121D1714FF480709847019B0D
:106230009E071DD56B691E6910201A6A696896420F
:1062400009D09F690138BF5C0F6002F101021A6238
:10625000F3D196420CD14A6822F002024A60002231
:1062600083F826201B681BB144F0010420469847A0
:10627000019B580738D56B691A68002A34D06A68C0
:106280005169C90725D511685A69DB69D1546B6911
:10629000DA69D96801328A42DA611AD169684A68D2
:1062A00022F001024A6093F82820023A0021012AD4
:1062B000197164D893F8272083F82710022A5ED03A
:1062C000032A59D0012A01D144F001041B68204659
:1062D00098476B691A683AB1D969DB68994203D06B
:1062E00044F0400420469047019B1A074AD16B684E
:1062F0009B6903936B78DB0608D5039BDF0705D505
:106300006B6944F480641B68204698476B785E068E
:1063100008D5039B980705D56B6944F400641B6896
:1063200020469847AB78D90708D5039B5A0705D56F
:106330006B6944F400541B682046984795F9013076
:10634000002B1FDA039B1B071CD56B691B6844F4E9
:10635000805005B0BDE8F0401847012431E7029BAA
:10636000DF067FF564AF6A691368002B3FF45FAF07
:1063700001219171802059E744F00404A6E744F01C
:106380000204A3E705B0F0BD00010044000002458F
:106390000018042430B504460AB3B0F5E10F1ED846
:1063A00053688025DD608900B1FBF0F1D3F8C000AF
:1063B0006FF30500C3F8C000002018605860D86073
:1063C000DD60C1F387151D60C1F3873501F03F0122
:1063D0005D60C3F8C010D8605369DC6230BD40F224
:1063E0000160FBE72DE9F7434E69DDF8289096F848
:1063F000295015F001050C46174698466ED1C6E99E
:106400000005357286F8265086F824504B68B3F1A3
:10641000884F02D0354A934212D1354B10229A60F0
:10642000344BA26BDB69019294F834200092D3F8CC
:10643000A45094F83C20002301214FF08C40A84741
:1064400062682D4B9A4215D103F15F4303F5213366
:1064500010229A60274BA26BDB69019294F83420DA
:106460000092D3F8A45094F83C20012319464FF031
:106470008C40A8476268214B9A4210D103F5D8435B
:106480004FF400125A641B4B228F1B6A0092DD6985
:1064900094F83C2094F8353019480121A847E36866
:1064A0000BB92369B3B16568B5F1884F08D00F4BBC
:1064B0009D4205D0104B9D4202D0104B9D4211D100
:1064C0000C4BDB684A461D680B9B41463846A84783
:1064D000C9F800006369012283F82920002003B075
:1064E000BDE8F0834FF0FF30F9E700BF0001004442
:1064F0000084042400013000000002450018042438
:106500000014042438B54368B3F1884F04460D469F
:1065100002D01F4A934207D11E4BDB690021D3F8FA
:10652000E8304FF08C40984762681B4B9A4207D185
:10653000184BDB690121D3F8E8304FF08C409847C5
:106540006268164B9A4205D1124B15481B6A082106
:10655000DB6B9847E3680BB923698BB16368B3F1D0
:10656000884F08D00A4A934205D00B4A934202D082
:106570000A4A934209D1074BDB6828465B68984773
:106580006369002083F8290038BD4FF0FF30FBE736
:1065900000010044000130000000024500180424FE
:1065A0000014042470B50C4615461E4620B102287E
:1065B00072D06FF0030070BD91F9080000280CDB69
:1065C0004309474900F01F0020330122824041F86F
:1065D0002320BFF34F8FBFF36F8FE068626963685A
:1065E000B0B192F826209AB1B3F1884F0BD03D4A52
:1065F000934208D03C4A934205D03C4A934202D091
:106600004FF0FF30D7E7007932462946FFF7F2FC1A
:10661000D4E90402636890B1127982B1B3F1884F72
:1066200008D0304A934205D02F4A934202D02F4AD5
:106630009342E5D1007932462946FFF7DBFC6368D7
:106640002B4AB3F1884F05D026498B4202D0264908
:106650008B421DD11023D36094F90830002B09DB45
:106660005A09012103F01F03994002F160031C4AFB
:1066700042F82310636900225A601A7283F82620B8
:1066800093F8292022F0020283F82920002092E7C3
:106690004FF400139364DFE74A6992F82930D90771
:1066A000AED513F00203F1D161684B6053601372F1
:1066B00082F826304FF44073138594F90830002B8C
:1066C000E4DB03F01F015B099B0003F1604303F56A
:1066D000614301228A40C3F880211A60D6E700BFD7
:1066E00000E100E00001004400000245001804241D
:1066F000008404242DE9F04F8FB00DF11C0A0646EA
:106700000D46904600211C225046DDF864901F463D
:1067100004F083FF002E00F08D80002D00F08A80B1
:10672000D8F8142092F82930580704D44FF0FF30DD
:106730000FB0BDE8F08F92F82630002B7DD10124F8
:1067400082F82640D8F80CE013629661D8F804303D
:106750001561BEF1000F59D0B3F1884F099450D0A4
:10676000374A93424DD0374A93424CD0364A9342EF
:10677000DCD122460324CDE90C4201210B91DEF845
:106780000000DEF808C007919EF80410BEF800E093
:10679000CEF3091E6EF30D1000F0070BBBF1020FD4
:1067A00001BFBA6894686BF302049460274C0EF141
:1067B00001029542E26838BF05F1FF3ED2F808B009
:1067C000189ACDF8149038BFCEF3090E6EF30D1061
:1067D000CDE903C2CDE9010A009532463846D847D3
:1067E0000130A3D0D8F80C00E3680079DB683946A3
:1067F0004A469847E36849461B693846984700204F
:1068000096E71922B7E71B220224B4E759698906E3
:106810000ED45A6842F002025A60F0E74C1C14622F
:10682000715C19600138F4D0116AA942F6D1F0E721
:106830001020F9E76FF004007AE76FF0010077E7C6
:10684000000100440000024500180424000130004B
:106850002DE9F04F8FB0984607AB81460F4618469A
:10686000164600211C22DDF864A004F0D6FE034683
:10687000B9F1000F7BD0002F79D0726992F82910FE
:10688000490704D44FF0FF300FB0BDE8F08F117905
:1068900001296FD000250124546015723069D7603A
:1068A000C2F81490D561726800285BD0B2F1884FAD
:1068B000CDE9085451D031498A424ED030498A42FC
:1068C0004DD030498A42DDD10324B0F800B0D0F871
:1068D00000C0D0F808E0CBF3091BCDE90C456BF301
:1068E0000D1C01210B9107910CF007050021022DD1
:1068F0000A91017901BFD8F80800846865F30204A1
:106900008460214C0BF101008742E06838BF07F139
:10691000FF3B85681898CDF814A038BFCBF3090B5E
:106920006BF30D1CCDE903E0CDE901C300974B46A5
:106930004046A8470130A5D03069E3680079DB689C
:1069400052464146984796F8403023B9E36851468D
:106950001B6940469847002096E71825B5E71A2599
:106960000224B2E7536843F001035360F3E76FF08A
:10697000040089E76FF0010086E700BF00010044D2
:106980000000024500180424000130002DE9F347FF
:106990000746DDE90AA8DDF83090084616461D4690
:1069A0001FB311B30AB35B6993F82920520723D5AB
:1069B00095F84040F4B12A7812F0060F1CD003225B
:1069C00083F827203146CDE9008953462A46FFF750
:1069D0003FFF60B953462A4631463846CDE90A8919
:1069E00002B0BDE8F047FFF785BE6FF0040002B0CB
:1069F000BDE8F0872046FAE74FF0FF30F7E743693C
:106A0000186A70474369D869704700002DE9F0475C
:106A10001C465B69924693F8292080469007DDE981
:106A20000867894640F120825FFA88F5A5F11501D3
:106A3000052900F2D680DFE801F0031929426C94A1
:106A4000B9F1000F0DD002212046FFF7D9FA626993
